:100000000C94601D0C94811D0C94811D0C94811D19
:100010000C94811D0C94811D0C94811D0C94811DE8
:100020000C94811D0C94811D0C94811D0C94811DD8
:100030000C94811D0C9479230C94811D0C94811DCA
:100040000C94811D0C94811D0C94811D0C94811DB8
:100050000C94811D0C94DC1D0C94811D0C94B21D1C
:100060000C94811D0C943F2D0C94C22C0C94811D7A
:100070000C94811D0C94811D0C94811D0C94811D88
:100080000C94811D0C94811D0C94811D0C94811D78
:100090000C94854B0C947B4B0C94811D0C94AA2AD8
:1000A0000C94811D0C94811D0C94811D0C94811D58
:1000B0000C94811D0C94811D0C94811D0C94811D48
:1000C0000C94811D0C94811D0C94811D0C94392578
:1000D0000C94FC220C9406230C947E420C947442E3
:1000E0000C94811DFFFFFFFFFFFFFFFFFFFFFFFFDE
:1000F000FFFFFFFFFFFFFFFFFFFFFFFFFFFFFFFF10
:10010000FFFFFFFFFFFFFFFFFFFFFFFFFFFFFFFFFF
:10011000FFFFFFFFFFFFFFFFFFFFFFFFFFFFFFFFEF
:10012000FFFFFFFFFFFFFFFFFFFFFFFFFFFFFFFFDF
:10013000FFFFFFFFFFFFFFFFFFFFFFFFFFFFFFFFCF
:10014000FFFFFFFFFFFFFFFFFFFFFFFFFFFFFFFFBF
:10015000FFFFFFFFFFFFFFFFFFFFFFFFFFFFFFFFAF
:10016000FFFFFFFFFFFFFFFFFFFFFFFFFFFFFFFF9F
:10017000FFFFFFFFFFFFFFFFFFFFFFFFFFFFFFFF8F
:10018000FFFFFFFFFFFFFFFFFFFFFFFFFFFFFFFF7F
:10019000FFFFFFFFFFFFFFFFFFFFFFFFFFFFFFFF6F
:1001A000FFFFFFFFFFFFFFFFFFFFFFFFFFFFFFFF5F
:1001B000FFFFFF7F7F7F7F7F7FFFFFFFFFFFFFFF4F
:1001C000FFFFFFFF7F7F7F7F7F7F7F7FFFFFFFFF3F
:1001D000FFFFFFFFFFFFFF7F7F7F7F7F7F7FFFFFAF
:1001E000FFFFFFFFFFFFFFFFFFFF7F3F1F1F0F8F7F
:1001F0008F8F0F0F1F1F7FFFFFFF3F0F0F0F0F0F7F
:100200009F8F8F0F0F0F1F3FFFFFFF7F3F1F1F0F9E
:100210008F8F8F0F0F0F1F3FFFFFFF3F0F0F0F0F2E
:100220000F9F8F0F0F0F0F0F1FFFFFFFFFFFFF3FEE
:100230000F070180E00000000007FFFFFFFFFF87BE
:1002400001000000183C3C3C7C7C78F8F0F8FF7F13
:100250000F070301C0F0F8F8FCFCFCFCF8F0E0F834
:10026000FFFFFFFFFFFFFFFFFFC1000000003E3F59
:100270003F0F000080C0F0FF7F0700000000383F04
:100280003F1F0F000080C0F8FFFFC1800000001971
:1002900039393938381898F8FF7F0300000080F8A2
:1002A000FFFF3F0300000080FCFF3F1F070100C06D
:1002B000E0E0E3E3E3E0000000000FFFFF1F070FB3
:1002C0001F1E3E3E3C3C3C1800000080E1FFFFE06A
:1002D000800000000F1F3F3F3F3F1F1F0FE7FFFF42
:1002E000FFFFFFFFFFFFFFFFEFEBEBEBEAEAEAEABE
:1002F000EAEAEBEBEBFBFFCFC0C0C0C0F0FFEEEAD9
:10030000EAEAEAEBEBEBEBEBEBEBEBEBEBEAEAEA43
:10031000EAEAEAEAEAEBEBEBEBEAEAEAEAEAEBEB37
:10032000EBEBEAEAEAEAEAEBEBEAEAEAEAEAEBEB27
:10033000EBEBEBEBEBEBEAEAEAEAEAEBEBEBEBEB12
:10034000EAEAEAEAEAEAEAEAEBEBEBEBEBEBEBEB05
:10035000EBEBEBEAEAEAEAEAEAEAEBEBFBFFFFFFA8
:10036000FFFFFFFFFFFFFFFFFFFFFFFFFFFFFFFF9D
:10037000FFFFFFFFFFFFFFFFFFFFFFFFFFFFFFFF8D
:10038000FFFFFFFFFF3F31E0E6CE0E18F93FC7F851
:10039000F083CFF73B05C0F8FF7D3C9ECEE6F0F939
:1003A000FFFF00007F9FE7FB00003FCFE3F8FC3F2B
:1003B000C7F8F083CFF73B05C0F8FF00007F1FC7E9
:1003C000E3F8FCFFFFFFFFFFFFFFFFFFFFFFFFFF63
:1003D000FFFFFFFFFFFFFFFFFFFFFFFFFFFFFFFF2D
:1003E000FFFFFFFFFFFFFFFFFFFFFFFFFFFFFFFF1D
:1003F000FFFFFFFFFFFFFFFFFFFFFFFFFFFFFFFF0D
:10040000FFFFFFFFFFFFFEFEFEFEFEFFFFFEFFFF02
:10041000FFFFFFFFFEFEFFFFFEFEFEFEFEFEFEFFF5
:10042000FFFFFEFEFFFFFFFFFEFEFFFFFFFFFFFEE1
:10043000FFFFFFFFFFFFFEFEFFFFFFFEFEFEFFFFD1
:10044000FFFFFFFFFFFFFFFFFFFFFFFFFFFFFFFFBC
:10045000FFFFFFFFFFFFFFFFFFFFFFFFFFFFFFFFAC
:10046000FFFFFFFFFFFFFFFFFFFFFFFFFFFFFFFF9C
:10047000FFFFFFFFFFFFFFFFFFFFFFFFFFFFFFFF8C
:10048000FFFFFFFFFFFFFFFFFFFFFFFFFFFFFFFF7C
:10049000FFFFFFFFFFFFFFFFFFFFFFFFFFFFFFFF6C
:1004A000FFFFFFFFFFFFFFFFFFFFFFFFFFFFFFFF5C
:1004B000FFFFFFFFFFFFFFFFFFFFFFFFFFFFFFFF4C
:1004C000FFFFFFFFFFFFFFFFFFFFFFFFFFFFFFFF3C
:1004D000FFFFFFFFFFFFFFFFFFFFFFFFFFFFFFFF2C
:1004E000FFFFFFFF00000000000000008080800090
:1004F000800000A0A00000000000147E28FC500036
:100500004060804020C0400064A8D62A4C000060B3
:100510009040986000008080000000004080808053
:1005200080804080404040404080005020F8205073
:1005300000002020F8202000000000004040800043
:100540000000E000000000000000008000202040CB
:1005500040808000006090909060000040C040406B
:1005600040000060902040F000006090209060000B
:10057000002060A0F0200000E080E020C00000200B
:1005800040E090600000E02040404000006090604B
:1005900090600000609070204000000080000080AB
:1005A00000000040004040800020408040200000CB
:1005B00000F000F000000080402040800000C020DB
:1005C0004000400038449AAAB440300020205070C7
:1005D000880000E090E090E0000060908090600073
:1005E00000E0909090E00000E080E080E00000E01B
:1005F00080E0808000007080B0907000009090F0EB
:10060000909000008080808080000010101090602A
:10061000000090A0C0A090000080808080E00000DA
:1006200088D8A88888000088C8A8988800006090AA
:100630009090600000E090E08080000060909090DA
:10064000601000E090E0A090000060804020C000BA
:1006500000E0404040400000909090906000008892
:100660005050202000008254542828000088502038
:100670005088000088502020200000E0204080E0CA
:1006800000C08080808080C080804040202000C0EA
:100690004040404040C00020508800000000000062
:1006A000000000F800804000000000000070909002
:1006B00070000080E09090E00000006080806000AA
:1006C00000107090907000000060A0C0600000609A
:1006D00080C0808000007090907010600080E0907A
:1006E000909000800080808080004000404040402A
:1006F00080008090E0A090000080808080800000DA
:1007000000F0A8A8A8000000E09090900000006011
:100710009090600000E09090E08080007090907079
:1007200010100000A0C0808000000060C020C00049
:100730000080C08080400000009090907000000019
:10074000A0A04040000000A8A85050000000A04019
:1007500040A0000000A0A04080800000E04080E0B9
:100760000020404080404020808080808080008049
:1007700040402040408000649800000000000000DD
:100780000000000000000000000000000080008069
:1007900000800080000000800000000000A000A099
:1007A0000000000000000000000000000000001435
:1007B000007E002800FC00500000000000200070B7
:1007C00000800060001000E000200000006400A82D
:1007D00000D0002C00540098000000000060009041
:1007E0000040009800900060000000000080008041
:1007F0000000000000000000000000000020004099
:1008000000800080008000800040002000800040C8
:100810000020002000200020004000800050002028
:1008200000F8002000500000000000000000002040
:10083000002000F800200020000000000000000060
:1008400000000000000000400040008000000000A8
:10085000000000F8000000000000000000000000A0
:1008600000000000000000800000000000200020C8
:100870000040004000800080000000000060009008
:10088000009000900090006000000000004000C058
:100890000040004000400040000000000060009068
:1008A00000100020004000F00000000000600090F8
:1008B0000020001000900060000000000020006098
:1008C00000A000F0002000200000000000F00080E8
:1008D00000E00010009000600000000000200040D8
:1008E00000E00090009000600000000000F00010A8
:1008F0000020004000400040000000000060009028
:100900000060009000900060000000000060009017
:100910000090007000200040000000000000000077
:1009200000800000000000800000000000000000C7
:100930000040000000000040004000800000002057
:100940000040008000400020000000000000000087
:1009500000F00000000000F0000000000000008037
:1009600000400020004000800000000000C0002087
:10097000004000400000004000000000003C004239
:10098000009A00AA00B400400038000000200020B7
:1009900000500070008800880000000000E0009017
:1009A00000E00090009000E0000000000060009077
:1009B00000800080009000600000000000E00090D7
:1009C00000900090009000E00000000000E0008037
:1009D00000E00080008000E00000000000E00080F7
:1009E00000E00080008000800000000000600090B7
:1009F000008000B0009000600000000000900090B7
:100A000000F0009000900090000000000080008046
:100A100000800080008000800000000000100010B6
:100A2000001000100090006000000000009000A086
:100A300000C000C000A00090000000000080008006
:100A400000800080008000E000000000008800D8E6
:100A500000A800880088008800000000009000D0F6
:100A600000D000B000B000900000000000600090D6
:100A700000900090009000600000000000E00090F6
:100A8000009000E000800080000000000060009006
:100A900000900090009000600010000000E00090C6
:100AA000009000E000A000900000000000600090B6
:100AB00000400020009000600000000000F80020CE
:100AC0000020002000200020000000000090009086
:100AD00000900090009000600000000000880088F6
:100AE0000050005000200020000000000088808896
:100AF00080550055002200220000000000880050B0
:100B000000200020005000880000000000880050F5
:100B100000200020002000200000000000F0001055
:100B200000200040008000F00000000000C00080B5
:100B3000008000800080008000C0000000800080F5
:100B400000400040002000200010001000C00040C5
:100B5000004000400040004000C00000004000A0F5
:100B60000000000000000000000000000000000085
:100B7000000000000000000000FC000000800040B9
:100B80000000000000000000000000000000000065
:100B90000070009000900070000000000080008055
:100BA00000E00090009000E0000000000000000065
:100BB0000060008000800060000000000010001055
:100BC0000070009000900070000000000000000025
:100BD000006000B000800060000000000060008045
:100BE00000C00080008000800000000000000000C5
:100BF0000070009000900070001000600080008085
:100C000000E00090009000900000000000800000D4
:100C10000080008000800080000000000040000094
:100C20000040004000400040004000800080008004
:100C3000009000E000A00090000000000080008014
:100C400000800080008000800000000000000000A4
:100C500000F000A800A800A80000000000000000AC
:100C600000E00090009000900000000000000000F4
:100C70000060009000900060000000000000000094
:100C800000E00090009000E0008000800000000084
:100C90000070009000900070001000100000000034
:100CA00000A000C0008000800000000000000000E4
:100CB000006000C0002000C00000000000000080B4
:100CC00000C0008000800040000000000000000024
:100CD00000900090009000700000000000000000F4
:100CE00000A000A000400040000000000000000044
:100CF00000A800A800500050000000000000000004
:100D000000A00040004000A0000000000000000023
:100D100000A000A000400040008000800000000013
:100D200000F00020004000F0000000000020004023
:100D300000400080008000400040002000800080D3
:100D400000800080008000800080008000800040E3
:100D50000040002000200040004000800064009817
:100D60000000000000000000000000000000000083
:100D700000000000000000000000000000600060B3
:100D80000060006000600000006000000048004853
:100D90000000000000000000000000000028007CAF
:100DA000007C0028007C007C00280000003C0068DB
:100DB00000680038002C002C007800280064006CCB
:100DC000000800180010003600260000003C0066F5
:100DD000003C007D00670067003D000000400040CF
:100DE00000000000000000000000000000100020D3
:100DF00000600060006000600020001000400020E3
:100E0000003000300030003000200040001000545E
:100E1000007C0038007C005400100000000000102E
:100E20000010007C00100010000000000000000016
:100E300000000000000000200060004000000000F2
:100E40000000007C00000000000000000000000026
:100E500000000000000000600060000000100010B2
:100E60000030002000600040004000000038006CAE
:100E7000006C006C006C006C0038000000300070EA
:100E80000030003000300030003000000078000CEE
:100E9000000C003800600060007C00000078000C4E
:100EA000000C0038000C000C00780000000C001C46
:100EB000002C004C007C000C000C0000007800406E
:100EC0000078000C000C000C007800000038006076
:100ED0000078006C006C006C00380000007C000C96
:100EE0000018001800300030003000000038006C9E
:100EF000006C0038006C006C003800000038006C9A
:100F0000006C006C003C000C003800000000000089
:100F10000060006000000060006000000000000051
:100F20000060006000000020006000400008001821
:100F300000300060003000180008000000000000D1
:100F4000007C0000007C0000000000000040006009
:100F50000030001800300060004000000078000CF5
:100F6000001800300030000000300000003C006637
:100F7000007E006E007C0060003E0000003C0066C9
:100F800000660066007E006600660000007C006669
:100F9000007C006600660066007C0000003C00608B
:100FA0000060006000600060003C0000007C0066A3
:100FB0000066006600660066007C0000007C006041
:100FC000007C006000600060007C0000007C00602D
:100FD000007C00600060006000600000003E006077
:100FE0000060006600660066003E00000066006665
:100FF000007E00660066006600660000006000601B
:10100000006000600060006000600000000C000CE8
:10101000000C000C000C000C007800000066006C56
:10102000007800700078006C0066000000600060CE
:101030000060006000600060007C00000041006310
:101040000077007F006B00630063000000460066CD
:101050000076007E006E006600620000003C0066C4
:101060000066006600660066003C0000007C0066CA
:1010700000660066007C006000600000003C0066C6
:10108000006600660066006E003C0006007C00669C
:1010900000660066007C007C00660000003800608E
:1010A000006000300018001800700000007E00187A
:1010B00000180018001800180018000000660066EC
:1010C0000066006600660066003C00000066006680
:1010D0000066003C003C001800180000006300633C
:1010E0000063006B003E00360036000000660066BC
:1010F000003C0018003C00660066000000660066C8
:10110000003C00180018001800180000007C000CBB
:10111000001C003800700060007C0000007000605F
:1011200000600060006000600060007000400040EF
:10113000006000200030001000100000007000303F
:1011400000300030003000300030007000200050CF
:10115000000000000000000000000000000000008F
:101160000000000000000000000000F80020006007
:10117000004000000000000000000000000000002F
:101180000038000C003C006C003C00000060006077
:101190000078006C006C006C00780000000000001B
:1011A000003800600060006000380000000C000C97
:1011B000003C006C006C006C003C00000000000073
:1011C0000038006C007C0060003C000000300060D3
:1011D000007000600060006000600000000000001F
:1011E000003C006C006C003C000C003800600060AB
:1011F0000078006C006C006C006C00000060000067
:1012000000600060006000600060000000300000CE
:1012100000300030003000300030006000600060BE
:101220000060006C00780078006C000000600060D6
:1012300000600060006000600060000000000000CE
:10124000007F006D806D806D806D8000000000006B
:101250000078006C006C006C006C00000000000066
:101260000038006C006C006C0038000000000000CA
:101270000078006C006C00780060006000000000E6
:10128000003C006C006C003C000C000C00000000F6
:10129000006800780060006000600000000000004E
:1012A000003800600030001800700000006000602E
:1012B000007000600060006000300000000000006E
:1012C000006C006C006C006C003C00000000000032
:1012D000006C006C003800380010000000000000B6
:1012E0000063006B006B003E003600000000000051
:1012F000006C007C0038007C006C000000000000E6
:10130000006C006C006C003C000C00380000000019
:10131000007C000C00380060007C000000380020D9
:101320000020004000200020003800000040004065
:1013300000400040004000400040004000700010AD
:10134000001000080010001000700000002800507D
:101350000000000000000000000000000038006CE9
:10136000006C0038000000000000000000000000D9
:1013700000000000000000000000183C3C3C181871
:1013800000181800000066666600000000000000FB
:10139000000036367F3636367F36360000083E6B24
:1013A00068683E0B0B6B3E080870D8DA760C183074
:1013B0006E5B1B0E0000386C6C386CC7C66E3B0051
:1013C00000001818180000000000000000000C18B1
:1013D00018303030303018180C003018180C0C0C45
:1013E0000C0C181830000000361C7F1C3600000062
:1013F0000000000018187E1818000000000000000F
:1014000000000000001818300000000000007E00FE
:10141000000000000000000000000000001818009C
:10142000000006060C0C18183030606000001C36F6
:10143000636B6B6B63361C0000000C1C3C0C0C0CCB
:101440000C0C3F0000003C6606060C1830607E0065
:1014500000003C6666061C0666663C000000060E40
:101460001E3666667F06060000007E6060607C06B1
:1014700006663C0000001C3060607C6666663C00CE
:1014800000007E060C0C18181818180000003C66A6
:1014900066663C6666663C0000003C6666663E0624
:1014A000060C380000000000181800000018180092
:1014B0000000000018180000001818300000060C8A
:1014C00018306030180C060000000000007E007E1E
:1014D0000000000000006030180C060C183060009E
:1014E00000003C66660C18180018180000007EC347
:1014F000C3CFDBDBCFC07F000000183C6666667E92
:101500006666660000007C6666667C6666667C00D1
:1015100000003C666060606060663C000000786CC3
:1015200066666666666C780000007E6060607C605F
:1015300060607E0000007E6060607C6060606000D3
:1015400000003C666060606E66663E000000666695
:1015500066667E666666660000003C1818181818F5
:1015600018183C00000006060606060666663C00E3
:10157000000066666C6C786C6C66660000006060EB
:101580006060606060607E00000063777F6B6B630B
:101590006363630000006363737B6F67636363006F
:1015A00000003C666666666666663C0000007C6617
:1015B00066667C606060600000003C666666666629
:1015C00066663C0C06007C6666667C6C6666660039
:1015D00000003C666030180C06663C0000007E1877
:1015E00018181818181818000000666666666666EF
:1015F00066663C000000666666666666663C1800C5
:101600000000636363636B6B6B3E360000006666CD
:10161000663C183C666666000000666666663C18B6
:101620001818180000007E06060C183060607E0056
:10163000003C303030303030303030303C00606092
:10164000303018180C0C0606003C0C0C0C0C0C0C62
:101650000C0C0C0C3C183C66000000000000000064
:10166000000000000000000000000000FF30301803
:101670000000000000000000000000003C06063EE4
:1016800066663E00000060607C66666666667C009A
:10169000000000003C66606060663C0000000606DA
:1016A0003E66666666663E00000000003C66667E3A
:1016B00060603C0000001C3030307830303030004A
:1016C000000000003E66666666663E063C0060609E
:1016D0007C6666666666660000181800781818183A
:1016E00018187E00000C0C003C0C0C0C0C0C0C0CA4
:1016F0007800606066666C786C666600000078183A
:101700001818181818187E00000000007E6B6B6B0C
:101710006B6B6300000000007C66666666666600B0
:10172000000000003C66666666663C000000000043
:101730007C66666666667C60600000003E66666683
:1017400066663E06060000007C66606060606000C1
:10175000000000003E60603C06067C000000303067
:101760007830303030301C0000000000666666665D
:1017700066663E000000000066666666663C18000D
:10178000000000006363636B6B3E360000000000E6
:1017900066663C183C666600000000006666666689
:1017A00066663E067C0000007E060C1830607E00F7
:1017B000000C1818181830181818180C00181818D9
:1017C00018180018181818180030181818180C18BD
:1017D00018181830000076DC00000000000000003F
:1017E00000000000000000000000000000000000F9
:1017F00000000000000000000000000000000000E9
:1018000000000000000000000000000000000000D8
:101810000000000000000030000030000030000038
:101820003000003000003000003000003000003098
:101830000000300000300000000000000000300018
:10184000003000000000000000000000006C0000FC
:101850006C00006C00006C00000000000000000044
:101860000000000000000000000000000000000078
:101870000000000000000000000000000000000068
:101880000000000440000440000440000440007FC9
:10189000F0000880000880000880000900001100A6
:1018A00000FFE000110000120000220000220000F2
:1018B0000000000000000000000200000FC0001A3D
:1018C00060003220003200003A00001E00000700D5
:1018D0000003C00002E0000260000260002260001D
:1018E00032C0001F800002000000000000000078ED
:1018F0001000CC1000CC2000CC4000CC4000CC80AC
:101900000079000002000002F0000598000998002C
:1019100011980011980021980040F000000000008C
:1019200000000000000780000CC0000CC0000CC0CC
:10193000000CC0000780000E0000333C006308006C
:1019400061880061D00070F0007860003FF0000F07
:10195000380000000000000000000060000060008F
:101960000060000060000060000000000000000057
:101970000000000000000000000000000000000067
:101980000000000000000000000000000000000057
:1019900000040000080000180000300000300000C3
:1019A0002000006000006000006000006000006037
:1019B000000060000020000030000030000018002F
:1019C000000800000400004000002000003000007B
:1019D0001800001800000800000C00000C00000CAB
:1019E00000000C00000C00000C00000800001800B3
:1019F000001800003000002000004000000C000033
:101A00000C00004C80007380001200001E000033A8
:101A10000000330000000000000000000000000093
:101A200000000000000000000000000000000000B6
:101A3000000000000000000000000000060000069A
:101A400000000600000600000600007FE0007FE0C6
:101A50000006000006000006000006000006000068
:101A60000000000000000000000000000000000076
:101A70000000000000000000000000000000000066
:101A80000000000000000000000000000000000056
:101A900030000030000010000010000020000000A6
:101AA0000000000000000000000000000000000036
:101AB000000000000000007C00007C00000000002E
:101AC0000000000000000000000000000000000016
:101AD0000000000000000000000000000000000006
:101AE00000000000000000000000000000000000F6
:101AF0000000000000000000000000003000003086
:101B0000000000000000000000000000C00000C055
:101B1000000180000180000380000300000300003A
:101B20000600000600000C00000C00001800001861
:101B3000000038000030000030000060000060004D
:101B4000000F000019800030C000204000606000DD
:101B50006060006060006060006060006060006065
:101B6000600020400030C0001980000F000000001D
:101B7000000000000000000200001E00000600003F
:101B80000600000600000600000600000600000631
:101B90000000060000060000060000060000060027
:101BA000001F80000000000000000000001F8000F7
:101BB00030C0002060000060000060000060000095
:101BC000C0000180000300000600000800001800AB
:101BD000001000003FE0003FE000000000000000B7
:101BE0000000001F800020C0002060000060000096
:101BF000600000C0000180001F000001C000006004
:101C00000000600000600020600030C0001F800005
:101C100000000000000000000000400000C00001C3
:101C2000C00002C00004C00008C00010C00010C006
:101C30000020C0007FF0007FF00000C00000C00066
:101C400000C00001E0000000000000000000001FD4
:101C5000C0001FC0001000001000001000001000A5
:101C6000001F000001C00000C00000600000600014
:101C700000600010E00010C0000F800000000000B5
:101C800000000000000F80001840003040003000CD
:101C9000006000006F800070C00060E000606000C5
:101CA00060600060600020600030400018C0000FDD
:101CB00000000000000000000000003FE0003FE0E6
:101CC0000000400000C00000800001000001000092
:101CD0000200000600000400000C00000C000008D8
:101CE00000001800001800000000000000000000C4
:101CF000000F800018C000306000306000306000CD
:101D00001CC0000F00001F800031C00060E00060B8
:101D1000600060600060600030C0001F8000000054
:101D2000000000000000000F000031C00020C000D3
:101D300060600060600060600060600030600030E3
:101D4000E0001F600000400000C00000C0002180D3
:101D5000003E000000000000000000000000000045
:101D60000000000000000000003000003000000013
:101D70000000000000000000000000000000000063
:101D800000000000300000300000000000000000F3
:101D90000000000000000000000000000000003013
:101DA0000000300000000000000000000000000003
:101DB00000000000000000000000300000300000C3
:101DC00010000010000020000000000000000000D3
:101DD000000000000000100000700001E00007801B
:101DE000001E00007800001E000007800001E000D7
:101DF0000070000010000000000000000000000063
:101E000000000000000000000000000000000000D2
:101E1000007FF0007FF0000000000000007FF00075
:101E20007FF0000000000000000000000000000043
:101E300000000000000000000000000000000000A2
:101E4000004000007000003C00000F000003C000D4
:101E500000F00003E0000F80003E00007000004032
:101E600000000000000000000000003E00006300D1
:101E7000004180000180000180000300000200009A
:101E80000C0000080000180000180000000000000E
:101E90000000180000180000000000000000000012
:101EA0000001F8000606000C030010F900319880CC
:101EB00023188042188046308046308046710046A4
:101EC000B200233C0020000018200007C0000000E2
:101ED0000000000000000003000003000003800079
:101EE00005800005800008C00008C00010E0001058
:101EF00060001060003FF0002030004018004018E3
:101F000000E03C000000000000000000007F000036
:101F100031C00030C00030C00030C000308000311F
:101F200080003E000031C00030C0003060003060F2
:101F30000030600030C0007F800000000000000022
:101F400000000007F0001C18003808003000007086
:101F500000006000006000006000006000006000A1
:101F6000007000003000001800000C080007F000AE
:101F70000000000000000000007FC0003070003052
:101F80003800301800300C00300C00300C00300CE1
:101F900000300C00300C00301C00301800303800CD
:101FA0003070007FC0000000000000000000007FD3
:101FB000C000304000300000300000300000300031
:101FC000003100003F000031000030000030000010
:101FD0003000003040003040007FC00000000000B2
:101FE00000000000007FC0003040003000003000E2
:101FF000003000003000003080003F800030800062
:102000003000003000003000003000003000007868
:10201000000000000000000000000007F0001C1895
:102020000038080030000070000060000060000010
:10203000600000607C006018007018003018001804
:1020400018000C180007F00000000000000000005D
:1020500000783C00301800301800301800301800AC
:102060003018003018003FF80030180030180030E9
:102070001800301800301800301800783C000000BC
:102080000000000000000078000030000030000078
:102090003000003000003000003000003000003020
:1020A0000000300000300000300000300000300040
:1020B000007800000000000000000000003E00006A
:1020C0000C00000C00000C00000C00000C00000CC8
:1020D00000000C00000C00000C00000C00000C00C4
:1020E000000C00000C00000C00008C0000980000A8
:1020F000F0000078F0003040003080003080003187
:1021000000003200003400003C00003600003300C4
:102110000031800030C00030600030300078F800BE
:1021200000000000000000000078000030000030D7
:1021300000003000003000003000003000003000AF
:10214000003000003000003000003000003040005F
:102150003040007FC0000000000000000000007060
:102160000700300600380E00380E003C16002C1612
:10217000002C360026260026260023460023460093
:10218000238600218600218600700F0000000000D9
:102190000000000000701C003008003808002C0807
:1021A000002E08002608002308002188002188004E
:1021B00020C8002068002078002038002018007017
:1021C000080000000000000000000007C0001C70B4
:1021D00000301800301800600C00600C00600C002B
:1021E000600C00600C00600C00600C0030180030C7
:1021F00018001C700007C000000000000000000074
:10220000007F800030C0003060003060003060002F
:1022100030600030C00031C0003F000030000030AE
:1022200000003000003000003000007800000000A6
:102230000000000000000007C0001C700030180003
:10224000301800600C00600C00600C00600C006036
:102250000C00600C00600C003018003018001C707E
:102260000007C000003000001F000007007F800052
:1022700030C00030600030600030600030600031FD
:10228000C0003F000033000031800031C00030C08A
:10229000003060003070007838000000000000005E
:1022A0000000001F800030C000604000600000603F
:1022B00000007000003C00000F000003800001C01F
:1022C0000000C00000C00040C0006180003F00006E
:1022D0000000000000000000007FF80043080043F9
:1022E00008000300000300000300000300000300D7
:1022F00000030000030000030000030000030000CF
:1023000003000007800000000000000000000078CB
:102310003800301000301000301000301000301045
:10232000003010003010003010003010003010006D
:102330003010001820001C60000FC00000000000DA
:102340000000000000781C00300800300800181061
:10235000001810001810000C20000C20000640008F
:102360000640000640000380000380000380000157
:1023700000000000000000000000007861C0306034
:102380008030608030E08038B10018B10019310031
:10239000193900191A000D1A000E1A000E0E000E3F
:1023A0000C00040C00040400000000000000000009
:1023B00000F8700060200030400038800018800075
:1023C0000D00000E00000600000700000B000011C9
:1023D000800011C00020C000406000E1F00000005B
:1023E00000000000000000F070006020003040009D
:1023F0003840001880001C80000D00000600000618
:1024000000000600000600000600000600000600AE
:10241000000F00000000000000000000007FE0004E
:1024200040E00000C00001C0000180000300000384
:1024300000000600000E00000C000018000018004C
:10244000003000007020007FE0000000000000006D
:102450000000003C00003000003000003000003080
:10246000000030000030000030000030000030007C
:10247000003000003000003000003000003000006C
:102480003000003000003C000060000060000030C0
:1024900000003000003800001800001800000C0098
:1024A000000C00000600000600000300000300000E
:1024B00003800001800001800000C00000C000789F
:1024C0000000180000180000180000180000180094
:1024D0000018000018000018000018000018000084
:1024E000180000180000180000180000180000185C
:1024F0000000780000030000030000078000078050
:10250000000CC0000CC000186000186000303000E3
:10251000303000000000000000000000000000005B
:1025200000000000000000000000000000000000AB
:10253000000000000000000000000000000000009B
:10254000000000000000000000000000000000008B
:1025500000000000000000007F800000000000007C
:1025600000060000030000018000000000000000E1
:10257000000000000000000000000000000000005B
:10258000000000000000000000000000000000004B
:10259000000000000000000000000000000000003B
:1025A0000000001F00002380002180000180000146
:1025B00080001F8000318000618000618000738096
:1025C000003CE0000000000000000000007000007F
:1025D00030000030000030000037C00038600030AC
:1025E00030003030003030003030003030003030DB
:1025F00000306000386000378000000000000000FC
:102600000000000000000000000000000000000FBB
:102610000000388000308000600000600000600032
:10262000006000006000003000003880000F0000F3
:1026300000000000000000000000E000006000005A
:1026400060000060000F600030E0003060006060FB
:1026500000606000606000606000606000606000BA
:1026600030E0001F700000000000000000000000CB
:1026700000000000000000000000000F000031809A
:102680000020C00060C0007FC0006000006000004B
:102690006000003000001840000F800000000000C3
:1026A00000000000000F00001900001800001800D2
:1026B000007F00001800001800001800001800003B
:1026C0001800001800001800001800001800003C56
:1026D00000000000000000000000000000000000FA
:1026E000000000000000000FF00019800030C00062
:1026F00030C00030C0001980000F00001000003012
:1027000000003FC0001FE00020600060C0003F806C
:102710000070000030000030000030000037C000C2
:1027200038600030600030600030600030600030A1
:10273000600030600030600030600078F000000021
:102740000000000000000030000030000000000029
:102750000000007000003000003000003000003049
:102760000000300000300000300000300000300079
:1027700000780000000000000000000000180000C9
:1027800018000000000000000038000018000018C9
:1027900000001800001800001800001800001800C1
:1027A00000180000180000180000180000100000B9
:1027B000E000007000003000003000003000003009
:1027C000E0003080003100003200003400003E00A4
:1027D0000036000033000031800030C00078700007
:1027E0000000000000000000007000003000003019
:1027F00000003000003000003000003000003000E9
:1028000000300000300000300000300000300000D8
:102810003000007800000000000000000000000010
:10282000000000000000000000000077CF8038703A
:10283000C03060C03060C03060C03060C03060C048
:102840003060C03060C03060C078F1E0000000004F
:102850000000000000000000000000000000000078
:102860000077C000386000306000306000306000E9
:102870003060003060003060003060003060007810
:10288000F000000000000000000000000000000058
:10289000000000000000000F000039C00030C00040
:1028A0006060006060006060006060006060003038
:1028B000C00039C0000F0000000000000000000050
:1028C0000000000000000000000000000077C000D1
:1028D00038600030300030300030300030300030B0
:1028E0003000306000386000378000300000300079
:1028F0000030000078000000000000000000000030
:102900000000000F600030E0003060006060006098
:10291000600060600060600060600030E0001F6088
:102920000000600000600000600000F00000000097
:1029300000000000000000000073000037000039B4
:102940000000300000300000300000300000300097
:10295000003000003000007800000000000000009F
:102960000000000000000000000000000000000F58
:1029700000003080003080003000001C00000F009C
:102980000003C00000C00020C0003180001F000014
:102990000000000000000000000000000000003007
:1029A00000003000007E00003000003000003000E9
:1029B0000030000030000030000030000030000027
:1029C0003000001E000000000000000000000000B9
:1029D000000000000000000000000070E000306017
:1029E0000030600030600030600030600030600017
:1029F00030600030600030E0001F70000000000018
:102A000000000000000000000000000000000000C6
:102A1000007870003020003020001840001840007E
:102A20001C80000C80000D00000700000600000262
:102A30000000000000000000000000000000000096
:102A40000000000000000078C70030C20030C20063
:102A50003162003962001B74001A34001A34000C11
:102A600018000C18000C1800000000000000000006
:102A70000000000000000000000000000078E000FE
:102A80003040001880001D00000E00000600000706
:102A900000000B800011800020C00071E0000000E9
:102AA0000000000000000000000000000000000026
:102AB000000000787000302000302000184000181E
:102AC00040001C80000C80000D0000070000060084
:102AD000000200000400000C0000180000000000CC
:102AE0000000000000000000003FE00020E00000C7
:102AF000C0000180000300000700000600000C0079
:102B0000001800003820003FE00000000000000036
:102B10000000000C00001000003000003000003009
:102B200000003000003000002000004000002000C5
:102B300000300000300000300000300000300000A5
:102B40001000000C000000000030000030000030D9
:102B50000000300000300000300000300000300085
:102B60000030000030000030000030000030000075
:102B70003000003000003000003000003000006005
:102B800000001000001800001800001800001800D5
:102B900000180000080000040000080000180000F1
:102BA0001800001800001800001800001000006055
:102BB0000000000000000000000000000000000015
:102BC000000000000000000000003E10007FF00048
:102BD00003E0000000000000000000000000000012
:102BE00000000000000000000000000000000000E5
:102BF00000000000000000000000000000000000D5
:102C000000000000000000000000000000000000C4
:102C100000000000000000000000000000000000B4
:102C2000003F00003F00003F00003F00003F000069
:102C30003F00001E00001E00001E00001E00001EBF
:102C400000001E00000000001C00003E00003E00CE
:102C5000003E00001C000073800073800073800041
:102C60007380007380007380007380000000000098
:102C70000000000000000000000000000000000054
:102C8000000000000000000000000000000038E02C
:102C90000070E00071C00071C000E3800FFFF81FFA
:102CA000FFF81FFFF001C700038700038E003FFFFE
:102CB000E03FFFE07FFFC0071C000E1C000E380045
:102CC0001C38000180000180000FE0001FF0003D73
:102CD00090003D80003F80001FE0000FF00003F8EF
:102CE0000001BC0001BC0021BC0031FC003FF80029
:102CF0001F800001E0000180001F01C03F81807142
:102D0000C30071C70071C60071CC0071DC003F9830
:102D1000001F30000033E00067F000CE3800CE38EE
:102D2000018E38038E38030E380607F00E03E007D5
:102D3000E0000FF0001FF8001F38001F38001FF8D8
:102D4000000FF00007E0000FF0001FF8003EFC004D
:102D50007C7F007C3F807C1FC07E1FE03FFFF81F10
:102D6000F3F80FE0F87000007000007000007000D1
:102D70000070000070000070000000000000000003
:102D80000000000000000000000000000000000043
:102D9000000000000000000000000001800003802F
:102DA000000700000700000E00000E00001E0000DB
:102DB0001E00001E00001E00001E00001E00000E6F
:102DC00000000E00000700000700000380000180E3
:102DD000003000003800001C00001C00000E000045
:102DE0000E00000F00000F00000F00000F00000F8A
:102DF00000000F00000E00000E00001C00001C0070
:102E00000038000030000003C00009A0000DB00031
:102E10001F780003C00003C0001F78000DB0000938
:102E2000A00003C00000000000000000000000003F
:102E3000000000000000000000000000000038005A
:102E4000003800003800003800003800003800006A
:102E500038001FFFF01FFFF01FFFF00038000038A0
:102E6000000038000038000038000038000038004A
:102E70000000000000000000000000000000000052
:102E80000000000000000000000000000000000042
:102E9000003800007C00007C00007C00003C00004A
:102EA000180000300000600000000000000000007A
:102EB0000000000000000000000000000000000012
:102EC000001FC0003F80007F0000000000000000E5
:102ED00000000000000000000000000000000000F2
:102EE00000000000000000000000000000000000E2
:102EF00000000000000000000000000000000000D2
:102F00000000000000003800007C00007C00007C15
:102F100000003800000600000600000E00000C0053
:102F2000000C00001C000018000018000038000011
:102F3000300000300000700000600000600000E021
:102F40000000C00000C00000C0000003E0000FF857
:102F5000001FFC003E3E003E3E003C1E007C1F0069
:102F60007C1F007C1F007C1F007C1F007C1F003C1E
:102F70001F003E3E003E3E001FFC000FF80003E035
:102F80000000200000600000E00007E0001FE000FB
:102F900003E00003E00003E00003E00003E00003BF
:102FA000E00003E00003E00003E00003E00003E0D2
:102FB0000003E0000FF80007E0001FF8001FFC000E
:102FC00038FC00207C00007C0000FC0000F80001C0
:102FD000F80001F00003E00007E00007C0000F80E8
:102FE000001F82001FFE003FFC007FFC001FC0008E
:102FF0003FF0003FF80021F80000F80000F8000161
:10300000F0001FE0001FF0001FF80000FC00007C33
:1030100000007C00007C0000F8007FF8003FF0001A
:103020003FC00001F80001F80003F80003F80006B3
:10303000F80006F8000CF8001CF80018F80038F842
:103040000030F9007FFF007FFE00FFFE0000F80067
:1030500000F80000F80001FC001FF8001FF8003F16
:10306000F8003E08003E00003E00003FE0003FF058
:10307000003FF80021FC00007C00007C00007C0088
:10308000007C0001F8007FF8003FF0001FC0000046
:10309000780001F00007E0000F80001F00003E00F4
:1030A000003EF0003DFC007DFC007C7E007C3E008C
:1030B0007C3E007C3E007C3E003E7C001FFC000FFE
:1030C000F80007E0003FFE003FFC007FFC00407C72
:1030D0000000780000F80000F80001F00001F000A6
:1030E00003E00003E00003E00007C00007C0000F9A
:1030F00080000F80000F80001FC00007F0000FF855
:10310000001FFC003E3E003E1E003E1E003F9C0095
:103110001FF8000FF8001FFC003CFE00783F00780D
:103120001F00781F007C3F003FFE001FFC0007F0DF
:103130000007E0001FF0003FF8003E7C007C3E00EE
:103140007C3E007C3E007C3E007E3E003FBE003F59
:10315000BE000F7C00007C0000F80001F00007E0DA
:10316000000F80001E0000000000000000000000B2
:103170000000001C00003E00003E00003E00001C5D
:1031800000000000000000001C00003E00003E00A7
:10319000003E00001C0000000000000000000000D5
:1031A000000000000000000000000000000000001F
:1031B000000000000000000000000000000000000F
:1031C00000000000000000000000000000000000FF
:1031D00000000000000000000000000000000000EF
:1031E00000000000000000000000000000000000DF
:1031F00000000000000000000000000000000000CF
:1032000000000000000000000000000000000000BE
:10321000000000000001F0000003F8000007FC00BF
:103220000007FC000007FC000007FC000007FC0092
:103230000003F8000001F0000000000000000000A2
:10324000000000000000000000000000000000007E
:10325000000000000000000000000000000000006E
:10326000000000000000000000000000000000005E
:10327000000000000000000000000000000000004E
:10328000000000000000000000000000000000003E
:10329000000000000000000000000000000000002E
:1032A000000000000000000000000000000000001E
:1032B000000000000001F0000003F8000007FC001F
:1032C0000007FC000007FC000007FC000007FC00F2
:1032D0000003F8000001F0000000000000001FC023
:1032E00000007FF00000F0780001E03C0003E03EC9
:1032F0000007E03F0007C01F000FC01F800FC01F66
:10330000800FC01F801FC01FC01FC01FC01FC01F55
:10331000C01FC01FC03FC01FE03FC01FE03FC01F15
:10332000E03FC01FE03FC01FE03FC01FE03FC01FA5
:10333000E03FC01FE03FC01FE03FC01FE03FC01F95
:10334000E03FC01FE01FC01FC01FC01FC01FC01F25
:10335000C01FC01FC00FC01F800FC01F800FC01F25
:103360008007C01F0007E01F0003E03E0001E03CB3
:103370000000F07800007FF000001FC00000006037
:10338000000001E0000007E000003FE00000FFE077
:103390000003FFE000063FE000001FE000001FE028
:1033A00000001FE000001FE000001FE000001FE021
:1033B00000001FE000001FE000001FE000001FE011
:1033C00000001FE000001FE000001FE000001FE001
:1033D00000001FE000001FE000001FE000001FE0F1
:1033E00000001FE000001FE000001FE000001FE0E1
:1033F00000001FE000001FE000001FE000001FE0D1
:1034000000001FE000001FE000001FE000001FE0C0
:1034100000003FF000007FF80007FFFF80003F80C2
:103420000000FFE00001FFF00007FFFC0007FFFCC9
:10343000000FFFFE001FFFFE001E0FFF003803FFFE
:10344000003001FF002001FF000000FF000000FF2E
:10345000000000FE000000FE000000FE000000FC76
:10346000000000FC000001F8000001F8000001F07D
:10347000000003E0000003C0000007C00000078058
:1034800000000F0000001E0000001C0000003800BB
:1034900040007000C000E000C000C0038001FFFFDA
:1034A0008003FFFF8007FFFF800FFFFF801FFFFFEC
:1034B000001FFFFF003FFFFF007FFFFF00001FC056
:1034C0000000FFF00001FFFC0007FFFE000E07FEFA
:1034D000000C03FF001001FF003000FF000000FFA0
:1034E000000000FE000000FE000000FC000001F0F3
:1034F000000001C0000003E000000FF800003FFCE6
:103500000000FFFE00003FFF00000FFF800007FFEC
:10351000800003FFC00001FFC00000FFC000007F6B
:10352000C000007FC000007FC000003FC000003F1F
:10353000C000003F8000003F803C003F003E003F55
:10354000007F007E007F80FC007FE1FC007FFFF0B9
:10355000003FFFE0001FFF800007FC000000001E8E
:103560000000003E0000003E0000007E000000FE63
:10357000000000FE000001FE000003FE000003FE4C
:10358000000007FE00000DFE000019FE000019FEFD
:10359000000031FE000061FE000061FE0000C1FE7F
:1035A000000181FE000181FE000301FE000601FE14
:1035B000000C01FE000C01FE001801FE003001FEAF
:1035C000003FFFFFE03FFFFFE03FFFFFE03FFFFF67
:1035D000E03FFFFFE03FFFFFE00001FE000001FED3
:1035E000000001FE000001FE000001FE000001FEDF
:1035F000000001FE000001FE000001FE00007FFF50
:10360000E0007FFFE000FFFFC000FFFFC000FFFF02
:10361000C001FFFF8001FFFF8001FFFF8003FFFF6C
:103620000003000000070000000600000007F00093
:10363000000FFF00000FFFE0000FFFF0001FFFFC76
:10364000001FFFFE001FFFFF003FFFFF80003FFF46
:10365000800007FFC00000FFC000007FE000003FC7
:10366000E000001FE000000FE0000007E00000079E
:10367000E0000003E0000003C0000003C01E0003E0
:10368000C01F8003803FC003003FE007003FF80EEB
:10369000001FFC18000FFFE00001FF000000000306
:1036A000E000003F800000FE000003F000000FE09B
:1036B00000001FC000003F0000007F000000FE006F
:1036C0000001FC000003FC000003F8000007F80004
:1036D0000007F000000FF000000FF000001FE7F0FF
:1036E000001FFFFC001FF0FF003FE07F803FE07FF6
:1036F000803FC03FC03FC03FC03FC03FE03FC01F12
:10370000E03FC01FE03FC01FE03FC01FE03FC01FC1
:10371000E01FC01FE01FE01FE01FE01FC00FE01F01
:10372000C00FE01FC007F01F8003F03F0003F83E0A
:103730000000FC7C00007FF800001FC00007FFFFB6
:10374000F007FFFFF00FFFFFE00FFFFFE00FFFFFAD
:10375000E00FFFFFC00FFFFFC01FFFFFC01FFFFFF5
:10376000801F0007801800078030000F0020000F26
:103770000000001F0000001E0000001E0000003EB0
:103780000000003C0000003C0000007800000078D1
:1037900000000078000000F0000000F0000000F0E1
:1037A000000001E0000001E0000001E0000003C0B3
:1037B000000003C0000003C0000007800000078075
:1037C0000000078000000F0000000F0000000F0045
:1037D00000001E0000001E0000001E0000001FE090
:1037E0000000FFFC0001F87E0003F01F0007F01F3F
:1037F000800FE00F800FE00FC01FE00FC01FE00F31
:10380000C01FF00FC01FF00FC01FF80FC01FF81F20
:10381000800FFC1F800FFF1F0007FFBE0007FFFC8B
:103820000001FFF00000FFF800007FFE00003FFFF6
:1038300000007FFF0001F7FF8007C1FFC00FC0FF3E
:10384000C01F807FE01F807FE03F003FE03F003FE0
:10385000E03F001FE03F001FE03F001FE03F001F70
:10386000C01F001FC01F801F800F803F800FC07FC0
:103870000003E0FE0001FFF800003FC000001F80D1
:103880000000FFF00001F1F80003E0FC0007E07E1B
:10389000000FC07F001FC03F801FC03F801FC03F80
:1038A000C03FC03FC03FC01FC03FC01FE03FC01F60
:1038B000E03FC01FE03FC01FE03FC01FE03FE01FF0
:1038C000E01FE01FE01FE01FE00FF01FE007F01F08
:1038D000E003FC3FC001FFFFC0007FBFC000003F0E
:1038E0008000003F8000003F8000007F0000007FDC
:1038F000000000FE000000FC000001F8000003F0E2
:10390000000007E000000FC000001F8000007E00E4
:103910000001F800000FE000003E00000000000081
:103920000000000000000000000000000000000097
:10393000000000000001F0000003F8000007FC0098
:103940000007FC000007FC000007FC000007FC006B
:103950000003F8000001F00000000000000000007B
:103960000000000000000000000000000000000057
:103970000000000000000000000000000000000047
:103980000001F0000003F8000007FC000007FC0045
:103990000007FC000007FC000007FC000003F80023
:1039A0000001F00000000000000000000000000026
:1039B000000000000000000000000000006E616ECA
:1039C00000696E660000407A10F35A00A0724E182B
:1039D000090010A5D4E80000E87648170000E40BC1
:1039E00054020000CA9A3B000000E1F50500008087
:1039F000969800000040420F000000A086010000E1
:103A000000102700000000E8030000000064000030
:103A10000000000A00000000000100000000002C6F
:103A200076D888DC674F0823DFC1DFAE59E1B1B734
:103A300096E5E3E453C63AE651997696E8E6C28401
:103A400026EB898C9B62ED407C6FFCEFBC9C9F4019
:103A5000F2BAA56FA5F490055A2AF75C936B6CF93E
:103A6000676DC11BFCE0E40D47FEF520E6B500D014
:103A7000ED902E0300943577050080841E08000029
:103A8000204E0A000000C80C333333330F986E12F7
:103A9000831141EF8D2114893BE65516CFFEE6DBFD
:103AA00018D1844B381BF77C1D901DA4BBE4242047
:103AB0003284725E228100C9F124ECA1E53D270029
:103AC00011241FBECFEFD1E2DEBFCDBF00E00CBF9F
:103AD00016E0A0E0B2E0E6E1F1EE00E00BBF02C0CC
:103AE00007900D92AC35B107D9F715E1ACE5B6E01A
:103AF00001C01D92AB3AB107E1F70E9420200C945F
:103B000089700C940000109262061092610608956C
:103B1000E4EEFAE0E80FF11D85810895E4EEFAE0A5
:103B2000E80FF11D6583089580916F0690917006EE
:103B300088609093700680936F060895843049F4EE
:103B40008091510B882311F482E003C01092950BF1
:103B500008958093950B08958093500B089580915C
:103B6000500B08951F920F920FB60F9211240F90D1
:103B70000FBE0F901F9018951F93CF93DF93C0E057
:103B8000D0E011E080918A0B90E00C2E02C0959558
:103B900087950A94E2F780FF03C0812F60E002C09E
:103BA000812F61E00E94E24521961F5F153051F799
:103BB000DF91CF911F9108951F920F920FB60F9230
:103BC0000BB60F9211240F931F932F933F934F9394
:103BD0005F936F937F938F939F93AF93BF93EF9375
:103BE000FF93DF93CF93CDB7DEB72A97DEBFCDBF6C
:103BF00080917106813069F40E94BE22882349F0C9
:103C00008091190290911A02019690931A02809362
:103C1000190280915C068A3020F00E946642109260
:103C20005C0680916706853058F080916F06909110
:103C3000700680619093700680936F0610926706FD
:103C400080915F06823359F480916F0690917006DF
:103C500081609093700680936F0610925F0680914A
:103C60006006813059F480916F06909170068260F1
:103C70009093700680936F06109260060E944B2FFF
:103C8000882311F100916C0610916D060E942C2F73
:103C90002E833F83488759876A87DE011196FE018C
:103CA000369685E001900D928150E1F78B819C81E1
:103CB0000817190748F080916F069091700684608C
:103CC0009093700680936F0680916A0690916B06C0
:103CD000019690936B0680936A06809167068F5FCA
:103CE0008093670680915F068F5F80935F06809167
:103CF00060068F5F809360068091610690916206F6
:103D0000019690936206809361068091630690917C
:103D1000640601969093640680936306209165067D
:103D2000309166062F5F3F4F3093660620936506FD
:103D300080916C0690916D06019690936D0680932C
:103D40006C0680915C068F5F80935C06C9016AEF08
:103D500070E00E94AE6C892B49F480916F069091BF
:103D6000700692609093700680936F06C90164EFAD
:103D700071E00E94AE6C892B09F057C000E010E0A2
:103D8000812F0E942054082B1F5F1430C9F701FFB8
:103D900002C081E001C080E00E94DC458091910B6F
:103DA00082FF43C080916F069091700686FF1DC010
:103DB0008F7B9093700680936F0600E010E00E9466
:103DC000BB5390E0002E02C0959587950A94E2F7C8
:103DD00080FF05C0802F8F5F60E00E94E2450F5F8B
:103DE0001F4F0430110559F720C000E010E00E9479
:103DF000BB5390E0002E02C0959587950A94E2F798
:103E000080FF05C0802F8F5F61E00E94E2450F5F59
:103E10001F4F0430110559F780916F06909170067D
:103E200080649093700680936F0680916A069091EB
:103E30006B068B3F910588F080916F06909170061C
:103E400087FF65C091609093700680936F065FC096
:103E500090619093700680936F068091510B813032
:103E600019F500916806109169060E9463429AE074
:103E7000899FC00111240817190768F080916F0607
:103E80009091700694609093700680936F061092E4
:103E900069061092680680916806909169060196FD
:103EA000909369068093680680916C0690916D06E8
:103EB0008F5F9F4740F08FEF9FE70E94192F10926E
:103EC0006D0610926C060E94222D8091FA0A8823BA
:103ED00011F00E9409670E94B8282A96DEBFCDBF64
:103EE000CF91DF91FF91EF91BF91AF919F918F9112
:103EF0007F916F915F914F913F912F911F910F9102
:103F00000F900BBE0F900FBE0F901F9018958091D1
:103F10006F069091700693FD9BCF9FCF8DE49BE041
:103F20000E94C0470895EF92FF920F9380918B0BF0
:103F30008093040B0E949C2260E040E022E003E0BA
:103F400092E0E92E9BE0F92E0E94B6240F91FF909B
:103F5000EF9008951F9380E00E940F5481E00E942B
:103F60000F5482E00E940F5483E00E940F549091FE
:103F70008A0B80918B0B882319F010E0992309F4A8
:103F800011E00E946141882351F4112321F4109221
:103F9000500B82E008C081E08093500B04C082E0A7
:103FA0008093500B80E00E94C1451F9108950E94AC
:103FB000D0490E94AA420E9460548DE49BE00E9476
:103FC000F7481092E80A84EE9AE00E942F490E9476
:103FD0009A45089580E00E94D04581EC60E040E081
:103FE00050E00E94132E0895DF93CF93CDB7DEB734
:103FF0002A970FB6F894DEBF0FBECDBF0E944B2F9D
:104000008823A9F00E942C2F2E833F83488759874D
:104010006A87DE011196FE01369685E001900D92C9
:104020008150E1F7E981FA8119950E94552F2A966E
:104030000FB6F894DEBF0FBECDBFCF91DF910895CC
:10404000DF92EF92FF920F931F93CF93DF93F89439
:1040500014BE88E10FB6F89480936000109260005F
:104060000FBE8AEF0E94FD280E9440328AEF0E9414
:10407000FD280E94D43D0E94B5400E9446294D9BD8
:1040800003C00E942D4C03C0479A0E94514C0E94CD
:10409000354A8130C9F00E94CA470E94D04984E164
:1040A00080934D0B81E080934E0B80934F0B1092C9
:1040B000500B1092510B8DE49BE00E94C04781E0B1
:1040C0000E942F4A0E94514C1092870B1092860B2F
:1040D0001092850B1092840B0E9433478093880BBB
:1040E0008093890B1092940B10928C0B11E010931B
:1040F0008D0B10938E0B1092990B85E08093970B8C
:104100000E94D71F0E949B4C0E94783284E18093CA
:104110004D0B0E9478330E945442882319F4109268
:10412000510B02C01093510B0E94863283EB93E631
:1041300066EA72E30E94F92E0E94774B882369F5A4
:104140000E948B320E94F2570E94E74A9091E60A41
:1041500087E0989F802D11240E94FD288091E70A16
:1041600080936E068091E60A0E948E220E94F926B4
:104170006091FD0A7091FE0A4091FF0A5091000B78
:104180002091FB0A3091FC0A8091FA0A0E94E166B4
:104190008091E80A813099F40EC00E948B327894A5
:1041A0000E9415360E943D530E94BD4C0E94A92ECC
:1041B0000E945D2EF7CF81E06091E70A02C080E0A7
:1041C00060E00E94C2220E94BE22882311F00E9459
:1041D0005C270E9421320E942F320E94F44080E02E
:1041E0000E94B9468AEF0E94FD2881E00E94B946EC
:1041F0000E94D35A81E08093500B0E94C14584E015
:104200000E949E1D7894219A81E08093020B109267
:10421000030B80937106DD24D394C0E0D2E00E94AA
:10422000E627882311F40E941E5E0E9463278823DC
:1042300011F40E94D2268091510B882321F10E9413
:104240005A4190918B0B891761F0D0928E0BD092CE
:104250008D0B0E945A4180938C0B0E9400590E9442
:10426000931F0E945442833071F00E944F439091FB
:104270008D0B891741F00E944F4380938E0B8093E2
:104280008D0B0E945D590E94A92E0E945D2E809187
:104290006F0682FF0BC00E94F41F80916F06909101
:1042A00070068B7F9093700680936F0680916F06E7
:1042B00080FF0BC00E94586180916F06909170063C
:1042C0008E7F9093700680936F0680916F0681FFBA
:1042D0000BC00E94476180916F06909170068D7FA0
:1042E0009093700680936F0680916F0683FF0BC0DA
:1042F0000E941C6280916F0690917006877F909358
:10430000700680936F0680916F0684FF13C00E9431
:10431000965D009779F08130910519F40E94BF6293
:1043200005C08F5F9F4F11F40E943B6210926B0695
:1043300010926A0620916F063091700631FF30C0EE
:1043400090918C0B80918B0B20723070981771F0CC
:10435000232B71F00E94BA4580918C0B0E949F45DF
:1043600080916F06909170068F7D0DC0232B79F49C
:104370000E94BA4580918B0B0E949F4580916F06E9
:104380009091700680629093700680936F06809182
:104390006F06909170069D7F9093700680936F06D4
:1043A00080916F069091700692FF0BC00E941C4393
:1043B00080916F06909170069B7F9093700680931A
:1043C0006F0680916F069091700690FF0EC08091ED
:1043D000940B0E94CB5680916F06909170068F7758
:1043E0009E7F9093700680936F0680916F069091E8
:1043F000700694FF12C01091990B812F0E94A26445
:10440000682F812F0E944C6580916F0690917006F5
:10441000977E9093700680936F060E94BE22882339
:10442000B9F08091190290911A02885E934080F051
:104430000E949C2260E040E021E001E03EE6E32EA5
:1044400036E0F32E0E94B62410921A02109219023E
:104450000E949122882311F1809163069091640655
:104460008C5D9540D8F00E94931F0E949C2200D042
:104470000F92EDB7FEB73196ADB7BEB71296DC938B
:10448000CE931197828313820E947A6F10926406F2
:10449000109263060F900F900F900F908091FA0A80
:1044A000882311F00E941C670E94C942B8CEDF9297
:1044B000EF92FF920F931F93DF93CF9300D00F9251
:1044C0000F92CDB7DEB7F82EE92E8B01D42E0E94C5
:1044D0004B2F882321F410926D0610926C064F2DFD
:1044E000F982EA8280916C0690916D06800F911F8F
:1044F000682F9C838B83DD825E2D7C818D2D0E94B5
:104500000E300F900F900F900F900F90CF91DF9182
:104510001F910F91FF90EF90DF90089580939B0B78
:1045200008958091A30B9091A40B23E09695879515
:104530002A95E1F78170089580919B0B08958091F1
:10454000A30B9091A40B80629093A40B8093A30B78
:104550001092A80B1092A60B08958091A30B909136
:10456000A40B8B7F82609093A40B8093A30B10927B
:10457000A50B109272061092A70B08958091A30BC1
:10458000817008958823F9F04091A30B5091A40BFA
:104590009A0121603093A40B2093A30B6093A00B8E
:1045A000862F90E0880F991F880F991F9093A20B78
:1045B0008093A10B21FD10C0416051605093A40B6A
:1045C0004093A30B08958091A30B9091A40B8E7F31
:1045D0009093A40B8093A30B08958091A00B089552
:1045E0008093A00B90E0880F991F880F991F9093DC
:1045F000A20B8093A10B08951F920F920FB60F92FA
:1046000011240F900FBE0F901F9018951F920F92BC
:104610000FB60F9211248F939F938091A30B9091CB
:10462000A40B86FD05C080689093A40B8093A30B18
:104630009F918F910F900FBE0F901F9018951F9311
:10464000DF93CF93CDB7DEB765970FB6F894DEBF93
:104650000FBECDBF182FCE0101960E9436278A814A
:104660008117C1F48091A30B9091A40B9D7F90932F
:10467000A40B8093A30B0E944D278091A30B9091D4
:10468000A40B80629093A40B8093A30B1092A80BB1
:104690001092A60B65960FB6F894DEBF0FBECDBF85
:1046A000CF91DF911F9108958091A60B8A3050F42D
:1046B0008091A30B9091A40B80629093A40B8093A4
:1046C000A30B089580E00E94D04580E061E00E9445
:1046D0002B610E944D278091A30B9091A40B8062C7
:1046E0009093A40B8093A30B1092A80B1092A60B8F
:1046F00008951F920F920FB60F920BB60F921124CE
:104700002F933F934F935F936F937F938F939F93D9
:10471000AF93BF93EF93FF9380917306853020F0A2
:104720000E94AD22109273062091A30B3091A40B2E
:1047300020FD13C087C0277F3093A40B2093A30BC9
:104740000E945C27109275061092740681E061E069
:104750000E942B6180E00E94D0458091A80B8A3096
:1047600050F08091A30B9091A40B91FF04C00E9484
:1047700054231092A80B8091A00B882399F14091AB
:104780009A0B242F30E080919C0B90919D0B281761
:10479000390768F080919E0B90919F0B281739077D
:1047A00030F48091A30B9091A40B806105C080919F
:1047B000A30B9091A40B8F7E9093A40B8093A30BDB
:1047C0008091A10B9091A20B2817390740F010920D
:1047D0009A0B8091A80B8F5F8093A80B03C04F5F4B
:1047E00040939A0B2091760630917706C901877025
:1047F0009070892B49F4809174069091750601960A
:1048000090937506809374062F5F3F4F3093770621
:1048100020937606809173068F5F80937306FF91D5
:10482000EF91BF91AF919F918F917F916F915F9128
:104830004F913F912F910F900BBE0F900FBE0F9095
:104840001F901895809174069091750680589C4031
:1048500008F483CF70CF1F93DF93CF93CDB7DEB72C
:1048600065970FB6F894DEBF0FBECDBF182F8091AD
:10487000A30B9091A40B9D7F9093A40B8093A30B0B
:10488000CE0101960E9436278A81811711F40E9479
:10489000542365960FB6F894DEBF0FBECDBFCF91FF
:1048A000DF911F9108958DB79EB745970FB6F89485
:1048B0009EBF0FBE8DBFADB7BEB71196E9EAFBE054
:1048C00085E101900D928150E1F70E94F3278DB7A9
:1048D0009EB745960FB6F8949EBF0FBE8DBF089544
:1048E000EF92FF920F93DF93CF93CDB7DEB765972B
:1048F0000FB6F894DEBF0FBECDBF782F522FDE016A
:104900001796F70102C081918D938E2F8E19801713
:10491000D0F30E835D834C836A8379838DB79EB712
:1049200045970FB6F8949EBF0FBE8DBFADB7BEB70B
:104930001196FE01319685E101900D928150E1F7CB
:104940000E94F3278DB79EB745960FB6F8949EBF89
:104950000FBE8DBF65960FB6F894DEBF0FBECDBFFC
:10496000CF91DF910F91FF90EF900895EF92FF921A
:104970000F931F93DF93CF93CDB7DEB765970FB635
:10498000F894DEBF0FBECDBF182F722F213021F05B
:104990008091A30B83FF30C0572F540F500FDE01BF
:1049A0001796F70103C08191580F8D938E2F8E19A2
:1049B0008017C8F35B830E837D834C836A831983DE
:1049C0008DB79EB745970FB6F8949EBF0FBE8DBFAB
:1049D000ADB7BEB71196FE01319685E101900D92FB
:1049E0008150E1F70E9470278DB79EB745960FB6AC
:1049F000F8949EBF0FBE8DBF65960FB6F894DEBFCC
:104A00000FBECDBFCF91DF911F910F91FF90EF901F
:104A10000895EF92FF920F93682F80919B0B40E0D7
:104A20002AEF00E0EE24FF240E94B6240F91FF90AD
:104A3000EF900895EF92FF920F93DF93CF930F9231
:104A4000CDB7DEB7982F6983882361F080919B0BE7
:104A5000692F40E02BEF01E07E010894E11CF11C7E
:104A60000E94B6240F90CF91DF910F91FF90EF90AD
:104A700008951F920F920FB60F920BB60F9211244A
:104A80002F933F934F935F936F937F938F939F9356
:104A9000AF93BF93EF93FF93109273065091D6009C
:104AA000E091A50BEF5FE093A50B6091A30B7091D4
:104AB000A40B62FFB5C05D3F09F069C04091AE0B29
:104AC000242F30E08E2F90E007972817390709F040
:104AD0005EC02091AA0B80919B0B281719F022230E
:104AE00009F04FC067FF4DC0909172068091AB0BEB
:104AF000981709F03FC08091AD0B8230A1F442308D
:104B000040F041508091A90B6091AF0B20EB3BE04E
:104B100007C08091A90B6091AF0B40E020E030E02E
:104B20000E9483282EC02DB73EB7255130400FB6C6
:104B3000F8943EBF0FBE2DBFADB7BEB71196E9EAE0
:104B4000FBE085E101900D928150E1F70E94F3278F
:104B50008091AC0B2DB73EB72B5E3F4F0FB6F8944C
:104B60003EBF0FBE2DBF80FF0CC08091A90B0E94DD
:104B7000092507C0222329F08091A90B60E00E943B
:104B80001A250E94AD228DEF8093A70B5DC0E33004
:104B9000A1F0E43028F4E13051F0E230D1F40AC061
:104BA000E53089F0E53060F0E63099F40FC05093BD
:104BB000A90B48C05093AA0B45C05093AB0B42C001
:104BC0005093AC0B27C05093AD0B24C05093AE0B49
:104BD00021C0F0E0E855F44F50838091AD0B813057
:104BE000C9F41092B2005093A00B852F90E0880F6B
:104BF000991F880F991F9093A20B8093A10B10927D
:104C00009A0B6A607093A40B6093A30B10927506C5
:104C10001092740680917206850F8093720612C0FE
:104C20005E3F81F4E23070F08091A70B8E3F51F42B
:104C30001092A50B109272066D7F64607093A40BA6
:104C40006093A30B5093A70BFF91EF91BF91AF918E
:104C50009F918F917F916F915F914F913F912F9194
:104C60000F900BBE0F900FBE0F901F9018959F9244
:104C7000AF92BF92CF92DF92EF92FF920F93DF93AA
:104C8000CF93CDB7DEB765970FB6F894DEBF0FBEF2
:104C9000CDBF8091A30B9091A40B80648F779093EC
:104CA000A40B8093A30B5E010894A11CB11CC50149
:104CB0000E943627FE800D819A808EEF0E94402848
:104CC0008EEF0E94402889810E944028892D0E94F1
:104CD00040288B810E9440288C810E944028802F90
:104CE0000E9440288F2D0E944028F7E0CF2ED12C23
:104CF000CC0EDD1EEF2CFF2486E090E0E80EF91EBE
:104D0000EA0CFB1C05C0F60181916F010E9440284E
:104D1000CE14DF04C1F78DEF0E944028992021F0C6
:104D20000A3F11F00B3FC9F48091A30B9091A40BA3
:104D30009D7F9093A40B8093A30B0E944D2780919D
:104D4000A30B9091A40B80629093A40B8093A30B70
:104D50001092A80B1092A60B0BC08091A30B909100
:104D6000A40B92609093A40B8093A30B1092A80BBA
:104D70008091A30B9091A40B8F7B9093A40B8093B5
:104D8000A30B65960FB6F894DEBF0FBECDBFCF91D3
:104D9000DF910F91FF90EF90DF90CF90BF90AF9099
:104DA0009F9008958091A30B9091A40B84FF11C054
:104DB00081FF0FC085FF1CC08F7D9093A40B809353
:104DC000A30B8091A60B8F5F8093A60B0E943726C2
:104DD000089590FF0DC08F7D9E7F9093A40B8093CC
:104DE000A30B8091A60B8F5F8093A60B0E943726A2
:104DF00008950E94B2270E942F278FE090E00E9422
:104E0000352880919B0B90E0880F991F880F991F80
:104E1000019690939D0B80939C0B01970396909322
:104E20009F0B80939E0B1092A00B10929A0B80E226
:104E300090E09093A40B8093A30B1092A80B109278
:104E4000A60B0E94AD220E9476288091A30B909120
:104E5000A40B80689093A40B8093A30B08951092E9
:104E6000CB0D1092CC0D1092CD0D0895AC01809118
:104E7000CB0D90E025E130E0829FF001839FF00DA3
:104E8000929FF00D1124DA01E254F44F85E1019074
:104E90000D928150E1F7CA0108959091CB0D9F5F6B
:104EA0009093CB0D8091CD0D81508093CD0D993194
:104EB00010F01092CB0D08951092CB0D1092CC0DE6
:104EC0001092CD0D089520E09091CB0D8091CC0DE6
:104ED000981709F421E0822F08958091CD0D08954F
:104EE000DF93CF93CDB7DEB78091CD0D8F5F8093E9
:104EF000CD0D8A3138F080E00E94D04582E061E03B
:104F00000E942B614091CC0D242F30E085E190E090
:104F1000289FF001299FF00D389FF00D1124E254D5
:104F2000F44FDE01169685E10D9001928150E1F774
:104F3000842F8F5F8093CC0D893110F01092CC0DAF
:104F40009091CC0D8091CB0D981719F49F5F9093A1
:104F5000CB0D8091CB0D893110F01092CB0DCF91FC
:104F6000DF9108951092A00E1092A10E1092A20E41
:104F70000895AC018091A00E90E025E130E0829F81
:104F8000F001839FF00D929FF00D1124DA01E2539E
:104F9000F24F85E101900D928150E1F7CA01089529
:104FA0009091A00E9F5F9093A00E8091A20E8150D1
:104FB0008093A20E9A3010F01092A00E08951092D5
:104FC000A00E1092A10E1092A20E089520E09091D2
:104FD000A00E8091A10E981709F421E0822F089568
:104FE0008091A20E0895DF93CF93CDB7DEB7809165
:104FF000A20E8F5F8093A20E8B3038F080E00E946B
:10500000D04583E061E00E942B614091A10E242FE6
:1050100030E085E190E0289FF001299FF00D389F56
:10502000F00D1124E253F24FDE01169685E10D904A
:1050300001928150E1F7842F8F5F8093A10E8A3017
:1050400010F01092A10E9091A10E8091A00E9817D1
:1050500019F49F5F9093A00E8091A00E8A3010F0FB
:105060001092A00ECF91DF9108959093D500809378
:10507000D40086E08093D20088ED8093D10008951B
:10508000982F8091D00085FFFCCF9093D60080E0D0
:105090000895FC0120E030E070E00AC0908180912A
:1050A000D00085FFFCCF31969093D6002F5F3F4F05
:1050B000261737079CF380E008958091D00087FF82
:1050C000FCCF8091D60008958091D00087FFFCCF5F
:1050D0009091D6008091D00085FFFCCF9093D600B0
:1050E000892F08958091D00080780895E3EAFEE04A
:1050F0001082118213821282148237968FE0E23579
:10510000F807B1F708951F93142F722F482F50E01E
:1051100041505040DA0193E0AA0FBB1F9A95E1F786
:10512000A41BB50BFD01ED55F14F80836183112365
:1051300071F0FD01E855F14F822F932F9C01D901A9
:1051400002C08D9181938A2F871B8117D0F3FA01BA
:1051500083E0EE0FFF1F8A95E1F7E41BF50BED5599
:10516000F14F1382128284818E7F84831F91089570
:10517000E5EAFEE0808191810196918380833796F4
:105180008FE0E435F807B1F70895E5EAFEE03FEF78
:1051900020E0808191818157974130F0828180FDAC
:1051A00003C081608283322F2F5F3796293189F7C0
:1051B0003F3F19F420E030E006C087E0389F9001BF
:1051C00011242D55314FC9010895E5EAFEE020E094
:1051D000808191818157974108F02F5F37968FE04A
:1051E000E435F807A9F7822F089597E0899F900189
:1051F00011242D55314FC901089526E63EE0E22FD6
:10520000F32F3197F1F78A95D1F7089590E04AEF9F
:1052100026E63EE019C0E22FF32F3197F1F74A95C9
:10522000D1F7E22FF32F3197F1F74A95D1F7E22F1B
:10523000F32F3197F1F74A95D1F7E22FF32F3197FA
:10524000F1F74A95D1F79F5F981708F4E4CF0895D6
:105250002091B9002E7F2093B9002091B9002D7FB5
:105260002093B9009C0140E050E069E979E380E0D7
:1052700090E00E94C26C203130F0822F90E0409785
:1052800095958795282F2093B8000895589A599A94
:105290001092BF061092BE061092C1061092C00670
:1052A00084E690E00E942829ECEBF0E080818460A5
:1052B000808310927806808180648083089590E0D6
:1052C000611191E08E7F982B9093BA00089590938E
:1052D000BF068093BE0608959093C1068093C006D2
:1052E0000895ECEBF0E080818F70806A80830895F0
:1052F000ECEBF0E080818F70806D80830895809169
:10530000BC0087FFFCCF08958093BB00ECEBF0E07E
:1053100080818F70806880830895882329F0809130
:10532000BC008F70806C04C08091BC008F7080685E
:105330008093BC0008958091BB0008958091B900CE
:105340000895982F809178068823E1F782E0809372
:105350007806892F90E0880F991F80937906AAE735
:10536000B6E0FA0102C081918D938E2F841B8617BF
:10537000D0F310929A0660939B068091BC008F70C8
:10538000806A8093BC000895982F809178068823C6
:10539000E1F783E080937806990F91609093790606
:1053A0001092BC066093BD068091BC008F70806A2D
:1053B0008093BC00809178068823E1F7ACE9B6E0E1
:1053C000FA0102C08D9181938E2F841B8617D0F332
:1053D0000895982FFA018091BC008E7F8093BC00C5
:1053E0008091BC008F70806A8093BC008091BC006B
:1053F00087FFFCCF892F90E0880F991F8093BB0017
:105400008091BC008F7080688093BC008091BC004C
:1054100087FFFCCF8091B900883189F091E012C0FC
:1054200080818093BB008091BC008F7080688093E6
:10543000BC008091BC0087FFFCCF31966150662391
:1054400079F790E08091BC008F70806D8093BC00F4
:105450008091BC0084FFFCCF8091BC008160809370
:10546000BC00892F08951F93CF93DF93982F162F99
:10547000EA018091BC008E7F8093BC008091BC00CB
:105480008F70806A8093BC008091BC0087FFFCCF46
:1054900080ED8093BB008091BC008F70806880930A
:1054A000BC008091BC0087FFFCCF1092BB008091B4
:1054B000BC008F7080688093BC008091BC0087FF27
:1054C000FCCF8091BC008F70806A8093BC0080917B
:1054D000BC0087FFFCCF990F91609093BB00809137
:1054E000BC008F7080688093BC008091BC0087FFF7
:1054F000FCCF8091B900803469F091E018C08FEF43
:105500000E948D298091BC0087FFFCCF8091BB0059
:1055100089931150123098F780E00E948D29809174
:10552000BC0087FFFCCF8091BB00888390E0809116
:10553000BC008F70806D8093BC008091BC00816046
:105540008093BC00892FDF91CF911F9108958091A6
:10555000780608951F920F920FB60F920BB60F9216
:1055600011242F933F934F935F936F937F938F9368
:105570009F93AF93BF93CF93DF93EF93FF9380916C
:10558000B900887F803609F4B6C0813670F588325C
:1055900009F45FC0893298F4803109F457C0813131
:1055A00038F4882309F405C1883009F00AC14EC0D7
:1055B000883109F44EC0803209F003C1FAC080344A
:1055C00009F48EC0813438F4803309F4F2C0883392
:1055D00009F0F7C05DC0803509F45FC0883509F473
:1055E0004AC0883409F0EDC0E4C0883909F499C094
:1055F0008939B0F4883709F47EC0893738F48836A1
:1056000009F479C0803709F0DCC075C0883809F426
:1056100088C0803909F475C0803809F0D2C071C0E3
:10562000803B09F494C0813B38F4803A09F47DC092
:10563000883A09F0C6C08BC0803C09F4B5C0883CEC
:1056400009F4B2C0883B09F0BCC092C080917906D1
:105650000FC090919A0680919B06981708F0A9C0F8
:10566000E92FF0E0E658F94F80819F5F90939A060A
:105670008093BB0092C08091BC069091BB00E82F44
:10568000F0E0E456F94F90838F5F8093BC0691C0A1
:105690008091BC008F70806890C0A091BC06809102
:1056A000BB00EA2FF0E0E456F94F8083AF5FA09390
:1056B000BC0600D00F92EDB7FEB731968BE192E0B9
:1056C000CDB7DEB79A838983B0E0A556B94F8C91E8
:1056D000828313820E947A6F0F900F900F900F9029
:1056E0002091BC0630E08091BD0690E0019728171C
:1056F0003907BCF414C085E0809378061092BC068C
:1057000047C08091BC069091BB00E82FF0E0E456C2
:10571000F94F90838F5F8093BC06803210F48FEF37
:1057200001C080E00E948D294CC08091BC008F7028
:10573000806C8093BC00E091BE06F091BF0630976C
:10574000F1F18091BC066CE976E0199538C084E0EF
:1057500080937806E091C006F091C106309731F051
:1057600080E26AE776E0199580939B0610929A068C
:1057700090919A06E92FF0E0E658F94F80818093E6
:10578000BB009F5F90939A0680919B06981728F420
:105790008091BC008F70806C04C08091BC008F70C1
:1057A00080688093BC000DC08091BC008F70806CBD
:1057B00004C08091BC008F70806D8093BC001092FB
:1057C0007806FF91EF91DF91CF91BF91AF919F91BB
:1057D0008F917F916F915F914F913F912F910F909A
:1057E0000BBE0F900FBE0F901F9018951092560F82
:1057F0001092550F1092540F1092C2060895E09126
:10580000690FF0916A0F8EEF1995E091690FF09191
:105810006A0F8EEF1995E091690FF0916A0F8BEF87
:105820001995E091690FF0916A0F8BEF1995E0914E
:10583000690FF0916A0F80E01995E091690FF0917E
:105840006A0F8DEF19951092C3060895E091690FC4
:10585000F0916A0F8EEF1995E091690FF0916A0F40
:105860008EEF1995E091690FF0916A0F8AEF199503
:10587000E091690FF0916A0F8AEF1995E091690F35
:10588000F0916A0F80E01995E091690FF0916A0F2D
:105890008DEF19951092C30608957F928F929F9273
:1058A000AF92BF92CF92DF92EF92FF920F931F932E
:1058B000DF93CF93CDB7DEB762970FB6F894DEBF14
:1058C0000FBECDBF782C8982892C9A82AB82BC8294
:1058D000CD82DE82EF82F88609871A872B873C8784
:1058E0004D875E876F87788B898B9A8BE091690FE4
:1058F000F0916A0F8EEF1995E091690FF0916A0FA0
:105900008EEF1995E091690FF0916A0F872D199527
:10591000E091690FF0916A0F882D1995E091690F58
:10592000F0916A0F8A2D199584E0E82EF12CEC0E87
:10593000FD1E8E010A0D111D0C5F1F4F04C0D70103
:105940008D917D011995E091690FF0916A0FE01634
:10595000F106A9F78DEF19951092C30662960FB65E
:10596000F894DEBF0FBECDBFCF91DF911F910F9195
:10597000FF90EF90DF90CF90BF90AF909F908F906F
:105980007F9008951F920F920FB60F9211240F90DF
:105990000FBE0F901F9018958F929F92AF92BF925B
:1059A000CF92DF92EF92FF920F931F93DF93CF93EB
:1059B000CDB7DEB762970FB6F894DEBF0FBECDBF8E
:1059C0008091C506853010F58091C606813039F585
:1059D000CE0101960E94F03189809A80AB80BC8014
:1059E000CD80DE80EF80F88409851A852B853C8583
:1059F0004D855E856F85788989899A890E944D2CAD
:105A00008091C5068F5F8093C50609C080E00E9423
:105A1000D04584E090E061E070E00E942B616296E6
:105A20000FB6F894DEBF0FBECDBFCF91DF911F91AF
:105A30000F91FF90EF90DF90CF90BF90AF909F902D
:105A40008F9008958091C406833040F01092560FD5
:105A50001092550F1092540F1092C2068091C306F7
:105A60008A3010F00E94CC2C8091C3068F5F809307
:105A7000C3068091C4068F5F8093C40608951F9269
:105A80000F920FB60F920BB60F9211247F928F9246
:105A90009F92AF92BF92CF92DF92EF92FF920F93BD
:105AA0001F932F933F934F935F936F937F938F93A6
:105AB0009F93AF93BF93EF93FF937090C600909125
:105AC000560F9F5F9093560F1092C4068091540F0B
:105AD000882309F47CC0943008F45AC08DEF7816FE
