:100000000C94681A0C94891A0C94891A0C94891A05
:100010000C94891A0C94891A0C94891A0C94891AD4
:100020000C94891A0C94891A0C94891A0C94891AC4
:100030000C94891A0C948E220C94891A0C94891AA7
:100040000C94891A0C94891A0C94891A0C94891AA4
:100050000C94891A0C94881B0C94891A0C94A71A76
:100060000C94891A0C94F4270C94EA270C94891A9E
:100070000C94891A0C94891A0C94891A0C94891A74
:100080000C94891A0C94891A0C94891A0C94891A64
:100090000C9495400C948B400C94891A0C948125F7
:1000A0000C94891A0C94891A0C94891A0C94891A44
:1000B0000C94891A0C94891A0C94891A0C94891A34
:1000C0000C94891A0C94891A0C94891A0C94222085
:1000D0000C94321F0C943C1F0C94833A0C948B3973
:1000E0000C94891AFFFFFFFFFFFFFFFFFFFFFFFFD9
:1000F000FFFFFFFFFFFFFFFFFFFFFFFFFFFFFFFF10
:10010000FFFFFFFFFFFFFFFFFFFFFFFFFFFFFFFFFF
:10011000FFFFFFFFFFFFFFFFFFFFFFFFFFFFFFFFEF
:10012000FFFFFFFFFFFFFFFFFFFFFFFFFFFFFFFFDF
:10013000FFFFFFFFFFFFFFFFFFFFFFFFFFFFFFFFCF
:10014000FFFFFFFFFFFFFFFFFFFFFFFFFFFFFFFFBF
:10015000FFFFFFFFFFFFFFFFFFFFFFFFFFFFFFFFAF
:10016000FFFFFFFFFFFFFFFFFFFFFFFFFFFFFFFF9F
:10017000FFFFFFFFFFFFFFFFFFFFFFFFFFFFFFFF8F
:10018000FFFFFFFFFFFFFFFFFFFFFFFFFFFFFFFF7F
:10019000FFFFFFFFFFFFFFFFFFFFFFFFFFFFFFFF6F
:1001A000FFFFFFFFFFFFFFFFFFFFFFFFFFFFFFFF5F
:1001B000FFFFFF7F7F7F7F7F7FFFFFFFFFFFFFFF4F
:1001C000FFFFFFFF7F7F7F7F7F7F7F7FFFFFFFFF3F
:1001D000FFFFFFFFFFFFFF7F7F7F7F7F7F7FFFFFAF
:1001E000FFFFFFFFFFFFFFFFFFFF7F3F1F1F0F8F7F
:1001F0008F8F0F0F1F1F7FFFFFFF3F0F0F0F0F0F7F
:100200009F8F8F0F0F0F1F3FFFFFFF7F3F1F1F0F9E
:100210008F8F8F0F0F0F1F3FFFFFFF3F0F0F0F0F2E
:100220000F9F8F0F0F0F0F0F1FFFFFFFFFFFFF3FEE
:100230000F070180E00000000007FFFFFFFFFF87BE
:1002400001000000183C3C3C7C7C78F8F0F8FF7F13
:100250000F070301C0F0F8F8FCFCFCFCF8F0E0F834
:10026000FFFFFFFFFFFFFFFFFFC1000000003E3F59
:100270003F0F000080C0F0FF7F0700000000383F04
:100280003F1F0F000080C0F8FFFFC1800000001971
:1002900039393938381898F8FF7F0300000080F8A2
:1002A000FFFF3F0300000080FCFF3F1F070100C06D
:1002B000E0E0E3E3E3E0000000000FFFFF1F070FB3
:1002C0001F1E3E3E3C3C3C1800000080E1FFFFE06A
:1002D000800000000F1F3F3F3F3F1F1F0FE7FFFF42
:1002E000FFFFFFFFFFFFFFFFEFEBEBEBEAEAEAEABE
:1002F000EAEAEBEBEBFBFFCFC0C0C0C0F0FFEEEAD9
:10030000EAEAEAEBEBEBEBEBEBEBEBEBEBEAEAEA43
:10031000EAEAEAEAEAEBEBEBEBEAEAEAEAEAEBEB37
:10032000EBEBEAEAEAEAEAEBEBEAEAEAEAEAEBEB27
:10033000EBEBEBEBEBEBEAEAEAEAEAEBEBEBEBEB12
:10034000EAEAEAEAEAEAEAEAEBEBEBEBEBEBEBEB05
:10035000EBEBEBEAEAEAEAEAEAEAEBEBFBFFFFFFA8
:10036000FFFFFFFFFFFFFFFFFFFFFFFFFFFFFFFF9D
:10037000FFFFFFFFFFFFFFFFFFFFFFFFFFFFFFFF8D
:10038000FFFFFFFFFF3F31E0E6CE0E18F93FC7F851
:10039000F083CFF73B05C0F8FF7D3C9ECEE6F0F939
:1003A000FFFF00007F9FE7FB00003FCFE3F8FC3F2B
:1003B000C7F8F083CFF73B05C0F8FF00007F1FC7E9
:1003C000E3F8FCFFFFFFFFFFFFFFFFFFFFFFFFFF63
:1003D000FFFFFFFFFFFFFFFFFFFFFFFFFFFFFFFF2D
:1003E000FFFFFFFFFFFFFFFFFFFFFFFFFFFFFFFF1D
:1003F000FFFFFFFFFFFFFFFFFFFFFFFFFFFFFFFF0D
:10040000FFFFFFFFFFFFFEFEFEFEFEFFFFFEFFFF02
:10041000FFFFFFFFFEFEFFFFFEFEFEFEFEFEFEFFF5
:10042000FFFFFEFEFFFFFFFFFEFEFFFFFFFFFFFEE1
:10043000FFFFFFFFFFFFFEFEFFFFFFFEFEFEFFFFD1
:10044000FFFFFFFFFFFFFFFFFFFFFFFFFFFFFFFFBC
:10045000FFFFFFFFFFFFFFFFFFFFFFFFFFFFFFFFAC
:10046000FFFFFFFFFFFFFFFFFFFFFFFFFFFFFFFF9C
:10047000FFFFFFFFFFFFFFFFFFFFFFFFFFFFFFFF8C
:10048000FFFFFFFFFFFFFFFFFFFFFFFFFFFFFFFF7C
:10049000FFFFFFFFFFFFFFFFFFFFFFFFFFFFFFFF6C
:1004A000FFFFFFFFFFFFFFFFFFFFFFFFFFFFFFFF5C
:1004B000FFFFFFFFFFFFFFFFFFFFFFFFFFFFFFFF4C
:1004C000FFFFFFFFFFFFFFFFFFFFFFFFFFFFFFFF3C
:1004D000FFFFFFFFFFFFFFFFFFFFFFFFFFFFFFFF2C
:1004E000FFFFFFFF00000000000000008080800090
:1004F000800000A0A00000000000147E28FC500036
:100500004060804020C0400064A8D62A4C000060B3
:100510009040986000008080000000004080808053
:1005200080804080404040404080005020F8205073
:1005300000002020F8202000000000004040800043
:100540000000E000000000000000008000202040CB
:1005500040808000006090909060000040C040406B
:1005600040000060902040F000006090209060000B
:10057000002060A0F0200000E080E020C00000200B
:1005800040E090600000E02040404000006090604B
:1005900090600000609070204000000080000080AB
:1005A00000000040004040800020408040200000CB
:1005B00000F000F000000080402040800000C020DB
:1005C0004000400038449AAAB440300020205070C7
:1005D000880000E090E090E0000060908090600073
:1005E00000E0909090E00000E080E080E00000E01B
:1005F00080E0808000007080B0907000009090F0EB
:10060000909000008080808080000010101090602A
:10061000000090A0C0A090000080808080E00000DA
:1006200088D8A88888000088C8A8988800006090AA
:100630009090600000E090E08080000060909090DA
:10064000601000E090E0A090000060804020C000BA
:1006500000E0404040400000909090906000008892
:100660005050202000008254542828000088502038
:100670005088000088502020200000E0204080E0CA
:1006800000C08080808080C080804040202000C0EA
:100690004040404040C00020508800000000000062
:1006A000000000F800804000000000000070909002
:1006B00070000080E09090E00000006080806000AA
:1006C00000107090907000000060A0C0600000609A
:1006D00080C0808000007090907010600080E0907A
:1006E000909000800080808080004000404040402A
:1006F00080008090E0A090000080808080800000DA
:1007000000F0A8A8A8000000E09090900000006011
:100710009090600000E09090E08080007090907079
:1007200010100000A0C0808000000060C020C00049
:100730000080C08080400000009090907000000019
:10074000A0A04040000000A8A85050000000A04019
:1007500040A0000000A0A04080800000E04080E0B9
:100760000020404080404020808080808080008049
:1007700040402040408000649800000000000000DD
:1007800000000000000000000000000000600060A9
:100790000060006000600000006000000048004849
:1007A0000000000000000000000000000028007CA5
:1007B000007C0028007C007C00280000003C0068D1
:1007C00000680038002C002C007800280064006CC1
:1007D000000800180010003600260000003C0066EB
:1007E000003C007D00670067003D000000400040C5
:1007F00000000000000000000000000000100020C9
:1008000000600060006000600020001000400020D8
:100810000030003000300030002000400010005454
:10082000007C0038007C0054001000000000001024
:100830000010007C0010001000000000000000000C
:1008400000000000000000200060004000000000E8
:100850000000007C0000000000000000000000001C
:1008600000000000000000600060000000100010A8
:100870000030002000600040004000000038006CA4
:10088000006C006C006C006C0038000000300070E0
:100890000030003000300030003000000078000CE4
:1008A000000C003800600060007C00000078000C44
:1008B000000C0038000C000C00780000000C001C3C
:1008C000002C004C007C000C000C00000078004064
:1008D0000078000C000C000C00780000003800606C
:1008E0000078006C006C006C00380000007C000C8C
:1008F0000018001800300030003000000038006C94
:10090000006C0038006C006C003800000038006C8F
:10091000006C006C003C000C00380000000000007F
:100920000060006000000060006000000000000047
:100930000060006000000020006000400008001817
:1009400000300060003000180008000000000000C7
:10095000007C0000007C00000000000000400060FF
:100960000030001800300060004000000078000CEB
:10097000001800300030000000300000003C00662D
:10098000007E006E007C0060003E0000003C0066BF
:1009900000660066007E006600660000007C00665F
:1009A000007C006600660066007C0000003C006081
:1009B0000060006000600060003C0000007C006699
:1009C0000066006600660066007C0000007C006037
:1009D000007C006000600060007C0000007C006023
:1009E000007C00600060006000600000003E00606D
:1009F0000060006600660066003E0000006600665B
:100A0000007E006600660066006600000060006010
:100A1000006000600060006000600000000C000CDE
:100A2000000C000C000C000C007800000066006C4C
:100A3000007800700078006C0066000000600060C4
:100A40000060006000600060007C00000041006306
:100A50000077007F006B00630063000000460066C3
:100A60000076007E006E006600620000003C0066BA
:100A70000066006600660066003C0000007C0066C0
:100A800000660066007C006000600000003C0066BC
:100A9000006600660066006E003C0006007C006692
:100AA00000660066007C007C006600000038006084
:100AB000006000300018001800700000007E001870
:100AC00000180018001800180018000000660066E2
:100AD0000066006600660066003C00000066006676
:100AE0000066003C003C0018001800000063006332
:100AF0000063006B003E00360036000000660066B2
:100B0000003C0018003C00660066000000660066BD
:100B1000003C00180018001800180000007C000CB1
:100B2000001C003800700060007C00000070006055
:100B300000600060006000600060007000400040E5
:100B40000060002000300010001000000070003035
:100B500000300030003000300030007000200050C5
:100B60000000000000000000000000000000000085
:100B70000000000000000000000000F800200060FD
:100B80000040000000000000000000000000000025
:100B90000038000C003C006C003C0000006000606D
:100BA0000078006C006C006C007800000000000011
:100BB000003800600060006000380000000C000C8D
:100BC000003C006C006C006C003C00000000000069
:100BD0000038006C007C0060003C000000300060C9
:100BE0000070006000600060006000000000000015
:100BF000003C006C006C003C000C003800600060A1
:100C00000078006C006C006C006C0000006000005C
:100C100000600060006000600060000000300000C4
:100C200000300030003000300030006000600060B4
:100C30000060006C00780078006C000000600060CC
:100C400000600060006000600060000000000000C4
:100C5000007F006D806D806D806D80000000000061
:100C60000078006C006C006C006C0000000000005C
:100C70000038006C006C006C0038000000000000C0
:100C80000078006C006C00780060006000000000DC
:100C9000003C006C006C003C000C000C00000000EC
:100CA0000068007800600060006000000000000044
:100CB0000038006000300018007000000060006024
:100CC0000070006000600060003000000000000064
:100CD000006C006C006C006C003C00000000000028
:100CE000006C006C003800380010000000000000AC
:100CF0000063006B006B003E003600000000000047
:100D0000006C007C0038007C006C000000000000DB
:100D1000006C006C006C003C000C0038000000000F
:100D2000007C000C00380060007C000000380020CF
:100D3000002000400020002000380000004000405B
:100D400000400040004000400040004000700010A3
:100D50000010000800100010007000000028005073
:100D60000000000000000000000000000038006CDF
:100D7000006C0038000000000000000000000000CF
:100D800000000000000000000000183C3C3C181867
:100D900000181800000066666600000000000000F1
:100DA000000036367F3636367F36360000083E6B1A
:100DB00068683E0B0B6B3E080870D8DA760C18306A
:100DC0006E5B1B0E0000386C6C386CC7C66E3B0047
:100DD00000001818180000000000000000000C18A7
:100DE00018303030303018180C003018180C0C0C3B
:100DF0000C0C181830000000361C7F1C3600000058
:100E00000000000018187E18180000000000000004
:100E100000000000001818300000000000007E00F4
:100E20000000000000000000000000000018180092
:100E3000000006060C0C18183030606000001C36EC
:100E4000636B6B6B63361C0000000C1C3C0C0C0CC1
:100E50000C0C3F0000003C6606060C1830607E005B
:100E600000003C6666061C0666663C000000060E36
:100E70001E3666667F06060000007E6060607C06A7
:100E800006663C0000001C3060607C6666663C00C4
:100E900000007E060C0C18181818180000003C669C
:100EA00066663C6666663C0000003C6666663E061A
:100EB000060C380000000000181800000018180088
:100EC0000000000018180000001818300000060C80
:100ED00018306030180C060000000000007E007E14
:100EE0000000000000006030180C060C1830600094
:100EF00000003C66660C18180018180000007EC33D
:100F0000C3CFDBDBCFC07F000000183C6666667E87
:100F10006666660000007C6666667C6666667C00C7
:100F200000003C666060606060663C000000786CB9
:100F300066666666666C780000007E6060607C6055
:100F400060607E0000007E6060607C6060606000C9
:100F500000003C666060606E66663E00000066668B
:100F600066667E666666660000003C1818181818EB
:100F700018183C00000006060606060666663C00D9
:100F8000000066666C6C786C6C66660000006060E1
:100F90006060606060607E00000063777F6B6B6301
:100FA0006363630000006363737B6F676363630065
:100FB00000003C666666666666663C0000007C660D
:100FC00066667C606060600000003C66666666661F
:100FD00066663C0C06007C6666667C6C666666002F
:100FE00000003C666030180C06663C0000007E186D
:100FF00018181818181818000000666666666666E5
:1010000066663C000000666666666666663C1800BA
:101010000000636363636B6B6B3E360000006666C3
:10102000663C183C666666000000666666663C18AC
:101030001818180000007E06060C183060607E004C
:10104000003C303030303030303030303C00606088
:10105000303018180C0C0606003C0C0C0C0C0C0C58
:101060000C0C0C0C3C183C6600000000000000005A
:10107000000000000000000000000000FF303018F9
:101080000000000000000000000000003C06063EDA
:1010900066663E00000060607C66666666667C0090
:1010A000000000003C66606060663C0000000606D0
:1010B0003E66666666663E00000000003C66667E30
:1010C00060603C0000001C30303078303030300040
:1010D000000000003E66666666663E063C00606094
:1010E0007C66666666666600001818007818181830
:1010F00018187E00000C0C003C0C0C0C0C0C0C0C9A
:101100007800606066666C786C666600000078182F
:101110001818181818187E00000000007E6B6B6B02
:101120006B6B6300000000007C66666666666600A6
:10113000000000003C66666666663C000000000039
:101140007C66666666667C60600000003E66666679
:1011500066663E06060000007C66606060606000B7
:10116000000000003E60603C06067C00000030305D
:101170007830303030301C00000000006666666653
:1011800066663E000000000066666666663C180003
:10119000000000006363636B6B3E360000000000DC
:1011A00066663C183C66660000000000666666667F
:1011B00066663E067C0000007E060C1830607E00ED
:1011C000000C1818181830181818180C00181818CF
:1011D00018180018181818180030181818180C18B3
:1011E00018181830000076DC000000000000000035
:1011F00000000000000000000000000000000000EF
:1012000000000000000000000000000000000000DE
:1012100000000000000000000000000000000000CE
:10122000000000000000003000003000003000002E
:10123000300000300000300000300000300000308E
:10124000000030000030000000000000000030000E
:10125000003000000000000000000000006C0000F2
:101260006C00006C00006C0000000000000000003A
:10127000000000000000000000000000000000006E
:10128000000000000000000000000000000000005E
:101290000000000440000440000440000440007FBF
:1012A000F00008800008800008800009000011009C
:1012B00000FFE000110000120000220000220000E8
:1012C0000000000000000000000200000FC0001A33
:1012D00060003220003200003A00001E00000700CB
:1012E0000003C00002E00002600002600022600013
:1012F00032C0001F800002000000000000000078E3
:101300001000CC1000CC2000CC4000CC4000CC80A1
:101310000079000002000002F00005980009980022
:1013200011980011980021980040F0000000000082
:1013300000000000000780000CC0000CC0000CC0C2
:10134000000CC0000780000E0000333C0063080062
:1013500061880061D00070F0007860003FF0000FFD
:101360003800000000000000000000600000600085
:10137000006000006000006000000000000000004D
:10138000000000000000000000000000000000005D
:10139000000000000000000000000000000000004D
:1013A00000040000080000180000300000300000B9
:1013B000200000600000600000600000600000602D
:1013C0000000600000200000300000300000180025
:1013D0000008000004000040000020000030000071
:1013E0001800001800000800000C00000C00000CA1
:1013F00000000C00000C00000C00000800001800A9
:10140000001800003000002000004000000C000028
:101410000C00004C80007380001200001E0000339E
:101420000000330000000000000000000000000089
:1014300000000000000000000000000000000000AC
:101440000000000000000000000000000600000690
:1014500000000600000600000600007FE0007FE0BC
:10146000000600000600000600000600000600005E
:10147000000000000000000000000000000000006C
:10148000000000000000000000000000000000005C
:10149000000000000000000000000000000000004C
:1014A000300000300000100000100000200000009C
:1014B000000000000000000000000000000000002C
:1014C000000000000000007C00007C000000000024
:1014D000000000000000000000000000000000000C
:1014E00000000000000000000000000000000000FC
:1014F00000000000000000000000000000000000EC
:10150000000000000000000000000000300000307B
:10151000000000000000000000000000C00000C04B
:101520000001800001800003800003000003000030
:101530000600000600000C00000C00001800001857
:101540000000380000300000300000600000600043
:10155000000F000019800030C000204000606000D3
:10156000606000606000606000606000606000605B
:10157000600020400030C0001980000F0000000013
:10158000000000000000000200001E000006000035
:101590000600000600000600000600000600000627
:1015A000000006000006000006000006000006001D
:1015B000001F80000000000000000000001F8000ED
:1015C00030C000206000006000006000006000008B
:1015D000C0000180000300000600000800001800A1
:1015E000001000003FE0003FE000000000000000AD
:1015F0000000001F800020C000206000006000008C
:10160000600000C0000180001F000001C0000060F9
:101610000000600000600020600030C0001F8000FB
:1016200000000000000000000000400000C00001B9
:10163000C00002C00004C00008C00010C00010C0FC
:101640000020C0007FF0007FF00000C00000C0005C
:1016500000C00001E0000000000000000000001FCA
:10166000C0001FC00010000010000010000010009B
:10167000001F000001C00000C0000060000060000A
:1016800000600010E00010C0000F800000000000AB
:1016900000000000000F80001840003040003000C3
:1016A000006000006F800070C00060E000606000BB
:1016B00060600060600020600030400018C0000FD3
:1016C00000000000000000000000003FE0003FE0DC
:1016D0000000400000C00000800001000001000088
:1016E0000200000600000400000C00000C000008CE
:1016F00000001800001800000000000000000000BA
:10170000000F800018C000306000306000306000C2
:101710001CC0000F00001F800031C00060E00060AE
:10172000600060600060600030C0001F800000004A
:10173000000000000000000F000031C00020C000C9
:1017400060600060600060600060600030600030D9
:10175000E0001F600000400000C00000C0002180C9
:10176000003E00000000000000000000000000003B
:101770000000000000000000003000003000000009
:101780000000000000000000000000000000000059
:1017900000000000300000300000000000000000E9
:1017A0000000000000000000000000000000003009
:1017B00000003000000000000000000000000000F9
:1017C00000000000000000000000300000300000B9
:1017D00010000010000020000000000000000000C9
:1017E000000000000000100000700001E000078011
:1017F000001E00007800001E000007800001E000CD
:101800000070000010000000000000000000000058
:1018100000000000000000000000000000000000C8
:10182000007FF0007FF0000000000000007FF0006B
:101830007FF0000000000000000000000000000039
:101840000000000000000000000000000000000098
:10185000004000007000003C00000F000003C000CA
:1018600000F00003E0000F80003E00007000004028
:1018700000000000000000000000003E00006300C7
:101880000041800001800001800003000002000090
:101890000C00000800001800001800000000000004
:1018A0000000180000180000000000000000000008
:1018B0000001F8000606000C030010F900319880C2
:1018C000231880421880463080463080467100469A
:1018D000B200233C0020000018200007C0000000D8
:1018E000000000000000000300000300000380006F
:1018F00005800005800008C00008C00010E000104E
:1019000060001060003FF0002030004018004018D8
:1019100000E03C000000000000000000007F00002C
:1019200031C00030C00030C00030C0003080003115
:1019300080003E000031C00030C0003060003060E8
:101940000030600030C0007F800000000000000018
:1019500000000007F0001C1800380800300000707C
:101960000000600000600000600000600000600097
:10197000007000003000001800000C080007F000A4
:101980000000000000000000007FC0003070003048
:101990003800301800300C00300C00300C00300CD7
:1019A00000300C00300C00301C00301800303800C3
:1019B0003070007FC0000000000000000000007FC9
:1019C000C000304000300000300000300000300027
:1019D000003100003F000031000030000030000006
:1019E0003000003040003040007FC00000000000A8
:1019F00000000000007FC0003040003000003000D8
:101A0000003000003000003080003F800030800057
:101A1000300000300000300000300000300000785E
:101A2000000000000000000000000007F0001C188B
:101A30000038080030000070000060000060000006
:101A4000600000607C0060180070180030180018FA
:101A500018000C180007F000000000000000000053
:101A600000783C00301800301800301800301800A2
:101A70003018003018003FF80030180030180030DF
:101A80001800301800301800301800783C000000B2
:101A9000000000000000007800003000003000006E
:101AA0003000003000003000003000003000003016
:101AB0000000300000300000300000300000300036
:101AC000007800000000000000000000003E000060
:101AD0000C00000C00000C00000C00000C00000CBE
:101AE00000000C00000C00000C00000C00000C00BA
:101AF000000C00000C00000C00008C00009800009E
:101B0000F0000078F000304000308000308000317C
:101B100000003200003400003C00003600003300BA
:101B20000031800030C00030600030300078F800B4
:101B300000000000000000000078000030000030CD
:101B400000003000003000003000003000003000A5
:101B50000030000030000030000030000030400055
:101B60003040007FC0000000000000000000007056
:101B70000700300600380E00380E003C16002C1608
:101B8000002C360026260026260023460023460089
:101B9000238600218600218600700F0000000000CF
:101BA0000000000000701C003008003808002C08FD
:101BB000002E080026080023080021880021880044
:101BC00020C800206800207800203800201800700D
:101BD000080000000000000000000007C0001C70AA
:101BE00000301800301800600C00600C00600C0021
:101BF000600C00600C00600C00600C0030180030BD
:101C000018001C700007C000000000000000000069
:101C1000007F800030C00030600030600030600025
:101C200030600030C00031C0003F000030000030A4
:101C3000000030000030000030000078000000009C
:101C40000000000000000007C0001C7000301800F9
:101C5000301800600C00600C00600C00600C00602C
:101C60000C00600C00600C003018003018001C7074
:101C70000007C000003000001F000007007F800048
:101C800030C00030600030600030600030600031F3
:101C9000C0003F000033000031800031C00030C080
:101CA0000030600030700078380000000000000054
:101CB0000000001F800030C0006040006000006035
:101CC00000007000003C00000F000003800001C015
:101CD0000000C00000C00040C0006180003F000064
:101CE0000000000000000000007FF80043080043EF
:101CF00008000300000300000300000300000300CD
:101D000000030000030000030000030000030000C4
:101D100003000007800000000000000000000078C1
:101D2000380030100030100030100030100030103B
:101D30000030100030100030100030100030100063
:101D40003010001820001C60000FC00000000000D0
:101D50000000000000781C00300800300800181057
:101D6000001810001810000C20000C200006400085
:101D7000064000064000038000038000038000014D
:101D800000000000000000000000007861C030602A
:101D90008030608030E08038B10018B10019310027
:101DA000193900191A000D1A000E1A000E0E000E35
:101DB0000C00040C000404000000000000000000FF
:101DC00000F870006020003040003880001880006B
:101DD0000D00000E00000600000700000B000011BF
:101DE000800011C00020C000406000E1F000000051
:101DF00000000000000000F0700060200030400093
:101E00003840001880001C80000D0000060000060D
:101E100000000600000600000600000600000600A4
:101E2000000F00000000000000000000007FE00044
:101E300040E00000C00001C000018000030000037A
:101E400000000600000E00000C0000180000180042
:101E5000003000007020007FE00000000000000063
:101E60000000003C00003000003000003000003076
:101E70000000300000300000300000300000300072
:101E80000030000030000030000030000030000062
:101E90003000003000003C000060000060000030B6
:101EA00000003000003800001800001800000C008E
:101EB000000C000006000006000003000003000004
:101EC00003800001800001800000C00000C0007895
:101ED000000018000018000018000018000018008A
:101EE000001800001800001800001800001800007A
:101EF0001800001800001800001800001800001852
:101F00000000780000030000030000078000078045
:101F1000000CC0000CC000186000186000303000D9
:101F20003030000000000000000000000000000051
:101F300000000000000000000000000000000000A1
:101F40000000000000000000000000000000000091
:101F50000000000000000000000000000000000081
:101F600000000000000000007F8000000000000072
:101F700000060000030000018000000000000000D7
:101F80000000000000000000000000000000000051
:101F90000000000000000000000000000000000041
:101FA0000000000000000000000000000000000031
:101FB0000000001F0000238000218000018000013C
:101FC00080001F800031800061800061800073808C
:101FD000003CE00000000000000000000070000075
:101FE00030000030000030000037C00038600030A2
:101FF00030003030003030003030003030003030D1
:1020000000306000386000378000000000000000F1
:102010000000000000000000000000000000000FB1
:102020000000388000308000600000600000600028
:10203000006000006000003000003880000F0000E9
:1020400000000000000000000000E0000060000050
:1020500060000060000F600030E0003060006060F1
:1020600000606000606000606000606000606000B0
:1020700030E0001F700000000000000000000000C1
:1020800000000000000000000000000F0000318090
:102090000020C00060C0007FC00060000060000041
:1020A0006000003000001840000F800000000000B9
:1020B00000000000000F00001900001800001800C8
:1020C000007F000018000018000018000018000031
:1020D0001800001800001800001800001800003C4C
:1020E00000000000000000000000000000000000F0
:1020F000000000000000000FF00019800030C00058
:1021000030C00030C0001980000F00001000003007
:1021100000003FC0001FE00020600060C0003F8062
:102120000070000030000030000030000037C000B8
:102130003860003060003060003060003060003097
:10214000600030600030600030600078F000000017
:10215000000000000000003000003000000000001F
:10216000000000700000300000300000300000303F
:10217000000030000030000030000030000030006F
:1021800000780000000000000000000000180000BF
:1021900018000000000000000038000018000018BF
:1021A00000001800001800001800001800001800B7
:1021B00000180000180000180000180000100000AF
:1021C000E0000070000030000030000030000030FF
:1021D000E0003080003100003200003400003E009A
:1021E0000036000033000031800030C000787000FD
:1021F000000000000000000000700000300000300F
:1022000000003000003000003000003000003000DE
:1022100000300000300000300000300000300000CE
:102220003000007800000000000000000000000006
:10223000000000000000000000000077CF80387030
:10224000C03060C03060C03060C03060C03060C03E
:102250003060C03060C03060C078F1E00000000045
:10226000000000000000000000000000000000006E
:102270000077C000386000306000306000306000DF
:102280003060003060003060003060003060007806
:10229000F00000000000000000000000000000004E
:1022A000000000000000000F000039C00030C00036
:1022B000606000606000606000606000606000302E
:1022C000C00039C0000F0000000000000000000046
:1022D0000000000000000000000000000077C000C7
:1022E00038600030300030300030300030300030A6
:1022F000300030600038600037800030000030006F
:102300000030000078000000000000000000000025
:102310000000000F600030E000306000606000608E
:10232000600060600060600060600030E0001F607E
:102330000000600000600000600000F0000000008D
:1023400000000000000000000073000037000039AA
:10235000000030000030000030000030000030008D
:102360000030000030000078000000000000000095
:102370000000000000000000000000000000000F4E
:1023800000003080003080003000001C00000F0092
:102390000003C00000C00020C0003180001F00000A
:1023A00000000000000000000000000000000030FD
:1023B00000003000007E00003000003000003000DF
:1023C000003000003000003000003000003000001D
:1023D0003000001E000000000000000000000000AF
:1023E000000000000000000000000070E00030600D
:1023F000003060003060003060003060003060000D
:1024000030600030600030E0001F7000000000000D
:1024100000000000000000000000000000000000BC
:102420000078700030200030200018400018400074
:102430001C80000C80000D00000700000600000258
:10244000000000000000000000000000000000008C
:102450000000000000000078C70030C20030C20059
:102460003162003962001B74001A34001A34000C07
:1024700018000C18000C18000000000000000000FC
:102480000000000000000000000000000078E000F4
:102490003040001880001D00000E000006000007FC
:1024A00000000B800011800020C00071E0000000DF
:1024B000000000000000000000000000000000001C
:1024C0000000007870003020003020001840001814
:1024D00040001C80000C80000D000007000006007A
:1024E000000200000400000C0000180000000000C2
:1024F0000000000000000000003FE00020E00000BD
:10250000C0000180000300000700000600000C006E
:10251000001800003820003FE0000000000000002C
:102520000000000C000010000030000030000030FF
:1025300000003000003000002000004000002000BB
:10254000003000003000003000003000003000009B
:102550001000000C000000000030000030000030CF
:10256000000030000030000030000030000030007B
:10257000003000003000003000003000003000006B
:1025800030000030000030000030000030000060FB
:1025900000001000001800001800001800001800CB
:1025A00000180000080000040000080000180000E7
:1025B000180000180000180000180000100000604B
:1025C000000000000000000000000000000000000B
:1025D000000000000000000000003E10007FF0003E
:1025E00003E0000000000000000000000000000008
:1025F00000000000000000000000000000000000DB
:1026000000000000000000000000000000000000CA
:1026100000000000000000000000000000000000BA
:1026200000000000000000000000000000000000AA
:10263000003F00003F00003F00003F00003F00005F
:102640003F00001E00001E00001E00001E00001EB5
:1026500000001E00000000001C00003E00003E00C4
:10266000003E00001C000073800073800073800037
:10267000738000738000738000738000000000008E
:10268000000000000000000000000000000000004A
:10269000000000000000000000000000000038E022
:1026A0000070E00071C00071C000E3800FFFF81FF0
:1026B000FFF81FFFF001C700038700038E003FFFF4
:1026C000E03FFFE07FFFC0071C000E1C000E38003B
:1026D0001C38000180000180000FE0001FF0003D69
:1026E00090003D80003F80001FE0000FF00003F8E5
:1026F0000001BC0001BC0021BC0031FC003FF8001F
:102700001F800001E0000180001F01C03F81807137
:10271000C30071C70071C60071CC0071DC003F9826
:10272000001F30000033E00067F000CE3800CE38E4
:10273000018E38038E38030E380607F00E03E007CB
:10274000E0000FF0001FF8001F38001F38001FF8CE
:10275000000FF00007E0000FF0001FF8003EFC0043
:102760007C7F007C3F807C1FC07E1FE03FFFF81F06
:10277000F3F80FE0F87000007000007000007000C7
:1027800000700000700000700000000000000000F9
:102790000000000000000000000000000000000039
:1027A0000000000000000000000000018000038025
:1027B000000700000700000E00000E00001E0000D1
:1027C0001E00001E00001E00001E00001E00000E65
:1027D00000000E00000700000700000380000180D9
:1027E000003000003800001C00001C00000E00003B
:1027F0000E00000F00000F00000F00000F00000F80
:1028000000000F00000E00000E00001C00001C0065
:102810000038000030000003C00009A0000DB00027
:102820001F780003C00003C0001F78000DB000092E
:10283000A00003C000000000000000000000000035
:102840000000000000000000000000000000380050
:102850000038000038000038000038000038000060
:1028600038001FFFF01FFFF01FFFF0003800003896
:102870000000380000380000380000380000380040
:102880000000000000000000000000000000000048
:102890000000000000000000000000000000000038
:1028A000003800007C00007C00007C00003C000040
:1028B0001800003000006000000000000000000070
:1028C0000000000000000000000000000000000008
:1028D000001FC0003F80007F0000000000000000DB
:1028E00000000000000000000000000000000000E8
:1028F00000000000000000000000000000000000D8
:1029000000000000000000000000000000000000C7
:102910000000000000003800007C00007C00007C0B
:1029200000003800000600000600000E00000C0049
:10293000000C00001C000018000018000038000007
:10294000300000300000700000600000600000E017
:102950000000C00000C00000C0000003E0000FF84D
:10296000001FFC003E3E003E3E003C1E007C1F005F
:102970007C1F007C1F007C1F007C1F007C1F003C14
:102980001F003E3E003E3E001FFC000FF80003E02B
:102990000000200000600000E00007E0001FE000F1
:1029A00003E00003E00003E00003E00003E00003B5
:1029B000E00003E00003E00003E00003E00003E0C8
:1029C0000003E0000FF80007E0001FF8001FFC0004
:1029D00038FC00207C00007C0000FC0000F80001B6
:1029E000F80001F00003E00007E00007C0000F80DE
:1029F000001F82001FFE003FFC007FFC001FC00084
:102A00003FF0003FF80021F80000F80000F8000156
:102A1000F0001FE0001FF0001FF80000FC00007C29
:102A200000007C00007C0000F8007FF8003FF00010
:102A30003FC00001F80001F80003F80003F80006A9
:102A4000F80006F8000CF8001CF80018F80038F838
:102A50000030F9007FFF007FFE00FFFE0000F8005D
:102A600000F80000F80001FC001FF8001FF8003F0C
:102A7000F8003E08003E00003E00003FE0003FF04E
:102A8000003FF80021FC00007C00007C00007C007E
:102A9000007C0001F8007FF8003FF0001FC000003C
:102AA000780001F00007E0000F80001F00003E00EA
:102AB000003EF0003DFC007DFC007C7E007C3E0082
:102AC0007C3E007C3E007C3E003E7C001FFC000FF4
:102AD000F80007E0003FFE003FFC007FFC00407C68
:102AE0000000780000F80000F80001F00001F0009C
:102AF00003E00003E00003E00007C00007C0000F90
:102B000080000F80000F80001FC00007F0000FF84A
:102B1000001FFC003E3E003E1E003E1E003F9C008B
:102B20001FF8000FF8001FFC003CFE00783F007803
:102B30001F00781F007C3F003FFE001FFC0007F0D5
:102B40000007E0001FF0003FF8003E7C007C3E00E4
:102B50007C3E007C3E007C3E007E3E003FBE003F4F
:102B6000BE000F7C00007C0000F80001F00007E0D0
:102B7000000F80001E0000000000000000000000A8
:102B80000000001C00003E00003E00003E00001C53
:102B900000000000000000001C00003E00003E009D
:102BA000003E00001C0000000000000000000000CB
:102BB0000000000000000000000000000000000015
:102BC0000000000000000000000000000000000005
:102BD00000000000000000000000000000000000F5
:102BE00000000000000000000000000000000000E5
:102BF00000000000000000000000000000000000D5
:102C000000000000000000000000000000000000C4
:102C100000000000000000000000000000000000B4
:102C2000000000000001F0000003F8000007FC00B5
:102C30000007FC000007FC000007FC000007FC0088
:102C40000003F8000001F000000000000000000098
:102C50000000000000000000000000000000000074
:102C60000000000000000000000000000000000064
:102C70000000000000000000000000000000000054
:102C80000000000000000000000000000000000044
:102C90000000000000000000000000000000000034
:102CA0000000000000000000000000000000000024
:102CB0000000000000000000000000000000000014
:102CC000000000000001F0000003F8000007FC0015
:102CD0000007FC000007FC000007FC000007FC00E8
:102CE0000003F8000001F0000000000000001FC019
:102CF00000007FF00000F0780001E03C0003E03EBF
:102D00000007E03F0007C01F000FC01F800FC01F5B
:102D1000800FC01F801FC01FC01FC01FC01FC01F4B
:102D2000C01FC01FC03FC01FE03FC01FE03FC01F0B
:102D3000E03FC01FE03FC01FE03FC01FE03FC01F9B
:102D4000E03FC01FE03FC01FE03FC01FE03FC01F8B
:102D5000E03FC01FE01FC01FC01FC01FC01FC01F1B
:102D6000C01FC01FC00FC01F800FC01F800FC01F1B
:102D70008007C01F0007E01F0003E03E0001E03CA9
:102D80000000F07800007FF000001FC0000000602D
:102D9000000001E0000007E000003FE00000FFE06D
:102DA0000003FFE000063FE000001FE000001FE01E
:102DB00000001FE000001FE000001FE000001FE017
:102DC00000001FE000001FE000001FE000001FE007
:102DD00000001FE000001FE000001FE000001FE0F7
:102DE00000001FE000001FE000001FE000001FE0E7
:102DF00000001FE000001FE000001FE000001FE0D7
:102E000000001FE000001FE000001FE000001FE0C6
:102E100000001FE000001FE000001FE000001FE0B6
:102E200000003FF000007FF80007FFFF80003F80B8
:102E30000000FFE00001FFF00007FFFC0007FFFCBF
:102E4000000FFFFE001FFFFE001E0FFF003803FFF4
:102E5000003001FF002001FF000000FF000000FF24
:102E6000000000FE000000FE000000FE000000FC6C
:102E7000000000FC000001F8000001F8000001F073
:102E8000000003E0000003C0000007C0000007804E
:102E900000000F0000001E0000001C0000003800B1
:102EA00040007000C000E000C000C0038001FFFFD0
:102EB0008003FFFF8007FFFF800FFFFF801FFFFFE2
:102EC000001FFFFF003FFFFF007FFFFF00001FC04C
:102ED0000000FFF00001FFFC0007FFFE000E07FEF0
:102EE000000C03FF001001FF003000FF000000FF96
:102EF000000000FE000000FE000000FC000001F0E9
:102F0000000001C0000003E000000FF800003FFCDB
:102F10000000FFFE00003FFF00000FFF800007FFE2
:102F2000800003FFC00001FFC00000FFC000007F61
:102F3000C000007FC000007FC000003FC000003F15
:102F4000C000003F8000003F803C003F003E003F4B
:102F5000007F007E007F80FC007FE1FC007FFFF0AF
:102F6000003FFFE0001FFF800007FC000000001E84
:102F70000000003E0000003E0000007E000000FE59
:102F8000000000FE000001FE000003FE000003FE42
:102F9000000007FE00000DFE000019FE000019FEF3
:102FA000000031FE000061FE000061FE0000C1FE75
:102FB000000181FE000181FE000301FE000601FE0A
:102FC000000C01FE000C01FE001801FE003001FEA5
:102FD000003FFFFFE03FFFFFE03FFFFFE03FFFFF5D
:102FE000E03FFFFFE03FFFFFE00001FE000001FEC9
:102FF000000001FE000001FE000001FE000001FED5
:10300000000001FE000001FE000001FE00007FFF45
:10301000E0007FFFE000FFFFC000FFFFC000FFFFF8
:10302000C001FFFF8001FFFF8001FFFF8003FFFF62
:103030000003000000070000000600000007F00089
:10304000000FFF00000FFFE0000FFFF0001FFFFC6C
:10305000001FFFFE001FFFFF003FFFFF80003FFF3C
:10306000800007FFC00000FFC000007FE000003FBD
:10307000E000001FE000000FE0000007E000000794
:10308000E0000003E0000003C0000003C01E0003D6
:10309000C01F8003803FC003003FE007003FF80EE1
:1030A000001FFC18000FFFE00001FF0000000003FC
:1030B000E000003F800000FE000003F000000FE091
:1030C00000001FC000003F0000007F000000FE0065
:1030D0000001FC000003FC000003F8000007F800FA
:1030E0000007F000000FF000000FF000001FE7F0F5
:1030F000001FFFFC001FF0FF003FE07F803FE07FEC
:10310000803FC03FC03FC03FC03FC03FE03FC01F07
:10311000E03FC01FE03FC01FE03FC01FE03FC01FB7
:10312000E01FC01FE01FE01FE01FE01FC00FE01FF7
:10313000C00FE01FC007F01F8003F03F0003F83E00
:103140000000FC7C00007FF800001FC00007FFFFAC
:10315000F007FFFFF00FFFFFE00FFFFFE00FFFFFA3
:10316000E00FFFFFC00FFFFFC01FFFFFC01FFFFFEB
:10317000801F0007801800078030000F0020000F1C
:103180000000001F0000001E0000001E0000003EA6
:103190000000003C0000003C0000007800000078C7
:1031A00000000078000000F0000000F0000000F0D7
:1031B000000001E0000001E0000001E0000003C0A9
:1031C000000003C0000003C000000780000007806B
:1031D0000000078000000F0000000F0000000F003B
:1031E00000001E0000001E0000001E0000001FE086
:1031F0000000FFFC0001F87E0003F01F0007F01F35
:10320000800FE00F800FE00FC01FE00FC01FE00F26
:10321000C01FF00FC01FF00FC01FF80FC01FF81F16
:10322000800FFC1F800FFF1F0007FFBE0007FFFC81
:103230000001FFF00000FFF800007FFE00003FFFEC
:1032400000007FFF0001F7FF8007C1FFC00FC0FF34
:10325000C01F807FE01F807FE03F003FE03F003FD6
:10326000E03F001FE03F001FE03F001FE03F001F66
:10327000C01F001FC01F801F800F803F800FC07FB6
:103280000003E0FE0001FFF800003FC000001F80C7
:103290000000FFF00001F1F80003E0FC0007E07E11
:1032A000000FC07F001FC03F801FC03F801FC03F76
:1032B000C03FC03FC03FC01FC03FC01FE03FC01F56
:1032C000E03FC01FE03FC01FE03FC01FE03FE01FE6
:1032D000E01FE01FE01FE01FE00FF01FE007F01FFE
:1032E000E003FC3FC001FFFFC0007FBFC000003F04
:1032F0008000003F8000003F8000007F0000007FD2
:10330000000000FE000000FC000001F8000003F0D7
:10331000000007E000000FC000001F8000007E00DA
:103320000001F800000FE000003E00000000000077
:10333000000000000000000000000000000000008D
:10334000000000000001F0000003F8000007FC008E
:103350000007FC000007FC000007FC000007FC0061
:103360000003F8000001F000000000000000000071
:10337000000000000000000000000000000000004D
:10338000000000000000000000000000000000003D
:103390000001F0000003F8000007FC000007FC003B
:1033A0000007FC000007FC000007FC000003F80019
:1033B0000001F0000000000000000000000000001C
:1033C000000000000000000000000000006E616EC0
:1033D00000696E660000407A10F35A00A0724E1821
:1033E000090010A5D4E80000E87648170000E40BB7
:1033F00054020000CA9A3B000000E1F5050000807D
:10340000969800000040420F000000A086010000D6
:1034100000102700000000E8030000000064000026
:103420000000000A00000000000100000000002C65
:1034300076D888DC674F0823DFC1DFAE59E1B1B72A
:1034400096E5E3E453C63AE651997696E8E6C284F7
:1034500026EB898C9B62ED407C6FFCEFBC9C9F400F
:10346000F2BAA56FA5F490055A2AF75C936B6CF934
:10347000676DC11BFCE0E40D47FEF520E6B500D00A
:10348000ED902E0300943577050080841E0800001F
:10349000204E0A000000C80C333333330F986E12ED
:1034A000831141EF8D2114893BE65516CFFEE6DBF3
:1034B00018D1844B381BF77C1D901DA4BBE424203D
:1034C0003284725E228100C9F124ECA1E53D27001F
:1034D00011241FBECFEFD1E2DEBFCDBF00E00CBF95
:1034E00015E0A0E0B2E0E2E7FBEB00E00BBF02C0BA
:1034F00007900D92AE39B107D9F711E1AEE9B5E009
:1035000001C01D92A235B107E1F70E94841D0C9401
:10351000B85D0C9400001092A4051092A3050895C4
:10352000E1E1FAE0E80FF11D858190E00895E1E125
:10353000FAE0E80FF11D658308958091B005909140
:10354000B10588609093B1058093B00508951F92EE
:103550000F920FB60F9211240F900FBE0F901F9075
:103560001895CF93DF93C0E0D0E08091790A90E086
:103570000C2E02C0959587950A94E2F7AE014F5F35
:10358000242F80FF02C060E001C061E0822F0E9412
:10359000083C2196C430D10541F7DF91CF910895C1
:1035A000882349F40E946B39882311F482E003C018
:1035B0001092820A08958093820A08950E94053F1E
:1035C0000E94953985E00E9484490E9488468CE3D8
:1035D0009AE00E94493E1092150A81E19AE00E9409
:1035E000653E0895CF93DF93CDB7DEB72C970FB626
:1035F000F894DEBF0FBECDBF60E080E092E00E9495
:10360000F84661E088E092E00E94F84662E08CE0D3
:1036100092E00E94F84663E084E192E00E94F8465E
:1036200060E086E391E00E94114661E089EB90E062
:103630000E94114660E083E00E942A4661E083E038
:103640000E942A4662E081E00E942A4663E081E00F
:103650000E942A468EE799E00E9437462CE0FE0140
:103660003196DF01822F1D928A95E9F733E0398385
:1036700084E08A8385E08B839FEF9C8382E08D8347
:103680008AE08E832F838DE0888799873A874AE086
:1036900061E0CF010E94E1462C960FB6F894DEBFA0
:1036A0000FBECDBFDF91CF91089540E050E060E0C4
:1036B00082E00E94BA280895CF93DF93CDB7DEB79A
:1036C0002A970FB6F894DEBF0FBECDBF0E94242A02
:1036D0008823A9F00E94D8292E833F8348875987E1
:1036E0006A87DE011196FE01369625E001900D9263
:1036F0002150E1F7E981FA8119950E94302A2A9632
:103700000FB6F894DEBF0FBECDBFDF91CF91089505
:103710001F920F920FB60F921124EF92FF920F9308
:103720001F932F933F934F935F936F937F938F9349
:103730009F93AF93BF93EF93FF93CF93DF93CDB757
:10374000DEB72B97DEBFCDBF0E94F21E882319F192
:1037500080912C0290912D02845F914098F00E94FC
:10376000211F89830E94D01E7E010894E11CF11C58
:1037700001E021E040E060E00E94B61F10922D02BF
:1037800010922C0280912C0290912D020196909320
:103790002D0280932C020E94C41E8823B1F08091D8
:1037A000A5059091A6058C5D954078F00E94D01EED
:1037B00091E0E92EF12C01E022E040E060E00E947F
:1037C000B61F1092A6051092A5058091A905853017
:1037D000D8F00E94DE4E0097A9F08130910531F4B7
:1037E0008091B0059091B105806108C08F5F9F4FB7
:1037F00049F48091B0059091B10580629093B10534
:103800008093B0051092A9058091A105823359F4E7
:103810008091B0059091B10581609093B10580933E
:10382000B0051092A1058091A205813059F48091D4
:10383000B0059091B10582609093B1058093B00579
:103840001092A2050E94242A8823D9F00091AE0587
:103850001091AF050E94D8292F83388749875A874E
:103860006B87DE011296FE01379625E001900D92DE
:103870002150E1F78C819D810817190710F00E94F3
:103880005C1B0E94662E882359F48091A3059091B9
:10389000A4058858934121F41092A4051092A30521
:1038A0008091A7059091A8056AEF70E00E941D5DC8
:1038B000892B49F590917B0A80917A0A2091B00575
:1038C0003091B105981771F026FF0EC00E94DB3BC6
:1038D00080917B0A0E94C03B8091B0059091B10518
:1038E0008F7B0DC026FD0FC00E94DB3B80917A0AC2
:1038F0000E94C03B8091B0059091B1058064909387
:10390000B1058093B0058091A7059091A80564EF5B
:1039100071E00E941D5D892B09F05AC0FF2400E070
:1039200010E0802F0E944246F82A0F5F1F4F04309C
:103930001105B9F7F1FE02C081E001C080E00E94EC
:10394000023C80917E0A82FF43C08091B005909135
:10395000B10587FF1DC08F779093B1058093B005A7
:1039600000E010E00E94DB4590E0002E02C095953B
:1039700087950A94E2F780FF05C060E0802F8F5F93
:103980000E94083C0F5F1F4F0430110509F1EACF78
:1039900000E010E00E94DB4590E0002E02C095950B
:1039A00087950A94E2F780FF05C061E0802F8F5F62
:1039B0000E94083C0F5F1F4F0430110559F780919A
:1039C000B0059091B10580689093B1058093B005E2
:1039D0008091AC059091AD058B3F910598F0809159
:1039E000B0059091B10590FF0DC08091810A0E94B1
:1039F000C7488091B0059091B1059E7F9093B10525
:103A00008093B0050091AA051091AB050E948739FB
:103A10009AE0899FC00111240817190730F00E940D
:103A20009F391092AB051092AA058091AE05909136
:103A3000AF058F5F9F4740F08FEF9FE70E94C5293A
:103A40001092AF051092AE058091AC059091AD0536
:103A500001969093AD058093AC058091A9058F5F89
:103A60008093A9058091A1058F5F8093A105809126
:103A7000A2058F5F8093A2058091A3059091A40574
:103A800001969093A4058093A3058091A50590913C
:103A9000A60501969093A6058093A5058091A7059C
:103AA0009091A80501969093A8058093A705809111
:103AB000AE059091AF0501969093AF058093AE054A
:103AC0008091AA059091AB0501969093AB058093E8
:103AD000AA052B96F894DEBFCDBFDF91CF91FF9161
:103AE000EF91BF91AF919F918F917F916F915F9176
:103AF0004F913F912F911F910F91FF90EF900F9059
:103B00000FBE0F901F9018958AEF0E944424F894DE
:103B100014BE88E10FB6F8948093600010926000A4
:103B20000FBE0E94232D1092760A1092750A1092F1
:103B3000740A1092730A0E94523D8093770A809310
:103B4000780A8FEF8093810A10927B0A81E080933C
:103B50003F0A85E08093400A8093840A0E94692D81
:103B60000E94642D0E94562D0E9490240E94EB3FDB
:103B70000E94694162E87DE288E094E50E94A529FF
:103B80000E941E350E94E0374D9B03C00E942B41CE
:103B900003C0479A0E9443410E94042D78948CE10F
:103BA00092E00E94275B80E00E94D93C8AEF0E944D
:103BB00044248AEF0E94442481E00E94D93C0E9460
:103BC000514C81E08093800A80937F0A80913C0A67
:103BD0000E946A2E82E00E94E23B0E946B39882399
:103BE00019F482E00E94D01A0E9455450E94894132
:103BF0000E94EF23882311F40E94734F0E948423B4
:103C0000882311F40E9424220E946B39882361F0DA
:103C10000E94443890917A0A891731F00E94443802
:103C200080937B0A0E94784A0E9453290E940429AB
:103C30008091B0059091B10582FF0BC00E945C1B82
:103C40008091B0059091B1058B7F9093B1058093E1
:103C5000B0058091B0059091B10580FF0BC00E9426
:103C600082538091B0059091B1058E7F9093B105FC
:103C70008093B0058091B0059091B10581FF0BC094
:103C80000E9499508091B0059091B1058D7F9093DD
:103C9000B1058093B0058091B0059091B10584FF86
:103CA0000FC01092AD051092AC050E943151809169
:103CB000B0059091B1058F7E9093B1058093B005CA
:103CC0008091B0059091B10585FF0FC01092AD05B0
:103CD0001092AC050E94CA508091B0059091B10538
:103CE0008F7D9093B1058093B0058091B005909140
:103CF000B10583FF79CF0E94AB508091B0059091C0
:103D0000B105877F9093B1058093B0056DCFDF92A9
:103D1000EF92FF920F931F93CF93DF93CDB7DEB750
:103D200025970FB6F894DEBF0FBECDBF8C017B0187
:103D3000D42E0E94242A882321F41092AF051092D9
:103D4000AE051A8309838091AE059091AF058E0D63
:103D50009F1D9C838B83DD8249815A816B817C818D
:103D60008D2D0E94E42A25960FB6F894DEBF0FBE73
:103D7000CDBFDF91CF911F910F91FF90EF90DF901A
:103D800008958093860A089580918E0A90918F0AF3
:103D900023E0969587952A95E1F7817090700895B4
:103DA0008091860A90E0089580918E0A90918F0A02
:103DB000806290938F0A80938E0A1092930A1092D9
:103DC000910A089580918E0A90918F0A8B7F90932B
:103DD0008F0A80938E0A1092900A1092B205109268
:103DE000920A089580918E0A90918F0A8170907046
:103DF000089540918E0A50918F0A8823E1F09A012C
:103E0000216030938F0A20938E0A60938B0A862F4D
:103E100090E033E0880F991F3A95E1F790938D0A6F
:103E200080938C0A21FD0CC04160516050938F0A31
:103E300040938E0A08954E7F50938F0A40938E0AC6
:103E4000089580918B0A90E0089580938B0A90E00A
:103E500043E0880F991F4A95E1F790938D0A80936C
:103E60008C0A08951F920F920FB60F9211240F9093
:103E70000FBE0F901F9018951F920F920FB60F92C2
:103E800011248F939F9380918E0A90918F0A86FDC3
:103E900005C0806890938F0A80938E0A9F918F91BE
:103EA0000F900FBE0F901F9018958DB79EB7459736
:103EB0000FB6F8949EBF0FBE8DBFEDB7FEB731961B
:103EC000A4E9BAE085E10D9001928150E1F70E94EA
:103ED00095238DB79EB745960FB6F8949EBF0FBE3B
:103EE0008DBF0895EF92FF920F93CF93DF93CDB7DD
:103EF000DEB765970FB6F894DEBF0FBECDBF8983DE
:103F00006A834C832D83F701DE01179690E003C08E
:103F100081918D939F5F9017D9F70E838DB79EB7D0
:103F200045970FB6F8949EBF0FBE8DBFEDB7FEB795
:103F30003196DE01119685E10D9001928150E1F7F5
:103F40000E9495238DB79EB745960FB6F8949EBFF5
:103F50000FBE8DBF65960FB6F894DEBF0FBECDBF06
:103F6000DF91CF910F91FF90EF900895EF92FF9224
:103F70000F93CF93DF93CDB7DEB765970FB6F89465
:103F8000DEBF0FBECDBF582F922F940F900FF701B9
:103F9000DE01179630E004C08191980F8D933F5F4A
:103FA0003017D1F79B830E832D834C836A8359830B
:103FB0008DB79EB745970FB6F8949EBF0FBE8DBFC5
:103FC000EDB7FEB73196DE01119685E10D900192B5
:103FD0008150E1F70E942A238DB79EB745960FB610
:103FE000F8949EBF0FBE8DBF65960FB6F894DEBFE6
:103FF0000FBECDBFDF91CF910F91FF90EF9008954D
:10400000EF92FF920F93EE24FF2400E02AEF40E0AE
:10401000682F8091860A0E94B61F0F91FF90EF9043
:104020000895EF92FF920F93EE24FF2400E02BEF10
:1040300040E0682F8091860A0E94B61F0F91FF9082
:10404000EF9008951F920F920FB60F9211242F93A5
:104050003F934F935F936F937F938F939F93AF9310
:10406000BF93EF93FF931092B3056091D600E09158
:10407000900AEF5FE093900A40918E0A50918F0A68
:1040800042FF83C06D3F69F52091990A30E08E2F81
:1040900090E007972817390721F52091950A80911C
:1040A000860A281711F02223C9F447FF17C0909100
:1040B000B2058091960A981759F40E94551F809175
:1040C000970A80FF0BC08091940A0E94002006C0CE
:1040D000222321F08091940A0E9411200E94E21E66
:1040E00067C0E330A1F0E43028F4E13051F0E23071
:1040F00019F50AC0E53089F0E53060F0E630E1F40A
:1041000018C06093940A52C06093950A4FC06093A0
:10411000960A4CC06093970A32C06093980A8091C7
:10412000B205860F8093B205613009F03FC0486048
:1041300039C06093990A23C0F0E0ED56F54F6083D3
:104140008091980A8130D9F460938B0A862F90E091
:10415000880F991F880F991F880F991F90938D0AB8
:1041600080938C0A1092850A426050938F0A409384
:104170008E0A1092B5051092B4051092B20080918B
:10418000B205860F8093B20511C06E3F79F4E2301C
:1041900068F08091920A8E3F49F41092900A109232
:1041A000B205446050938F0A40938E0A6093920A3E
:1041B000FF91EF91BF91AF919F918F917F916F91FF
:1041C0005F914F913F912F910F900FBE0F901F90D5
:1041D0001895AF92BF92CF92DF92EF92FF920F931A
:1041E0001F93CF93DF93CDB7DEB765970FB6F894E3
:1041F000DEBF0FBECDBF8091910A8A3050F480910E
:104200008E0A90918F0A806290938F0A80938E0A13
:1042100071C00E94752380918E0A90918F0A8062EE
:1042200090938F0A80938E0A1092930A1092910AAB
:1042300080E00E94F63B61E080E00E94054FCE01E5
:1042400001960E945E238A8190E09F938F938EE275
:1042500092E09F938F930E94105B898190E09F93DF
:104260008F938BE392E09F938F930E94105B8D81DD
:1042700090E09F938F938AE492E09F938F930E94A4
:10428000105BEE808E2D90E09F938F9383E592E0FC
:104290009F938F930E94105BF7E0CF2ED12CCC0E12
:1042A000DD1EFF2400E010E08DB79EB740960FB6EC
:1042B000F8949EBF0FBE8DBFEFE5AE2EE2E0BE2E9E
:1042C00017C0F60181916F0190E09F938F931F9328
:1042D0000F93BF92AF920E94105BF3940F5F1F4F3A
:1042E0008DB79EB706960FB6F8949EBF0FBE8DBFD2
:1042F000FE1439F765960FB6F894DEBF0FBECDBF3A
:10430000DF91CF911F910F91FF90EF90DF90CF90B1
:10431000BF90AF90089580918E0A90918F0A9D7FF3
:1043200090938F0A80938E0A0E94E9200895CF927D
:10433000DF92EF92FF920F931F93CF93DF93CDB74E
:10434000DEB765970FB6F894DEBF0FBECDBF809184
:104350008E0A90918F0A80648F7790938F0A809352
:104360008E0ACE0101960E945E238EEF0E940824E1
:104370008EEF0E94082489810E940824CA808C2D17
:104380000E9408248B810E9408248C810E940824AA
:104390000D81802F0E940824DE808D2D0E9408242C
:1043A000A7E0EA2EF12CEC0EFD1E10E006C0F7018E
:1043B00081917F010E9408241F5F1D15C1F78DEFB9
:1043C0000E940824CC2021F00A3F11F00B3FC9F4D1
:1043D00080918E0A90918F0A9D7F90938F0A80938F
:1043E0008E0A0E94752380918E0A90918F0A8062B6
:1043F00090938F0A80938E0A1092930A1092910ADA
:104400000BC080918E0A90918F0A926090938F0AD0
:1044100080938E0A1092930A80918E0A90918F0A4F
:104420008F7B90938F0A80938E0A65960FB6F894CF
:10443000DEBF0FBECDBFDF91CF911F910F91FF90D7
:10444000EF90DF90CF90089580918E0A90918F0A1F
:1044500084FF11C081FF0FC085FF1CC08F7D90932A
:104460008F0A80938E0A8091910A8F5F8093910AC0
:104470000E949721089590FF0DC08F7D9E7F90939D
:104480008F0A80938E0A8091910A8F5F8093910AA0
:104490000E94972108950E9490230E94252387E07F
:1044A00090E00E94FB238091860A90E023E0880F31
:1044B000991F2A95E1F79093880A8093870A0696B8
:1044C00090938A0A8093890A10928B0A1092850A27
:1044D00080EA90E090938F0A80938E0A1092930A5C
:1044E0001092910A0E94E21E089580918E0A909186
:1044F0008F0A9D7F90938F0A80938E0A0E94752366
:1045000080918E0A90918F0A806290938F0A809397
:104510008E0A1092930A1092910A08951F920F9298
:104520000FB60F9211242F933F934F935F936F9386
:104530007F938F939F93AF93BF93EF93FF9380915C
:10454000B305853020F00E94E21E1092B305209141
:104550008E0A30918F0A20FD16C08091B40590918B
:10456000B5058051974278F02D7F30938F0A2093C4
:104570008E0A0E947F231092B5051092B40561E067
:1045800081E00E94054F8091930A8A3040F080912B
:104590008E0A90918F0A91FF02C00E94E9208091BB
:1045A0008B0A882399F14091850A242F30E080916D
:1045B000870A9091880A2817390768F08091890A3C
:1045C00090918A0A2817390730F480918E0A9091C9
:1045D0008F0A806105C080918E0A90918F0A8F7E2C
:1045E00090938F0A80938E0A80918C0A90918D0A05
:1045F0002817390740F01092850A8091930A8F5F3F
:104600008093930A03C04F5F4093850A8091B3055E
:104610008F5F8093B3058091B4059091B5050196A5
:104620009093B5058093B405FF91EF91BF91AF9141
:104630009F918F917F916F915F914F913F912F91BA
:104640000F900FBE0F901F90189510924D0C109266
:104650004E0C0895CF93DF93CDB7DEB740914E0C4B
:10466000242F30E085E190E0289FF001299FF00D94
:10467000389FF00D1124E755F54FDE01169685E1C0
:104680000D9001928150E1F7842F8F5F80934E0C43
:10469000843110F010924E0C90914E0C80914D0C84
:1046A000981719F49F5F90934D0C80914D0C8431B5
:1046B00010F010924D0CDF91CF910895AC018091D4
:1046C0004D0C90E025E130E0829FF001839FF00DDA
:1046D000929FF00D1124DA01E755F54F85E1019025
:1046E0000D928150E1F7CA01089580914D0C8F5FC2
:1046F00080934D0C843110F010924D0C089510925F
:104700004D0C10924E0C089520E030E090914D0C2D
:1047100080914E0C981711F421E030E0C901089502
:104720001092210D1092220D0895CF93DF93CDB7F3
:10473000DEB74091220D242F30E085E190E0289FE4
:10474000F001299FF00D389FF00D1124E15BF34F2C
:10475000DE01169685E10D9001928150E1F7842FDC
:104760008F5F8093220D8A3010F01092220D90916D
:10477000220D8091210D981719F49F5F9093210DC0
:104780008091210D8A3010F01092210DDF91CF9190
:104790000895AC018091210D90E025E130E0829FE9
:1047A000F001839FF00D929FF00D1124DA01E15B7F
:1047B000F34F85E101900D928150E1F7CA01089510
:1047C0008091210D8F5F8093210D8A3010F010921F
:1047D000210D08951092210D1092220D089520E0D0
:1047E00030E09091210D8091220D981711F421E075
:1047F00030E0C9010895292F33272093D5008093F5
:10480000D40086E08093D20088ED8093D100089593
:10481000982F8091D00085FFFCCF9093D60080E048
:1048200090E008958091D00087FFFCCF8091D60062
:1048300090E008958091D00090E080789070089585
:10484000FC0120E030E070E00AC090818091D0004F
:1048500085FFFCCF31969093D6002F5F3F4F2617F0
:10486000370799F780E090E008958091D00087FFA6
:10487000FCCF9091D6008091D00085FFFCCF909323
:10488000D600892F90E0089526E63EE0E22FF32F30
:104890003197F1F78A95D1F70895482F30E01CC081
:1048A0002AEF86E69EE0E82FF92F3197F1F72A9557
:1048B000D1F7E82FF92F3197F1F72A95D1F7E82FA3
:1048C000F92F3197F1F72A95D1F7E82FF92F319782
:1048D000F1F72A95D1F73F5F341709F0E1CF08953A
:1048E0002091B9002E7F2093B9002091B9002D7F2F
:1048F0002093B9009C0140E050E069E979E380E051
:1049000090E00E94445D203140F0822F90E040977B
:1049100062E070E00E94315D262F2093B800089578
:10492000589A599A1092FD051092FC051092FF05B5
:104930001092FE0584E690E00E947024ECEBF0E01B
:104940008081846080831092B6058081816080833D
:10495000808180648083089590E0611191E08E7F72
:10496000982B9093BA0008959093FD058093FC05D1
:1049700008959093FF058093FE050895ECEBF0E019
:1049800080818F70806A80830895ECEBF0E08081F5
:104990008F70806D808308958091BC0087FFFCCF6D
:1049A00008958093BB00ECEBF0E080818F7080680D
:1049B00080830895882329F08091BC008F70806CDB
:1049C00004C08091BC008F7080688093BC00089503
:1049D0008091BB0090E008958091B90090E0089527
:1049E0008091B60590E00895982FDA018091B60580
:1049F0008823E1F783E08093B605990F9160909347
:104A0000B7051092FA056093FB058091BC008F708A
:104A1000806A8093BC008091B6058823E1F7EAEDB7
:104A2000F5E090E003C081918D939F5F9617D9F7D1
:104A30000895982FFA018091B6058823E1F782E066
:104A40008093B605990F9093B705A8EBB5E090E079
:104A500003C081918D939F5F9617D9F71092D80567
:104A60006093D9058091BC008F70806A8093BC00F0
:104A70000895982FFA018091BC008E7F8093BC002E
:104A80008091BC008F70806A8093BC008091BC00D4
:104A900087FFFCCF990F9093BB008091BC008F7073
:104AA00080688093BC008091BC0087FFFCCF809120
:104AB000B900883189F091E012C080818093BB00F9
:104AC0008091BC008F7080688093BC008091BC0096
:104AD00087FFFCCF31966150662379F790E0809193
:104AE000BC008F70806D8093BC008091BC0084FFFF
:104AF000FCCF8091BC0081608093BC00892F90E046
:104B000008951F920F920FB60F9211242F933F9387
:104B10004F935F936F937F938F939F93AF93BF93C5
:104B2000EF93FF938091B900887F803609F4B0C07D
:104B3000813670F5883209F45FC0893298F480318B
:104B400009F457C0813138F4882309F4FFC0883054
:104B500009F004C14EC0883109F44EC0803209F01A
:104B6000FDC0F4C0803409F488C0813438F4803347
:104B700009F4ECC0883309F0F1C05DC0803509F458
:104B80005FC0883509F44AC0883409F0E7C0DEC048
:104B9000883909F493C08939B0F4883709F478C0AA
:104BA000893738F4883609F473C0803709F0D6C0E5
:104BB0006FC0883809F482C0803909F46FC080382A
:104BC00009F0CCC06BC0803B09F48EC0813B38F447
:104BD000803A09F477C0883A09F0C0C085C0803CAB
:104BE00009F4AFC0883C09F4ACC0883B09F0B6C0FA
:104BF0008CC08091B7050FC09091D8058091D905E0
:104C0000981708F0A3C0E92FF0E0E854FA4F80812C
:104C10009F5F9093D8058093BB008CC08091FA056C
:104C20009091BB00E82FF0E0E652FA4F90838F5F3F
:104C30008093FA058BC08091BC008F7080688AC019
:104C4000A091FA058091BB00EA2FF0E0E652FA4FFE
:104C50008083AF5FA093FA05B0E0A752BA4F8C9162
:104C600090E09F938F938DE692E09F938F930E94A5
:104C7000105B0F900F900F900F902091FA0530E08D
:104C80008091FB0590E0019728173907ACF016C01A
:104C900085E08093B6051092FA0547C08091FA0529
:104CA0009091BB00E82FF0E0E652FA4F90838F5FBF
:104CB0008093FA05803210F48FEF01C080E00E94EB
:104CC000DA244CC08091BC008F70806C8093BC0053
:104CD000E091FC05F091FD053097F1F16AED75E08A
:104CE0008091FA05199538C084E08093B605E0916B
:104CF000FE05F091FF05309731F068EB75E080E23A
:104D000019958093D9051092D8059091D805E92F6F
:104D1000F0E0E854FA4F80818093BB009F5F90934E
:104D2000D8058091D905981728F48091BC008F7020
:104D3000806C04C08091BC008F7080688093BC0040
:104D40000DC08091BC008F70806C04C08091BC004D
:104D50008F70806D8093BC001092B605FF91EF912B
:104D6000BF91AF919F918F917F916F915F914F9183
:104D70003F912F910F900FBE0F901F9018951F938A
:104D8000CF93DF93982F162FEA018091BC008E7F7E
:104D90008093BC008091BC008F70806A8093BC00BF
:104DA0008091BC0087FFFCCF80ED8093BB00809199
:104DB000BC008F7080688093BC008091BC0087FF2E
:104DC000FCCF1092BB008091BC008F7080688093F4
:104DD000BC008091BC0087FFFCCF8091BC008F702D
:104DE000806A8093BC008091BC0087FFFCCF990F44
:104DF00091609093BB008091BC008F70806880931D
:104E0000BC008091BC0087FFFCCF8091B90080344A
:104E100069F091E018C08FEF0E94DA248091BC0005
:104E200087FFFCCF8091BB0089931150123098F717
:104E300080E00E94DA248091BC0087FFFCCF809143
:104E4000BB00888390E08091BC008F70806D809360
:104E5000BC008091BC0081608093BC00892F90E0F1
:104E6000DF91CF911F910895E091250DF091260DCE
:104E70008EEF1995E091250DF091260D8EEF199585
:104E8000E091250DF091260D8BEF1995E091250D00
:104E9000F091260D8BEF1995E091250DF091260DDF
:104EA00080E01995E091250DF091260D8DEF199573
:104EB0000895E091250DF091260D8EEF1995E09162
:104EC000250DF091260D8EEF1995E091250DF091AD
:104ED000260D8AEF1995E091250DF091260D8AEFA8
:104EE0001995E091250DF091260D80E01995E0913E
:104EF000250DF091260D8DEF199508958F929F92B3
:104F0000AF92BF92CF92DF92EF92FF920F931F93D7
:104F1000CF93DF93CDB7DEB762970FB6F894DEBFBD
:104F20000FBECDBF89829A82AB82BC82CD82DE82E7
:104F3000EF82F88609871A872B873C874D875E8723
:104F40006F87788B898B9A8BDA2CE091250DF09105
:104F5000260D8EEF1995E091250DF091260D8EEF1F
:104F60001995E091250DF091260D882D1995E09168
:104F7000250DF091260D892D1995E091250DF091C3
:104F8000260D8A2D199584E0E82EF12CEC0EFD1EDD
:104F900010E005C0D7018D917D0119951F5FE0914B
:104FA000250DF091260D1D15A9F78DEF1995629627
:104FB0000FB6F894DEBF0FBECDBFDF91CF911F912A
:104FC0000F91FF90EF90DF90CF90BF90AF909F90A8
:104FD0008F9008951F920F920FB60F9211240F9089
:104FE0000FBE0F901F9018951F920F920FB60F9241
:104FF00011247F928F929F92AF92BF92CF92DF92B5
:10500000EF92FF920F931F932F933F934F935F93D2
:105010006F937F938F939F93AF93BF93EF93FF9380
:105020007090C6009091290A9F5F9093290A809101
:10503000270A882309F474C0943008F452C08DEF15
:10504000781609F04EC0292F30E0F9013497A0906E
:105050002C0A8A2D90E08E179F07C9F580902A0AA6
:105060008091280A881669F580912B0A8B3F29F4D4
:105070000E94E92C1092010626C0982EB0902D0AAD
:10508000C0902E0AD0902F0AE090300AF090310A9A
:105090000091320A1091330A2091340A3091350A76
:1050A0004091360A5091370A6091380A7091390A56
:1050B00080913A0A90913B0A0E94CB2B0E943427A0
:1050C00002C00E9459278091270A8E7F31C0233168
:1050D000310594F5E65DF54F73828091280A83507F
:1050E00013C0923039F0933051F0913081F47092C6
:1050F0002A0A22C070922B0A7092280A1DC0709250
:105100002C0A8091280A870D8093280A15C0E92F60
:10511000F0E0E331F10584F4E75DF54F7082F1CF03
:105120008EEF781649F4809100068E3F29F481E0D5
:105130008093270A1092290A70920006FF91EF913E
:10514000BF91AF919F918F917F916F915F914F919F
:105150003F912F911F910F91FF90EF90DF90CF9093
:10516000BF90AF909F908F907F900F900FBE0F9049
:105170001F9018958F929F92AF92BF92CF92DF921D
:10518000EF92FF920F931F93CF93DF93CDB7DEB7CC
:1051900062970FB6F894DEBF0FBECDBFA62E862E47
:1051A000880E8A83FA01DE01149690E004C0819192
:1051B000880E8D939F5F9A15D1F78982AB829A8072
:1051C000BC80CD80DE80EF80F88409851A852B8530
:1051D0003C854D855E856F85788989899A890E948D
:1051E0006A2C62960FB6F894DEBF0FBECDBFDF917A
:1051F000CF911F910F91FF90EF90DF90CF90BF90D4
:10520000AF909F908F9008958F929F92AF92BF9290
:10521000CF92DF92EF92FF920F931F93CF93DF9382
:10522000CDB7DEB762970FB6F894DEBF0FBECDBF25
:105230000E94F82C882311F5809101068823F1F44F
:10524000CE0101960E94D12C89809A80AB80BC80CF
:10525000CD80DE80EF80F88409851A852B853C851A
:105260004D855E856F85788989899A890E947E2718
:1052700081E08093010681E090E002C080E090E050
:1052800062960FB6F894DEBF0FBECDBFDF91CF910F
:105290001F910F91FF90EF90DF90CF90BF90AF9054
:1052A0009F908F9008956F927F928F929F92AF926E
:1052B000BF92CF92DF92EF92FF920F931F93CF9303
:1052C000DF93CDB7DEB762970FB6F894DEBF0FBE9F
:1052D000CDBF0E94592C882319F080E090E020C0B7
:1052E0006090230D7090240DCE0101960E94322C07
:1052F00089809A80AB80BC80CD80DE80EF80F8848E
:1053000009851A852B853C854D855E856F85788955
:1053100089899A89F30119950E944A2C81E090E0CD
:1053200062960FB6F894DEBF0FBECDBFDF91CF916E
:105330001F910F91FF90EF90DF90CF90BF90AF90B3
:105340009F908F907F906F9008959093240D8093FD
:10535000230D7093260D6093250D1092290A10924B
:10536000280A1092270A0E94542C0E94F32C0895B8
:10537000E1E4FAE0118210821382128214823596DF
:105380008AE0E337F807B1F708959C01E1E4FAE019
:1053900080819181892B31F082819381821B930BD3
:1053A0009383828335968AE0E337F80789F7089577
:1053B0002F923F924F925F926F927F928F929F9225
:1053C000AF92BF92CF92DF92EF92FF920F931F9313
:1053D000CF93DF93CDB7DEB725970FB6F894DEBF36
:1053E0000FBECDBF772488249924DE011196E1E415
:1053F000FAE085E001900D928150E1F78D812980DE
:105400003A804B805C80222D332D442D552D682F02
:10541000772D882D992D25960FB6F894DEBF0FBEF7
:10542000CDBFDF91CF911F910F91FF90EF90DF9053
:10543000CF90BF90AF909F908F907F906F905F9034
:105440004F903F902F90089520E030E08091410AE6
:105450009091420A892B11F021E030E0C9010895B2
:105460008091410A9091420A892B99F081E49AE057
:10547000DC01FC01359625E001900D922150E1F709
:1054800005962AE08E36920799F710926F0A1092CD
:105490006E0A0895E1E4FAE020E080819181892B91
:1054A00021F02F5F35962A30C1F7822F90E00895C2
:1054B000E1E4FAE01182108213821282148235969E
:1054C0008AE0E337F807B1F70895CF92DF92EF92C1
:1054D000FF920F931F93CF93DF93CDB7DEB7E29781
:1054E0000FB6F894DEBF0FBECDBF182F21E43AE00F
:1054F00050E040E0BE016F5F7F4FF901848181176A
:1055000099F0842F90E0FC01EE0FFF1FEE0FFF1FBC
:10551000E80FF91FE60FF71FD90185E00D90019202
:105520008150E1F74F5F01C05F5F2B5F3F4FFAE0B3
:1055300023373F0711F78E010F5F1F4F2253304073
:1055400060E070E0E52EFF248AE090E08E199F096C
:1055500067016817790744F4D901F80145E0019023
:105560000D92415039F0FBCFF90111821082148263
:10557000138212826F5F7F4F0B5F1F4F2B5F3F4F76
:105580006A30710529F7C601E2960FB6F894DEBFBE
:105590000FBECDBFDF91CF911F910F91FF90EF9084
:1055A000DF90CF900895982FE5E4FAE08081891785
:1055B00019F481E090E0089535968AE0E737F8071E
:1055C000A9F780E090E008958F929F92AF92BF92EA
:1055D000CF92DF92EF92FF920F931F93CF93DF93BF
:1055E000CDB7DEB725970FB6F894DEBF0FBECDBF9F
:1055F00049835A836B837C838D838DB69EB66B8182
:105600007C81E1E4FAE000E010E0780180819181A2
:10561000892BA1F47C836B83F801EE0FFF1FEE0F43
:10562000FF1FE00FF11FEF5BF54FDE01119685E0E4
:105630000D900192815009F490C0FACF828193813C
:105640006817790708F07FC0ADB6BEB62AE030E033
:10565000201B310BC901880F991F880F991F820FDA
:10566000931F4DB75EB7481B590B0FB6F8945EBF3A
:105670000FBE4DBFCDB6DEB60894C11CD11C40E0B4
:1056800050E019C0DC01AA0FBB1FAA0FBB1FA80F57
:10569000B91F800F911FFC01EE0FFF1FEE0FFF1FC0
:1056A000E80FF91FAC0DBD1DEF5BF54F85E00190D4
:1056B0000D928150E1F7842F90E04F5F5F4F82178A
:1056C000930704F37C836B83F801EE0FFF1FEE0F4B
:1056D000FF1FE00FF11FEF5BF54FDE01119685E034
:1056E0000D9001928150E1F760E070E049E050E0F8
:1056F000401B510B1BC0C801820F931F0196DC0198
:10570000AA0FBB1FAA0FBB1FA80FB91FF901EE0FED
:10571000FF1FEE0FFF1FE20FF31FAF5BB54FEC0D46
:10572000FD1D85E001900D928150E1F7262F30E0BC
:105730006F5F7F4F24173507F4F20FB6F894BEBEA3
:105740000FBEADBE0AC00F5F1F4F35960A30110560
:1057500009F05BCFBFEFEB2EF12CC7010FB6F89429
:105760009EBE0FBE8DBE25960FB6F894DEBF0FBE4F
:10577000CDBFDF91CF911F910F91FF90EF90DF9000
:10578000CF90BF90AF909F908F9008951092810D11
:105790001092820D08958F929F92AF92BF92CF92F6
:1057A000DF92EF92FF920F931F93CF93DF93CDB7CA
:1057B000DEB762970FB6F894DEBF0FBECDBF898209
:1057C0009A82AB82BC82CD82DE82EF82F886098724
:1057D0001A872B873C874D875E876F87788B898BED
:1057E0009A8B2091820D822F90E0880F991FFC01E7
:1057F00033E0EE0FFF1F3A95E1F7E80FF91FE95D7F
:10580000F24FDE01119682E10D9001928150E1F795
:10581000822F8F5F8093820D853010F01092820D61
:105820009091820D8091810D981719F49F5F90934C
:10583000810D8091810D853010F01092810D62965E
:105840000FB6F894DEBF0FBECDBFDF91CF911F9191
:105850000F91FF90EF90DF90CF90BF90AF909F900F
:105860008F9008959C018091810D90E0880F991F81
:10587000FC0153E0EE0FFF1F5A95E1F7E80FF91F07
:10588000D901E95DF24F82E101900D928150E1F77B
:10589000C90108958091810D8F5F8093810D8530BE
:1058A00010F01092810D08951092810D1092820DCA
:1058B000089520E030E09091810D8091820D98173D
:1058C00011F421E030E0C90108951092DD0D10922D
:1058D000DE0D08958F929F92AF92BF92CF92DF928A
:1058E000EF92FF920F931F93CF93DF93CDB7DEB765
:1058F00062970FB6F894DEBF0FBECDBF89829A8241
:10590000AB82BC82CD82DE82EF82F88609871A875D
:105910002B873C874D875E876F87788B898B9A8B27
:105920002091DE0D822F90E0880F991FFC0133E05B
:10593000EE0FFF1F3A95E1F7E80FF91FED57F24F11
:10594000DE01119682E10D9001928150E1F7822FE4
:105950008F5F8093DE0D853010F01092DE0D9091F8
:10596000DE0D8091DD0D981719F49F5F9093DD0D8A
:105970008091DD0D853010F01092DD0D62960FB62E
:10598000F894DEBF0FBECDBFDF91CF911F910F9175
:10599000FF90EF90DF90CF90BF90AF909F908F904F
:1059A00008959C018091DD0D90E0880F991FFC0106
:1059B00053E0EE0FFF1F5A95E1F7E80FF91FD901E9
:1059C000ED57F24F82E101900D928150E1F7C9014C
:1059D00008958091DD0D8F5F8093DD0D853010F08F
:1059E0001092DD0D08951092DD0D1092DE0D0895D8
:1059F00020E030E09091DD0D8091DE0D981711F4DC
:105A000021E030E0C901089514BC82E084BD85E046
:105A100085BD16BC8EE087BDEEE6F0E08081826039
:105A2000808308951092B20082E08093B00083E0FA
:105A30008093B1008AE38093B300E0E7F0E08081D7
:105A40008260808308959FEF91B986ED84B987EDD8
:105A500087B98BE58AB986E28DB990BB83E283BBB7
:105A60009AEA909301018AE8809304018FEB809376
:105A7000070190930A01A2E0B1E08C9182608C93BF
:105A8000459A439A5F9A5D9AE8E0F1E080818064EC
:105A90008083EBE0F1E08081856580838C91846573
:105AA0008C932D9AA29A83E08EB9089589E0809311
:105AB00080008AE0809381001092820010928D0015
:105AC00088EC80938C00089587E090E00E94752D0B
:105AD000089561E08FE290E00E94982D6EE17EE2F1
