:100000000C94D61A0C94F71A0C94F71A0C94F71A4D
:100010000C94F71A0C94F71A0C94F71A0C94F71A1C
:100020000C94F71A0C94F71A0C94F71A0C94F71A0C
:100030000C94F71A0C945E200C94F71A0C94F71A8F
:100040000C94F71A0C94F71A0C94F71A0C94F71AEC
:100050000C94F71A0C94321B0C94F71A0C94281B6E
:100060000C94F71A0C943D2A0C94C0290C94F71A9E
:100070000C94F71A0C94F71A0C94F71A0C94F71ABC
:100080000C94F71A0C94F71A0C94F71A0C94F71AAC
:100090000C9471480C9467480C94F71A0C94AC2794
:1000A0000C94F71A0C94F71A0C94F71A0C94F71A8C
:1000B0000C94F71A0C94F71A0C94F71A0C94F71A7C
:1000C0000C94F71A0C94F71A0C94F71A0C942C222F
:1000D0000C94E11F0C94EB1F0C945F3F0C94553F64
:1000E0000C94F71AFFFFFFFFFFFFFFFFFFFFFFFF6B
:1000F000FFFFFFFFFFFFFFFFFFFFFFFFFFFFFFFF10
:10010000FFFFFFFFFFFFFFFFFFFFFFFFFFFFFFFFFF
:10011000FFFFFFFFFFFFFFFFFFFFFFFFFFFFFFFFEF
:10012000FFFFFFFFFFFFFFFFFFFFFFFFFFFFFFFFDF
:10013000FFFFFFFFFFFFFFFFFFFFFFFFFFFFFFFFCF
:10014000FFFFFFFFFFFFFFFFFFFFFFFFFFFFFFFFBF
:10015000FFFFFFFFFFFFFFFFFFFFFFFFFFFFFFFFAF
:10016000FFFFFFFFFFFFFFFFFFFFFFFFFFFFFFFF9F
:10017000FFFFFFFFFFFFFFFFFFFFFFFFFFFFFFFF8F
:10018000FFFFFFFFFFFFFFFFFFFFFFFFFFFFFFFF7F
:10019000FFFFFFFFFFFFFFFFFFFFFFFFFFFFFFFF6F
:1001A000FFFFFFFFFFFFFFFFFFFFFFFFFFFFFFFF5F
:1001B000FFFFFF7F7F7F7F7F7FFFFFFFFFFFFFFF4F
:1001C000FFFFFFFF7F7F7F7F7F7F7F7FFFFFFFFF3F
:1001D000FFFFFFFFFFFFFF7F7F7F7F7F7F7FFFFFAF
:1001E000FFFFFFFFFFFFFFFFFFFF7F3F1F1F0F8F7F
:1001F0008F8F0F0F1F1F7FFFFFFF3F0F0F0F0F0F7F
:100200009F8F8F0F0F0F1F3FFFFFFF7F3F1F1F0F9E
:100210008F8F8F0F0F0F1F3FFFFFFF3F0F0F0F0F2E
:100220000F9F8F0F0F0F0F0F1FFFFFFFFFFFFF3FEE
:100230000F070180E00000000007FFFFFFFFFF87BE
:1002400001000000183C3C3C7C7C78F8F0F8FF7F13
:100250000F070301C0F0F8F8FCFCFCFCF8F0E0F834
:10026000FFFFFFFFFFFFFFFFFFC1000000003E3F59
:100270003F0F000080C0F0FF7F0700000000383F04
:100280003F1F0F000080C0F8FFFFC1800000001971
:1002900039393938381898F8FF7F0300000080F8A2
:1002A000FFFF3F0300000080FCFF3F1F070100C06D
:1002B000E0E0E3E3E3E0000000000FFFFF1F070FB3
:1002C0001F1E3E3E3C3C3C1800000080E1FFFFE06A
:1002D000800000000F1F3F3F3F3F1F1F0FE7FFFF42
:1002E000FFFFFFFFFFFFFFFFEFEBEBEBEAEAEAEABE
:1002F000EAEAEBEBEBFBFFCFC0C0C0C0F0FFEEEAD9
:10030000EAEAEAEBEBEBEBEBEBEBEBEBEBEAEAEA43
:10031000EAEAEAEAEAEBEBEBEBEAEAEAEAEAEBEB37
:10032000EBEBEAEAEAEAEAEBEBEAEAEAEAEAEBEB27
:10033000EBEBEBEBEBEBEAEAEAEAEAEBEBEBEBEB12
:10034000EAEAEAEAEAEAEAEAEBEBEBEBEBEBEBEB05
:10035000EBEBEBEAEAEAEAEAEAEAEBEBFBFFFFFFA8
:10036000FFFFFFFFFFFFFFFFFFFFFFFFFFFFFFFF9D
:10037000FFFFFFFFFFFFFFFFFFFFFFFFFFFFFFFF8D
:10038000FFFFFFFFFF3F31E0E6CE0E18F93FC7F851
:10039000F083CFF73B05C0F8FF7D3C9ECEE6F0F939
:1003A000FFFF00007F9FE7FB00003FCFE3F8FC3F2B
:1003B000C7F8F083CFF73B05C0F8FF00007F1FC7E9
:1003C000E3F8FCFFFFFFFFFFFFFFFFFFFFFFFFFF63
:1003D000FFFFFFFFFFFFFFFFFFFFFFFFFFFFFFFF2D
:1003E000FFFFFFFFFFFFFFFFFFFFFFFFFFFFFFFF1D
:1003F000FFFFFFFFFFFFFFFFFFFFFFFFFFFFFFFF0D
:10040000FFFFFFFFFFFFFEFEFEFEFEFFFFFEFFFF02
:10041000FFFFFFFFFEFEFFFFFEFEFEFEFEFEFEFFF5
:10042000FFFFFEFEFFFFFFFFFEFEFFFFFFFFFFFEE1
:10043000FFFFFFFFFFFFFEFEFFFFFFFEFEFEFFFFD1
:10044000FFFFFFFFFFFFFFFFFFFFFFFFFFFFFFFFBC
:10045000FFFFFFFFFFFFFFFFFFFFFFFFFFFFFFFFAC
:10046000FFFFFFFFFFFFFFFFFFFFFFFFFFFFFFFF9C
:10047000FFFFFFFFFFFFFFFFFFFFFFFFFFFFFFFF8C
:10048000FFFFFFFFFFFFFFFFFFFFFFFFFFFFFFFF7C
:10049000FFFFFFFFFFFFFFFFFFFFFFFFFFFFFFFF6C
:1004A000FFFFFFFFFFFFFFFFFFFFFFFFFFFFFFFF5C
:1004B000FFFFFFFFFFFFFFFFFFFFFFFFFFFFFFFF4C
:1004C000FFFFFFFFFFFFFFFFFFFFFFFFFFFFFFFF3C
:1004D000FFFFFFFFFFFFFFFFFFFFFFFFFFFFFFFF2C
:1004E000FFFFFFFF00000000000000008080800090
:1004F000800000A0A00000000000147E28FC500036
:100500004060804020C0400064A8D62A4C000060B3
:100510009040986000008080000000004080808053
:1005200080804080404040404080005020F8205073
:1005300000002020F8202000000000004040800043
:100540000000E000000000000000008000202040CB
:1005500040808000006090909060000040C040406B
:1005600040000060902040F000006090209060000B
:10057000002060A0F0200000E080E020C00000200B
:1005800040E090600000E02040404000006090604B
:1005900090600000609070204000000080000080AB
:1005A00000000040004040800020408040200000CB
:1005B00000F000F000000080402040800000C020DB
:1005C0004000400038449AAAB440300020205070C7
:1005D000880000E090E090E0000060908090600073
:1005E00000E0909090E00000E080E080E00000E01B
:1005F00080E0808000007080B0907000009090F0EB
:10060000909000008080808080000010101090602A
:10061000000090A0C0A090000080808080E00000DA
:1006200088D8A88888000088C8A8988800006090AA
:100630009090600000E090E08080000060909090DA
:10064000601000E090E0A090000060804020C000BA
:1006500000E0404040400000909090906000008892
:100660005050202000008254542828000088502038
:100670005088000088502020200000E0204080E0CA
:1006800000C08080808080C080804040202000C0EA
:100690004040404040C00020508800000000000062
:1006A000000000F800804000000000000070909002
:1006B00070000080E09090E00000006080806000AA
:1006C00000107090907000000060A0C0600000609A
:1006D00080C0808000007090907010600080E0907A
:1006E000909000800080808080004000404040402A
:1006F00080008090E0A090000080808080800000DA
:1007000000F0A8A8A8000000E09090900000006011
:100710009090600000E09090E08080007090907079
:1007200010100000A0C0808000000060C020C00049
:100730000080C08080400000009090907000000019
:10074000A0A04040000000A8A85050000000A04019
:1007500040A0000000A0A04080800000E04080E0B9
:100760000020404080404020808080808080008049
:1007700040402040408000649800000000000000DD
:1007800000000000000000000000000000600060A9
:100790000060006000600000006000000048004849
:1007A0000000000000000000000000000028007CA5
:1007B000007C0028007C007C00280000003C0068D1
:1007C00000680038002C002C007800280064006CC1
:1007D000000800180010003600260000003C0066EB
:1007E000003C007D00670067003D000000400040C5
:1007F00000000000000000000000000000100020C9
:1008000000600060006000600020001000400020D8
:100810000030003000300030002000400010005454
:10082000007C0038007C0054001000000000001024
:100830000010007C0010001000000000000000000C
:1008400000000000000000200060004000000000E8
:100850000000007C0000000000000000000000001C
:1008600000000000000000600060000000100010A8
:100870000030002000600040004000000038006CA4
:10088000006C006C006C006C0038000000300070E0
:100890000030003000300030003000000078000CE4
:1008A000000C003800600060007C00000078000C44
:1008B000000C0038000C000C00780000000C001C3C
:1008C000002C004C007C000C000C00000078004064
:1008D0000078000C000C000C00780000003800606C
:1008E0000078006C006C006C00380000007C000C8C
:1008F0000018001800300030003000000038006C94
:10090000006C0038006C006C003800000038006C8F
:10091000006C006C003C000C00380000000000007F
:100920000060006000000060006000000000000047
:100930000060006000000020006000400008001817
:1009400000300060003000180008000000000000C7
:10095000007C0000007C00000000000000400060FF
:100960000030001800300060004000000078000CEB
:10097000001800300030000000300000003C00662D
:10098000007E006E007C0060003E0000003C0066BF
:1009900000660066007E006600660000007C00665F
:1009A000007C006600660066007C0000003C006081
:1009B0000060006000600060003C0000007C006699
:1009C0000066006600660066007C0000007C006037
:1009D000007C006000600060007C0000007C006023
:1009E000007C00600060006000600000003E00606D
:1009F0000060006600660066003E0000006600665B
:100A0000007E006600660066006600000060006010
:100A1000006000600060006000600000000C000CDE
:100A2000000C000C000C000C007800000066006C4C
:100A3000007800700078006C0066000000600060C4
:100A40000060006000600060007C00000041006306
:100A50000077007F006B00630063000000460066C3
:100A60000076007E006E006600620000003C0066BA
:100A70000066006600660066003C0000007C0066C0
:100A800000660066007C006000600000003C0066BC
:100A9000006600660066006E003C0006007C006692
:100AA00000660066007C007C006600000038006084
:100AB000006000300018001800700000007E001870
:100AC00000180018001800180018000000660066E2
:100AD0000066006600660066003C00000066006676
:100AE0000066003C003C0018001800000063006332
:100AF0000063006B003E00360036000000660066B2
:100B0000003C0018003C00660066000000660066BD
:100B1000003C00180018001800180000007C000CB1
:100B2000001C003800700060007C00000070006055
:100B300000600060006000600060007000400040E5
:100B40000060002000300010001000000070003035
:100B500000300030003000300030007000200050C5
:100B60000000000000000000000000000000000085
:100B70000000000000000000000000F800200060FD
:100B80000040000000000000000000000000000025
:100B90000038000C003C006C003C0000006000606D
:100BA0000078006C006C006C007800000000000011
:100BB000003800600060006000380000000C000C8D
:100BC000003C006C006C006C003C00000000000069
:100BD0000038006C007C0060003C000000300060C9
:100BE0000070006000600060006000000000000015
:100BF000003C006C006C003C000C003800600060A1
:100C00000078006C006C006C006C0000006000005C
:100C100000600060006000600060000000300000C4
:100C200000300030003000300030006000600060B4
:100C30000060006C00780078006C000000600060CC
:100C400000600060006000600060000000000000C4
:100C5000007F006D806D806D806D80000000000061
:100C60000078006C006C006C006C0000000000005C
:100C70000038006C006C006C0038000000000000C0
:100C80000078006C006C00780060006000000000DC
:100C9000003C006C006C003C000C000C00000000EC
:100CA0000068007800600060006000000000000044
:100CB0000038006000300018007000000060006024
:100CC0000070006000600060003000000000000064
:100CD000006C006C006C006C003C00000000000028
:100CE000006C006C003800380010000000000000AC
:100CF0000063006B006B003E003600000000000047
:100D0000006C007C0038007C006C000000000000DB
:100D1000006C006C006C003C000C0038000000000F
:100D2000007C000C00380060007C000000380020CF
:100D3000002000400020002000380000004000405B
:100D400000400040004000400040004000700010A3
:100D50000010000800100010007000000028005073
:100D60000000000000000000000000000038006CDF
:100D7000006C0038000000000000000000000000CF
:100D800000000000000000000000183C3C3C181867
:100D900000181800000066666600000000000000F1
:100DA000000036367F3636367F36360000083E6B1A
:100DB00068683E0B0B6B3E080870D8DA760C18306A
:100DC0006E5B1B0E0000386C6C386CC7C66E3B0047
:100DD00000001818180000000000000000000C18A7
:100DE00018303030303018180C003018180C0C0C3B
:100DF0000C0C181830000000361C7F1C3600000058
:100E00000000000018187E18180000000000000004
:100E100000000000001818300000000000007E00F4
:100E20000000000000000000000000000018180092
:100E3000000006060C0C18183030606000001C36EC
:100E4000636B6B6B63361C0000000C1C3C0C0C0CC1
:100E50000C0C3F0000003C6606060C1830607E005B
:100E600000003C6666061C0666663C000000060E36
:100E70001E3666667F06060000007E6060607C06A7
:100E800006663C0000001C3060607C6666663C00C4
:100E900000007E060C0C18181818180000003C669C
:100EA00066663C6666663C0000003C6666663E061A
:100EB000060C380000000000181800000018180088
:100EC0000000000018180000001818300000060C80
:100ED00018306030180C060000000000007E007E14
:100EE0000000000000006030180C060C1830600094
:100EF00000003C66660C18180018180000007EC33D
:100F0000C3CFDBDBCFC07F000000183C6666667E87
:100F10006666660000007C6666667C6666667C00C7
:100F200000003C666060606060663C000000786CB9
:100F300066666666666C780000007E6060607C6055
:100F400060607E0000007E6060607C6060606000C9
:100F500000003C666060606E66663E00000066668B
:100F600066667E666666660000003C1818181818EB
:100F700018183C00000006060606060666663C00D9
:100F8000000066666C6C786C6C66660000006060E1
:100F90006060606060607E00000063777F6B6B6301
:100FA0006363630000006363737B6F676363630065
:100FB00000003C666666666666663C0000007C660D
:100FC00066667C606060600000003C66666666661F
:100FD00066663C0C06007C6666667C6C666666002F
:100FE00000003C666030180C06663C0000007E186D
:100FF00018181818181818000000666666666666E5
:1010000066663C000000666666666666663C1800BA
:101010000000636363636B6B6B3E360000006666C3
:10102000663C183C666666000000666666663C18AC
:101030001818180000007E06060C183060607E004C
:10104000003C303030303030303030303C00606088
:10105000303018180C0C0606003C0C0C0C0C0C0C58
:101060000C0C0C0C3C183C6600000000000000005A
:10107000000000000000000000000000FF303018F9
:101080000000000000000000000000003C06063EDA
:1010900066663E00000060607C66666666667C0090
:1010A000000000003C66606060663C0000000606D0
:1010B0003E66666666663E00000000003C66667E30
:1010C00060603C0000001C30303078303030300040
:1010D000000000003E66666666663E063C00606094
:1010E0007C66666666666600001818007818181830
:1010F00018187E00000C0C003C0C0C0C0C0C0C0C9A
:101100007800606066666C786C666600000078182F
:101110001818181818187E00000000007E6B6B6B02
:101120006B6B6300000000007C66666666666600A6
:10113000000000003C66666666663C000000000039
:101140007C66666666667C60600000003E66666679
:1011500066663E06060000007C66606060606000B7
:10116000000000003E60603C06067C00000030305D
:101170007830303030301C00000000006666666653
:1011800066663E000000000066666666663C180003
:10119000000000006363636B6B3E360000000000DC
:1011A00066663C183C66660000000000666666667F
:1011B00066663E067C0000007E060C1830607E00ED
:1011C000000C1818181830181818180C00181818CF
:1011D00018180018181818180030181818180C18B3
:1011E00018181830000076DC000000000000000035
:1011F00000000000000000000000000000000000EF
:1012000000000000000000000000000000000000DE
:1012100000000000000000000000000000000000CE
:10122000000000000000003000003000003000002E
:10123000300000300000300000300000300000308E
:10124000000030000030000000000000000030000E
:10125000003000000000000000000000006C0000F2
:101260006C00006C00006C0000000000000000003A
:10127000000000000000000000000000000000006E
:10128000000000000000000000000000000000005E
:101290000000000440000440000440000440007FBF
:1012A000F00008800008800008800009000011009C
:1012B00000FFE000110000120000220000220000E8
:1012C0000000000000000000000200000FC0001A33
:1012D00060003220003200003A00001E00000700CB
:1012E0000003C00002E00002600002600022600013
:1012F00032C0001F800002000000000000000078E3
:101300001000CC1000CC2000CC4000CC4000CC80A1
:101310000079000002000002F00005980009980022
:1013200011980011980021980040F0000000000082
:1013300000000000000780000CC0000CC0000CC0C2
:10134000000CC0000780000E0000333C0063080062
:1013500061880061D00070F0007860003FF0000FFD
:101360003800000000000000000000600000600085
:10137000006000006000006000000000000000004D
:10138000000000000000000000000000000000005D
:10139000000000000000000000000000000000004D
:1013A00000040000080000180000300000300000B9
:1013B000200000600000600000600000600000602D
:1013C0000000600000200000300000300000180025
:1013D0000008000004000040000020000030000071
:1013E0001800001800000800000C00000C00000CA1
:1013F00000000C00000C00000C00000800001800A9
:10140000001800003000002000004000000C000028
:101410000C00004C80007380001200001E0000339E
:101420000000330000000000000000000000000089
:1014300000000000000000000000000000000000AC
:101440000000000000000000000000000600000690
:1014500000000600000600000600007FE0007FE0BC
:10146000000600000600000600000600000600005E
:10147000000000000000000000000000000000006C
:10148000000000000000000000000000000000005C
:10149000000000000000000000000000000000004C
:1014A000300000300000100000100000200000009C
:1014B000000000000000000000000000000000002C
:1014C000000000000000007C00007C000000000024
:1014D000000000000000000000000000000000000C
:1014E00000000000000000000000000000000000FC
:1014F00000000000000000000000000000000000EC
:10150000000000000000000000000000300000307B
:10151000000000000000000000000000C00000C04B
:101520000001800001800003800003000003000030
:101530000600000600000C00000C00001800001857
:101540000000380000300000300000600000600043
:10155000000F000019800030C000204000606000D3
:10156000606000606000606000606000606000605B
:10157000600020400030C0001980000F0000000013
:10158000000000000000000200001E000006000035
:101590000600000600000600000600000600000627
:1015A000000006000006000006000006000006001D
:1015B000001F80000000000000000000001F8000ED
:1015C00030C000206000006000006000006000008B
:1015D000C0000180000300000600000800001800A1
:1015E000001000003FE0003FE000000000000000AD
:1015F0000000001F800020C000206000006000008C
:10160000600000C0000180001F000001C0000060F9
:101610000000600000600020600030C0001F8000FB
:1016200000000000000000000000400000C00001B9
:10163000C00002C00004C00008C00010C00010C0FC
:101640000020C0007FF0007FF00000C00000C0005C
:1016500000C00001E0000000000000000000001FCA
:10166000C0001FC00010000010000010000010009B
:10167000001F000001C00000C0000060000060000A
:1016800000600010E00010C0000F800000000000AB
:1016900000000000000F80001840003040003000C3
:1016A000006000006F800070C00060E000606000BB
:1016B00060600060600020600030400018C0000FD3
:1016C00000000000000000000000003FE0003FE0DC
:1016D0000000400000C00000800001000001000088
:1016E0000200000600000400000C00000C000008CE
:1016F00000001800001800000000000000000000BA
:10170000000F800018C000306000306000306000C2
:101710001CC0000F00001F800031C00060E00060AE
:10172000600060600060600030C0001F800000004A
:10173000000000000000000F000031C00020C000C9
:1017400060600060600060600060600030600030D9
:10175000E0001F600000400000C00000C0002180C9
:10176000003E00000000000000000000000000003B
:101770000000000000000000003000003000000009
:101780000000000000000000000000000000000059
:1017900000000000300000300000000000000000E9
:1017A0000000000000000000000000000000003009
:1017B00000003000000000000000000000000000F9
:1017C00000000000000000000000300000300000B9
:1017D00010000010000020000000000000000000C9
:1017E000000000000000100000700001E000078011
:1017F000001E00007800001E000007800001E000CD
:101800000070000010000000000000000000000058
:1018100000000000000000000000000000000000C8
:10182000007FF0007FF0000000000000007FF0006B
:101830007FF0000000000000000000000000000039
:101840000000000000000000000000000000000098
:10185000004000007000003C00000F000003C000CA
:1018600000F00003E0000F80003E00007000004028
:1018700000000000000000000000003E00006300C7
:101880000041800001800001800003000002000090
:101890000C00000800001800001800000000000004
:1018A0000000180000180000000000000000000008
:1018B0000001F8000606000C030010F900319880C2
:1018C000231880421880463080463080467100469A
:1018D000B200233C0020000018200007C0000000D8
:1018E000000000000000000300000300000380006F
:1018F00005800005800008C00008C00010E000104E
:1019000060001060003FF0002030004018004018D8
:1019100000E03C000000000000000000007F00002C
:1019200031C00030C00030C00030C0003080003115
:1019300080003E000031C00030C0003060003060E8
:101940000030600030C0007F800000000000000018
:1019500000000007F0001C1800380800300000707C
:101960000000600000600000600000600000600097
:10197000007000003000001800000C080007F000A4
:101980000000000000000000007FC0003070003048
:101990003800301800300C00300C00300C00300CD7
:1019A00000300C00300C00301C00301800303800C3
:1019B0003070007FC0000000000000000000007FC9
:1019C000C000304000300000300000300000300027
:1019D000003100003F000031000030000030000006
:1019E0003000003040003040007FC00000000000A8
:1019F00000000000007FC0003040003000003000D8
:101A0000003000003000003080003F800030800057
:101A1000300000300000300000300000300000785E
:101A2000000000000000000000000007F0001C188B
:101A30000038080030000070000060000060000006
:101A4000600000607C0060180070180030180018FA
:101A500018000C180007F000000000000000000053
:101A600000783C00301800301800301800301800A2
:101A70003018003018003FF80030180030180030DF
:101A80001800301800301800301800783C000000B2
:101A9000000000000000007800003000003000006E
:101AA0003000003000003000003000003000003016
:101AB0000000300000300000300000300000300036
:101AC000007800000000000000000000003E000060
:101AD0000C00000C00000C00000C00000C00000CBE
:101AE00000000C00000C00000C00000C00000C00BA
:101AF000000C00000C00000C00008C00009800009E
:101B0000F0000078F000304000308000308000317C
:101B100000003200003400003C00003600003300BA
:101B20000031800030C00030600030300078F800B4
:101B300000000000000000000078000030000030CD
:101B400000003000003000003000003000003000A5
:101B50000030000030000030000030000030400055
:101B60003040007FC0000000000000000000007056
:101B70000700300600380E00380E003C16002C1608
:101B8000002C360026260026260023460023460089
:101B9000238600218600218600700F0000000000CF
:101BA0000000000000701C003008003808002C08FD
:101BB000002E080026080023080021880021880044
:101BC00020C800206800207800203800201800700D
:101BD000080000000000000000000007C0001C70AA
:101BE00000301800301800600C00600C00600C0021
:101BF000600C00600C00600C00600C0030180030BD
:101C000018001C700007C000000000000000000069
:101C1000007F800030C00030600030600030600025
:101C200030600030C00031C0003F000030000030A4
:101C3000000030000030000030000078000000009C
:101C40000000000000000007C0001C7000301800F9
:101C5000301800600C00600C00600C00600C00602C
:101C60000C00600C00600C003018003018001C7074
:101C70000007C000003000001F000007007F800048
:101C800030C00030600030600030600030600031F3
:101C9000C0003F000033000031800031C00030C080
:101CA0000030600030700078380000000000000054
:101CB0000000001F800030C0006040006000006035
:101CC00000007000003C00000F000003800001C015
:101CD0000000C00000C00040C0006180003F000064
:101CE0000000000000000000007FF80043080043EF
:101CF00008000300000300000300000300000300CD
:101D000000030000030000030000030000030000C4
:101D100003000007800000000000000000000078C1
:101D2000380030100030100030100030100030103B
:101D30000030100030100030100030100030100063
:101D40003010001820001C60000FC00000000000D0
:101D50000000000000781C00300800300800181057
:101D6000001810001810000C20000C200006400085
:101D7000064000064000038000038000038000014D
:101D800000000000000000000000007861C030602A
:101D90008030608030E08038B10018B10019310027
:101DA000193900191A000D1A000E1A000E0E000E35
:101DB0000C00040C000404000000000000000000FF
:101DC00000F870006020003040003880001880006B
:101DD0000D00000E00000600000700000B000011BF
:101DE000800011C00020C000406000E1F000000051
:101DF00000000000000000F0700060200030400093
:101E00003840001880001C80000D0000060000060D
:101E100000000600000600000600000600000600A4
:101E2000000F00000000000000000000007FE00044
:101E300040E00000C00001C000018000030000037A
:101E400000000600000E00000C0000180000180042
:101E5000003000007020007FE00000000000000063
:101E60000000003C00003000003000003000003076
:101E70000000300000300000300000300000300072
:101E80000030000030000030000030000030000062
:101E90003000003000003C000060000060000030B6
:101EA00000003000003800001800001800000C008E
:101EB000000C000006000006000003000003000004
:101EC00003800001800001800000C00000C0007895
:101ED000000018000018000018000018000018008A
:101EE000001800001800001800001800001800007A
:101EF0001800001800001800001800001800001852
:101F00000000780000030000030000078000078045
:101F1000000CC0000CC000186000186000303000D9
:101F20003030000000000000000000000000000051
:101F300000000000000000000000000000000000A1
:101F40000000000000000000000000000000000091
:101F50000000000000000000000000000000000081
:101F600000000000000000007F8000000000000072
:101F700000060000030000018000000000000000D7
:101F80000000000000000000000000000000000051
:101F90000000000000000000000000000000000041
:101FA0000000000000000000000000000000000031
:101FB0000000001F0000238000218000018000013C
:101FC00080001F800031800061800061800073808C
:101FD000003CE00000000000000000000070000075
:101FE00030000030000030000037C00038600030A2
:101FF00030003030003030003030003030003030D1
:1020000000306000386000378000000000000000F1
:102010000000000000000000000000000000000FB1
:102020000000388000308000600000600000600028
:10203000006000006000003000003880000F0000E9
:1020400000000000000000000000E0000060000050
:1020500060000060000F600030E0003060006060F1
:1020600000606000606000606000606000606000B0
:1020700030E0001F700000000000000000000000C1
:1020800000000000000000000000000F0000318090
:102090000020C00060C0007FC00060000060000041
:1020A0006000003000001840000F800000000000B9
:1020B00000000000000F00001900001800001800C8
:1020C000007F000018000018000018000018000031
:1020D0001800001800001800001800001800003C4C
:1020E00000000000000000000000000000000000F0
:1020F000000000000000000FF00019800030C00058
:1021000030C00030C0001980000F00001000003007
:1021100000003FC0001FE00020600060C0003F8062
:102120000070000030000030000030000037C000B8
:102130003860003060003060003060003060003097
:10214000600030600030600030600078F000000017
:10215000000000000000003000003000000000001F
:10216000000000700000300000300000300000303F
:10217000000030000030000030000030000030006F
:1021800000780000000000000000000000180000BF
:1021900018000000000000000038000018000018BF
:1021A00000001800001800001800001800001800B7
:1021B00000180000180000180000180000100000AF
:1021C000E0000070000030000030000030000030FF
:1021D000E0003080003100003200003400003E009A
:1021E0000036000033000031800030C000787000FD
:1021F000000000000000000000700000300000300F
:1022000000003000003000003000003000003000DE
:1022100000300000300000300000300000300000CE
:102220003000007800000000000000000000000006
:10223000000000000000000000000077CF80387030
:10224000C03060C03060C03060C03060C03060C03E
:102250003060C03060C03060C078F1E00000000045
:10226000000000000000000000000000000000006E
:102270000077C000386000306000306000306000DF
:102280003060003060003060003060003060007806
:10229000F00000000000000000000000000000004E
:1022A000000000000000000F000039C00030C00036
:1022B000606000606000606000606000606000302E
:1022C000C00039C0000F0000000000000000000046
:1022D0000000000000000000000000000077C000C7
:1022E00038600030300030300030300030300030A6
:1022F000300030600038600037800030000030006F
:102300000030000078000000000000000000000025
:102310000000000F600030E000306000606000608E
:10232000600060600060600060600030E0001F607E
:102330000000600000600000600000F0000000008D
:1023400000000000000000000073000037000039AA
:10235000000030000030000030000030000030008D
:102360000030000030000078000000000000000095
:102370000000000000000000000000000000000F4E
:1023800000003080003080003000001C00000F0092
:102390000003C00000C00020C0003180001F00000A
:1023A00000000000000000000000000000000030FD
:1023B00000003000007E00003000003000003000DF
:1023C000003000003000003000003000003000001D
:1023D0003000001E000000000000000000000000AF
:1023E000000000000000000000000070E00030600D
:1023F000003060003060003060003060003060000D
:1024000030600030600030E0001F7000000000000D
:1024100000000000000000000000000000000000BC
:102420000078700030200030200018400018400074
:102430001C80000C80000D00000700000600000258
:10244000000000000000000000000000000000008C
:102450000000000000000078C70030C20030C20059
:102460003162003962001B74001A34001A34000C07
:1024700018000C18000C18000000000000000000FC
:102480000000000000000000000000000078E000F4
:102490003040001880001D00000E000006000007FC
:1024A00000000B800011800020C00071E0000000DF
:1024B000000000000000000000000000000000001C
:1024C0000000007870003020003020001840001814
:1024D00040001C80000C80000D000007000006007A
:1024E000000200000400000C0000180000000000C2
:1024F0000000000000000000003FE00020E00000BD
:10250000C0000180000300000700000600000C006E
:10251000001800003820003FE0000000000000002C
:102520000000000C000010000030000030000030FF
:1025300000003000003000002000004000002000BB
:10254000003000003000003000003000003000009B
:102550001000000C000000000030000030000030CF
:10256000000030000030000030000030000030007B
:10257000003000003000003000003000003000006B
:1025800030000030000030000030000030000060FB
:1025900000001000001800001800001800001800CB
:1025A00000180000080000040000080000180000E7
:1025B000180000180000180000180000100000604B
:1025C000000000000000000000000000000000000B
:1025D000000000000000000000003E10007FF0003E
:1025E00003E0000000000000000000000000000008
:1025F00000000000000000000000000000000000DB
:1026000000000000000000000000000000000000CA
:1026100000000000000000000000000000000000BA
:1026200000000000000000000000000000000000AA
:10263000003F00003F00003F00003F00003F00005F
:102640003F00001E00001E00001E00001E00001EB5
:1026500000001E00000000001C00003E00003E00C4
:10266000003E00001C000073800073800073800037
:10267000738000738000738000738000000000008E
:10268000000000000000000000000000000000004A
:10269000000000000000000000000000000038E022
:1026A0000070E00071C00071C000E3800FFFF81FF0
:1026B000FFF81FFFF001C700038700038E003FFFF4
:1026C000E03FFFE07FFFC0071C000E1C000E38003B
:1026D0001C38000180000180000FE0001FF0003D69
:1026E00090003D80003F80001FE0000FF00003F8E5
:1026F0000001BC0001BC0021BC0031FC003FF8001F
:102700001F800001E0000180001F01C03F81807137
:10271000C30071C70071C60071CC0071DC003F9826
:10272000001F30000033E00067F000CE3800CE38E4
:10273000018E38038E38030E380607F00E03E007CB
:10274000E0000FF0001FF8001F38001F38001FF8CE
:10275000000FF00007E0000FF0001FF8003EFC0043
:102760007C7F007C3F807C1FC07E1FE03FFFF81F06
:10277000F3F80FE0F87000007000007000007000C7
:1027800000700000700000700000000000000000F9
:102790000000000000000000000000000000000039
:1027A0000000000000000000000000018000038025
:1027B000000700000700000E00000E00001E0000D1
:1027C0001E00001E00001E00001E00001E00000E65
:1027D00000000E00000700000700000380000180D9
:1027E000003000003800001C00001C00000E00003B
:1027F0000E00000F00000F00000F00000F00000F80
:1028000000000F00000E00000E00001C00001C0065
:102810000038000030000003C00009A0000DB00027
:102820001F780003C00003C0001F78000DB000092E
:10283000A00003C000000000000000000000000035
:102840000000000000000000000000000000380050
:102850000038000038000038000038000038000060
:1028600038001FFFF01FFFF01FFFF0003800003896
:102870000000380000380000380000380000380040
:102880000000000000000000000000000000000048
:102890000000000000000000000000000000000038
:1028A000003800007C00007C00007C00003C000040
:1028B0001800003000006000000000000000000070
:1028C0000000000000000000000000000000000008
:1028D000001FC0003F80007F0000000000000000DB
:1028E00000000000000000000000000000000000E8
:1028F00000000000000000000000000000000000D8
:1029000000000000000000000000000000000000C7
:102910000000000000003800007C00007C00007C0B
:1029200000003800000600000600000E00000C0049
:10293000000C00001C000018000018000038000007
:10294000300000300000700000600000600000E017
:102950000000C00000C00000C0000003E0000FF84D
:10296000001FFC003E3E003E3E003C1E007C1F005F
:102970007C1F007C1F007C1F007C1F007C1F003C14
:102980001F003E3E003E3E001FFC000FF80003E02B
:102990000000200000600000E00007E0001FE000F1
:1029A00003E00003E00003E00003E00003E00003B5
:1029B000E00003E00003E00003E00003E00003E0C8
:1029C0000003E0000FF80007E0001FF8001FFC0004
:1029D00038FC00207C00007C0000FC0000F80001B6
:1029E000F80001F00003E00007E00007C0000F80DE
:1029F000001F82001FFE003FFC007FFC001FC00084
:102A00003FF0003FF80021F80000F80000F8000156
:102A1000F0001FE0001FF0001FF80000FC00007C29
:102A200000007C00007C0000F8007FF8003FF00010
:102A30003FC00001F80001F80003F80003F80006A9
:102A4000F80006F8000CF8001CF80018F80038F838
:102A50000030F9007FFF007FFE00FFFE0000F8005D
:102A600000F80000F80001FC001FF8001FF8003F0C
:102A7000F8003E08003E00003E00003FE0003FF04E
:102A8000003FF80021FC00007C00007C00007C007E
:102A9000007C0001F8007FF8003FF0001FC000003C
:102AA000780001F00007E0000F80001F00003E00EA
:102AB000003EF0003DFC007DFC007C7E007C3E0082
:102AC0007C3E007C3E007C3E003E7C001FFC000FF4
:102AD000F80007E0003FFE003FFC007FFC00407C68
:102AE0000000780000F80000F80001F00001F0009C
:102AF00003E00003E00003E00007C00007C0000F90
:102B000080000F80000F80001FC00007F0000FF84A
:102B1000001FFC003E3E003E1E003E1E003F9C008B
:102B20001FF8000FF8001FFC003CFE00783F007803
:102B30001F00781F007C3F003FFE001FFC0007F0D5
:102B40000007E0001FF0003FF8003E7C007C3E00E4
:102B50007C3E007C3E007C3E007E3E003FBE003F4F
:102B6000BE000F7C00007C0000F80001F00007E0D0
:102B7000000F80001E0000000000000000000000A8
:102B80000000001C00003E00003E00003E00001C53
:102B900000000000000000001C00003E00003E009D
:102BA000003E00001C0000000000000000000000CB
:102BB0000000000000000000000000000000000015
:102BC0000000000000000000000000000000000005
:102BD00000000000000000000000000000000000F5
:102BE00000000000000000000000000000000000E5
:102BF00000000000000000000000000000000000D5
:102C000000000000000000000000000000000000C4
:102C100000000000000000000000000000000000B4
:102C2000000000000001F0000003F8000007FC00B5
:102C30000007FC000007FC000007FC000007FC0088
:102C40000003F8000001F000000000000000000098
:102C50000000000000000000000000000000000074
:102C60000000000000000000000000000000000064
:102C70000000000000000000000000000000000054
:102C80000000000000000000000000000000000044
:102C90000000000000000000000000000000000034
:102CA0000000000000000000000000000000000024
:102CB0000000000000000000000000000000000014
:102CC000000000000001F0000003F8000007FC0015
:102CD0000007FC000007FC000007FC000007FC00E8
:102CE0000003F8000001F0000000000000001FC019
:102CF00000007FF00000F0780001E03C0003E03EBF
:102D00000007E03F0007C01F000FC01F800FC01F5B
:102D1000800FC01F801FC01FC01FC01FC01FC01F4B
:102D2000C01FC01FC03FC01FE03FC01FE03FC01F0B
:102D3000E03FC01FE03FC01FE03FC01FE03FC01F9B
:102D4000E03FC01FE03FC01FE03FC01FE03FC01F8B
:102D5000E03FC01FE01FC01FC01FC01FC01FC01F1B
:102D6000C01FC01FC00FC01F800FC01F800FC01F1B
:102D70008007C01F0007E01F0003E03E0001E03CA9
:102D80000000F07800007FF000001FC0000000602D
:102D9000000001E0000007E000003FE00000FFE06D
:102DA0000003FFE000063FE000001FE000001FE01E
:102DB00000001FE000001FE000001FE000001FE017
:102DC00000001FE000001FE000001FE000001FE007
:102DD00000001FE000001FE000001FE000001FE0F7
:102DE00000001FE000001FE000001FE000001FE0E7
:102DF00000001FE000001FE000001FE000001FE0D7
:102E000000001FE000001FE000001FE000001FE0C6
:102E100000001FE000001FE000001FE000001FE0B6
:102E200000003FF000007FF80007FFFF80003F80B8
:102E30000000FFE00001FFF00007FFFC0007FFFCBF
:102E4000000FFFFE001FFFFE001E0FFF003803FFF4
:102E5000003001FF002001FF000000FF000000FF24
:102E6000000000FE000000FE000000FE000000FC6C
:102E7000000000FC000001F8000001F8000001F073
:102E8000000003E0000003C0000007C0000007804E
:102E900000000F0000001E0000001C0000003800B1
:102EA00040007000C000E000C000C0038001FFFFD0
:102EB0008003FFFF8007FFFF800FFFFF801FFFFFE2
:102EC000001FFFFF003FFFFF007FFFFF00001FC04C
:102ED0000000FFF00001FFFC0007FFFE000E07FEF0
:102EE000000C03FF001001FF003000FF000000FF96
:102EF000000000FE000000FE000000FC000001F0E9
:102F0000000001C0000003E000000FF800003FFCDB
:102F10000000FFFE00003FFF00000FFF800007FFE2
:102F2000800003FFC00001FFC00000FFC000007F61
:102F3000C000007FC000007FC000003FC000003F15
:102F4000C000003F8000003F803C003F003E003F4B
:102F5000007F007E007F80FC007FE1FC007FFFF0AF
:102F6000003FFFE0001FFF800007FC000000001E84
:102F70000000003E0000003E0000007E000000FE59
:102F8000000000FE000001FE000003FE000003FE42
:102F9000000007FE00000DFE000019FE000019FEF3
:102FA000000031FE000061FE000061FE0000C1FE75
:102FB000000181FE000181FE000301FE000601FE0A
:102FC000000C01FE000C01FE001801FE003001FEA5
:102FD000003FFFFFE03FFFFFE03FFFFFE03FFFFF5D
:102FE000E03FFFFFE03FFFFFE00001FE000001FEC9
:102FF000000001FE000001FE000001FE000001FED5
:10300000000001FE000001FE000001FE00007FFF45
:10301000E0007FFFE000FFFFC000FFFFC000FFFFF8
:10302000C001FFFF8001FFFF8001FFFF8003FFFF62
:103030000003000000070000000600000007F00089
:10304000000FFF00000FFFE0000FFFF0001FFFFC6C
:10305000001FFFFE001FFFFF003FFFFF80003FFF3C
:10306000800007FFC00000FFC000007FE000003FBD
:10307000E000001FE000000FE0000007E000000794
:10308000E0000003E0000003C0000003C01E0003D6
:10309000C01F8003803FC003003FE007003FF80EE1
:1030A000001FFC18000FFFE00001FF0000000003FC
:1030B000E000003F800000FE000003F000000FE091
:1030C00000001FC000003F0000007F000000FE0065
:1030D0000001FC000003FC000003F8000007F800FA
:1030E0000007F000000FF000000FF000001FE7F0F5
:1030F000001FFFFC001FF0FF003FE07F803FE07FEC
:10310000803FC03FC03FC03FC03FC03FE03FC01F07
:10311000E03FC01FE03FC01FE03FC01FE03FC01FB7
:10312000E01FC01FE01FE01FE01FE01FC00FE01FF7
:10313000C00FE01FC007F01F8003F03F0003F83E00
:103140000000FC7C00007FF800001FC00007FFFFAC
:10315000F007FFFFF00FFFFFE00FFFFFE00FFFFFA3
:10316000E00FFFFFC00FFFFFC01FFFFFC01FFFFFEB
:10317000801F0007801800078030000F0020000F1C
:103180000000001F0000001E0000001E0000003EA6
:103190000000003C0000003C0000007800000078C7
:1031A00000000078000000F0000000F0000000F0D7
:1031B000000001E0000001E0000001E0000003C0A9
:1031C000000003C0000003C000000780000007806B
:1031D0000000078000000F0000000F0000000F003B
:1031E00000001E0000001E0000001E0000001FE086
:1031F0000000FFFC0001F87E0003F01F0007F01F35
:10320000800FE00F800FE00FC01FE00FC01FE00F26
:10321000C01FF00FC01FF00FC01FF80FC01FF81F16
:10322000800FFC1F800FFF1F0007FFBE0007FFFC81
:103230000001FFF00000FFF800007FFE00003FFFEC
:1032400000007FFF0001F7FF8007C1FFC00FC0FF34
:10325000C01F807FE01F807FE03F003FE03F003FD6
:10326000E03F001FE03F001FE03F001FE03F001F66
:10327000C01F001FC01F801F800F803F800FC07FB6
:103280000003E0FE0001FFF800003FC000001F80C7
:103290000000FFF00001F1F80003E0FC0007E07E11
:1032A000000FC07F001FC03F801FC03F801FC03F76
:1032B000C03FC03FC03FC01FC03FC01FE03FC01F56
:1032C000E03FC01FE03FC01FE03FC01FE03FE01FE6
:1032D000E01FE01FE01FE01FE00FF01FE007F01FFE
:1032E000E003FC3FC001FFFFC0007FBFC000003F04
:1032F0008000003F8000003F8000007F0000007FD2
:10330000000000FE000000FC000001F8000003F0D7
:10331000000007E000000FC000001F8000007E00DA
:103320000001F800000FE000003E00000000000077
:10333000000000000000000000000000000000008D
:10334000000000000001F0000003F8000007FC008E
:103350000007FC000007FC000007FC000007FC0061
:103360000003F8000001F000000000000000000071
:10337000000000000000000000000000000000004D
:10338000000000000000000000000000000000003D
:103390000001F0000003F8000007FC000007FC003B
:1033A0000007FC000007FC000007FC000003F80019
:1033B0000001F0000000000000000000000000001C
:1033C00000000000000000000000000000000000FD
:1033D00000000000000000000000000000000000ED
:1033E00000FF000000000000000000C0000000001E
:1033F0000000000000FFFF0000000000000000C00F
:10340000C00000000000000000FFFFFF00000000FF
:10341000000000C0C0C000000000000000FFFFFF6F
:10342000FF000000000000C0C0C0C000000000009D
:1034300000FFFFFFFFFF0000000000C0C0C0C0C0D1
:103440000000000000FFFFFFFFFFFF00000000C0C2
:10345000C0C0C0C0C000000000FFFFFFFFFFFFFFB3
:10346000000000C0C0C0C0C0C0C0000000FFFFFF1F
:10347000FFFFFFFFFF0000C0C0C0C0C0C0C0C00051
:1034800000FFFFFFFFFFFFFFFFFF00C0C0C0C0C085
:10349000C0C0C0C000FFFFFFFFFFFFFFFFFFFFC076
:1034A000C0C0C0C0C0C0C0C0C06E616E00696E66E2
:1034B0000000407A10F35A00A0724E18090010A5BF
:1034C000D4E80000E87648170000E40B540200003E
:1034D000CA9A3B000000E1F50500008096980000C4
:1034E0000040420F000000A08601000000102700ED
:1034F000000000E803000000006400000000000A73
:1035000000000000000100000000002C76D888DCDC
:10351000674F0823DFC1DFAE59E1B1B796E5E3E4B9
:1035200053C63AE651997696E8E6C28426EB898C32
:103530009B62ED407C6FFCEFBC9C9F40F2BAA56F94
:10354000A5F490055A2AF75C936B6CF9676DC11B63
:10355000FCE0E40D47FEF520E6B500D0ED902E032B
:1035600000943577050080841E080000204E0A0074
:103570000000C80C333333330F986E12831141EFC0
:103580008D2114893BE65516CFFEE6DB18D1844B1E
:10359000381BF77C1D901DA4BBE424203284725E8E
:1035A000228100C9F124ECA1E53D270011241FBEB2
:1035B000CFEFD1E2DEBFCDBF00E00CBF15E0A0E051
:1035C000B2E0EEE3F8ED00E00BBF02C007900D9211
:1035D000A63AB107D9F714E1A6EAB5E001C01D92F9
:1035E000A837B107E1F70E94321D0C941D6C0C94B2
:1035F00000001092AC051092AB050895E8E2FAE0E5
:10360000E80FF11D85810895E8E2FAE0E80FF11D69
:10361000658308958091B9059091BA05886090936B
:10362000BA058093B9050895843049F48091950ACC
:10363000882311F482E003C01092D90A0895809380
:10364000D90A08958093940A08958091940A089560
:103650001F920F920FB60F9211240F900FBE0F9072
:103660001F9018951F920F920FB60F920BB60F92E4
:1036700011240F931F932F933F934F935F936F9357
:103680007F938F939F93AF93BF93EF93FF93DF93BA
:10369000CF93CDB7DEB72A97DEBFCDBF8091BB05F4
:1036A000813069F40E94A31F882349F080910002B1
:1036B0009091010201969093010280930002809103
:1036C000A6058A3020F00E94473F1092A6058091FF
:1036D000B105853058F08091B9059091BA058061A7
:1036E0009093BA058093B9051092B1058091A90510
:1036F000823359F48091B9059091BA058160909315
:10370000BA058093B9051092A9058091AA05813068
:1037100059F48091B9059091BA0582609093BA05E9
:103720008093B9051092AA050E94492C882311F1B3
:103730000091B6051091B7050E942A2C2E833F8375
:10374000488759876A87DE011196FE01369685E023
:1037500001900D928150E1F78B819C810817190728
:1037600048F08091B9059091BA0584609093BA05AC
:103770008093B905E091B405F091B5053196F093C9
:10378000B505E093B4058091B1058F5F8093B105D5
:103790008091A9058F5F8093A9058091AA058F5F0D
:1037A0008093AA058091AB059091AC05019690930A
:1037B000AC058093AB058091AD059091AE05019667
:1037C0009093AE058093AD058091AF059091B005C3
:1037D00001969093B0058093AF052091B605309186
:1037E000B7052F5F3F4F3093B7052093B605209163
:1037F000A6052F5F2093A6056AEF70E00E94956BE7
:10380000892B49F48091B9059091BA059260909303
:10381000BA058093B905EB3FF10588F08091B905B1
:103820009091BA0587FF5FC091609093BA0580932D
:10383000B90559C090619093BA058093B9058091FC
:10384000950A813019F50091B2051091B3050E94D7
:10385000443F9AE0899FC00111240817190768F0B6
:103860008091B9059091BA0594609093BA058093C0
:10387000B9051092B3051092B2058091B2059091EE
:10388000B30501969093B3058093B2058091B60578
:103890009091B7058F5F9F4740F08FEF9FE70E94A1
:1038A000172C1092B7051092B6050E94202A0E948C
:1038B000BB252A96DEBFCDBFCF91DF91FF91EF915F
:1038C000BF91AF919F918F917F916F915F914F9138
:1038D0003F912F911F910F910F900BBE0F900FBE34
:1038E0000F901F9018958091B9059091BA0593FD9E
:1038F000A1CFA5CF81E99AE00E94B6440895EF9246
:10390000FF920F938091CF0A8093480A0E94811FF3
:1039100060E040E022E003E096E4E92E9AE0F92E30
:103920000E94A9210F91FF90EF9008951F9380E0CE
:103930000E94DF5181E00E94DF5182E00E94DF514E
:1039400083E00E94DF519091CE0A8091CF0A8823B4
:1039500019F010E0992309F411E00E94423E811110
:1039600012E00E945B5B882341F4112321F4109242
:10397000940A82E00AC0113021F481E08093940A15
:1039800004C082E08093940A80E00E94A2421F91CA
:1039900008950E94C7460E948B3F0E94305281E9E1
:1039A0009AE00E94ED4510922C0A88E29AE00E946B
:1039B00025460E947B4208951F93CF93DF93C0E07A
:1039C000D0E011E08091CE0A90E00C2E02C09595D7
:1039D00087950A94E2F780FF03C0812F60E002C060
:1039E000812F61E00E94C34221961F5F153051F77D
:1039F000DF91CF911F91089580E00E94B14281EC48
:103A000060E040E050E00E94112B0895DF93CF93D7
:103A1000CDB7DEB72A970FB6F894DEBF0FBECDBF85
:103A20000E94492C8823A9F00E942A2C2E833F83D0
:103A3000488759876A87DE011196FE01369685E030
:103A400001900D928150E1F7E981FA8119950E9468
:103A5000532C2A960FB6F894DEBF0FBECDBFCF9180
:103A6000DF910895DF92EF92FF920F931F93F894E6
:103A700014BE88E10FB6F894809360001092600045
:103A80000FBE8AEF0E9400260E943E2F8AEF0E94FE
:103A900000260E94A83A0E947C3D0E9449264D9B28
:103AA00003C00E94194903C0479A0E943D490E94E1
:103AB0002A448130C9F00E94C0440E94C74684E174
:103AC0008093910A81E08093920A8093930A1092E6
:103AD000940A1092950A81E99AE00E94B64481E026
:103AE0000E9433440E943D491092CB0A1092CA0AA8
:103AF0001092C90A1092C80A0E9411448093CC0AFD
:103B00008093CD0A1092D80A1092D00A11E0109337
:103B1000D10A1093D20A0E94C91C0E9487490E94B0
:103B2000762F84E18093910A0E9476300E94353F7F
:103B3000882319F41092950A02C01093950A0E94E6
:103B4000842F8AE890E664EA7FE20E94F72B0E94C5
:103B500063488823E9F40E94892F0E947D550E94C2
:103B6000D34790912A0A87E0989F802D11240E94C4
:103B7000002680912B0A8093B80580912A0A0E9422
:103B8000731F0E94F82380912C0A813099F40EC093
:103B90000E94892F78940E9493320E940C510E94B7
:103BA000A9490E94A72B0E945B2BF7CF81E060916F
:103BB0002B0A02C080E060E00E94A71F0E94A31FA2
:103BC000882311F00E945F240E941F2F0E942D2F36
:103BD0000E94BB3D80E00E949A438AEF0E9400262B
:103BE00081E00E949A430E94605881E08093940A89
:103BF0000E94A2428091950A882321F482E080935A
:103C0000D90A02C01092D90A7894219A81E080934F
:103C1000460A1092470A8093BB05DD24D3940E9484
:103C2000E924882311F40E94AC5B0E946624882357
:103C300011F40E94D1238091950A882321F10E94DA
:103C40003B3E9091CF0A891761F0D092D20AD09270
:103C5000D10A0E943B3E8093D00A0E9473560E9474
:103C60007F1C0E94353F833071F00E94304090915C
:103C7000D10A891741F00E9430408093D20A809384
:103C8000D10A0E94D8560E94A72B0E945B2B8091DC
:103C9000B90582FF0BC00E94061D8091B905909165
:103CA000BA058B7F9093BA058093B9058091B905C9
:103CB00080FF0BC00E945A5E8091B9059091BA05B1
:103CC0008E7F9093BA058093B9058091B90581FFE5
:103CD0000BC00E94D75D8091B9059091BA058D7F88
:103CE0009093BA058093B9058091B90583FF0BC005
:103CF0000E94095F8091B9059091BA05877F9093E2
:103D0000BA058093B9058091B90584FF13C00E945C
:103D1000235B009779F08130910519F40E94A15F2F
:103D200005C08F5F9F4F11F40E94285F1092B50568
:103D30001092B4052091B9053091BA0531FF30C019
:103D40009091D00A8091CF0A20723070981771F04C
:103D5000232B71F00E949B428091D00A0E948042E6
:103D60008091B9059091BA058F7D0DC0232B79F410
:103D70000E949B428091CF0A0E9480428091B905A7
:103D80009091BA0580629093BA058093B9058091AD
:103D9000B9059091BA059D7F9093BA058093B905B6
:103DA0008091B9059091BA0592FF0BC00E94FD3F2A
:103DB0008091B9059091BA059B7F9093BA05809345
:103DC000B9058091B9059091BA0590FF0EC0809118
:103DD000D80A0E9456548091B9059091BA058F7700
:103DE0009E7F9093BA058093B9058091B905909113
:103DF000BA0594FF12C01091DD0A812F0E947961EB
:103E0000682F812F0E9408628091B9059091BA05B0
:103E1000977E9093BA058093B9050E94A31F8823CB
:103E2000B9F08091000290910102885E934080F089
:103E30000E94811F60E040E021E001E038EBE32ECA
:103E400035E0F32E0E94A921109201021092000287
:103E50000E94761F882369F08091AD059091AE0590
:103E60008C5D954030F00E947F1C1092AE05109240
:103E7000AD050E94AA3FD3CEDF92EF92FF920F933F
:103E80001F93DF93CF9300D00F920F92CDB7DEB781
:103E9000F82EE92E8B01D42E0E94492C882321F480
:103EA0001092B7051092B6054F2DF982EA828091E3
:103EB000B6059091B705800F911F682F9C838B8367
:103EC000DD825E2D7C818D2D0E940C2D0F900F9038
:103ED0000F900F900F90CF91DF911F910F91FF9056
:103EE000EF90DF9008958093DF0A08958091E70AAC
:103EF0009091E80A23E0969587952A95E1F78170DD
:103F000008958091DF0A08958091E70A9091E80A68
:103F100080629093E80A8093E70A1092EC0A10926C
:103F2000EA0A08958091E70A9091E80A8B7F8260FF
:103F30009093E80A8093E70A1092E90A1092BC0570
:103F40001092EB0A08958091E70A81700895882302
:103F5000F9F04091E70A5091E80A9A012160309304
:103F6000E80A2093E70A6093E40A862F90E0880F1E
:103F7000991F880F991F9093E60A8093E50A21FD07
:103F800010C0416051605093E80A4093E70A0895D9
:103F90008091E70A9091E80A8E7F9093E80A8093D7
:103FA000E70A08958091E40A08958093E40A90E076
:103FB000880F991F880F991F9093E60A8093E50A4E
:103FC00008951F920F920FB60F9211240F900FBEFB
:103FD0000F901F9018951F920F920FB60F921124F9
:103FE0008F939F938091E70A9091E80A86FD05C020
:103FF00080689093E80A8093E70A9F918F910F90D1
:104000000FBE0F901F9018951F93DF93CF93CDB7DE
:10401000DEB765970FB6F894DEBF0FBECDBF182F81
:10402000CE0101960E9439248A818117C1F48091C2
:10403000E70A9091E80A9D7F9093E80A8093E70A47
:104040000E9450248091E70A9091E80A8062909340
:10405000E80A8093E70A1092EC0A1092EA0A659641
:104060000FB6F894DEBF0FBECDBFCF91DF911F9189
:1040700008958091EA0A8A3050F48091E70A90917D
:10408000E80A80629093E80A8093E70A089580E046
:104090000E94B14280E061E00E94BB5D0E9450241A
:1040A0008091E70A9091E80A80629093E80A8093F1
:1040B000E70A1092EC0A1092EA0A08951F920F92F2
:1040C0000FB60F920BB60F9211242F933F934F937D
:1040D0005F936F937F938F939F93AF93BF93EF9370
:1040E000FF938091BD05853090F08091E70A909113
:1040F000E80A8B7F82609093E80A8093E70A109227
:10410000E90A1092BC051092EB0A1092BD052091AD
:10411000E70A3091E80A20FD13C087C0277F30935B
:10412000E80A2093E70A0E945F241092BF051092CC
:10413000BE0581E061E00E94BB5D80E00E94B1426B
:104140008091EC0A8A3050F08091E70A9091E80A59
:1041500091FF04C00E9439201092EC0A8091E40A79
:10416000882399F14091DE0A242F30E08091E00A03
:104170009091E10A2817390768F08091E20A90913E
:10418000E30A2817390730F48091E70A9091E80A8A
:10419000806105C08091E70A9091E80A8F7E909334
:1041A000E80A8093E70A8091E50A9091E60A2817C9
:1041B000390740F01092DE0A8091EC0A8F5F8093FD
:1041C000EC0A03C04F5F4093DE0A2091C005309196
:1041D000C105C90187709070892B49F48091BE0593
:1041E0009091BF0501969093BF058093BE052F5F08
:1041F0003F4F3093C1052093C0058091BD058F5F6F
:104200008093BD05FF91EF91BF91AF919F918F91E9
:104210007F916F915F914F913F912F910F900BBEC6
:104220000F900FBE0F901F9018958091BE05909132
:10423000BF0580589C4008F483CF70CF1F93DF9355
:10424000CF93CDB7DEB765970FB6F894DEBF0FBE3C
:10425000CDBF182F8091E70A9091E80A9D7F909337
:10426000E80A8093E70ACE0101960E9439248A81E8
:10427000811711F40E94392065960FB6F894DEBFBD
:104280000FBECDBFCF91DF911F9108958DB79EB71F
:1042900045970FB6F8949EBF0FBE8DBFADB7BEB7A2
:1042A0001196EDEEFAE085E101900D928150E1F773
:1042B0000E94F6248DB79EB745960FB6F8949EBF20
:1042C0000FBE8DBF0895EF92FF920F93DF93CF93B0
:1042D000CDB7DEB765970FB6F894DEBF0FBECDBF82
:1042E000782F522FDE011796F70102C081918D932E
:1042F0008E2F8E198017D0F30E835D834C836A83D3
:1043000079838DB79EB745970FB6F8949EBF0FBEC1
:104310008DBFADB7BEB71196FE01319685E1019014
:104320000D928150E1F70E94F6248DB79EB7459615
:104330000FB6F8949EBF0FBE8DBF65960FB6F8946A
:10434000DEBF0FBECDBFCF91DF910F91FF90EF90F9
:104350000895EF92FF920F931F93DF93CF93CDB702
:10436000DEB765970FB6F894DEBF0FBECDBF182F2E
:10437000722F213021F08091E70A83FF30C0572F40
:10438000540F500FDE011796F70103C08191580FAB
:104390008D938E2F8E198017C8F35B830E837D83D8
:1043A0004C836A8319838DB79EB745970FB6F894EF
:1043B0009EBF0FBE8DBFADB7BEB71196FE01319641
:1043C00085E101900D928150E1F70E9473248DB731
:1043D0009EB745960FB6F8949EBF0FBE8DBF6596EB
:1043E0000FB6F894DEBF0FBECDBFCF91DF911F9106
:1043F0000F91FF90EF900895EF92FF920F93682F27
:104400008091DF0A40E02AEF00E0EE24FF240E94C2
:10441000A9210F91FF90EF900895EF92FF920F93D3
:10442000DF93CF930F92CDB7DEB7982F69838823A0
:1044300061F08091DF0A692F40E02BEF01E07E01FF
:104440000894E11CF11C0E94A9210F90CF91DF91EB
:104450000F91FF90EF9008951F920F920FB60F9259
:104460000BB60F9211242F933F934F935F936F934B
:104470007F938F939F93AF93BF93EF93FF9310928C
:10448000BD055091D600E091E90AEF5FE093E90A9B
:104490006091E70A7091E80A62FFC1C05D3F09F0D0
:1044A00075C04091F20A242F30E08E2F90E00797DC
:1044B0002817390709F06AC02091EE0A8091DF0AB7
:1044C000281719F0222309F04FC067FF4DC09091C3
:1044D000BC058091EF0A981709F03FC08091F10A5E
:1044E0008230A1F4423040F041508091ED0A609159
:1044F000F30A24EF3AE007C08091ED0A6091F30AD5
:1045000040E020E030E00E9486252EC02DB73EB767
:10451000255130400FB6F8943EBF0FBE2DBFADB74A
:10452000BEB71196EDEEFAE085E101900D92815053
:10453000E1F70E94F6248091F00A2DB73EB72B5E7A
:104540003F4F0FB6F8943EBF0FBE2DBF80FF0CC08B
:104550008091ED0A0E94FC2107C0222329F080915E
:10456000ED0A60E00E940D228091E70A9091E80A2E
:104570008B7F82609093E80A8093E70A1092E90AA1
:104580001092BC058DEF8093EB0A5DC0E330A1F083
:10459000E43028F4E13051F0E230D1F40AC0E530E3
:1045A00089F0E53060F0E63099F40FC05093ED0AE1
:1045B00048C05093EE0A45C05093EF0A42C0509352
:1045C000F00A27C05093F10A24C05093F20A21C088
:1045D000F0E0E451F54F50838091F10A8130C9F445
:1045E0001092B2005093E40A852F90E0880F991F33
:1045F000880F991F9093E60A8093E50A1092DE0ACD
:104600006A607093E80A6093E70A1092BF051092FF
:10461000BE058091BC05850F8093BC0512C05E3F2E
:1046200081F4E23070F08091EB0A8E3F51F41092E9
:10463000E90A1092BC056D7F64607093E80A60938C
:10464000E70A5093EB0AFF91EF91BF91AF919F91D1
:104650008F917F916F915F914F913F912F910F902B
:104660000BBE0F900FBE0F901F9018959F92AF92A8
:10467000BF92CF92DF92EF92FF920F93DF93CF938F
:10468000CDB7DEB765970FB6F894DEBF0FBECDBFCE
:104690008091E70A9091E80A80648F779093E80A06
:1046A0008093E70A5E010894A11CB11CC5010E9419
:1046B0003924FE800D819A808EEF0E9443258EEF73
:1046C0000E94432589810E944325892D0E9443250C
:1046D0008B810E9443258C810E944325802F0E945C
:1046E00043258F2D0E944325F7E0CF2ED12CCC0EF1
:1046F000DD1EEF2CFF2486E090E0E80EF91EEA0CA8
:10470000FB1C05C0F60181916F010E944325CE1468
:10471000DF04C1F78DEF0E944325992021F00A3F65
:1047200011F00B3FC9F48091E70A9091E80A9D7F50
:104730009093E80A8093E70A0E9450248091E70A48
:104740009091E80A80629093E80A8093E70A1092B9
:10475000EC0A1092EA0A0BC08091E70A9091E80AED
:1047600092609093E80A8093E70A1092EC0A809195
:10477000E70A9091E80A8F7B9093E80A8093E70A12
:1047800065960FB6F894DEBF0FBECDBFCF91DF9117
:104790000F91FF90EF90DF90CF90BF90AF909F90E0
:1047A00008958091E70A9091E80A84FF11C081FF83
:1047B0000FC085FF1CC08F7D9093E80A8093E70AA5
:1047C0008091EA0A8F5F8093EA0A0E943623089557
:1047D00090FF0DC08F7D9E7F9093E80A8093E70A3B
:1047E0008091EA0A8F5F8093EA0A0E943623089537
:1047F0000E94B5240E9432248FE090E00E94382568
:104800008091DF0A90E0880F991F880F991F019609
:104810009093E10A8093E00A019703969093E30A4C
:104820008093E20A1092E40A1092DE0A1092EC0AD7
:104830001092EA0A82E290E09093E80A8093E70AF5
:104840001092E90A1092BC051092EB0A0E94792599
:104850008091E70A9091E80A80689093E80A809333
:10486000E70A089510923D0C10923E0C10923F0CF6
:104870000895AC0180913D0C90E025E130E0829FED
:10488000F001839FF00D929FF00D1124DA01EE5F8D
:10489000F44F85E101900D928150E1F7CA0108952E
:1048A00090913D0C9F5F90933D0C80913F0C815007
:1048B00080933F0C9F3010F010923D0C08951092A1
:1048C0003D0C10923E0C10923F0C089520E0909108
:1048D0003D0C80913E0C981709F421E0822F089539
:1048E00080913F0C0895DF93CF93CDB7DEB78091D1
:1048F0003F0C8F5F80933F0C803138F080E00E9446
:10490000B14282E061E00E94BB5D40913E0C242FE9
:1049100030E085E190E0289FF001299FF00D389F5D
:10492000F00D1124EE5FF44FDE01169685E10D9037
:1049300001928150E1F7842F8F5F80933E0C8F307E
:1049400010F010923E0C90913E0C80913D0C981707
:1049500019F49F5F90933D0C80913D0C8F3010F0C7
:1049600010923D0CCF91DF91089510927B0D109223
:104970007C0D10927D0D0895AC0180917B0D90E02F
:1049800025E130E0829FF001839FF00D929FF00DB2
:104990001124DA01E05CF34F85E101900D92815022
:1049A000E1F7CA01089590917B0D9F5F90937B0D75
:1049B00080917D0D815080937D0D9F3010F010927D
:1049C0007B0D089510927B0D10927C0D10927D0D41
:1049D000089520E090917B0D80917C0D981709F44B
:1049E00021E0822F089580917D0D0895DF93CF936C
:1049F000CDB7DEB780917D0D8F5F80937D0D8031C7
:104A000038F080E00E94B14283E061E00E94BB5D2B
:104A100040917C0D242F30E085E190E0289FF0014B
:104A2000299FF00D389FF00D1124E05CF34FDE015B
:104A3000169685E10D9001928150E1F7842F8F5FEA
:104A400080937C0D8F3010F010927C0D90917C0D36
:104A500080917B0D981719F49F5F90937B0D809147
:104A60007B0D8F3010F010927B0DCF91DF91089568
:104A70009093D5008093D40086E08093D20088ED97
:104A80008093D1000895982F8091D00085FFFCCFAE
:104A90009093D60080E00895FC0120E030E070E0C3
:104AA0000AC090818091D00085FFFCCF3196909311
:104AB000D6002F5F3F4F261737079CF380E00895FD
:104AC0008091D00087FFFCCF8091D600089580911F
:104AD000D00087FFFCCF9091D6008091D00085FF59
:104AE000FCCF9093D600892F08958091D0008078D4
:104AF0000895EEE7FDE01082118213821282148283
:104B000037968EE0ED32F807B1F708951F93142F12
:104B1000722F482F50E041505040DA0193E0AA0F25
:104B2000BB1F9A95E1F7A41BB50BFD01E258F24FAC
:104B300080836183112371F0FD01ED57F24F822FC5
:104B4000932F9C01D90102C08D9181938A2F871BDD
:104B50008117D0F3FA0183E0EE0FFF1F8A95E1F78A
:104B6000E41BF50BE258F24F1382128284818E7F90
:104B700084831F910895E0E8FDE080819181019692
:104B80009183808337968EE0EF32F807B1F708956E
:104B9000E0E8FDE03FEF20E080819181815797417F
:104BA00030F0828180FD03C081608283322F2F5FCD
:104BB0003796293189F73F3F19F420E030E006C0ED
:104BC00087E0389F900111242258324FC90108957F
:104BD000E0E8FDE020E0808191818157974108F075
:104BE0002F5F37968EE0EF32F807A9F7822F0895EE
:104BF00097E0899F900111242258324FC9010895EE
:104C000026E63EE0E22FF32F3197F1F78A95D1F7B0
:104C1000089590E04AEF26E63EE019C0E22FF32F18
:104C20003197F1F74A95D1F7E22FF32F3197F1F74A
:104C30004A95D1F7E22FF32F3197F1F74A95D1F743
:104C4000E22FF32F3197F1F74A95D1F79F5F98172D
:104C500008F4E4CF08952091B9002E7F2093B90085
:104C60002091B9002D7F2093B9009C0140E050E0D5
:104C700069E979E380E090E00E94A96B203130F08F
:104C8000822F90E0409795958795282F2093B80024
:104C90000895589A599A109209061092080610928F
:104CA0000B0610920A0684E690E00E942B26ECEB9D
:104CB000F0E08081846080831092C20580818064EE
:104CC0008083089590E0611191E08E7F982B9093FE
:104CD000BA0008959093090680930806089590936A
:104CE0000B0680930A060895ECEBF0E080818F704C
:104CF000806A80830895ECEBF0E080818F70806D96
:104D0000808308958091BC0087FFFCCF0895809335
:104D1000BB00ECEBF0E080818F70806880830895A9
:104D2000882329F08091BC008F70806C04C0809132
:104D3000BC008F7080688093BC0008958091BB0098
:104D400008958091B9000895982F8091C205882315
:104D5000E1F782E08093C205892F90E0880F991FC8
:104D60008093C305A4ECB5E0FA0102C081918D9354
:104D70008E2F841B8617D0F31092E4056093E5050F
:104D80008091BC008F70806A8093BC000895982F3A
:104D90008091C2058823E1F783E08093C205990FD3
:104DA00091609093C3051092060660930706809168
:104DB000BC008F70806A8093BC008091C2058823FC
:104DC000E1F7A6EEB5E0FA0102C08D9181938E2F36
:104DD000841B8617D0F30895982FFA018091BC00A8
:104DE0008E7F8093BC008091BC008F70806A80931E
:104DF000BC008091BC0087FFFCCF892F90E0880F1A
:104E0000991F8093BB008091BC008F708068809355
:104E1000BC008091BC0087FFFCCF8091B900883135
:104E200089F091E012C080818093BB008091BC002A
:104E30008F7080688093BC008091BC0087FFFCCF9E
:104E400031966150662379F790E08091BC008F70B5
:104E5000806D8093BC008091BC0084FFFCCF80916A
:104E6000BC0081608093BC00892F0895982FFA01BF
:104E70008091BC008E7F8093BC008091BC008F70BD
:104E8000806A8093BC008091BC0087FFFCCF80EDDE
:104E90008093BB008091BC008F7080688093BC00C1
:104EA0008091BC0087FFFCCF1092BB008091BC00BA
:104EB0008F7080688093BC008091BC0087FFFCCF1E
:104EC0008091BC008F70806A8093BC008091BC0090
:104ED00087FFFCCF990F91609093BB008091BC003D
:104EE0008F7080688093BC008091BC0087FFFCCFEE
:104EF0008091B900803481F091E01EC08091BC00A7
:104F00008F70806C8093BC008091BC0087FFFCCFC9
:104F10008091BB0081936150623080F78091BC002A
:104F20008F7080688093BC008091BC0087FFFCCFAD
:104F30008091BB00808390E08091BC008F70806D79
:104F40008093BC008091BC0081608093BC00892F5D
:104F500008958091C20508951F920F920FB60F9287
:104F60000BB60F9211242F933F934F935F936F9340
:104F70007F938F939F93AF93BF93CF93DF93EF93E1
:104F8000FF938091B900887F803609F4B7C08136DD
:104F900070F5883209F45FC0893298F4803109F4E1
:104FA00057C0813138F4882309F401C1883009F0F1
:104FB00006C14EC0883109F44EC0803209F0FFC0EE
:104FC000F6C0803409F48EC0813438F4803309F49B
:104FD000EEC0883309F0F3C05DC0803509F45FC0CE
:104FE000883509F44AC0883409F0E9C0E0C088393E
:104FF00009F4D1C08939B0F4883709F47FC0893702
:1050000038F4883609F47AC0803709F0D8C076C001
:10501000883809F4C0C0803909F476C0803809F0B6
:10502000CEC072C0803B09F490C0813B38F4803A16
:1050300009F479C0883A09F0C2C087C0803C09F4FD
:10504000B1C0883C09F4AEC0883B09F0B8C08EC03E
:105050008091C3050FC09091E4058091E5059817F4
:1050600008F0A5C0E92FF0E0EC53FA4F80819F5F74
:105070009093E4058093BB008EC0809106069091CA
:10508000BB00E82FF0E0EA51FA4F90838F5F8093E6
:1050900006068DC08091BC008F7080688CC0A09186
:1050A00006068091BB00EA2FF0E0EA51FA4F8083B8
:1050B000AF5FA093060600D00F92EDB7FEB7319612
:1050C00082E092E0CDB7DEB79A838983B0E0AB513E
:1050D000BA4F8C91828313820E9489690F900F903E
:1050E0000F900F902091060630E08091070690E027
:1050F0000197281739070CF04EC048C085E080930F
:10510000C2051092060642C0809106069091BB002F
:10511000E82FF0E0EA51FA4F90838F5F8093060604
:105120008032C8F533C08091BC008F70806C809352
:10513000BC00E0910806F09109063097F1F18091EA
:10514000060666EE75E0199538C084E08093C205C6
:10515000E0910A06F0910B06309731F080E264ECA2
:1051600075E019958093E5051092E4059091E405AA
:10517000E92FF0E0EC53FA4F80818093BB009F5FF2
:105180009093E4058091E505981728F48091BC0080
:105190008F70806C04C08091BC008F708068809399
:1051A000BC000DC08091BC008F70806C04C08091E9
:1051B000BC008F70806D8093BC001092C205FF917F
:1051C000EF91DF91CF91BF91AF919F918F917F919F
:1051D0006F915F914F913F912F910F900BBE0F9068
:1051E0000FBE0F901F9018951092310E1092300E36
:1051F00010922F0E10920C060895E091440EF0913B
:10520000450E8EEF1995E091440EF091450E8EEF0C
:105210001995E091440EF091450E8BEF1995E091B0
:10522000440EF091450E8BEF1995E091440EF091EC
:10523000450E80E01995E091440EF091450E8DEFFA
:10524000199510920D060895E091440EF091450EC7
:105250008EEF1995E091440EF091450E8EEF199561
:10526000E091440EF091450E8AEF1995E091440EBD
:10527000F091450E8AEF1995E091440EF091450E9C
:1052800080E01995E091440EF091450E8DEF19954F
:1052900010920D0608957F928F929F92AF92BF92C7
:1052A000CF92DF92EF92FF920F931F93DF93CF93F2
:1052B000CDB7DEB762970FB6F894DEBF0FBECDBF95
:1052C000782C8982892C9A82AB82BC82CD82DE8244
:1052D000EF82F88609871A872B873C874D875E8780
:1052E0006F87788B898B9A8BE091440EF091450EF5
:1052F0008EEF1995E091440EF091450E8EEF1995C1
:10530000E091440EF091450E872D1995E091440EE1
:10531000F091450E882D1995E091440EF091450EBF
:105320008A2D199584E0E82EF12CEC0EFD1E8E01DD
:105330000A0D111D0C5F1F4F04C0D7018D917D0117
:105340001995E091440EF091450EE016F106A9F78B
:105350008DEF199510920D0662960FB6F894DEBF88
:105360000FBECDBFCF91DF911F910F91FF90EF90B6
:10537000DF90CF90BF90AF909F908F907F900895D7
:105380001F920F920FB60F9211240F900FBE0F9025
:105390001F9018958F929F92AF92BF92CF92DF92FB
:1053A000EF92FF920F931F93DF93CF93CDB7DEB7AA
:1053B00062970FB6F894DEBF0FBECDBF80910F0687
:1053C000853010F580911006813039F5CE010196B7
:1053D0000E94EE2E89809A80AB80BC80CD80DE80DA
:1053E000EF80F88409851A852B853C854D855E857F
:1053F0006F85788989899A890E944B2980910F0647
:105400008F5F80930F0609C080E00E94B14284E064
:1054100090E061E070E00E94BB5D62960FB6F89488
:10542000DEBF0FBECDBFCF91DF911F910F91FF90D7
:10543000EF90DF90CF90BF90AF909F908F900895A6
:1054400080910E06833040F01092310E1092300E93
:1054500010922F0E10920C0680910D068A3010F0DB
:105460000E94CA2980910D068F5F80930D0680915E
:105470000E068F5F80930E0608951F920F920FB64F
:105480000F920BB60F9211247F928F929F92AF9240
:10549000BF92CF92DF92EF92FF920F931F932F93C1
:1054A0003F934F935F936F937F938F939F93AF93AC
:1054B000BF93EF93FF937090C6009091310E9F5F62
:1054C0009093310E10920E0680912F0E882309F4CE
:1054D0007CC0943008F45AC08DEF781609F056C09D
:1054E000292F30E0F9013497A090340E8A2D90E0F6
:1054F0008E179F0709F040C08090320E8091300EC9
:105500008816A1F58091330E8B3F39F40E94062F47
:105510001092100610920F062BC08A3F19F40E94B9
:10552000CA2926C0982EB090350EC090360ED09065
:10553000370EE090380EF090390E00913A0E10912F
:105540003B0E20913C0E30913D0E40913E0E50910D
:105550003F0E6091400E7091410E8091420E9091ED
:10556000430E0E94EA2D0E94FD2802C00E942429B9
:1055700080912F0E8E7F31C02331310594F5EE5C82
:10558000F14F73828091300E835013C0923039F006
:10559000933051F0913081F47092320E22C07092AB
:1055A000330E7092300E1DC07092340E8091300E0A
:1055B000870D8093300E15C0E92FF0E0E331F1053F
:1055C00084F4EF5CF14F7082F1CF8EEF781649F4DE
:1055D00080910C068E3F29F481E080932F0E10926B
:1055E000310E70920C06FF91EF91BF91AF919F9198
:1055F0008F917F916F915F914F913F912F911F916B
:105600000F91FF90EF90DF90CF90BF90AF909F9061
:105610008F907F900F900BBE0F900FBE0F901F903A
:1056200018958F929F92AF92BF92CF92DF92EF9296
:10563000FF920F931F93DF93CF93CDB7DEB762979F
:105640000FB6F894DEBF0FBECDBF982EA62E862EC5
:10565000880EDE011496FA0103C08191880E8D93A5
:105660008E2F841B8A15C8F38982AB829A82BC80F4
:10567000CD80DE80EF80F88409851A852B853C85F6
:105680004D855E856F85788989899A890E94872EE4
:1056900062960FB6F894DEBF0FBECDBFCF91DF91FB
:1056A0001F910F91FF90EF90DF90CF90BF90AF9040
:1056B0009F908F9008958F929F92AF92BF92CF92BA
:1056C000DF92EF92FF920F931F93DF93CF93CDB7AB
:1056D000DEB762970FB6F894DEBF0FBECDBF0E9453
:1056E000152F882301F5809110068823E1F4CE015F
:1056F00001960E94EE2E89809A80AB80BC80CD807E
:10570000DE80EF80F88409851A852B853C854D85E0
:105710005E856F85788989899A890E944B2981E005
:105720008093100601C080E062960FB6F894DEBF49
:105730000FBECDBFCF91DF911F910F91FF90EF90E2
:10574000DF90CF90BF90AF909F908F9008956F9211
:105750007F928F929F92AF92BF92CF92DF92EF9201
:10576000FF920F931F93DF93CF93CDB7DEB762976E
:105770000FB6F894DEBF0FBECDBF0E94782E8823EF
:1057800011F080E01FC060902D0E70902E0ECE01A3
:1057900001960E94512E89809A80AB80BC80CD807A
:1057A000DE80EF80F88409851A852B853C854D8540
:1057B0005E856F85788989899A89F30119950E9498
:1057C000692E81E062960FB6F894DEBF0FBECDBFA2
:1057D000CF91DF911F910F91FF90EF90DF90CF90CD
:1057E000BF90AF909F908F907F906F90089590930F
:1057F0002E0E80932D0E7093450E6093440E1092E2
:10580000310E1092300E10922F0E0E94732E0E94B5
:10581000102F0895E6E9FAE01182108213821282B5
:10582000148235968AE0E83CF807B1F708959C01A8
:10583000E6E9FAE080819181892B31F082819381C0
:10584000821B930B9383828335968AE0E83CF807AA
:1058500089F70895DF93CF9300D00F920F92CDB7C1
:10586000DEB7DE011196E6E9FAE085E001900D92DF
:105870008150E1F729813A814B815C816D8170E033
:1058800090E00F900F900F900F900F90CF91DF91BD
:10589000089520E08091960A9091970A892B09F04B
:1058A00021E0822F08958091960A9091970A892B82
:1058B00099F08BE99AE0DC011597FC0125E0019055
:1058C0000D922150E1F705962AE0883C920799F75E
:1058D0001092C40A1092C30A0895E6E9FAE020E0A3
:1058E00080819181892B21F02F5F35962A30C1F775
:1058F000822F0895E6E9FAE0118210821382128263
:10590000148235968AE0E83CF807B1F70895CF9203
:10591000DF92EF92FF920F931F93DF93CF93CDB758
:10592000DEB7E2970FB6F894DEBF0FBECDBF182FDB
:10593000A6E9BAE050E040E0BE016F5F7F4F1496E9
:105940008C9114978117B9F0842F90E07C01EE0CB4
:10595000FF1CEE0CFF1CE80EF91EE60EF71E9D0163
:1059600085E0F90101909F01F70101927F018150CB
:10597000C1F74F5F01C05F5F1596FAE0A83CBF0713
:10598000F1F67E010894E11CF11CFD01F29720E084
:1059900030E0052F10E04AE050E0401B510B241787
:1059A000350764F4BF01670185E0D6010D906D01F4
:1059B000DB010D92BD018150C1F705C0118210823B
:1059C0001482138212822F5F3F4F85E090E0E80E31
:1059D000F91E35962A30310511F7C801E2960FB647
:1059E000F894DEBF0FBECDBFCF91DF911F910F9115
:1059F000FF90EF90DF90CF900895982FEAE9FAE0BA
:105A00008081891711F481E0089535968AE0EC3C95
:105A1000F807B1F780E008959F92AF92BF92CF92BE
:105A2000DF92EF92FF920F931F93DF93CF9300D0FB
:105A30000F920F92CDB7DEB749835A836B837C8375
:105A40008D83CDB6DEB60B811C81E6E9FAE040E03D
:105A500050E0B42E80819181892B99F41C830B83B3
:105A6000FA01EE0FFF1FEE0FFF1FE40FF51FEA56BE
:105A7000F54FDE01119685E00D9001928150E1F71E
:105A80008DC0828193810817190708F07EC0ADB6DA
:105A90009EB62AE030E0241B350BC901880F991F00
:105AA000880F991F820F931F6DB77EB7681B790B04
:105AB0000FB6F8947EBF0FBE6DBFEDB6FEB608946C
:105AC000E11CF11C60E01AC0DC01AA0FBB1FAA0F89
:105AD000BB1FA80FB91F840F951FFC01EE0FFF1FFE
