:100000000C94AB000C94C8000C94C8000C94C8006D
:100010000C9467040C94C8000C94C8000C94C8009D
:100020000C94C8000C94C8000C94D7000C94C80021
:100030000C94C8000C9408060C94F1030C94FB0378
:100040000C94CC020C94C8000C94C8000C94C8000A
:100050000C94C8006E616E00696E660000407A10F4
:10006000F35A00A0724E18090010A5D4E80000E869
:100070007648170000E40B54020000CA9A3B0000C7
:1000800000E1F505000080969800000040420F0056
:100090000000A08601000000102700000000E80317
:1000A000000000006400000000000A0000000000E2
:1000B0000100000000002C76D888DC674F0823DFA1
:1000C000C1DFAE59E1B1B796E5E3E453C63AE65174
:1000D000997696E8E6C28426EB898C9B62ED407C9B
:1000E0006FFCEFBC9C9F40F2BAA56FA5F490055A37
:1000F0002AF75C936B6CF9676DC11BFCE0E40D475C
:10010000FEF520E6B500D0ED902E0300943577057E
:100110000080841E080000204E0A000000C80C3336
:100120003333330F986E12831141EF8D2114893BC5
:10013000E65516CFFEE6DB18D1844B381BF77C1D45
:10014000901DA4BBE424203284725E228100C9F198
:1001500024ECA1E53D2711241FBECFE5D8E0DEBF8A
:10016000CDBF10E0A0E6B0E0E0E5F2E202C005900D
:100170000D92A036B107D9F712E0A0E6B0E001C0B9
:100180001D92A237B107E1F70E9472010C9426116B
:100190000C94000083B38695869580958F700895A2
:1001A00080B38695869586958095877008951F9271
:1001B0000F920FB60F9211242F933F935F936F937B
:1001C0007F938F939F93AF93BF938091680020910B
:1001D000600030916100882321F4C90162E370E07E
:1001E00003C0C90168EE73E00E949E10892B39F4A8
:1001F00080916400882319F481E080936400209149
:10020000600030916100C90162E370E00E949E10BD
:10021000892B19F481E080936500809166009091AC
:10022000670001969093670080936600809162005A
:1002300090916300019690936300809362002F5F1A
:100240003F4F3093610020936000BF91AF919F9129
:100250008F917F916F915F913F912F910F900FBE82
:100260000F901F90189580E00E94B1029093980023
:100270008093970081E00E94B10290939A0080934E
:1002800099000E94DB020E94080360939F00709314
:10029000A0008093A1009093A2000895DF93CF93D4
:1002A000CDB7DEB765970FB6F894DEBF0FBECDBFF2
:1002B000CE0101960E949F0889819D819A3F19F481
:1002C0000E94140404C09B3F11F40E940C050E947C
:1002D000B60865960FB6F894DEBF0FBECDBFCF91BE
:1002E000DF9108952F923F924F925F926F927F928B
:1002F0008F929F92AF92BF92CF92DF92EF92FF9236
:100300000F93DF93CF93CDB7DEB728970FB6F8944E
:10031000DEBF0FBECDBFF8940E94760384E60E9434
:10032000040980B38695869586958095877080931D
:100330006E0083B38695869580958F700E948403A6
:100340000E9492030E9404090E9484020E94B8073E
:1003500083B38695869580958F70813011F469E11D
:1003600002C080E060E00E94B7030E9469030E941F
:100370005F0384E00E94970280E00E949C0286EC6A
:100380009EE09093700080936F0090938400809320
:10039000830080B386958695869580958770809337
:1003A0006E0010929C0010929B0086E080936D007E
:1003B00078941E010894211C311C4FEF442E40E319
:1003C000542E35E9632E31E0732E0F2EF0E0AF2E60
:1003D000F0E0BF2EF0EACF2EFFE3DF2EF02D22E07B
:1003E000822E912C8C0E9D1E0E94CC08882311F425
:1003F0000E944E010E945208882311F40E94910726
:100400000E94B3038823B9F0809166009091670041
:10041000885E934080F00E94E20389830E949203E9
:1004200060E040E021E001E071010E949705109238
:100430006700109266000E9487038823B9F08091BC
:100440006200909163008C5D954080F00E94920361
:1004500060E040E022E001E09DE6E92E90E0F92E28
:100460000E9497051092630010926200009165004F
:100470000130C1F40E94330150929C0040929B00D5
:1004800070929E0060929D00A0929F00B092A0008A
:10049000C092A100D092A200009364001092680064
:1004A0001092650080916400813009F09DCF8091A9
:1004B0006E008A8390919B0080919C008B839C832B
:1004C00090919D0080919E008D839E8360919F00FE
:1004D0007091A0008091A1009091A20020E030E0F6
:1004E00048EC52E40E94B70F0E94FD0E7F8368879C
:1004F0000E94920360E040E020EA07E074010E945D
:1005000097051092640070CF379A359886B1887F2E
:10051000866086B987B18F73806487B93D98339AB6
:100520001092A3007894089533983798089596B15F
:10053000987F982B96B9089597B18295880F880F68
:10054000807C9F73982B97B9089597B18F71907E97
:10055000892B87B90895349A369A089586B18074A4
:1005600008951092A30097B18F71907E892B87B95F
:10057000349A369A3699FECF24B145B1942F80E053
:1005800030E0282B392BC90108950E94B1029695BD
:1005900087959695879508951F920F920FB60F92A3
:1005A00011248F938FEF8093A3008F910F900FBE34
:1005B0000F901F901895209197003091980040E07F
:1005C00050E0CA01B9010E947F1020916F00309164
:1005D000700040E050E00E94B21030939C002093E5
:1005E0009B002091990030919A0040E050E0CA01B0
:1005F000B9010E947F10209183003091840040E077
:1006000050E00E94B21030939E0020939D00089508
:10061000AF92BF92CF92DF92EF92FF920F931F9310
:10062000CF93DF93C0919B00D0919C00209729F439
:10063000E0E070E080E060E031C060919D0070918A
:100640009E0080E090E00E94290F7B018C01BE019A
:1006500080E090E00E94290F9B01AC01C801B70126
:100660000E94950E0E941E107B018C0120E030E05C
:1006700040E85FE30E94310E5B016C0160E070E0D6
:1006800080E89FE3A80197010E94300E9B01AC0116
:10069000C601B5010E94950EE62F692F2E2F372F28
:1006A000482F562FB901CA01DF91CF911F910F91A9
:1006B000FF90EF90DF90CF90BF90AF90089513BE62
:1006C00089B7826089BF8FE083BF12BE8EE08CBF86
:1006D000089515BC14BC8BE085BD88B7806888BFC1
:1006E0008EE183BD89B7806889BF08958CEF8ABB8E
:1006F0001BBA8FE187BB18BA83E084BB15BA86E8C2
:1007000081BB88E381BB08958093A5000895809103
:10071000AD009091AE0023E0969587952A95E1F77C
:10072000817008958091A50008958091AD00909109
:10073000AE0080629093AE008093AD001092B20044
:100740001092B00008958091AD009091AE008B7F23
:100750009093AE008093AD001092AF0010926900AC
:100760001092B10008958091AD00817008958823A2
:10077000F9F04091AD005091AE009A0121603093A4
:10078000AE002093AD006093AA00862F90E0880F02
:10079000991F880F991F9093AC008093AB0021FDA7
:1007A00010C0416051605093AE004093AD00089579
:1007B0008091AD009091AE008E7F9093AE008093BB
:1007C000AD0008958091AA0008958093AA0090E05A
:1007D000880F991F880F991F9093AC008093AB00EE
:1007E00008951F920F920FB60F9211240F900FBE13
:1007F0000F901F9018951F920F920FB60F92112411
:100800008F939F938091AD009091AE0086FD05C0BF
:1008100080689093AE008093AD009F918F910F9070
:100820000FBE0F901F9018951F93DF93CF93CDB7F6
:10083000DEB765970FB6F894DEBF0FBECDBF182F99
:10084000CE0101960E9425088A818117C1F480910A
:10085000AD009091AE009D7F9093AE008093AD006F
:100860000E943C088091AD009091AE008062909310
:10087000AE008093AD001092B2001092B000659669
:100880000FB6F894DEBF0FBECDBFCF91DF911F91A1
:1008900008958091B0008A3050F48091AD0090911D
:1008A000AE0080629093AE008093AD0008950E94E8
:1008B0003C088091AD009091AE0080629093AE00B4
:1008C0008093AD001092B2001092B00008951F9274
:1008D0000F920FB60F9211242F933F934F935F9374
:1008E0006F937F938F939F93AF93BF93EF93FF93F8
:1008F00080916A00853088F08091AD009091AE00C3
:100900008B7F9093AE008093AD001092AF00109259
:1009100069001092B10010926A002091AD003091F0
:10092000AE0020FD0CC06FC02D7F3093AE00209331
:10093000AD000E944B0810926C0010926B008091E9
:10094000B2008A3050F08091AD009091AE0091FFDE
:1009500004C00E9449041092B2008091AA0088232A
:1009600099F14091A400242F30E08091A60090914D
:10097000A7002817390768F08091A8009091A90076
:100980002817390730F48091AD009091AE00806156
:1009900005C08091AD009091AE008F7E9093AE0027
:1009A0008093AD008091AB009091AC00281739077F
:1009B00040F01092A4008091B2008F5F8093B2004B
:1009C00003C04F5F4093A40080916A008F5F8093C3
:1009D0006A0080916B0090916C00019690936C007E
:1009E00080936B00FF91EF91BF91AF919F918F9199
:1009F0007F916F915F914F913F912F910F900FBE1B
:100A00000F901F90189580916B0090916C00805111
:100A1000974208F494CF88CF1F93DF93CF93CDB73D
:100A2000DEB765970FB6F894DEBF0FBECDBF182FA7
:100A30008091AD009091AE009D7F9093AE00809329
:100A4000AD00CE0101960E9425088A81811711F41C
:100A50000E94490465960FB6F894DEBF0FBECDBF65
:100A6000CF91DF911F9108958DB79EB745970FB62F
:100A7000F8949EBF0FBE8DBFADB7BEB71196E3EB26
:100A8000F0E085E101900D928150E1F70E94660847
:100A90008DB79EB745960FB6F8949EBF0FBE8DBF1B
:100AA0000895EF92FF920F93DF93CF93CDB7DEB708
:100AB00065970FB6F894DEBF0FBECDBF782F522FCB
:100AC000DE011796F70102C081918D938E2F8E194A
:100AD0008017D0F30E835D834C836A8379838DB74F
:100AE0009EB745970FB6F8949EBF0FBE8DBFADB7AA
:100AF000BEB71196FE01319685E101900D928150AD
:100B0000E1F70E9466088DB79EB745960FB6F89438
:100B10009EBF0FBE8DBF65960FB6F894DEBF0FBEA9
:100B2000CDBFCF91DF910F91FF90EF900895EF929D
:100B3000FF920F931F93DF93CF93CDB7DEB76597E7
:100B40000FB6F894DEBF0FBECDBF182F722F522FF5
:100B5000540F500FDE011796F70103C08191580F13
:100B60008D938E2F8E198017C8F35B830E837D8340
:100B70004C836A8319838DB79EB745970FB6F89457
:100B80009EBF0FBE8DBFADB7BEB71196FE013196A9
:100B900085E101900D928150E1F70E94EC078DB73D
:100BA0009EB745960FB6F8949EBF0FBE8DBF659653
:100BB0000FB6F894DEBF0FBECDBFCF91DF911F916E
:100BC0000F91FF90EF900895EF92FF920F93682F8F
:100BD0008091A50040E02AEF00E0EE24FF240E946F
:100BE00097050F91FF90EF900895EF92FF920F936A
:100BF000682F882349F08091A50040E02BEF00E0AA
:100C0000EE24FF240E9497050F91FF90EF90089526
:100C10001F920F920FB60F9211242F933F934F9371
:100C20005F936F937F938F939F93AF93BF93EF9354
:100C3000FF9310926A006CB1E091AF00EF5FE09318
:100C4000AF004091AD005091AE0042FFABC06D3F90
:100C500009F058C02091B80030E08E2F90E007973F
:100C60002817390709F04EC02091B4008091A500E3
:100C7000281711F02223A9F547FF33C0909169008E
:100C80008091B500981739F52DB73EB72551304002
:100C90000FB6F8943EBF0FBE2DBFADB7BEB71196CD
:100CA000E3EBF0E085E101900D928150E1F70E94C5
:100CB00066088091B6002DB73EB72B5E3F4F0FB64A
:100CC000F8943EBF0FBE2DBF80FF0BC08091B300D4
:100CD0000E94E40506C0222321F08091B3000E9407
:100CE000F5058091AD009091AE008B7F9093AE00A2
:100CF0008093AD001092AF00109269008DEF809349
:100D0000B10063C0E330A1F0E43028F4E13051F0E9
:100D1000E23011F50AC0E53089F0E53060F0E630E8
:100D2000D9F417C06093B3004EC06093B4004BC0B9
:100D30006093B50048C06093B6002EC06093B700C2
:100D400080916900860F809369006130E1F5486009
:100D500036C06093B80020C0F0E0EE54FF4F6083CF
:100D60008091B7008130C1F46093AA00862F90E093
:100D7000880F991F880F991F9093AC008093AB0048
:100D80001092A40042605093AE004093AD001092C8
:100D90006C0010926B0014BC80916900860F8093E8
:100DA000690011C06E3F79F4E23068F08091B100C3
:100DB0008E3F49F41092AF00109269004460509346
:100DC000AE004093AD006093B100FF91EF91BF91F1
:100DD000AF919F918F917F916F915F914F913F91D3
:100DE0002F910F900FBE0F901F9018959F92AF926A
:100DF000BF92CF92DF92EF92FF920F93DF93CF9348
:100E0000CDB7DEB765970FB6F894DEBF0FBECDBF86
:100E10008091AD009091AE0080648F779093AE008A
:100E20008093AD005E010894A11CB11CC5010E9415
:100E30002508FE800D819A808EEF0E94E1088EEFDA
:100E40000E94E10889810E94E108892D0E94E10841
:100E50008B810E94E1088C810E94E108802F0E9412
:100E6000E1088F2D0E94E108E7E0CE2ED12CCC0EB8
:100E7000DD1EEF2CFF2486E090E0E80EF91EEA0C60
:100E8000FB1C05C0F60181916F010E94E108CE14A0
:100E9000DF04C1F78DEF0E94E108992021F00A3F9D
:100EA00011F00B3FC9F48091AD009091AE009D7F91
:100EB0009093AE008093AD000E943C088091AD00FD
:100EC0009091AE0080629093AE008093AD0010923E
:100ED000B2001092B0000BC08091AD009091AE00B6
:100EE00092609093AE008093AD001092B20080911A
:100EF000AD009091AE008F7B9093AE008093AD00DB
:100F000065960FB6F894DEBF0FBECDBFCF91DF91CF
:100F10000F91FF90EF90DF90CF90BF90AF909F9098
:100F200008958091AD009091AE0084FF11C081FFC3
:100F30000FC085FF1CC08F7D9093AE008093AD00E5
:100F40008091B0008F5F8093B0000E94F6060895F4
:100F500090FF0DC08F7D9E7F9093AE008093AD007B
:100F60008091B0008F5F8093B0000E94F6060895D4
:100F70000E945F080E94E5078FE090E00E94D90878
:100F80008091A50090E0880F991F880F991F90937A
:100F9000A7008093A60082609093A9008093A80088
:100FA0001092AA001092A4001092B2001092B00009
:100FB0001092AF00109269001092B10080EA90E0A8
:100FC0009093AE008093AD00089510929A01109214
:100FD0009B0110929C010895DF93CF93CDB7DEB7AC
:100FE00080919C018F5F80939C0140919B01242FF5
:100FF00030E085E190E0289FF001299FF00D389FB7
:10100000F00D1124E853FF4FDE01159685E10D9098
:1010100001928150E1F7842F8F5F80939B018A308A
:1010200010F010929B0190919B0180919A0198176A
:1010300019F49F5F90939A0180919A018A3010F081
:1010400010929A01CF91DF910895AC0180919A019D
:1010500090E025E130E0829FF001839FF00D929FA8
:10106000F00D1124DA01E853FF4F85E101900D9254
:101070008150E1F7CA01089590919A019F5F909382
:101080009A0180919C01815080939C019A3010F0CC
:1010900010929A01089510929A0110929B01109259
:1010A0009C01089520E090919A0180919B019817EE
:1010B00009F421E0822F089580919C0108951092F7
:1010C0006F0210927002109271020895DF93CF9315
:1010D000CDB7DEB7809171028F5F8093710240912E
:1010E0007002242F30E085E190E0289FF001299FD5
:1010F000F00D389FF00D1124E356FE4FDE011596DA
:1011000085E10D9001928150E1F7842F8F5F8093EC
:1011100070028A3010F010927002909170028091EB
:101120006F02981719F49F5F90936F0280916F027E
:101130008A3010F010926F02CF91DF910895AC01C8
:1011400080916F0290E025E130E0829FF001839F63
:10115000F00D929FF00D1124DA01E356FE4F85E168
:1011600001900D928150E1F7CA01089590916F02AC
:101170009F5F90936F028091710281508093710202
:101180009A3010F010926F02089510926F02109230
:10119000700210927102089520E090916F02809188
:1011A0007002981709F421E0822F0895809171024E
:1011B000089590BD89B91BB886E880BD88ED8AB9CD
:1011C00008955D9BFECF8CB980E00895FC0180E01E
:1011D00090E070E006C020815D9BFECF31962CB977
:1011E000019686179707BCF380E008955F9BFECFBA
:1011F0008CB108955F9BFECF8CB15D9BFECF8CB907
:1012000008958BB18078089526E63EE0E22FF32F13
:101210003197F1F78A95D1F7089590E04AEF26E6E5
:101220003EE019C0E22FF32F3197F1F74A95D1F73D
:10123000E22FF32F3197F1F74A95D1F7E22FF32FF1
:101240003197F1F74A95D1F7E22FF32F3197F1F764
:101250004A95D1F79F5F981708F4E4CF0895A1E16C
:10126000B0E0E5E3F9E00C94CD103C017F876E8798
:101270006A01FC0117821682838181FD03C06FEF32
:101280007FEF71C39E012F5F3F4F398B288BF30196
:101290002381EE85FF8523FD859123FF8191FF87C3
:1012A000EE87882309F45CC3853251F4EE85FF850F
:1012B00023FD859123FF8191FF87EE87853229F4F5
:1012C00090E0B3010E94A60DE2CF982F10E0882491
:1012D00099241032B0F49B3269F09C3228F4903299
:1012E00051F0933271F40BC09D3239F0903349F4D0
:1012F000116028C01260146025C0186023C01061FE
:1013000021C017FD2AC0892F80538A3078F416FF38
:1013100006C0FAE09F9E902C1124980E13C03AE06C
:10132000839E802C1124880E10620CC09E3221F402
:1013300016FD16C3106406C09C3611F4106802C076
:10134000983659F4EE85FF8523FD959123FF919101
:10135000FF87EE87992309F0BCCF892F855483300E
:1013600020F4812F8061905E07C0892F85568330DD
:1013700008F0A1C1812F8F7E86FD02C076E0972EF6
:101380006FE3F62EF822953619F4F0E4FF2A07C031
:10139000963619F420E8F22A02C091109A94F7FECA
:1013A0000BC03BE3391520F427E05CE3B52E0EC0FB
:1013B000B92CB39427E00AC047E0491528F427E088
:1013C000BB2447E0942E02C0292DBB24C6010496FD
:1013D0009D878C87F6016081718182819381AE0146
:1013E0004F5F5F4F0B2D0E94B80C6C010981202EBE
:1013F000332400FF04C003FD02C01DE209C0F1FE5A
:1014000002C01BE205C0F2FC02C010E001C010E205
:10141000C1018C709070892BB9F1112311F483E014
:1014200001C084E0881510F088240AC0881AF3FCF3
:1014300007C080E290E0B3010E94A60D8A94C9F72C
:10144000112329F0812F90E0B3010E94A60D23FE05
:1014500003C004E510E00EC008E510E00BC0E11485
:10146000F10409F0805290E0B3010E94A60D0F5FD5
:101470001F4F05C0EF2CFF24F0E1EF22FF24F801FD
:101480008491882361F714C1F7FE12C0BC0C24FEBE
:1014900004C08A81813309F4BA941B141CF0BB2464
:1014A000B3942DC0F8E0FB1550F538E0B32E27C0FB
:1014B000F6FC25C0892D90E08C159D054CF02CEF95
:1014C000C2162FEFD20624F030E8F32A01C09A9416
:1014D000992049F0E2E0F0E0EC0FFD1FE90DF11D6D
:1014E00080818033A1F3F7FE0AC0B92CB394892D13
:1014F00090E0C816D90614F0992401C09C18F7FC96
:1015000003C025E030E009C01C141D041CF021E0DC
:1015100030E003C096012F5F3F4F112311F02F5F82
:101520003F4F992029F0892D90E00196280F391F0F
:10153000882D90E02817390714F0882401C0821AFA
:101540004F2C5524C20189709070892B39F008C046
:1015500080E290E0B3010E94A60D8A948820C1F732
:10156000112329F0812F90E0B3010E94A60D43FEC4
:1015700007C008C080E390E0B3010E94A60D8A94E2
:101580008820C1F7F7FE46C08601D7FE02C000E002
:1015900010E076010894E11CF11CE01AF10A41E028
:1015A00050E04C0F5D1FE40EF51E26014B1851084C
:1015B000892D90E0AA24BB24A81AB90A5FEF0F3F37
:1015C000150729F48EE290E0B3010E94A60DC01623
:1015D000D10634F0401651061CF4F701808101C099
:1015E00080E3015010400894E11CF11C0A151B0512
:1015F0002CF090E0B3010E94A60DE0CF0C151D0564
:1016000039F49A81963318F4953311F424FE81E36A
:1016100090E04BC08A81813309F00F7E90E0B301E6
:101620000E94A60D9920A1F08EE290E0B3010E94E5
:10163000A60D12E0E1E0F0E0EC0FFD1FE10FF11D5F
:101640001F5F808190E0B3010E94A60D9A9491F7EC
:1016500044FC03C085E690E002C085E490E0B3015D
:101660000E94A60DD7FC05C0C114D10441F404FFAB
:1016700006C0D094C194D108D3948DE201C08BE20E
:1016800090E0B3010E94A60D80E305C08F5F26EFB6
:101690003FEFC20ED31E3AE0C316D104BCF790E070
:1016A000B3010E94A60DC601C096B3010E94A60D0B
:1016B000CC84DD8452C1933631F0933799F0933561
:1016C00009F059C023C0F601808189835E01089426
:1016D000A11CB11C22E030E0C20ED31E21E0E22E9C
:1016E000F12C12C0F601A080B18016FD03C06FEF8F
:1016F0007FEF02C0692D70E022E030E0C20ED31E01
:10170000C5010E949B0D7C011F7713C0F601A080CC
:10171000B18016FD03C06FEF7FEF02C0692D70E04E
:1017200022E030E0C20ED31EC5010E94900D7C0164
:10173000106813FF07C01BC080E290E0B3010E9455
:10174000A60D8A94882D90E0E816F906A8F30FC03C
:10175000F50117FD859117FF81915F0190E0B301BD
:101760000E94A60D81108A940894E108F108E11402
:10177000F10471F7F2C0943611F0993689F517FF2C
:1017800008C0F601208131814281538184E090E0DC
:101790000AC0F601808191819C01442737FD409564
:1017A000542F82E090E0C80ED91E9FE6F92EF12258
:1017B00057FF09C050954095309521953F4F4F4FA9
:1017C0005F4F90E8F92ACA01B901AE014F5F5F4F40
:1017D0002AE030E00E94D20DE82EE889EE1A41C0DE
:1017E000953721F41F7E2AE030E01CC0197F9F3618
:1017F00061F0903720F4983509F0B2C00FC09037EF
:1018000039F0983709F0ACC004C028E030E00AC0D5
:10181000106114FD146020E130E004C014FD166076
:1018200020E132E017FF08C0F601608171818281FA
:10183000938144E050E008C0F60180819181BC01B1
:1018400080E090E042E050E0C40ED51EAE014F5F54
:101850005F4F0E94D20DE82E5889E51A8FE7F82EC7
:10186000F122F6FE0BC08EEFF822E91438F4F4FEF4
:1018700007C0F2FC05C09FEEF92202C01E2D01C078
:10188000192DF4FE0DC0FE01EE0DF11D8081803397
:1018900019F4E9EEFE2208C01F5FF2FE05C003C086
:1018A0008F2D867809F01F5F0F2DF3FC14C0F0FE1A
:1018B0000FC0181510F09E2C0BC09E2C980C911A7E
:1018C000182D06C080E290E0B3010E94A60D1F5FB4
:1018D0001815C0F304C0181510F4811A01C088242B
:1018E00004FF0FC080E390E0B3010E94A60D02FF49
:1018F0001DC001FD03C088E790E00EC088E590E0C0
:101900000BC0802F867891F001FF02C08BE201C0EE
:1019100080E2F7FC8DE290E0B3010E94A60D06C0C4
:1019200080E390E0B3010E94A60D9A94E914C0F3FD
:10193000EA94E1E0F0E0EC0FFD1FEE0DF11D808177
:1019400090E0B3010E94A60DEE2091F706C080E260
:1019500090E0B3010E94A60D8A948820C1F797CC2D
:10196000F30166817781CB016196E2E10C94E91085
:10197000283008F027E03327DA01990F311D87FD61
:10198000916000966105710539F432602E5F3D93D8
:1019900030E32A95E1F708959F3F30F080387105D4
:1019A000610509F03C5F3C5F3D93913008F0806831
:1019B000911DDF93CF931F930F93FF92EF92192FF7
:1019C000987F9695E92F96959695E90FFF27EA540B
:1019D000FF4F99273327EE24FF24A701E701059045
:1019E0000894079428F4360FE71EF81E491F511D6E
:1019F000660F771F881F991F0694A1F7059007941B
:101A000028F4E70EF81E491F561FC11D770F881FC7
:101A1000991F661F0694A1F70590079428F4F80E05
:101A2000491F561FC71FD11D880F991F661F771F9B
:101A30000694A1F70590079420F4490F561FC71F7D
:101A4000D81F990F661F771F881F0694A9F78491E6
:101A50001095177041F0D695C79557954795F7940F
:101A6000E7941A95C1F7ECE5F0E0689415901591AC
:101A700035916591959105907FE27395E118F10A92
:101A8000430B560BC90BD009C0F7E10CF11E431FE5
:101A9000561FC91FD01D7EF4703311F48A95E6CF0E
:101AA000E894015030F0080F0AF40027021708F4F8
:101AB000202F2395022F7A3328F079E37D932A95FE
:101AC000E9F710C07D932A9589F606949795679556
:101AD000379517951794E118F10A430B560BC90B6C
:101AE000D00998F023957E9173957A3308F070E3CE
:101AF0007C932013B8F77E9170617D9330F08395CD
:101B000071E37D9370E32A95E1F71124EF90FF9044
:101B10000F911F91CF91DF91992787FD909508959F
:101B2000FC010590615070400110D8F780959095A8
:101B30008E0F9F1F0895FC016150704001900110AD
:101B4000D8F7809590958E0F9F1F08950F931F9340
:101B5000CF93DF938C01EB018B8181FF1BC082FF50
:101B60000DC02E813F818C819D812817390764F437
:101B7000E881F9810193F983E88306C0E885F98556
:101B8000802F0995892B31F48E819F8101969F8347
:101B90008E8302C00FEF1FEFC801DF91CF911F911D
:101BA0000F910895FA01AA27283051F1203181F1CF
:101BB000E8946F936E7F6E5F7F4F8F4F9F4FAF4F55
:101BC000B1E03ED0B4E03CD0670F781F891F9A1F68
:101BD000A11D680F791F8A1F911DA11D6A0F711D1C
:101BE000811D911DA11D20D009F468943F912AE028
:101BF000269F11243019305D3193DEF6CF01089510
:101C0000462F4770405D4193B3E00FD0C9F7F6CF40
:101C1000462F4F70405D4A3318F0495D31FD405208
:101C2000419302D0A9F7EACFB4E0A695979587959E
:101C300077956795BA95C9F700976105710508957D
:101C40009B01AC010A2E0694579547953795279529
:101C5000BA95C9F7620F731F841F951FA01D0895C1
:101C60005058BB27AA270ED048C139D130F03ED1F9
:101C700020F031F49F3F11F41EF42EC10EF4E095D4
:101C8000E7FB24C1E92F4AD180F3BA176207730733
:101C90008407950718F071F49EF562C10EF4E09583
:101CA0000B2EBA2FA02D0B01B90190010C01CA0116
:101CB000A0011124FF27591B99F0593F50F4503EC1
:101CC00068F11A16F040A22F232F342F4427585FB3
:101CD000F3CF469537952795A795F0405395C9F7CB
:101CE0007EF41F16BA0B620B730B840BBAF0915083
:101CF000A1F0FF0FBB1F661F771F881FC2F70EC022
:101D0000BA0F621F731F841F48F4879577956795F4
:101D1000B795F7959E3F08F0B3CF9395880F08F0DD
:101D20009927EE0F9795879508950CD0E6C0DED0E1
:101D300040F0D5D030F021F45F3F19F0C7C0511109
:101D400010C1CAC0EBD098F39923C9F35523B1F35E
:101D5000951B550BBB27AA2762177307840738F01A
:101D60009F5F5F4F220F331F441FAA1FA9F333D079
:101D70000E2E3AF0E0E830D091505040E695001C2D
:101D8000CAF729D0FE2F27D0660F771F881FBB1FE9
:101D9000261737074807AB07B0E809F0BB0B802DC3
:101DA000BF01FF2793585F4F2AF09E3F510568F00F
:101DB0008DC0D7C05F3FECF3983EDCF386957795F6
:101DC0006795B795F7959F5FC9F7880F911D969511
:101DD000879597F90895E1E0660F771F881FBB1F6D
:101DE000621773078407BA0720F0621B730B840B1A
:101DF000BA0BEE1F88F7E095089598D088F09F57AA
:101E000090F0B92F9927B751A0F0D1F0660F771F46
:101E1000881F991F1AF0BA95C9F712C0B13081F026
:101E20009FD0B1E008959CC0672F782F8827B85FB6
:101E300039F0B93FCCF3869577956795B395D9F787
:101E40003EF490958095709561957F4F8F4F9F4F91
:101E50000895E89409C097FB3EF49095809570959D
:101E600061957F4F8F4F9F4F9923A9F0F92F96E9E6
:101E7000BB279395F695879577956795B795F1115B
:101E8000F8CFFAF4BB0F11F460FF1BC06F5F7F4FF8
:101E90008F4F9F4F16C0882311F096E911C077230A
:101EA00021F09EE8872F762F05C0662371F096E813
:101EB000862F70E060E02AF09A95660F771F881FE2
:101EC000DAF7880F9695879597F9089597F99F67A0
:101ED00080E870E060E008959FEF80EC08950024B2
:101EE0000A941616170618060906089500240A947F
:101EF00012161306140605060895092E0394000C05
:101F000011F4882352F0BB0F40F4BF2B11F460FF93
:101F100004C06F5F7F4F8F4F9F4F089557FD9058BC
:101F2000440F551F59F05F3F71F04795880F97FB9D
:101F3000991F61F09F3F79F0879508951216130657
:101F40001406551FF2CF4695F1DF08C01616170686
:101F50001806991FF1CF86957105610508940895BB
:101F6000E894BB2766277727CB0197F908950BD014
:101F7000C4CFB5DF28F0BADF18F0952309F0A6CF5B
:101F8000ABCF1124EECFCADFA0F3959FD1F3950F0D
:101F900050E0551F629FF001729FBB27F00DB11DED
:101FA000639FAA27F00DB11DAA1F649F6627B00D7D
:101FB000A11D661F829F2227B00DA11D621F739F66
:101FC000B00DA11D621F839FA00D611D221F749F74
:101FD0003327A00D611D231F849F600D211D822FBB
:101FE000762F6A2F11249F5750408AF0E1F0882302
:101FF0004AF0EE0FFF1FBB1F661F771F881F91500F
:102000005040A9F79E3F510570F060CFAACF5F3FC7
:10201000ECF3983EDCF3869577956795B795F79541
:10202000E7959F5FC1F7FE2B880F911D96958795C9
:1020300097F9089511F40EF44FCF4AC077DFD0F32B
:102040009923D9F3CEF39F57550B87FF51D056955F
:102050009795B0E020F4660F771F881FBB1F1F9372
:102060000F9300249001A0018001F001A0E80E0F61
:102070001F1F0A1E511D601B710B8009B50B48F410
:10208000600F711F801DB51F0E1B1F0B0A0A51091F
:1020900007C02E0F3F1F4A1F0E0F1F1F0A1E511D84
:1020A000660F771F881FBB1FA695F795E795F8F673
:1020B0000617170708065B07211D311D411D0F91EB
:1020C0001F91B901842F9158880F9695879508958F
:1020D0009F3F49F0915028F4869577956795B7957D
:1020E0009F5F80389F4F880F9695879597F9089541
:1020F00091505040660F771F881FD2F70895629F56
:10210000D001739FF001829FE00DF11D649FE00DEF
:10211000F11D929FF00D839FF00D749FF00D659F50
:10212000F00D9927729FB00DE11DF91F639FB00D4F
:10213000E11DF91FBD01CF0111240895AA1BBB1B8E
:1021400051E107C0AA1FBB1FA617B70710F0A61BB7
:10215000B70B881F991F5A95A9F780959095BC01D8
:10216000CD01089597FB092E05260ED057FD04D00A
:102170004BD00AD0001C38F45095409530952195ED
:102180003F4F4F4F5F4F0895F6F7909580957095AC
:1021900061957F4F8F4F9F4F08952F923F924F929F
:1021A0005F926F927F928F929F92AF92BF92CF92E7
:1021B000DF92EF92FF920F931F93CF93DF93CDB7F0
:1021C000DEB7CA1BDB0B0FB6F894DEBF0FBECDBF68
:1021D00009942A88398848885F846E847D848C8439
:1021E0009B84AA84B984C884DF80EE80FD800C8142
:1021F0001B81AA81B981CE0FD11D0FB6F894DEBF25
:102200000FBECDBFED010895A1E21A2EAA1BBB1B84
:10221000FD010DC0AA1FBB1FEE1FFF1FA217B307B2
:10222000E407F50720F0A21BB30BE40BF50B661FC8
:10223000771F881F991F1A9469F76095709580958C
:1022400090959B01AC01BD01CF010895F894FFCF9B
:00000001FF
