:100000000C94C7000C94E6000C94E6000C94E600F7
:100010000C94E6000C94E6000C94E6000C94C502E7
:100020000C94E6000C94E6000C94E6000C94E600B8
:100030000C94E6000C94E6000C94E6000C941D026F
:100040000C9455020C94E6000C9473060C9469060B
:100050000C94E6000C94E6000C94E6000C94E60088
:100060000C94E6000C94E6000C94E6000C94E60078
:100070000C94E6000C94E6000C94FD090C94F30932
:100080000C94E6000C94E6000C94E6006E616E00A1
:10009000696E660000407A10F35A00A0724E18098B
:1000A0000010A5D4E80000E87648170000E40B54DF
:1000B000020000CA9A3B000000E1F50500008096AE
:1000C0009800000040420F000000A08601000000E0
:1000D000102700000000E80300000000640000009A
:1000E00000000A00000000000100000000002C7663
:1000F000D888DC674F0823DFC1DFAE59E1B1B7967E
:10010000E5E3E453C63AE651997696E8E6C28426DA
:10011000EB898C9B62ED407C6FFCEFBC9C9F40F2B6
:10012000BAA56FA5F490055A2AF75C936B6CF96732
:100130006DC11BFCE0E40D47FEF520E6B500D0EDF7
:10014000902E0300943577050080841E080000205F
:100150004E0A000000C80C333333330F986E1283FD
:100160001141EF8D2114893BE65516CFFEE6DB18D1
:10017000D1844B381BF77C1D901DA4BBE424203296
:1001800084725E228100C9F124ECA1E53D2711248F
:100190001FBECFEFD0E1DEBFCDBF11E0A0E0B1E0E8
:1001A000EEE2F4E200E00BBF02C007900D92AE3227
:1001B000B107D9F712E0AEE2B1E001C01D92A2345E
:1001C000B107E1F70E945F020C9415120C94000035
:1001D000DF93CF9300D0CDB7DEB719820CC01A825F
:1001E00004C000008A818F5F8A838A818F3FC9F7AC
:1001F00089818F5F89838981823388F30F900F9083
:10020000CF91DF910895482FE82FF0E0319721E05A
:1002100030E00E2E02C0220F331F0A94E2F78091C5
:100220002F0190913001822B932B9093300180937A
:100230002F01EE0FFF1FE95CFE4F608311824630F5
:1002400051F1473070F4433001F1443028F441302B
:10025000C1F0423069F517C04430C9F0453041F56E
:1002600018C04930F1F04A3028F44730B1F0483036
:10027000F9F415C04B30C9F04B30A8F04C30C1F444
:1002800016C0A89A0895A99A0895AA9A0895AB9AB3
:100290000895AC9A0895AD9A0895AE9A0895AF9ACC
:1002A0000895DF9A0895DE9A0895DD9A0895DC9AFC
:1002B0000895482FE82FF0E0319721E030E00E2E2E
:1002C00002C0220F331F0A94E2F7209530958091E7
:1002D0002F019091300182239323909330018093DA
:1002E0002F01EE0FFF1FE95CFE4F11821082463096
:1002F00051F1473070F4433001F1443028F441307B
:10030000C1F0423069F517C04430C9F0453041F5BD
:1003100018C04930F1F04A3028F44730B1F0483085
:10032000F9F415C04B30C9F04B30A8F04C30C1F493
:1003300016C0A8980895A9980895AA980895AB980A
:100340000895AC980895AD980895AE980895AF9823
:100350000895DF980895DE980895DD980895DC9853
:100360000895DF93CF9300D0CDB7DEB721E020937F
:10037000530180935501082E82958025082E86957D
:100380008695802590E0019695958795817090706F
:10039000809580935401D39ADB9A169A1E981A82FC
:1003A0000CC0198204C0000089818F5F8983898114
:1003B0008F3FC9F78A818F5F8A838A81823388F36E
:1003C00019820CC01A8204C000008A818F5F8A8360
:1003D0008A818F3FC9F789818F5F898389818233C1
:1003E00088F31A820CC0198204C0000089818F5FD3
:1003F000898389818F3FC9F78A818F5F8A838A8148
:10040000823388F3DB9819820CC01A8204C0000082
:100410008A818F5F8A838A818F3FC9F789818F5F45
:1004200089838981823388F316981E9A109250012D
:100430000F900F90CF91DF9108951F920F920FB6FA
:100440000F9211242F938F939F938091310190915C
:100450003201019690933201809331018958934182
:1004600010F01092250180913301909134018B3F5F
:10047000910550F010924F011092500110925101CD
:100480001092340110923301809133019091340124
:10049000019690933401809333019F918F912F9116
:1004A0000F900FBE0F901F9018951F920F920FB6CE
:1004B0000F9211240F900FBE0F901F90189584E695
:1004C0000E948105BF9AC79AF89488E793E06EE18D
:1004D00075E00E9422080E94150B0E94F9040E94F8
:1004E000EC048FE290E00E9441058CE495E06FE619
:1004F00075E00E94B01087E090E00E94150580E052
:1005000091E00E942811789410924F0110925001AE
:10051000109251011092520188EC0E948105DB9AE1
:1005200084EF0E94B10184E60E9481050E94EA0ADC
:100530000E94950A0E94D2070E9486078091250199
:100540008823A1F7B69BF2CFB699FECF81E00E9437
:100550008A0580EC60E040E050E00E943C0781E0CA
:1005600080932501E3CFDF93CF9300D0CDB7DEB7E3
:10057000898385EC61E0AE014F5F5F4F0E943C07CD
:100580000F900F90CF91DF9108951F920F920FB6A9
:100590000F920BB60F9211242F933F934F935F93BB
:1005A0006F937F938F939F93AF93BF93EF93FF933B
:1005B000DF93CF9300D0CDB7DEB78091530188236E
:1005C00009F046C00E997DC080914F01882371F4D7
:1005D000CB9977C081E080934F0110925001109227
:1005E000510110923401109233016BC030915001CF
:1005F000383098F4CB9B0DC081E090E0032E02C010
:10060000880F991F0A94E2F720915101282B20931B
:1006100051013F5F3093500154C0383021F489E0DC
:10062000809350014EC010924F0180915601803F3F
:1006300051F480915101898385EC61E0AE014F5FF7
:100640005F4F0E943C07809151018093560139C051
:100650000E9B28C0409150014423F9F0493029F401
:10066000809154018823C9F016C04A3011F4D39800
:1006700012C080912E018F5F80932E012091550131
:1006800030E0842F90E0019702C0359527958A9538
:10069000E2F720FF02C0DB9A01C0DB984F5F409376
:1006A00050010FC0809150018B3059F410925501C8
:1006B00010925301CB9902C081E401C08EE40E94E4
:1006C0004C050F900F90CF91DF91FF91EF91BF916B
:1006D000AF919F918F917F916F915F914F913F91DA
:1006E0002F910F900BBE0F900FBE0F901F9018957B
:1006F0008F929F92AF92BF92CF92DF92EF92FF9232
:100700000F931F93DF93CF93CDB7DEB763970FB6E9
:10071000F894DEBF0FBECDBF8A82F92D9B82AC82DA
:10072000BD82CE82DF82E886F9860A871B872C8706
:100730003D874E875F87688B798B8A8B9B8B19826D
:10074000FB3109F4A0C0FC3188F4F731D9F1F8315C
:1007500038F4F03109F44CC0F63109F02AC13DC03B
:10076000F83129F1FA3109F024C116C0F33209F445
:100770009DC0F43238F4F13209F46AC0F23209F063
:1007800018C16EC0F23C09F4A4C0F43C09F4DFC007
:10079000F13C09F00EC108C105E0E02EF12CEC0E91
:1007A000FD1E8E010A0D111D0B5F1F4F4DC015E080
:1007B000E12EF12CEC0EFD1E8E010A0D111D0B5FBA
:1007C0001F4F38C0B5E0EB2EF12CEC0EFD1E8E0154
:1007D0000A0D111D0B5F1F4F23C0A5E0EA2EF12C5F
:1007E000EC0EFD1E8E010A0D111D0B5F1F4F0FC079
:1007F0006E814F818D8190E070E050E00E946F0922
:10080000D8C0F70181917F0166E10E940301E016E3
:10081000F106B9F7CEC0F70181917F010E9459011D
:10082000E016F106C1F7C5C0F70181917F0168E1CB
:100830000E940301E016F106B9F7BBC0F7018191F0
:100840007F016AE10E940301E016F106B9F7B1C029
:1008500011E0812F0E9459011F5F1D30D1F7A9C0FF
:1008600007E311E0FF24F394F8018081918146971A
:1008700019F48F2D0E945901F3940E5F1F4FFDE074
:10088000FF1691F796C007E311E0FF24F394F801F7
:10089000808191814A9719F48F2D0E945901F39418
:1008A0000E5F1F4FFDE0FF1691F783C007E311E0D5
:1008B000FF24F394F80180819181489719F48F2DDA
:1008C0000E945901F3940E5F1F4FFDE0FF1691F750
:1008D00070C08D818230E1F0833030F4882351F094
:1008E000813009F066C00DC08330C9F0843009F052
:1008F00060C020C08E81813011F4D89A5AC0D89837
:1009000058C08E81813011F4D99A53C0D99851C002
:100910008E81813011F4DA9A4CC0DA984AC08E8107
:10092000813021F48091620080620EC0809162006B
:100930008F7D0AC08E81813021F4809162008061B8
:1009400003C0809162008F7E8093620032C060B1EC
:1009500080B120B140B130E021703070220F331FE0
:10096000220F331F90E0887090709595879595952C
:100970008795282B50E04270507073E0440F551F4C
:100980007A95E1F7242B70E0647070707595679527
:1009900075956795262B298384EC61E0AE014F5F46
:1009A0005F4F0E943C0705C084E191E00E9428113E
:1009B000C79863960FB6F894DEBF0FBECDBFCF9138
:1009C000DF911F910F91FF90EF90DF90CF90BF903C
:1009D000AF909F908F90089513BE86B7836086BFB7
:1009E00087B7836087BF8DE083BF12BE8EE081BF73
:1009F00008958FEF8ABB8FE087BB8CEF84BB8EE0BE
:100A000081BB80E38093610080E18ABF89B7806405
:100A100089BF08958FE090E00E9415058EE195E072
:100A200067E375E00E94B01008959093900089B933
:100A300086E08093950088E98AB908955D9BFECF92
:100A40008CB980E00895FC0180E090E070E006C081
:100A500020815D9BFECF31962CB9019686179707B2
:100A6000BCF380E008955F9BFECF8CB108955F9B3F
:100A7000FECF8CB15D9BFECF8CB908958BB1807891
:100A80000895909398008093990086E080939D004C
:100A900088E180939A000895982F80919B0085FFAC
:100AA000FCCF90939C0080E00895FC0120E030E0B2
:100AB00070E00AC0908180919B0085FFFCCF319649
:100AC00090939C002F5F3F4F261737079CF380E0E1
:100AD000089580919B0087FFFCCF8CB10895809191
:100AE0009B0087FFFCCF90919C0080919B0085FF2D
:100AF000FCCF90939C00892F089580919B00807873
:100B0000089526E63EE0E22FF32F3197F1F78A951C
:100B1000D1F7089590E04AEF26E63EE019C0E22FB3
:100B2000F32F3197F1F74A95D1F7E22FF32F319751
:100B3000F1F74A95D1F7E22FF32F3197F1F74A9564
:100B4000D1F7E22FF32F3197F1F74A95D1F79F5F55
:100B5000981708F4E4CF0895E0916E01F0916F01C9
:100B60008EEF0995E0916E01F0916F018EEF09957E
:100B7000E0916E01F0916F018BEF0995E0916E01AC
:100B8000F0916F018BEF0995E0916E01F0916F018B
:100B900080E00995E0916E01F0916F018DEF09956C
:100BA0000895E0916E01F0916F018EEF0995E0914B
:100BB0006E01F0916F018EEF0995E0916E01F09159
:100BC0006F018AEF0995E0916E01F0916F018AEF54
:100BD0000995E0916E01F0916F0180E00995E09137
:100BE0006E01F0916F018DEF099508957F928F92BC
:100BF0009F92AF92BF92CF92DF92EF92FF920F93AC
:100C00001F93DF93CF93CDB7DEB762970FB6F894FB
:100C1000DEBF0FBECDBF782C8982892C9A82AB8231
:100C2000BC82CD82DE82EF82F88609871A872B8705
:100C30003C874D875E876F87788B898B9A8BE09195
:100C40006E01F0916F018EEF0995E0916E01F091C8
:100C50006F018EEF0995E0916E01F0916F01872D84
:100C60000995E0916E01F0916F01882D0995E09151
:100C70006E01F0916F018A2D099584E0E82EF12C28
:100C8000EC0EFD1E8E010A0D111D0C5F1F4F04C0DE
:100C9000D7018D917D010995E0916E01F0916F0171
:100CA000E016F106A9F78DEF099562960FB6F89454
:100CB000DEBF0FBECDBFCF91DF911F910F91FF908F
:100CC000EF90DF90CF90BF90AF909F908F907F90EC
:100CD00008951F920F920FB60F9211240F900FBE1E
:100CE0000F901F9018951F920F920FB60F920BB690
:100CF0000F9211247F928F929F92AF92BF92CF92C8
:100D0000DF92EF92FF920F931F932F933F934F9396
:100D10005F936F937F938F939F93AF93BF93EF9363
:100D2000FF937CB090915B019F5F90935B018091FA
:100D30005901882309F474C0943008F452C08DEF2F
:100D4000781609F04EC0292F30E0F9013497A090B1
:100D50005E018A2D90E08E179F07C9F580905C0197
:100D600080915A01881669F580915D018B3F29F4C5
:100D70000E94B9081092360126C0982EB0905F01EB
:100D8000C0906001D0906101E0906201F090630139
:100D90000091640110916501209166013091670115
:100DA000409168015091690160916A0170916B01F5
:100DB00080916C0190916D010E94D7080E94AC0552
:100DC00002C00E94D105809159018E7F31C023312C
:100DD000310594F5E45AFE4F738280915A01835095
:100DE00013C0923039F0933051F0913081F4709209
:100DF0005C0122C070925D0170925A011DC0709218
:100E00005E0180915A01870D80935A0115C0E92F28
:100E1000F0E0E331F10584F4E55AFE4F7082F1CF42
:100E20008EEF781649F4809135018E3F29F481E0E8
:100E30008093590110925B0170923501FF91EF91FF
:100E4000BF91AF919F918F917F916F915F914F91E2
:100E50003F912F911F910F91FF90EF90DF90CF90D6
:100E6000BF90AF909F908F907F900F900BBE0F9090
:100E70000FBE0F901F9018958F929F92AF92BF92C6
:100E8000CF92DF92EF92FF920F931F93DF93CF9356
:100E9000CDB7DEB762970FB6F894DEBF0FBECDBFF9
:100EA000982EA62E862E880EDE011496FA0103C017
:100EB0008191880E8D938E2F841B8A15C8F38982A9
:100EC000AB829A82BC80CD80DE80EF80F884098579
:100ED0001A852B853C854D855E856F857889898946
:100EE0009A890E943A0862960FB6F894DEBF0FBE48
:100EF000CDBFCF91DF911F910F91FF90EF90DF90C9
:100F0000CF90BF90AF909F908F9008958F929F92B7
:100F1000AF92BF92CF92DF92EF92FF920F931F9307
:100F2000DF93CF93CDB7DEB762970FB6F894DEBFED
:100F30000FBECDBF0E94C808882301F580913601FD
:100F40008823E1F4CE0101960E94A10889809A804D
:100F5000AB80BC80CD80DE80EF80F88409851A8567
:100F60002B853C854D855E856F85788989899A8931
:100F70000E94F60581E08093360101C080E0629610
:100F80000FB6F894DEBF0FBECDBFCF91DF911F919A
:100F90000F91FF90EF90DF90CF90BF90AF909F9018
:100FA0008F9008956F927F928F929F92AF92BF928F
:100FB000CF92DF92EF92FF920F931F93DF93CF9325
:100FC000CDB7DEB762970FB6F894DEBF0FBECDBFC8
:100FD0000E946509882311F080E01FC060905701CE
:100FE00070905801CE0101960E943E0989809A8036
:100FF000AB80BC80CD80DE80EF80F88409851A85C7
:101000002B853C854D855E856F85788989899A8990
:10101000F30109950E94560981E062960FB6F89493
:10102000DEBF0FBECDBFCF91DF911F910F91FF901B
:10103000EF90DF90CF90BF90AF909F908F907F9078
:101040006F900895909358018093570170936F01AA
:1010500060936E0110925B0110925A011092590137
:101060000E9460090E94C30808951092CA0110925C
:10107000CB0108958F929F92AF92BF92CF92DF9251
:10108000EF92FF920F931F93DF93CF93CDB7DEB70D
:1010900062970FB6F894DEBF0FBECDBF89829A82E9
:1010A000AB82BC82CD82DE82EF82F88609871A8706
:1010B0002B873C874D875E876F87788B898B9A8BD0
:1010C0002091CB01822F90E0880F991FFC0133E023
:1010D000EE0FFF1F3A95E1F7E80FF91FE059FE4FB9
:1010E000DE01119682E10D9001928150E1F7822F8D
:1010F0008F5F8093CB01853010F01092CB019091DF
:10110000CB018091CA01981719F49F5F9093CA018F
:101110008091CA01853010F01092CA0162960FB614
:10112000F894DEBF0FBECDBFCF91DF911F910F911D
:10113000FF90EF90DF90CF90BF90AF909F908F90F7
:101140000895AC018091CA0190E0880F991FFC01BD
:1011500063E0EE0FFF1F6A95E1F7E80FF91FDA0170
:10116000E059FE4F82E101900D928150E1F7CA01F2
:1011700008958091CA018F5F8093CA01853010F075
:101180001092CA0108951092CA011092CB010895DD
:1011900020E09091CA018091CB01981709F421E0D9
:1011A000822F0895109226021092270208958F929E
:1011B0009F92AF92BF92CF92DF92EF92FF920F93E6
:1011C0001F93DF93CF93CDB7DEB762970FB6F89436
:1011D000DEBF0FBECDBF89829A82AB82BC82CD8238
:1011E000DE82EF82F88609871A872B873C874D8736
:1011F0005E876F87788B898B9A8B20912702822F4D
:1012000090E0880F991FFC0133E0EE0FFF1F3A9525
:10121000E1F7E80FF91FE453FE4FDE01119682E17A
:101220000D9001928150E1F7822F8F5F809327020A
:10123000853010F0109227029091270280912602AB
:10124000981719F49F5F90932602809126028530AB
:1012500010F01092260262960FB6F894DEBF0FBE11
:10126000CDBFCF91DF911F910F91FF90EF90DF9055
:10127000CF90BF90AF909F908F900895AC018091D8
:10128000260290E0880F991FFC0163E0EE0FFF1F1C
:101290006A95E1F7E80FF91FDA01E453FE4F82E1A6
:1012A00001900D928150E1F7CA01089580912602C4
:1012B0008F5F80932602853010F0109226020895E9
:1012C0001092260210922702089520E090912602A3
:1012D00080912702981709F421E0822F0895E09168
:1012E0002802F09129029EEF9083E0912802F0916C
:1012F00029029183E0912802F09129028283E091F2
:101300002802F0912902638320E030E00AC0A20F96
:10131000B31FFA01E20FF31F808114968C932F5FA5
:101320003F4FA0912802B09129022617370778F382
:10133000A60FB71F8DEF14968C936B5F7F4F709342
:101340002D0260932C0281E0809332020895E09197
:101350002802F09129028EEF8083E0912802F0911B
:1013600029028183E0912802F09129028AEF828389
:10137000E0912802F09129021382E0912802F09175
:1013800029028DEF848385E090E090932D02809375
:101390002C0281E0809332020895E0912802F091BE
:1013A00029028EEF8083E0912802F0912902818347
:1013B000E0912802F09129028BEF8283E0912802CC
:1013C000F09129021382E0912802F09129028DEF19
:1013D000848385E090E090932D0280932C0281E03D
:1013E0008093320208951F920F920FB60F9211242C
:1013F0000F900FBE0F901F9018951F920F920FB66F
:101400000F920BB60F9211242F933F934F935F933C
:101410006F937F938F939F93EF93FF9350919C00D3
:101420004091330241FF40C05D3FC9F42091360234
:1014300030913702225030408091350290E02817D9
:10144000390769F4809130029091310290932F0214
:1014500080932E0244604D7F4093330255C08091AB
:10146000360290913702009719F0019751F403C0AA
:10147000509334020FC080913502850F809335025E
:1014800009C0E0912E02F0912F025193F0932F02A8
:10149000E0932E028091360290913702019690934C
:1014A00037028093360230C0E0912E02F0912F0275
:1014B0002091300230913102BF01621B730B16166E
:1014C0001706ECF45E3F99F4829131968E3F79F4E1
:1014D00030932F0220932E024B7F426040933302C1
:1014E0001092370210923602109235020DC0603809
:1014F00071052CF030932F0220932E0205C05193DA
:10150000F0932F02E0932E02FF91EF919F918F9124
:101510007F916F915F914F913F912F910F900BBEF3
:101520000F900FBE0F901F9018958091330282FF8D
:1015300050C0809134028031D1F4409130025091FA
:10154000310286EC609135020E943C07E09128024E
:10155000F09129028EEF8083E0912802F091290218
:101560008183E0912802F09129028AEF10C0E09176
:101570002802F09129028EEF8083E0912802F091F9
:1015800029028183E0912802F09129028BEF828366
:10159000E0912802F09129021382E0912802F09153
:1015A00029028DEF848385E090E090932D02809353
:1015B0002C0281E080933202809133028B7F8093F2
:1015C0003302809130029091310290932F028093E8
:1015D0002E020895CF93DF9380913202813011F56E
:1015E000C0E0D0E00AC0E0912A02F0912B02EC0F9B
:1015F000FD1F80810E944C05219680912C029091C4
:101600002D02C817D90778F380912A0290912B02F6
:10161000909329028093280210922D0210922C029E
:1016200010923202DF91CF9108950F931F9380E8BB
:1016300090E00E94C00E0EE212E080932E02909382
:101640002F0280933002F801938384E190E00E949E
:10165000C00EF80136978083918304501040F80142
:1016600080839183109232021F910F910895A1E11E
:10167000B0E0EDE3FBE00C94DE113C017F876E8768
:101680006A01FC0117821682838181FD03C06FEF1E
:101690007FEF71C39E012F5F3F4F398B288BF30182
:1016A0002381EE85FF8523FD859123FF8191FF87AF
:1016B000EE87882309F45CC3853251F4EE85FF85FB
:1016C00023FD859123FF8191FF87EE87853229F4E1
:1016D00090E0B3010E94FC10E2CF982F10E0882424
:1016E00099241032B0F49B3269F09C3228F4903285
:1016F00051F0933271F40BC09D3239F0903349F4BC
:10170000116028C01260146025C0186023C01061E9
:1017100021C017FD2AC0892F80538A3078F416FF24
:1017200006C0FAE09F9E902C1124980E13C03AE058
:10173000839E802C1124880E10620CC09E3221F4EE
:1017400016FD16C3106406C09C3611F4106802C062
:10175000983659F4EE85FF8523FD959123FF9191ED
:10176000FF87EE87992309F0BCCF892F85548330FA
:1017700020F4812F8061905E07C0892F85568330C9
:1017800008F0A1C1812F8F7E86FD02C076E0972EE2
:101790006FE3F62EF822953619F4F0E4FF2A07C01D
:1017A000963619F420E8F22A02C091109A94F7FEB6
:1017B0000BC03BE3391520F427E05CE3B52E0EC0E7
:1017C000B92CB39427E00AC047E0491528F427E074
:1017D000BB2447E0942E02C0292DBB24C6010496E9
:1017E0009D878C87F6016081718182819381AE0132
:1017F0004F5F5F4F0B2D0E94C20F6C010981202E9D
:10180000332400FF04C003FD02C01DE209C0F1FE45
:1018100002C01BE205C0F2FC02C010E001C010E2F1
:10182000C1018C709070892BB9F1112311F483E000
:1018300001C084E0881510F088240AC0881AF3FCDF
:1018400007C080E290E0B3010E94FC108A94C9F7BF
:10185000112329F0812F90E0B3010E94FC1023FE98
:1018600003C00CE810E00EC000E910E00BC0E1146A
:10187000F10409F0805290E0B3010E94FC100F5F68
:101880001F4F05C0EF2CFF24F0E1EF22FF24F801E9
:101890008491882361F714C1F7FE12C0BC0C24FEAA
:1018A00004C08A81813309F4BA941B141CF0BB2450
:1018B000B3942DC0F8E0FB1550F538E0B32E27C0E7
:1018C000F6FC25C0892D90E08C159D054CF02CEF81
:1018D000C2162FEFD20624F030E8F32A01C09A9402
:1018E000992049F0E2E0F0E0EC0FFD1FE90DF11D59
:1018F00080818033A1F3F7FE0AC0B92CB394892DFF
:1019000090E0C816D90614F0992401C09C18F7FC81
:1019100003C025E030E009C01C141D041CF021E0C8
:1019200030E003C096012F5F3F4F112311F02F5F6E
:101930003F4F992029F0892D90E00196280F391FFB
:10194000882D90E02817390714F0882401C0821AE6
:101950004F2C5524C20189709070892B39F008C032
:1019600080E290E0B3010E94FC108A948820C1F7C5
:10197000112329F0812F90E0B3010E94FC1043FE57
:1019800007C008C080E390E0B3010E94FC108A9475
:101990008820C1F7F7FE46C08601D7FE02C000E0EE
:1019A00010E076010894E11CF11CE01AF10A41E014
:1019B00050E04C0F5D1FE40EF51E26014B18510838
:1019C000892D90E0AA24BB24A81AB90A5FEF0F3F23
:1019D000150729F48EE290E0B3010E94FC10C016B6
:1019E000D10634F0401651061CF4F701808101C085
:1019F00080E3015010400894E11CF11C0A151B05FE
:101A00002CF090E0B3010E94FC10E0CF0C151D05F6
:101A100039F49A81963318F4953311F424FE81E356
:101A200090E04BC08A81813309F00F7E90E0B301D2
:101A30000E94FC109920A1F08EE290E0B3010E9478
:101A4000FC1012E0E1E0F0E0EC0FFD1FE10FF11DF2
:101A50001F5F808190E0B3010E94FC109A9491F77F
:101A600044FC03C085E690E002C085E490E0B30149
:101A70000E94FC10D7FC05C0C114D10441F404FF3E
:101A800006C0D094C194D108D3948DE201C08BE2FA
:101A900090E0B3010E94FC1080E305C08F5F26EF49
:101AA0003FEFC20ED31E3AE0C316D104BCF790E05C
:101AB000B3010E94FC10C601C096B3010E94FC1045
:101AC000CC84DD8452C1933631F0933799F093354D
:101AD00009F059C023C0F601808189835E01089412
:101AE000A11CB11C22E030E0C20ED31E21E0E22E88
:101AF000F12C12C0F601A080B18016FD03C06FEF7B
:101B00007FEF02C0692D70E022E030E0C20ED31EEC
:101B1000C5010E94A5107C011F7713C0F601A080AB
:101B2000B18016FD03C06FEF7FEF02C0692D70E03A
:101B300022E030E0C20ED31EC5010E949A107C0143
:101B4000106813FF07C01BC080E290E0B3010E9441
:101B5000FC108A94882D90E0E816F906A8F30FC0CF
:101B6000F50117FD859117FF81915F0190E0B301A9
:101B70000E94FC1081108A940894E108F108E11495
:101B8000F10471F7F2C0943611F0993689F517FF18
:101B900008C0F601208131814281538184E090E0C8
:101BA0000AC0F601808191819C01442737FD409550
:101BB000542F82E090E0C80ED91E9FE6F92EF12244
:101BC00057FF09C050954095309521953F4F4F4F95
:101BD0005F4F90E8F92ACA01B901AE014F5F5F4F2C
:101BE0002AE030E00E945D11E82EE889EE1A41C03B
:101BF000953721F41F7E2AE030E01CC0197F9F3604
:101C000061F0903720F4983509F0B2C00FC09037DA
:101C100039F0983709F0ACC004C028E030E00AC0C1
:101C2000106114FD146020E130E004C014FD166062
:101C300020E132E017FF08C0F601608171818281E6
:101C4000938144E050E008C0F60180819181BC019D
:101C500080E090E042E050E0C40ED51EAE014F5F40
:101C60005F4F0E945D11E82E5889E51A8FE7F82E24
:101C7000F122F6FE0BC08EEFF822E91438F4F4FEE0
:101C800007C0F2FC05C09FEEF92202C01E2D01C064
:101C9000192DF4FE0DC0FE01EE0DF11D8081803383
:101CA00019F4E9EEFE2208C01F5FF2FE05C003C072
:101CB0008F2D867809F01F5F0F2DF3FC14C0F0FE06
:101CC0000FC0181510F09E2C0BC09E2C980C911A6A
:101CD000182D06C080E290E0B3010E94FC101F5F47
:101CE0001815C0F304C0181510F4811A01C0882417
:101CF00004FF0FC080E390E0B3010E94FC1002FFDC
:101D00001DC001FD03C088E790E00EC088E590E0AB
:101D10000BC0802F867891F001FF02C08BE201C0DA
:101D200080E2F7FC8DE290E0B3010E94FC1006C057
:101D300080E390E0B3010E94FC109A94E914C0F390
:101D4000EA94E1E0F0E0EC0FFD1FEE0DF11D808163
:101D500090E0B3010E94FC10EE2091F706C080E2F3
:101D600090E0B3010E94FC108A948820C1F797CCC0
:101D7000F30166817781CB016196E2E10C94FA115F
:101D8000CF93DF93BC018230910510F462E070E0E4
:101D9000A0913A02B0913B02ED01E0E0F0E040E0BA
:101DA00050E021C0888199818617970769F48A815C
:101DB0009B81309719F09383828304C090933B02F8
:101DC00080933A02FE0134C06817790738F4411550
:101DD000510519F08417950708F4AC01FE018A81BA
:101DE0009B819C01E9012097E9F641155105A9F174
:101DF000CA01861B970B049708F4BA01E0E0F0E0F3
:101E00002AC08D919C91119784179507F9F4641756
:101E1000750781F412968D919C911397309719F064
:101E20009383828304C090933B0280933A02FD0126
:101E300032964CC0CA01861B970BFD01E80FF91FB3
:101E40006193719302978D939C9340C0FD018281B1
:101E500093819C01D9011097A1F68091380290914D
:101E60003902892B41F480912A0190912B019093A2
:101E700039028093380240912C0150912D01411577
:101E8000510541F44DB75EB7809128019091290129
:101E9000481B590B2091380230913902CA01821B2C
:101EA000930B8617970780F0AB014E5F5F4F841747
:101EB000950750F0420F531F509339024093380258
:101EC000F9016193719302C0E0E0F0E0CF01DF918E
:101ED000CF910895CF93DF93009709F450C0EC01A0
:101EE00022971B821A82A0913A02B0913B0210976E
:101EF00009F140E050E0AC17BD0708F1BB83AA83AD
:101F0000FE0121913191E20FF31FAE17BF0779F463
:101F10008D919C911197280F391F2E5F3F4F398368
:101F2000288312968D919C9113979B838A834115E8
:101F3000510571F4D0933B02C0933A0220C012962F
:101F40008D919C911397AD01009711F0DC01D3CFD7
:101F5000FA01D383C28321913191E20FF31FCE178F
:101F6000DF0769F488819981280F391F2E5F3F4F61
:101F7000FA01318320838A819B8193838283DF915D
:101F8000CF910895283008F027E03327DA01990F20
:101F9000311D87FD916000966105710539F432604D
:101FA0002E5F3D9330E32A95E1F708959F3F30F08F
:101FB00080387105610509F03C5F3C5F3D939130CD
:101FC00008F08068911DDF93CF931F930F93FF92CA
:101FD000EF92192F987F9695E92F96959695E90F90
:101FE000FF27E251FF4F99273327EE24FF24A70153
:101FF000E70105900894079428F4360FE71EF81EB1
:10200000491F511D660F771F881F991F0694A1F75E
:102010000590079428F4E70EF81E491F561FC11DAE
:10202000770F881F991F661F0694A1F705900794E4
:1020300028F4F80E491F561FC71FD11D880F991F7E
:10204000661F771F0694A1F70590079420F4490FA7
:10205000561FC71FD81F990F661F771F881F06942A
:10206000A9F784911095177041F0D695C7955795AB
:102070004795F794E7941A95C1F7E4E9F0E068947E
:102080001590159135916591959105907FE2739525
:10209000E118F10A430B560BC90BD009C0F7E10C4C
:1020A000F11E431F561FC91FD01D7EF4703311F45B
:1020B0008A95E6CFE894015030F0080F0AF4002723
:1020C000021708F4202F2395022F7A3328F079E3A2
:1020D0007D932A95E9F710C07D932A9589F6069499
:1020E00097956795379517951794E118F10A430B63
:1020F000560BC90BD00998F023957E9173957A33CE
:1021000008F070E37C932013B8F77E9170617D93A3
:1021100030F0839571E37D9370E32A95E1F7112404
:10212000EF90FF900F911F91CF91DF91992787FD3D
:1021300090950895FC010590615070400110D8F70A
:10214000809590958E0F9F1F0895FC0161507040FF
:1021500001900110D8F7809590958E0F9F1F0895DC
:102160000F931F93CF93DF938C01EB01009731F412
:102170006115710519F420E030E038C081E090E08D
:102180006EE070E00E94BB11FC019C01009771F1B0
:1021900080E88383209771F0D387C28781E88383A7
:1021A00080913C0290913D02892B21F4F0933D02F5
:1021B000E0933C0201151105C9F011870087838166
:1021C0008260838380913E0290913F02892B71F45B
:1021D000F0933F02E0933E028091400290914102D1
:1021E000892B21F4F0934102E0934002C901DF9171
:1021F000CF911F910F9108950F931F93CF93DF936A
:102200008C01EB018B8181FF1BC082FF0DC02E81F1
:102210003F818C819D812817390764F4E881F98119
:102220000193F983E88306C0E885F985802F099535
:10223000892B31F48E819F8101969F838E8302C00A
:102240000FEF1FEFC801DF91CF911F910F910895FC
:102250000F931F93CF93DF938C01E0913E02F09197
:102260003F02838181FF21C0C0E0D0E00DC0E0913A
:102270003E02F0913F0220853185BF01F9010995A9
:10228000892B11F0CFEFDFEFF80181918F018823C7
:1022900071F7E0913E02F0913F02208531858AE09E
:1022A000BF01F9010995892B11F0CFEFDFEFCE01C6
:1022B000DF91CF911F910F910895FA01AA2728303D
:1022C00051F1203181F1E8946F936E7F6E5F7F4F03
:1022D0008F4F9F4FAF4FB1E03ED0B4E03CD0670F7F
:1022E000781F891F9A1FA11D680F791F8A1F911DD2
:1022F000A11D6A0F711D811D911DA11D20D009F422
:1023000068943F912AE0269F11243019305D319363
:10231000DEF6CF010895462F4770405D4193B3E04C
:102320000FD0C9F7F6CF462F4F70405D4A3318F0F3
:10233000495D31FD4052419302D0A9F7EACFB4E0A4
:10234000A6959795879577956795BA95C9F700975C
:102350006105710508959B01AC010A2E06945795FD
:10236000479537952795BA95C9F7620F731F841F54
:10237000951FA01D08950F931F93CF93DF93689F20
:102380008001699F100D789F100D1124C8010E94D3
:10239000C00EEC01009729F060E070E0A8010E94F7
:1023A000D711CE01DF91CF911F910F910895DC01DC
:1023B00001C06D9341505040E0F708952F923F9235
:1023C0004F925F926F927F928F929F92AF92BF9245
:1023D000CF92DF92EF92FF920F931F93CF93DF93F1
:1023E000CDB7DEB7CA1BDB0B0FB6F894DEBF0FBE4E
:1023F000CDBF09942A88398848885F846E847D849B
:102400008C849B84AA84B984C884DF80EE80FD809C
:102410000C811B81AA81B981CE0FD11D0FB6F89412
:0E242000DEBF0FBECDBFED010895F894FFCFD3
:10242E004D6F74686572626F61726420737461724D
:10243E007465640050554C4C494E47205448452015
:0E244E00504C5547000100FE200042020000E5
:00000001FF
