:100000000C94C7000C94E6000C94E6000C94E600F7
:100010000C94E6000C94E6000C94E6000C94270285
:100020000C94E6000C94E6000C94E6000C94E600B8
:100030000C94E6000C94E6000C94E6000C9431025B
:100040000C941D020C94E6000C948D060C941A0678
:100050000C94E6000C94E6000C94E6000C94E60088
:100060000C94E6000C94E6000C94E6000C94E60078
:100070000C94E6000C94E6000C94210A0C94170AE8
:100080000C94E6000C94E6000C94E6006E616E00A1
:10009000696E660000407A10F35A00A0724E18098B
:1000A0000010A5D4E80000E87648170000E40B54DF
:1000B000020000CA9A3B000000E1F50500008096AE
:1000C0009800000040420F000000A08601000000E0
:1000D000102700000000E80300000000640000009A
:1000E00000000A00000000000100000000002C7663
:1000F000D888DC674F0823DFC1DFAE59E1B1B7967E
:10010000E5E3E453C63AE651997696E8E6C28426DA
:10011000EB898C9B62ED407C6FFCEFBC9C9F40F2B6
:10012000BAA56FA5F490055A2AF75C936B6CF96732
:100130006DC11BFCE0E40D47FEF520E6B500D0EDF7
:10014000902E0300943577050080841E080000205F
:100150004E0A000000C80C333333330F986E1283FD
:100160001141EF8D2114893BE65516CFFEE6DB18D1
:10017000D1844B381BF77C1D901DA4BBE424203296
:1001800084725E228100C9F124ECA1E53D2711248F
:100190001FBECFEFD0E1DEBFCDBF11E0A0E0B1E0E8
:1001A000E0EAF4E200E00BBF02C007900D92A63532
:1001B000B107D9F712E0A6E5B1E001C01D92AF3654
:1001C000B107E1F70E9470020C944E120C940000EB
:1001D000DF93CF9300D0CDB7DEB719820CC01A825F
:1001E00004C000008A818F5F8A838A818F3FC9F7AC
:1001F00089818F5F89838981823388F30F900F9083
:10020000CF91DF910895482FE82FF0E0319721E05A
:1002100030E00E2E02C0220F331F0A94E2F78091C5
:10022000590190915A01822B932B90935A018093FC
:100230005901EE0FFF1FEC59FE4F608311824630CB
:1002400051F1473070F4433001F1443028F441302B
:10025000C1F0423069F517C04430C9F0453041F56E
:1002600018C04930F1F04A3028F44730B1F0483036
:10027000F9F415C04B30C9F04B30A8F04C30C1F444
:1002800016C0A89A0895A99A0895AA9A0895AB9AB3
:100290000895AC9A0895AD9A0895AE9A0895AF9ACC
:1002A0000895DF9A0895DE9A0895DD9A0895DC9AFC
:1002B0000895482FE82FF0E0319721E030E00E2E2E
:1002C00002C0220F331F0A94E2F7209530958091E7
:1002D000590190915A018223932390935A0180935C
:1002E0005901EE0FFF1FEC59FE4F1182108246306C
:1002F00051F1473070F4433001F1443028F441307B
:10030000C1F0423069F517C04430C9F0453041F5BD
:1003100018C04930F1F04A3028F44730B1F0483085
:10032000F9F415C04B30C9F04B30A8F04C30C1F493
:1003300016C0A8980895A9980895AA980895AB980A
:100340000895AC980895AD980895AE980895AF9823
:100350000895DF980895DE980895DD980895DC9853
:100360000895DF93CF9300D0CDB7DEB721E020937F
:10037000800180938201082E82958025082E869523
:100380008695802590E0019695958795817090706F
:10039000809580938101D39ADB9A169A1E981A82CF
:1003A0000CC0198204C0000089818F5F8983898114
:1003B0008F3FC9F78A818F5F8A838A81823388F36E
:1003C00019820CC01A8204C000008A818F5F8A8360
:1003D0008A818F3FC9F789818F5F898389818233C1
:1003E00088F31A820CC0198204C0000089818F5FD3
:1003F000898389818F3FC9F78A818F5F8A838A8148
:10040000823388F3DB9819820CC01A8204C0000082
:100410008A818F5F8A838A818F3FC9F789818F5F45
:1004200089838981823388F316981E9A10927D0100
:100430000F900F90CF91DF9108951F920F920FB6FA
:100440000F9211240F900FBE0F901F9018951F92BE
:100450000F920FB60F9211240F900FBE0F901F90A6
:1004600018951F920F920FB60F920BB60F92112490
:100470002F933F934F935F936F937F938F939F93AC
:10048000AF93BF93EF93FF9380915B0190915C01D9
:10049000019690935C0180935B018958934110F021
:1004A00010924D010E947006809157019091580161
:1004B00001969093580180935701FF91EF91BF915E
:1004C000AF919F918F917F916F915F914F913F91EC
:1004D0002F910F900BBE0F900FBE0F901F9018958D
:1004E00084E60E942305BF9AC79AF8948EEC92E0A6
:1004F00060EC74E00E9446080E94390B0E949B0445
:100500000E948E048FE290E00E94E3048EEE94E05D
:1005100061E175E00E94D4108FE290E00E94B70480
:1005200080E091E00E946111789410927C01109219
:100530007D0110927E0110927F0188EC0E942305BC
:10054000DB9A84E60E9423050E94F6070E94AA0710
:1005500080914D018823C1F7B69BF6CFB699FECFA7
:1005600081E00E942C0580EC60E040E050E00E94B9
:10057000600781E080934D01E7CFDF93CF930F9227
:10058000CDB7DEB7898385EC61E0AE014F5F5F4F89
:100590000E9460070F90CF91DF9108958F929F92F4
:1005A000AF92BF92CF92DF92EF92FF920F931F9381
:1005B000DF93CF93CDB7DEB763970FB6F894DEBF66
:1005C0000FBECDBF8A82F92D9B82EA2DAC82BD82FF
:1005D000CE82DF82E886F9860A871B872C873D87D3
:1005E0004E875F87688B798B8A8B9B8B6F01198213
:1005F00000D000D0EDB7FEB7319684E191E0ADB701
:10060000BEB712969C938E931197D28213820E944A
:100610004C11EDB7FEB7319681E291E0ADB7BEB7B0
:1006200012969C938E931197C28213820E944C1152
:10063000B5E0EB2EF12CEC0EFD1E570100E010E0B2
:100640000F900F900F900F90AAE28A2EA1E09A2EA1
:100650001FC000D000D000D0EDB7FEB73196ADB7C7
:10066000BEB712969C928E92119713830283D50186
:100670008D915D01848315820E944C110F5F1F4F85
:10068000EDB7FEB736960FB6F894FEBF0FBEEDBFBE
:100690000C15F8F2FBE1DF1609F498C0FD15B8F06F
:1006A00087E1D81609F44EC08D1540F090E1D916B7
:1006B00051F1A6E1DA1609F01EC135C0B8E1DB162A
:1006C00009F450C0EAE1DE1609F015C15BC0F3E29F
:1006D000DF1609F48EC0FD1548F081E2D81609F442
:1006E0005AC092E2D91609F006C15DC0A2ECDA1632
:1006F00009F492C0B4ECDB1609F4CCC0E1ECDE16D0
:1007000009F0F9C0F3C06E814F818D8190E070E0F7
:1007100050E00E949309EFC0D7018D917D0166E101
:100720000E94030105C08E010C0D111D0B5F1F4FB0
:10073000E016F10689F7DFC0F70181917F010E9481
:10074000590105C08E010C0D111D0B5F1F4FE016E6
:10075000F10691F7D0C0D7018D917D0168E10E942B
:10076000030105C08E010C0D111D0B5F1F4FE0161C
:10077000F10689F7C0C0F70181917F016AE10E940B
:10078000030105C08E010C0D111D0B5F1F4FE016FC
:10079000F10689F7B0C011E0812F0E9459011F5F57
:1007A0001D30D1F7A8C004E611E0FF24F394D8016E
:1007B0008D919C91469719F48F2D0E945901F394C5
:1007C0000E5F1F4FBDE0FB1691F795C004E611E0E8
:1007D000FF24F394F801808191814A9719F48F2DB9
:1007E0000E945901F3940E5F1F4FFDE0FF1691F731
:1007F00082C004E611E0FF24F394D8018D919C910E
:10080000489719F48F2D0E945901F3940E5F1F4FE2
:10081000BDE0FB1691F76FC08D818230E1F083302F
:1008200030F4882351F0813009F065C00DC0833069
:10083000C9F0843009F05FC020C08E81813011F48E
:10084000D89A59C0D89857C08E81813011F4D99A5E
:1008500052C0D99850C08E81813011F4DA9A4BC0C1
:10086000DA9849C08E81813021F4809162008062E3
:100870000EC0809162008F7D0AC08E81813021F48C
:1008800080916200806103C0809162008F7E8093BE
:10089000620031C060B180B120B140B130E0217060
:1008A0003070220F331F220F331F90E0887090703A
:1008B0009595879595958795282B50E042705070B7
:1008C000440F551F440F551F242B70E06470707047
:1008D0007595679575956795262B298384EC61E05E
:1008E000AE014F5F5F4F0E94600705C08CE391E04F
:1008F0000E946111C79863960FB6F894DEBF0FBED1
:10090000CDBFCF91DF911F910F91FF90EF90DF90BE
:10091000CF90BF90AF909F908F90089513BE86B7F1
:10092000836086BF87B7836087BF8FE083BF12BEB7
:100930008EE081BF08958FEF8ABB8FE087BB8CEF7D
:1009400084BB8EE081BB80E38093610080E18ABF3D
:1009500089B7806489BF08958FE090E00E94B70452
:1009600080EC94E069ED74E00E94D41008959093B7
:10097000900089B986E08093950088E98AB9089546
:100980005D9BFECF8CB980E00895FC0180E090E093
:1009900070E006C020815D9BFECF31962CB9019698
:1009A00086179707BCF380E008955F9BFECF8CB15C
:1009B00008955F9BFECF8CB15D9BFECF8CB90895EF
:1009C0008BB180780895909398008093990086E089
:1009D00080939D0088E180939A000895982F8091DC
:1009E0009B0085FFFCCF90939C0080E00895FC0164
:1009F00020E030E070E00AC0908180919B0085FF8C
:100A0000FCCF319690939C002F5F3F4F26173707FE
:100A10009CF380E0089580919B0087FFFCCF8CB110
:100A2000089580919B0087FFFCCF90919C0080915E
:100A30009B0085FFFCCF90939C00892F08958091A7
:100A40009B008078089526E63EE0E22FF32F319751
:100A5000F1F78A95D1F7089590E04AEF26E63EE057
:100A600019C0E22FF32F3197F1F74A95D1F7E22F12
:100A7000F32F3197F1F74A95D1F7E22FF32F319702
:100A8000F1F74A95D1F7E22FF32F3197F1F74A9515
:100A9000D1F79F5F981708F4E4CF0895109288016A
:100AA000109287011092860110925F010895E091E3
:100AB0009B01F0919C018EEF0995E0919B01F091D3
:100AC0009C018EEF0995E0919B01F0919C018BEFC9
:100AD0000995E0919B01F0919C018BEF0995E091C4
:100AE0009B01F0919C0180E00995E0919B01F091C0
:100AF0009C018DEF0995109260010895E0919B0192
:100B0000F0919C018EEF0995E0919B01F0919C0181
:100B10008EEF0995E0919B01F0919C018AEF099578
:100B2000E0919B01F0919C018AEF0995E0919B0176
:100B3000F0919C0180E00995E0919B01F0919C016E
:100B40008DEF09951092600108957F928F929F9288
:100B5000AF92BF92CF92DF92EF92FF920F931F93CB
:100B6000DF93CF93CDB7DEB762970FB6F894DEBFB1
:100B70000FBECDBF782C8982892C9A82AB82BC8231
:100B8000CD82DE82EF82F88609871A872B873C8721
:100B90004D875E876F87788B898B9A8BE0919B015D
:100BA000F0919C018EEF0995E0919B01F0919C01E1
:100BB0008EEF0995E0919B01F0919C01872D09959D
:100BC000E0919B01F0919C01882D0995E0919B019A
:100BD000F0919C018A2D099584E0E82EF12CEC0E11
:100BE000FD1E8E010A0D111D0C5F1F4F04C0D701A1
:100BF0008D917D010995E0919B01F0919C01E0169A
:100C0000F106A9F78DEF09951092600162960FB673
:100C1000F894DEBF0FBECDBFCF91DF911F910F9132
:100C2000FF90EF90DF90CF90BF90AF909F908F900C
:100C30007F9008951F920F920FB60F9211240F907C
:100C40000FBE0F901F9018958F929F92AF92BF92F8
:100C5000CF92DF92EF92FF920F931F93DF93CF9388
:100C6000CDB7DEB762970FB6F894DEBF0FBECDBF2B
:100C700080916201853008F5809163018130E9F44B
:100C8000CE0101960E94C50889809A80AB80BC8005
:100C9000CD80DE80EF80F88409851A852B853C8520
:100CA0004D855E856F85788989899A890E94A50519
:100CB000809162018F5F8093620162960FB6F89413
:100CC000DEBF0FBECDBFCF91DF911F910F91FF907F
:100CD000EF90DF90CF90BF90AF909F908F9008954E
:100CE00080916101833040F0109288011092870159
:100CF0001092860110925F01809160018A3010F09D
:100D00000E942406809160018F5F80936001809132
:100D100061018F5F8093610108951F920F920FB65A
:100D20000F920BB60F9211247F928F929F92AF92E7
:100D3000BF92CF92DF92EF92FF920F931F932F9368
:100D40003F934F935F936F937F938F939F93AF9353
:100D5000BF93EF93FF937CB0909188019F5F909336
:100D600088011092610180918601882309F47CC07A
:100D7000943008F45AC08DEF781609F056C0292F28
:100D800030E0F9013497A0908B018A2D90E08E1706
:100D90009F0709F040C080908901809187018816E3
:100DA000A1F580918A018B3F39F40E94DD081092F1
:100DB0006301109262012BC08A3F19F40E9424063D
:100DC00026C0982EB0908C01C0908D01D0908E01DD
:100DD000E0908F01F09090010091910110919201AB
:100DE0002091930130919401409195015091960189
:100DF00060919701709198018091990190919A0169
:100E00000E94FB080E94570502C00E947E05809147
:100E100086018E7F31C02331310594F5E757FE4FAF
:100E2000738280918701835013C0923039F09330E0
:100E300051F0913081F47092890122C070928A0140
:100E4000709287011DC070928B0180918701870D80
:100E50008093870115C0E92FF0E0E331F10584F4B8
:100E6000E857FE4F7082F1CF8EEF781649F48091EB
:100E70005F018E3F29F481E0809386011092880102
:100E800070925F01FF91EF91BF91AF919F918F9110
:100E90007F916F915F914F913F912F911F910F9192
:100EA000FF90EF90DF90CF90BF90AF909F908F908A
:100EB0007F900F900BBE0F900FBE0F901F90189554
:100EC0008F929F92AF92BF92CF92DF92EF92FF925A
:100ED0000F931F93DF93CF93CDB7DEB762970FB613
:100EE000F894DEBF0FBECDBF982EA62E862E880E9C
:100EF000DE011496FA0103C08191880E8D938E2F26
:100F0000841B8A15C8F38982AB829A82BC80CD800B
:100F1000DE80EF80F88409851A852B853C854D8518
:100F20005E856F85788989899A890E945E086296B4
:100F30000FB6F894DEBF0FBECDBFCF91DF911F91EA
:100F40000F91FF90EF90DF90CF90BF90AF909F9068
:100F50008F9008958F929F92AF92BF92CF92DF921F
:100F6000EF92FF920F931F93DF93CF93CDB7DEB72E
:100F700062970FB6F894DEBF0FBECDBF0E94EC089B
:100F8000882301F5809163018823E1F4CE01019665
:100F90000E94C50889809A80AB80BC80CD80DE80AD
:100FA000EF80F88409851A852B853C854D855E8503
:100FB0006F85788989899A890E94A50581E0809347
:100FC000630101C080E062960FB6F894DEBF0FBEE9
:100FD000CDBFCF91DF911F910F91FF90EF90DF90E8
:100FE000CF90BF90AF909F908F9008956F927F9217
:100FF0008F929F92AF92BF92CF92DF92EF92FF9229
:101000000F931F93DF93CF93CDB7DEB762970FB6E1
:10101000F894DEBF0FBECDBF0E948909882311F06E
:1010200080E01FC06090840170908501CE01019620
:101030000E94620989809A80AB80BC80CD80DE806E
:10104000EF80F88409851A852B853C854D855E8562
:101050006F85788989899A89F30109950E947A09AF
:1010600081E062960FB6F894DEBF0FBECDBFCF9180
:10107000DF911F910F91FF90EF90DF90CF90BF9085
:10108000AF909F908F907F906F900895909385017F
:101090008093840170939C0160939B01109288015E
:1010A00010928701109286010E9484090E94E7082D
:1010B00008951092F7011092F80108958F929F926F
:1010C000AF92BF92CF92DF92EF92FF920F931F9356
:1010D000DF93CF93CDB7DEB762970FB6F894DEBF3C
:1010E0000FBECDBF89829A82AB82BC82CD82DE8266
:1010F000EF82F88609871A872B873C874D875E87A2
:101100006F87788B898B9A8B2091F801822F90E0E2
:10111000880F991FFC0133E0EE0FFF1F3A95E1F7AE
:10112000E80FF91FE356FE4FDE01119682E10D90A4
:1011300001928150E1F7822F8F5F8093F801853013
:1011400010F01092F8019091F8018091F701981732
:1011500019F49F5F9093F7018091F701853010F0AB
:101160001092F70162960FB6F894DEBF0FBECDBFA6
:10117000CF91DF911F910F91FF90EF90DF90CF9073
:10118000BF90AF909F908F900895AC018091F70130
:1011900090E0880F991FFC0163E0EE0FFF1F6A9536
:1011A000E1F7E80FF91FDA01E356FE4F82E1019003
:1011B0000D928150E1F7CA0108958091F7018F5F88
:1011C0008093F701853010F01092F7010895109286
:1011D000F7011092F801089520E09091F7018091B5
:1011E000F801981709F421E0822F08951092530214
:1011F0001092540208958F929F92AF92BF92CF9215
:10120000DF92EF92FF920F931F93DF93CF93CDB7AF
:10121000DEB762970FB6F894DEBF0FBECDBF8982EE
:101220009A82AB82BC82CD82DE82EF82F886098709
:101230001A872B873C874D875E876F87788B898BD2
:101240009A8B20915402822F90E0880F991FFC0105
:1012500033E0EE0FFF1F3A95E1F7E80FF91FE75073
:10126000FE4FDE01119682E10D9001928150E1F76F
:10127000822F8F5F80935402853010F010925402B9
:101280009091540280915302981719F49F5F9093A4
:10129000530280915302853010F0109253026296EF
:1012A0000FB6F894DEBF0FBECDBFCF91DF911F9177
:1012B0000F91FF90EF90DF90CF90BF90AF909F90F5
:1012C0008F900895AC018091530290E0880F991F90
:1012D000FC0163E0EE0FFF1F6A95E1F7E80FF91FCD
:1012E000DA01E750FE4F82E101900D928150E1F763
:1012F000CA010895809153028F5F80935302853015
:1013000010F010925302089510925302109254025A
:10131000089520E09091530280915402981709F4A7
:1013200021E0822F0895E0915502F09156029EEF40
:101330009083E0915502F09156029183E09155021D
:10134000F09156028283E0915502F0915602638338
:1013500020E030E00AC0A20FB31FFA01E20FF31F32
:10136000808114968C932F5F3F4FA0915502B091CE
:1013700056022617370778F3A60FB71F8DEF14967E
:101380008C936B5F7F4F70935A026093590281E098
:1013900080935F020895E0915502F09156028EEF1E
:1013A0008083E0915502F09156028183E0915502CD
:1013B000F09156028AEF8283E0915502F091560235
:1013C0001382E0915502F09156028DEF848385E0FF
:1013D00090E090935A028093590281E080935F02DB
:1013E0000895E0915502F09156028EEF8083E091CE
:1013F0005502F09156028183E0915502F091560218
:101400008BEF8283E0915502F09156021382E091B6
:101410005502F09156028DEF848385E090E0909321
:101420005A028093590281E080935F0208951F92CF
:101430000F920FB60F9211240F900FBE0F901F90B6
:1014400018951F920F920FB60F920BB60F921124A0
:101450002F933F934F935F936F937F938F939F93BC
:10146000EF93FF9350919C004091600241FF40C078
:101470005D3FC9F4209163023091640222503040F4
:101480008091620290E02817390769F480915D022B
:1014900090915E0290935C0280935B0244604D7F6A
:1014A0004093600255C0809163029091640200975E
:1014B00019F0019751F403C0509361020FC080915D
:1014C0006202850F8093620209C0E0915B02F09195
:1014D0005C025193F0935C02E0935B0280916302A3
:1014E000909164020196909364028093630230C0ED
:1014F000E0915B02F0915C0220915D0230915E020E
:10150000BF01621B730B16161706ECF45E3F99F4CD
:10151000829131968E3F79F430935C0220935B0286
:101520004B7F42604093600210926402109263020B
:10153000109262020DC0603871052CF030935C028D
:1015400020935B0205C05193F0935C02E0935B0231
:10155000FF91EF919F918F917F916F915F914F914B
:101560003F912F910F900BBE0F900FBE0F901F90C9
:1015700018958091600282FF50C080916102803195
:10158000D1F440915D0250915E0286EC609162025E
:101590000E946007E0915502F09156028EEF808321
:1015A000E0915502F09156028183E0915502F0914D
:1015B00056028AEF10C0E0915502F09156028EEF6C
:1015C0008083E0915502F09156028183E0915502AB
:1015D000F09156028BEF8283E0915502F091560212
:1015E0001382E0915502F09156028DEF848385E0DD
:1015F00090E090935A028093590281E080935F02B9
:10160000809160028B7F8093600280915D02909157
:101610005E0290935C0280935B020895CF93DF9308
:1016200080915F02813011F5C0E0D0E00AC0E09106
:101630005702F0915802EC0FFD1F80810E94EE04CA
:1016400021968091590290915A02C817D90778F3D0
:1016500080915702909158029093560280935502C0
:1016600010925A021092590210925F02DF91CF91AC
:1016700008950F931F9380E890E00E94E40E0BE51D
:1016800012E080935B0290935C0280935D02F8010C
:10169000938384E190E00E94E40EF8013697808302
:1016A000918304501040F8018083918310925F026F
:1016B0001F910F910895A1E1B0E0E1E6FBE00C94E9
:1016C00017123C017F876E876A01FC011782168220
:1016D000838181FD03C06FEF7FEF71C39E012F5F98
:1016E0003F4F398B288BF3012381EE85FF8523FD46
:1016F000859123FF8191FF87EE87882309F45CC3DE
:10170000853251F4EE85FF8523FD859123FF81917C
:10171000FF87EE87853229F490E0B3010E94201103
:10172000E2CF982F10E0882499241032B0F49B3235
:1017300069F09C3228F4903251F0933271F40BC06E
:101740009D3239F0903349F4116028C01260146062
:1017500025C0186023C0106121C017FD2AC0892F41
:1017600080538A3078F416FF06C0FAE09F9E902CD2
:101770001124980E13C03AE0839E802C1124880E09
:1017800010620CC09E3221F416FD16C3106406C010
:101790009C3611F4106802C0983659F4EE85FF8526
:1017A00023FD959123FF9191FF87EE87992309F0FF
:1017B000BCCF892F8554833020F4812F8061905EC7
:1017C00007C0892F8556833008F0A1C1812F8F7EF5
:1017D00086FD02C076E0972E6FE3F62EF82295364E
:1017E00019F4F0E4FF2A07C0963619F420E8F22A2B
:1017F00002C091109A94F7FE0BC03BE3391520F418
:1018000027E05CE3B52E0EC0B92CB39427E00AC0E4
:1018100047E0491528F427E0BB2447E0942E02C096
:10182000292DBB24C60104969D878C87F601608113
:10183000718182819381AE014F5F5F4F0B2D0E94BA
:10184000E60F6C010981202E332400FF04C003FD44
:1018500002C01DE209C0F1FE02C01BE205C0F2FC9D
:1018600002C010E001C010E2C1018C709070892BA1
:10187000B9F1112311F483E001C084E0881510F060
:1018800088240AC0881AF3FC07C080E290E0B30104
:101890000E9420118A94C9F7112329F0812F90E02A
:1018A000B3010E94201123FE03C00CE810E00EC01B
:1018B00000E910E00BC0E114F10409F0805290E05F
:1018C000B3010E9420110F5F1F4F05C0EF2CFF24B2
:1018D000F0E1EF22FF24F8018491882361F714C11D
:1018E000F7FE12C0BC0C24FE04C08A81813309F4C7
:1018F000BA941B141CF0BB24B3942DC0F8E0FB1564
:1019000050F538E0B32E27C0F6FC25C0892D90E0B5
:101910008C159D054CF02CEFC2162FEFD20624F04B
:1019200030E8F32A01C09A94992049F0E2E0F0E00F
:10193000EC0FFD1FE90DF11D80818033A1F3F7FE4F
:101940000AC0B92CB394892D90E0C816D90614F0BA
:10195000992401C09C18F7FC03C025E030E009C0C1
:101960001C141D041CF021E030E003C096012F5F21
:101970003F4F112311F02F5F3F4F992029F0892D00
:1019800090E00196280F391F882D90E0281739071D
:1019900014F0882401C0821A4F2C5524C20189708A
:1019A0009070892B39F008C080E290E0B3010E946A
:1019B00020118A948820C1F7112329F0812F90E00B
:1019C000B3010E94201143FE07C008C080E390E0ED
:1019D000B3010E9420118A948820C1F7F7FE46C007
:1019E0008601D7FE02C000E010E076010894E11CF9
:1019F000F11CE01AF10A41E050E04C0F5D1FE40ECB
:101A0000F51E26014B185108892D90E0AA24BB240D
:101A1000A81AB90A5FEF0F3F150729F48EE290E08C
:101A2000B3010E942011C016D10634F040165106B1
:101A30001CF4F701808101C080E30150104008943C
:101A4000E11CF11C0A151B052CF090E0B3010E946B
:101A50002011E0CF0C151D0539F49A81963318F446
:101A6000953311F424FE81E390E04BC08A818133E9
:101A700009F00F7E90E0B3010E9420119920A1F09F
:101A80008EE290E0B3010E94201112E0E1E0F0E06C
:101A9000EC0FFD1FE10FF11D1F5F808190E0B3018E
:101AA0000E9420119A9491F744FC03C085E690E0CF
:101AB00002C085E490E0B3010E942011D7FC05C06C
:101AC000C114D10441F404FF06C0D094C194D108DC
:101AD000D3948DE201C08BE290E0B3010E9420110B
:101AE00080E305C08F5F26EF3FEFC20ED31E3AE0C2
:101AF000C316D104BCF790E0B3010E942011C601C7
:101B0000C096B3010E942011CC84DD8452C193366B
:101B100031F0933799F0933509F059C023C0F6019D
:101B2000808189835E010894A11CB11C22E030E011
:101B3000C20ED31E21E0E22EF12C12C0F601A080CD
:101B4000B18016FD03C06FEF7FEF02C0692D70E01A
:101B500022E030E0C20ED31EC5010E94C9107C01F4
:101B60001F7713C0F601A080B18016FD03C06FEF90
:101B70007FEF02C0692D70E022E030E0C20ED31E7C
:101B8000C5010E94BE107C01106813FF07C01BC076
:101B900080E290E0B3010E9420118A94882D90E0A9
:101BA000E816F906A8F30FC0F50117FD859117FF98
:101BB00081915F0190E0B3010E94201181108A940D
:101BC0000894E108F108E114F10471F7F2C09436C9
:101BD00011F0993689F517FF08C0F601208131818F
:101BE0004281538184E090E00AC0F60180819181B6
:101BF0009C01442737FD4095542F82E090E0C80EA9
:101C0000D91E9FE6F92EF12257FF09C05095409545
:101C1000309521953F4F4F4F5F4F90E8F92ACA0109
:101C2000B901AE014F5F5F4F2AE030E00E9496118C
:101C3000E82EE889EE1A41C0953721F41F7E2AE08C
:101C400030E01CC0197F9F3661F0903720F4983542
:101C500009F0B2C00FC0903739F0983709F0ACC026
:101C600004C028E030E00AC0106114FD146020E1D7
:101C700030E004C014FD166020E132E017FF08C018
:101C8000F601608171818281938144E050E008C057
:101C9000F60180819181BC0180E090E042E050E05B
:101CA000C40ED51EAE014F5F5F4F0E949611E82E05
:101CB0005889E51A8FE7F82EF122F6FE0BC08EEF59
:101CC000F822E91438F4F4FE07C0F2FC05C09FEED8
:101CD000F92202C01E2D01C0192DF4FE0DC0FE0117
:101CE000EE0DF11D8081803319F4E9EEFE2208C06B
:101CF0001F5FF2FE05C003C08F2D867809F01F5FBD
:101D00000F2DF3FC14C0F0FE0FC0181510F09E2C20
:101D10000BC09E2C980C911A182D06C080E290E002
:101D2000B3010E9420111F5F1815C0F304C01815DD
:101D300010F4811A01C0882404FF0FC080E390E0F2
:101D4000B3010E94201102FF1DC001FD03C088E7FE
:101D500090E00EC088E590E00BC0802F867891F06F
:101D600001FF02C08BE201C080E2F7FC8DE290E04F
:101D7000B3010E94201106C080E390E0B3010E94ED
:101D800020119A94E914C0F3EA94E1E0F0E0EC0F3A
:101D9000FD1FEE0DF11D808190E0B3010E94201126
:101DA000EE2091F706C080E290E0B3010E9420117E
:101DB0008A948820C1F797CCF30166817781CB01A3
:101DC0006196E2E10C943312CF93DF93BC01823031
:101DD000910510F462E070E0A0916702B091680292
:101DE000ED01E0E0F0E040E050E021C08881998121
:101DF0008617970769F48A819B81309719F093833E
:101E0000828304C09093680280936702FE0134C00D
:101E10006817790738F44115510519F084179507AB
:101E200008F4AC01FE018A819B819C01E9012097A5
:101E3000E9F641155105A9F1CA01861B970B0497D4
:101E400008F4BA01E0E0F0E02AC08D919C9111976E
:101E500084179507F9F46417750781F412968D912C
:101E60009C911397309719F09383828304C09093C9
:101E7000680280936702FD0132964CC0CA01861B3E
:101E8000970BFD01E80FF91F6193719302978D93F2
:101E90009C9340C0FD01828193819C01D9011097E0
:101EA000A1F68091650290916602892B41F48091A0
:101EB0005201909153019093660280936502409184
:101EC0005401509155014115510541F44DB75EB78C
:101ED0008091500190915101481B590B209165024E
:101EE00030916602CA01821B930B8617970780F018
:101EF000AB014E5F5F4F8417950750F0420F531FA1
:101F00005093660240936502F9016193719302C098
:101F1000E0E0F0E0CF01DF91CF910895CF93DF9320
:101F2000009709F450C0EC0122971B821A82A091FD
:101F30006702B0916802109709F140E050E0AC17D9
:101F4000BD0708F1BB83AA83FE0121913191E20F05
:101F5000F31FAE17BF0779F48D919C911197280F4D
:101F6000391F2E5F3F4F3983288312968D919C91A4
:101F700013979B838A834115510571F4D0936802AE
:101F8000C093670220C012968D919C911397AD016A
:101F9000009711F0DC01D3CFFA01D383C2832191E2
:101FA0003191E20FF31FCE17DF0769F48881998121
:101FB000280F391F2E5F3F4FFA01318320838A811A
:101FC0009B8193838283DF91CF910895283008F01D
:101FD00027E03327DA01990F311D87FD91600096C4
:101FE0006105710539F432602E5F3D9330E32A9527
:101FF000E1F708959F3F30F080387105610509F0E1
:102000003C5F3C5F3D93913008F08068911DDF9309
:10201000CF931F930F93FF92EF92192F987F96956E
:10202000E92F96959695E90FFF27E251FF4F9927E3
:102030003327EE24FF24A701E701059008940794B5
:1020400028F4360FE71EF81E491F511D660F771F33
:10205000881F991F0694A1F70590079428F4E70EAE
:10206000F81E491F561FC11D770F881F991F661F35
:102070000694A1F70590079428F4F80E491F561FFF
:10208000C71FD11D880F991F661F771F0694A1F7E0
:102090000590079420F4490F561FC71FD81F990FAA
:1020A000661F771F881F0694A9F7849110951770F3
:1020B00041F0D695C79557954795F794E7941A95AB
:1020C000C1F7E4E9F0E068941590159135916591B8
:1020D000959105907FE27395E118F10A430B560B39
:1020E000C90BD009C0F7E10CF11E431F561FC91FD1
:1020F000D01D7EF4703311F48A95E6CFE894015038
:1021000030F0080F0AF40027021708F4202F239557
:10211000022F7A3328F079E37D932A95E9F710C0EE
:102120007D932A9589F60694979567953795179527
:102130001794E118F10A430B560BC90BD00998F01C
:1021400023957E9173957A3308F070E37C93201386
:10215000B8F77E9170617D9330F0839571E37D9344
:1021600070E32A95E1F71124EF90FF900F911F91F2
:10217000CF91DF91992787FD90950895FC010590F7
:10218000615070400110D8F7809590958E0F9F1F79
:102190000895FC016150704001900110D8F78095BE
:1021A00090958E0F9F1F08950F931F93CF93DF93EA
:1021B0008C01EB01009731F46115710519F420E0F1
:1021C00030E038C081E090E06EE070E00E94F411F1
:1021D000FC019C01009771F180E88383209771F0E6
:1021E000D387C28781E883838091690290916A02D4
:1021F000892B21F4F0936A02E0936902011511051D
:10220000C9F01187008783818260838380916B028C
:1022100090916C02892B71F4F0936C02E0936B0245
:1022200080916D0290916E02892B21F4F0936E02E1
:10223000E0936D02C901DF91CF911F910F91089535
:102240000F931F93CF93DF938C01EB018B8181FF61
:102250001BC082FF0DC02E813F818C819D8128177C
:10226000390764F4E881F9810193F983E88306C0B2
:10227000E885F985802F0995892B31F48E819F811E
:1022800001969F838E8302C00FEF1FEFC801DF917D
:10229000CF911F910F910895A0E0B0E0E2E5F1E148
:1022A0000C942712FE0135966191719180916B0219
:1022B00090916C02AF010E945B0B2096E2E00C94BF
:1022C00043120F931F93CF93DF938C01E0916B0226
:1022D000F0916C02838181FF21C0C0E0D0E00DC08D
:1022E000E0916B02F0916C0220853185BF01F9010C
:1022F0000995892B11F0CFEFDFEFF80181918F0164
:10230000882371F7E0916B02F0916C022085318592
:102310008AE0BF01F9010995892B11F0CFEFDFEFBA
:10232000CE01DF91CF911F910F910895FA01AA2755
:10233000283051F1203181F1E8946F936E7F6E5F08
:102340007F4F8F4F9F4FAF4FB1E03ED0B4E03CD0B6
:10235000670F781F891F9A1FA11D680F791F8A1F99
:10236000911DA11D6A0F711D811D911DA11D20D000
:1023700009F468943F912AE0269F11243019305DBA
:102380003193DEF6CF010895462F4770405D4193AB
:10239000B3E00FD0C9F7F6CF462F4F70405D4A33F8
:1023A00018F0495D31FD4052419302D0A9F7EACFC0
:1023B000B4E0A6959795879577956795BA95C9F7EF
:1023C00000976105710508959B01AC010A2E0694E2
:1023D0005795479537952795BA95C9F7620F731F9B
:1023E000841F951FA01D08950F931F93CF93DF9314
:1023F000689F8001699F100D789F100D1124C801FE
:102400000E94E40EEC01009729F060E070E0A80162
:102410000E941012CE01DF91CF911F910F9108956C
:10242000DC0101C06D9341505040E0F708952F92B8
:102430003F924F925F926F927F928F929F92AF9254
:10244000BF92CF92DF92EF92FF920F931F93CF93A1
:10245000DF93CDB7DEB7CA1BDB0B0FB6F894DEBF38
:102460000FBECDBF09942A88398848885F846E845E
:102470007D848C849B84AA84B984C884DF80EE80A8
:10248000FD800C811B81AA81B981CE0FD11D0FB6B1
:10249000F894DEBF0FBECDBFED010895F894FFCFD5
:1024A0004D6F74686572626F6172642073746172DB
:1024B00074656400434D443A203078253032580A20
:1024C000004C454E3A2025690A00444154415B25A1
:1024D000695D3A203078253032580A0050554C4C0E
:1024E000494E472054484520504C5547000100FEB6
:0624F00020006F02000055
:00000001FF
