:100000000C94CB000C94EA000C94EA000C94EA00E7
:100010000C94EA000C94EA000C94EA000C94B302ED
:100020000C94EA000C94EA000C94EA000C94EA00A8
:100030000C94EA000C94EA000C94EA000C94EA0098
:100040000C9421020C9459020C94EA000C94EA00DE
:100050000C94EA000C946D060C9463060C94EA0070
:100060000C94EA000C94EA000C94EA000C94EA0068
:100070000C94EA000C94EA000C94EA000C94EA0058
:100080000C94220A0C94180A0C94EA000C94EA00CE
:100090000C94EA006E616E00696E660000407A1092
:1000A000F35A00A0724E18090010A5D4E80000E829
:1000B0007648170000E40B54020000CA9A3B000087
:1000C00000E1F505000080969800000040420F0016
:1000D0000000A08601000000102700000000E803D7
:1000E000000000006400000000000A0000000000A2
:1000F0000100000000002C76D888DC674F0823DF61
:10010000C1DFAE59E1B1B796E5E3E453C63AE65133
:10011000997696E8E6C28426EB898C9B62ED407C5A
:100120006FFCEFBC9C9F40F2BAA56FA5F490055AF6
:100130002AF75C936B6CF9676DC11BFCE0E40D471B
:10014000FEF520E6B500D0ED902E0300943577053E
:100150000080841E080000204E0A000000C80C33F6
:100160003333330F986E12831141EF8D2114893B85
:10017000E65516CFFEE6DB18D1844B381BF77C1D05
:10018000901DA4BBE424203284725E228100C9F158
:1001900024ECA1E53D2711241FBECFEFD0E1DEBF47
:1001A000CDBF11E0A0E0B1E0E4E8F4E200E00BBF75
:1001B00002C007900D92AE32B107D9F712E0AEE25D
:1001C000B1E001C01D92A83FB107E1F70E946302B0
:1001D0000C9440120C940000DF93CF9300D0CDB765
:1001E000DEB719820CC01A8204C000008A818F5FBA
:1001F0008A838A818F3FC9F789818F5F898389814B
:10020000823388F30F900F90CF91DF910895482F9C
:10021000E82FF0E0319721E030E00E2E02C0220FEF
:10022000331F0A94E2F780912F0190913001822BC5
:10023000932B9093300180932F01EE0FFF1FE95C09
:10024000FE4F60831182463051F1473070F44330E5
:1002500001F1443028F44130C1F0423069F517C053
:100260004430C9F0453041F518C04930F1F04A300A
:1002700028F44730B1F04830F9F415C04B30C9F0DC
:100280004B30A8F04C30C1F416C0409A0895419A02
:100290000895429A0895439A0895449A0895459A74
:1002A0000895469A0895479A0895179A0895169AB8
:1002B0000895159A0895149A0895482FE82FF0E0AC
:1002C000319721E030E00E2E02C0220F331F0A9436
:1002D000E2F72095309580912F0190913001822393
:1002E00093239093300180932F01EE0FFF1FE95C61
:1002F000FE4F11821082463051F1473070F4433086
:1003000001F1443028F44130C1F0423069F517C0A2
:100310004430C9F0453041F518C04930F1F04A3059
:1003200028F44730B1F04830F9F415C04B30C9F02B
:100330004B30A8F04C30C1F416C040980895419855
:1003400008954298089543980895449808954598CB
:10035000089546980895479808951798089516980F
:1003600008951598089514980895DF93CF9300D0B9
:10037000CDB7DEB721E02093530180935501082EBD
:1003800082958025082E86958695802590E0019699
:1003900095958795817090708095809354010B9A04
:1003A000139A6E9A76981A820CC0198204C00000C3
:1003B00089818F5F898389818F3FC9F78A818F5FA8
:1003C0008A838A81823388F319820CC01A8204C01E
:1003D00000008A818F5F8A838A818F3FC9F7898174
:1003E0008F5F89838981823388F31A820CC01982D6
:1003F00004C0000089818F5F898389818F3FC9F79D
:100400008A818F5F8A838A81823388F31398198265
:100410000CC01A8204C000008A818F5F8A838A819F
:100420008F3FC9F789818F5F89838981823388F300
:100430006E98769A109250010F900F90CF91DF91A5
:1004400008951F920F920FB60F9211242F938F933E
:100450009F938091310190913201019690933201E6
:10046000809331018958934110F0109225018091B9
:100470003301909134018B3F910550F010924F0160
:1004800010925001109251011092340110923301D8
:1004900080913301909134010196909334018093BF
:1004A00033019F918F912F910F900FBE0F901F904E
:1004B00018951F920F920FB60F9211240F900FBE36
:1004C0000F901F90189584E60E947B05279A2F9A1B
:1004D000F89486E693E064E075E00E941D080E94AF
:1004E000DF040E94D0048FE290E00E943A0585E488
:1004F00095E069E675E00E94DB1087E090E00E94DD
:10050000F90480E091E00E945311789410924F0119
:1005100010925001109251011092520188EC0E94E9
:100520007B05139A84EF0E94B50184E60E947B0547
:100530000E94100B0E94BA0A0E94CD070E948107F8
:10054000F7CFDF93CF9300D0CDB7DEB7898380E7B5
:1005500061E0AE014F5F5F4F0E9437070F900F9031
:10056000CF91DF9108951F920F920FB60F920BB6A5
:100570000F9211242F933F934F935F936F937F9329
:100580008F939F93AF93BF93EF93FF93DF93CF939B
:1005900000D0CDB7DEB780915301882309F046C063
:1005A00066997DC080914F01882371F4039977C0CB
:1005B00081E080934F0110925001109251011092EE
:1005C0003401109233016BC030915001383098F4EF
:1005D000039B0DC081E090E0032E02C0880F991F9D
:1005E0000A94E2F720915101282B209351013F5F9B
:1005F0003093500154C0383021F489E08093500189
:100600004EC010924F0180915601803F51F480916D
:100610005101898380E761E0AE014F5F5F4F0E9427
:100620003707809151018093560139C0669B28C0DD
:10063000409150014423F9F0493029F4809154014C
:100640008823C9F016C04A3011F40B9812C080916B
:100650002E018F5F80932E012091550130E0842F71
:1006600090E0019702C0359527958A95E2F720FF23
:1006700002C0139A01C013984F5F409350010FC0FE
:10068000809150018B3059F4109255011092530112
:10069000039902C081E401C08EE40E9445050F90D9
:1006A0000F90CF91DF91FF91EF91BF91AF919F910B
:1006B0008F917F916F915F914F913F912F910F900B
:1006C0000BBE0F900FBE0F901F9018958F929F92A8
:1006D000AF92BF92CF92DF92EF92FF920F931F9350
:1006E000DF93CF93CDB7DEB763970FB6F894DEBF35
:1006F0000FBECDBF8A82F92D9B82AC82BD82CE8295
:10070000DF82E886F9860A871B872C873D874E871C
:100710005F87688B798B8A8B9B8B1982F43251F1BE
:10072000F53290F4F03209F446C0F13238F4F23088
:1007300009F41EC1F03109F020C148C0F13281F145
:10074000F23209F01AC121C0F33309F477C0F4334F
:1007500038F4F53209F485C0F23309F00EC166C0F1
:10076000F03509F4A4C0F03609F4D5C0F43309F02B
:1007700004C18AC005E0E02EF12CEC0EFD1E8E01B6
:100780000A0D111D0B5F1F4F4DC015E0E12EF12C1E
:10079000EC0EFD1E8E010A0D111D0B5F1F4F38C0A0
:1007A000B5E0EB2EF12CEC0EFD1E8E010A0D111D95
:1007B0000B5F1F4F23C0A5E0EA2EF12CEC0EFD1EAF
:1007C0008E010A0D111D0B5F1F4F0FC06E814F81EF
:1007D0008D8190E070E050E00E946A09CEC0F70180
:1007E00081917F0160E20E940701E016F106B9F7EE
:1007F000C4C0F70181917F010E945D01E016F106FE
:10080000C1F7BBC0F70181917F0162E20E9407013D
:10081000E016F106B9F7B1C0F70181917F0164E2FA
:100820000E940701E016F106B9F7A7C011E0812F79
:100830000E945D011F5F1D30D1F79FC007E311E0EB
:10084000FF24F394F80180819181809719F48F2D12
:100850000E945D01F3940E5F1F4FFDE0FF1691F7BC
:100860008CC007E311E0FF24F394F80180819181AB
:10087000849719F48F2D0E945D01F3940E5F1F4F32
:10088000FDE0FF1691F779C007E311E0FF24F39430
:10089000F80180819181829719F48F2D0E945D016A
:1008A000F3940E5F1F4FFDE0FF1691F766C08D8138
:1008B0008230E1F0833030F4882351F0813009F048
:1008C0005CC00DC08330C9F0843009F056C01CC034
:1008D0008E81813011F4109A50C010984EC08E81D4
:1008E000813011F4119A49C0119847C08E8181302E
:1008F00011F4129A42C0129840C08E81813011F4D6
:100900008D9A3BC08D9839C08E81813011F48C9ABC
:1009100034C08C9832C06FB18FB12FB14FB130E07D
:1009200021703070220F331F220F331F90E0887028
:1009300090709595879595958795282B50E04270F6
:10094000507073E0440F551F7A95E1F7242B70E047
:10095000647070707595679575956795262B2983DA
:1009600080E661E0AE014F5F5F4F0E94370705C030
:1009700084E191E00E9453112F9863960FB6F8948A
:10098000DEBF0FBECDBFCF91DF911F910F91FF90C2
:10099000EF90DF90CF90BF90AF909F908F90089591
:1009A00014BC85B3836085BBEEE6F0E08081836094
:1009B00080838DE084BD16BC8EE087BD08958FEFE7
:1009C00081B98FE084B98CEF87B98EE08AB980E372
:1009D00080BB80E180936A00EE9A08958FE090E0FA
:1009E0000E94F90484E095E068E275E00E94DB1063
:1009F00008959093C5008093C40086E08093C20060
:100A000088E98093C1000895982F8091C00085FFE8
:100A1000FCCF9093C60080E00895FC0120E030E018
:100A200070E00AC090818091C00085FFFCCF3196B4
:100A30009093C6002F5F3F4F261737079CF380E047
:100A400008958091C00087FFFCCF8091C600089573
:100A50008091C00087FFFCCF9091C6008091C000BC
:100A600085FFFCCF9093C600892F08958091C00028
:100A7000807808959093CD008093CC0086E0809399
:100A8000CA0088E18093C9000895982F8091C8001A
:100A900085FFFCCF9093CE0080E00895FC0120E01C
:100AA00030E070E00AC090818091C80085FFFCCFE3
:100AB00031969093CE002F5F3F4F261737079CF358
:100AC00080E008958091C80087FFFCCF8091C60028
:100AD00008958091C80087FFFCCF9091CE0080914F
:100AE000C80085FFFCCF9093CE00892F0895809198
:100AF000C8008078089526E63EE0E22FF32F319774
:100B0000F1F78A95D1F7089590E04AEF26E63EE0A6
:100B100019C0E22FF32F3197F1F74A95D1F7E22F61
:100B2000F32F3197F1F74A95D1F7E22FF32F319751
:100B3000F1F74A95D1F7E22FF32F3197F1F74A9564
:100B4000D1F79F5F981708F4E4CF0895E0916E0104
:100B5000F0916F018EEF0995E0916E01F0916F01B8
:100B60008EEF0995E0916E01F0916F018BEF099581
:100B7000E0916E01F0916F018BEF0995E0916E01AC
:100B8000F0916F0180E00995E0916E01F0916F01A5
:100B90008DEF09950895E0916E01F0916F018EEF50
:100BA0000995E0916E01F0916F018EEF0995E0914A
:100BB0006E01F0916F018AEF0995E0916E01F0915D
:100BC0006F018AEF0995E0916E01F0916F0180E06D
:100BD0000995E0916E01F0916F018DEF09950895EF
:100BE0007F928F929F92AF92BF92CF92DF92EF92BD
:100BF000FF920F931F93DF93CF93CDB7DEB762972A
:100C00000FB6F894DEBF0FBECDBF782C8982892C39
:100C10009A82AB82BC82CD82DE82EF82F88609871F
:100C20001A872B873C874D875E876F87788B898BE8
:100C30009A8BE0916E01F0916F018EEF0995E09132
:100C40006E01F0916F018EEF0995E0916E01F091C8
:100C50006F01872D0995E0916E01F0916F01882D4C
:100C60000995E0916E01F0916F018A2D099584E05C
:100C7000E82EF12CEC0EFD1E8E010A0D111D0C5FED
:100C80001F4F04C0D7018D917D010995E0916E0140
:100C9000F0916F01E016F106A9F78DEF09956296C4
:100CA0000FB6F894DEBF0FBECDBFCF91DF911F917D
:100CB0000F91FF90EF90DF90CF90BF90AF909F90FB
:100CC0008F907F9008951F920F920FB60F9211246C
:100CD0000F900FBE0F901F9018951F920F920FB696
:100CE0000F920BB60F9211247F928F929F92AF9228
:100CF000BF92CF92DF92EF92FF920F931F932F93A9
:100D00003F934F935F936F937F938F939F93AF9393
:100D1000BF93EF93FF937090C60090915B019F5F2C
:100D200090935B0180915901882309F474C0943039
:100D300008F452C08DEF781609F04EC0292F30E02C
:100D4000F9013497A0905E018A2D90E08E179F07DD
:100D5000C9F580905C0180915A01881669F58091EF
:100D60005D018B3F29F40E94B4081092360126C021
:100D7000982EB0905F01C0906001D0906101E0902A
:100D80006201F0906301009164011091650120916E
:100D9000660130916701409168015091690160914D
:100DA0006A0170916B0180916C0190916D010E94BC
:100DB000D2080E94A60502C00E94CB05809159016D
:100DC0008E7F31C02331310594F5E45AFE4F738292
:100DD00080915A01835013C0923039F0933051F012
:100DE000913081F470925C0122C070925D0170922A
:100DF0005A011DC070925E0180915A01870D809347
:100E00005A0115C0E92FF0E0E331F10584F4E55A09
:100E1000FE4F7082F1CF8EEF781649F48091350144
:100E20008E3F29F481E08093590110925B0170920A
:100E30003501FF91EF91BF91AF919F918F917F917C
:100E40006F915F914F913F912F911F910F91FF9063
:100E5000EF90DF90CF90BF90AF909F908F907F905A
:100E60000F900BBE0F900FBE0F901F9018958F9292
:100E70009F92AF92BF92CF92DF92EF92FF920F9329
:100E80001F93DF93CF93CDB7DEB762970FB6F89479
:100E9000DEBF0FBECDBF982EA62E862E880EDE0199
:100EA0001496FA0103C08191880E8D938E2F841BB6
:100EB0008A15C8F38982AB829A82BC80CD80DE809D
:100EC000EF80F88409851A852B853C854D855E85E4
:100ED0006F85788989899A890E94350862960FB64C
:100EE000F894DEBF0FBECDBFCF91DF911F910F9160
:100EF000FF90EF90DF90CF90BF90AF909F908F903A
:100F000008958F929F92AF92BF92CF92DF92EF920D
:100F1000FF920F931F93DF93CF93CDB7DEB7629706
:100F20000FB6F894DEBF0FBECDBF0E94C308882362
:100F300001F5809136018823E1F4CE0101960E94EB
:100F40009C0889809A80AB80BC80CD80DE80EF8059
:100F5000F88409851A852B853C854D855E856F85CE
:100F6000788989899A890E94F00581E08093360109
:100F700001C080E062960FB6F894DEBF0FBECDBF11
:100F8000CF91DF911F910F91FF90EF90DF90CF9065
:100F9000BF90AF909F908F9008956F927F928F92A5
:100FA0009F92AF92BF92CF92DF92EF92FF920F93F8
:100FB0001F93DF93CF93CDB7DEB762970FB6F89448
:100FC000DEBF0FBECDBF0E946009882311F080E014
:100FD0001FC06090570170905801CE0101960E9489
:100FE000390989809A80AB80BC80CD80DE80EF801B
:100FF000F88409851A852B853C854D855E856F852E
:10100000788989899A89F30109950E94510981E0BB
:1010100062960FB6F894DEBF0FBECDBFCF91DF91C1
:101020001F910F91FF90EF90DF90CF90BF90AF9006
:101030009F908F907F906F90089590935801809328
:10104000570170936F0160936E0110925B011092D3
:101050005A01109259010E945B090E94BE0808952E
:10106000109224021092250208958F929F92AF92BF
:10107000BF92CF92DF92EF92FF920F931F93DF9375
:10108000CF93CDB7DEB762970FB6F894DEBF0FBE31
:10109000CDBF89829A82AB82BC82CD82DE82EF8212
:1010A000F88609871A872B873C874D875E876F876D
:1010B000788B898B9A8B20912502822F90E0880F64
:1010C000991FFC0133E0EE0FFF1F3A95E1F7E80F9F
:1010D000F91FE059FE4FDE01119682E10D90019259
:1010E0008150E1F7822F8F5F809325028A3010F0C4
:1010F000109225029091250280912402981719F4EC
:101100009F5F90932402809124028A3010F0109205
:10111000240262960FB6F894DEBF0FBECDBFCF910A
:10112000DF911F910F91FF90EF90DF90CF90BF90D4
:10113000AF909F908F900895AC018091240290E031
:10114000880F991FFC0163E0EE0FFF1F6A95E1F71E
:10115000E80FF91FDA01E059FE4F82E101900D928C
:101160008150E1F7CA010895809124028F5F809336
:1011700024028A3010F01092240208951092240262
:1011800010922502089520E090912402809125027A
:10119000981709F421E0822F08951092DA02109234
:1011A000DB0208958F929F92AF92BF92CF92DF920F
:1011B000EF92FF920F931F93DF93CF93CDB7DEB7DC
:1011C00062970FB6F894DEBF0FBECDBF89829A82B8
:1011D000AB82BC82CD82DE82EF82F88609871A87D5
:1011E0002B873C874D875E876F87788B898B9A8B9F
:1011F0002091DB02822F90E0880F991FFC0133E0E1
:10120000EE0FFF1F3A95E1F7E80FF91FEA5DFD4F7A
:10121000DE01119682E10D9001928150E1F7822F5B
:101220008F5F8093DB028A3010F01092DB02909186
:10123000DB028091DA02981719F49F5F9093DA022B
:101240008091DA028A3010F01092DA0262960FB6BC
:10125000F894DEBF0FBECDBFCF91DF911F910F91EC
:10126000FF90EF90DF90CF90BF90AF909F908F90C6
:101270000895AC018091DA0290E0880F991FFC017B
:1012800063E0EE0FFF1F6A95E1F7E80FF91FDA013F
:10129000EA5DFD4F82E101900D928150E1F7CA01B4
:1012A00008958091DA028F5F8093DA028A3010F01D
:1012B0001092DA0208951092DA021092DB02089579
:1012C00020E09091DA028091DB02981709F421E086
:1012D000822F0895E091DC02F091DD029EEF908371
:1012E000E091DC02F091DD029183E091DC02F0916B
:1012F000DD028283E091DC02F091DD02638320E075
:1013000030E00AC0A20FB31FFA01E20FF31F808181
:1013100014968C932F5F3F4FA091DC02B091DD02B9
:101320002617370778F3A60FB71F8DEF14968C9307
:101330006B5F7F4F7093E1026093E00281E08093E6
:10134000E6020895E091DC02F091DD028EEF8083E9
:10135000E091DC02F091DD028183E091DC02F0910A
:10136000DD028AEF8283E091DC02F091DD021382DC
:10137000E091DC02F091DD028DEF848385E090E066
:101380009093E1028093E00281E08093E602089569
:10139000E091DC02F091DD028EEF8083E091DC02CF
:1013A000F091DD028183E091DC02F091DD028BEFB0
:1013B0008283E091DC02F091DD021382E091DC0295
:1013C000F091DD028DEF848385E090E09093E1025F
:1013D0008093E00281E08093E6020895E091DC02D0
:1013E000F091DD028EEF8083E091DC02F091DD026E
:1013F0008183E091DC02F091DD028CEF8283E09149
:10140000DC02F091DD0221E02383E091DC02F09127
:10141000DD028DEF848385E090E09093E10280937C
:10142000E0022093E60208958091E702817008951A
:101430001F920F920FB60F9211240F900FBE0F90B4
:101440001F9018951F920F920FB60F920BB60F9226
:1014500011242F933F934F935F936F937F938F93B9
:101460009F93EF93FF935091CE004091E70241FF8D
:1014700040C05D3FC9F42091EA023091EB02225056
:1014800030408091E90290E02817390769F4809193
:10149000E4029091E5029093E3028093E2024460BB
:1014A0004D7F4093E70255C08091EA029091EB0294
:1014B000009719F0019751F403C05093E8020FC050
:1014C0008091E902850F8093E90209C0E091E20270
:1014D000F091E3025193F093E302E093E2028091F2
:1014E000EA029091EB0201969093EB028093EA025C
:1014F00030C0E091E202F091E3022091E4023091E9
:10150000E502BF01621B730B16161706ECF45E3F73
:1015100099F4829131968E3F79F43093E3022093CF
:10152000E2024B7F42604093E7021092EB0210927E
:10153000EA021092E9020DC0603871052CF0309378
:10154000E3022093E20205C05193F093E302E0939B
:10155000E202FF91EF919F918F917F916F915F9147
:101560004F913F912F910F900BBE0F900FBE0F9098
:101570001F9018958091E70282FF51C08091E80288
:101580008031D9F4E091E402F091E502428180815A
:10159000618150E00E943707E091DC02F091DD02AA
:1015A0008EEF8083E091DC02F091DD028183E09197
:1015B000DC02F091DD028AEF10C0E091DC02F091D4
:1015C000DD028EEF8083E091DC02F091DD02818309
:1015D000E091DC02F091DD028BEF8283E091DC028E
:1015E000F091DD021382E091DC02F091DD028DEFDB
:1015F000848385E090E09093E1028093E00281E0B3
:101600008093E6028091E7028B7F8093E7028091CE
:10161000E4029091E5029093E3028093E202089540
:10162000CF93DF938091E602813011F5C0E0D0E0E6
:101630000AC0E091DE02F091DF02EC0FFD1F808115
:101640000E94450521968091E0029091E102C81721
:10165000D90778F38091DE029091DF029093DD024A
:101660008093DC021092E1021092E0021092E602F6
:10167000DF91CF9108950F931F9380E890E00E942F
:10168000EB0E02EE12E08093E2029093E30280936D
:10169000E402F801938384E190E00E94EB0EF801EC
:1016A00036978083918304501040F80180839183A2
:1016B0001092E6028091E70281608093E7021F9119
:1016C0000F910895A1E1B0E0E8E6FBE00C94091267
:1016D0003C017F876E876A01FC0117821682838135
:1016E00081FD03C06FEF7FEF71C39E012F5F3F4FFE
:1016F000398B288BF3012381EE85FF8523FD8591AE
:1017000023FF8191FF87EE87882309F45CC385322C
:1017100051F4EE85FF8523FD859123FF8191FF879D
:10172000EE87853229F490E0B3010E942711E2CFC1
:10173000982F10E0882499241032B0F49B3269F07D
:101740009C3228F4903251F0933271F40BC09D32E8
:1017500039F0903349F4116028C01260146025C03C
:10176000186023C0106121C017FD2AC0892F805343
:101770008A3078F416FF06C0FAE09F9E902C112460
:10178000980E13C03AE0839E802C1124880E1062BC
:101790000CC09E3221F416FD16C3106406C09C36A0
:1017A00011F4106802C0983659F4EE85FF8523FDC8
:1017B000959123FF9191FF87EE87992309F0BCCF84
:1017C000892F8554833020F4812F8061905E07C07B
:1017D000892F8556833008F0A1C1812F8F7E86FD29
:1017E00002C076E0972E6FE3F62EF822953619F4B4
:1017F000F0E4FF2A07C0963619F420E8F22A02C066
:1018000091109A94F7FE0BC03BE3391520F427E0C2
:101810005CE3B52E0EC0B92CB39427E00AC047E0B4
:10182000491528F427E0BB2447E0942E02C0292D57
:10183000BB24C60104969D878C87F6016081718167
:1018400082819381AE014F5F5F4F0B2D0E94ED0FA0
:101850006C010981202E332400FF04C003FD02C067
:101860001DE209C0F1FE02C01BE205C0F2FC02C08D
:1018700010E001C010E2C1018C709070892BB9F1A9
:10188000112311F483E001C084E0881510F088244E
:101890000AC0881AF3FC07C080E290E0B3010E94FE
:1018A00027118A94C9F7112329F0812F90E0B30101
:1018B0000E94271123FE03C004E910E00EC008E9CE
:1018C00010E00BC0E114F10409F0805290E0B30184
:1018D0000E9427110F5F1F4F05C0EF2CFF24F0E17E
:1018E000EF22FF24F8018491882361F714C1F7FEE9
:1018F00012C0BC0C24FE04C08A81813309F4BA945E
:101900001B141CF0BB24B3942DC0F8E0FB1550F55C
:1019100038E0B32E27C0F6FC25C0892D90E08C1549
:101920009D054CF02CEFC2162FEFD20624F030E8C4
:10193000F32A01C09A94992049F0E2E0F0E0EC0F1C
:10194000FD1FE90DF11D80818033A1F3F7FE0AC070
:10195000B92CB394892D90E0C816D90614F09924B7
:1019600001C09C18F7FC03C025E030E009C01C143E
:101970001D041CF021E030E003C096012F5F3F4FB3
:10198000112311F02F5F3F4F992029F0892D90E00E
:101990000196280F391F882D90E02817390714F079
:1019A000882401C0821A4F2C5524C201897090707E
:1019B000892B39F008C080E290E0B3010E94271122
:1019C0008A948820C1F7112329F0812F90E0B30178
:1019D0000E94271143FE07C008C080E390E0B301D6
:1019E0000E9427118A948820C1F7F7FE46C086011D
:1019F000D7FE02C000E010E076010894E11CF11C63
:101A0000E01AF10A41E050E04C0F5D1FE40EF51EB4
:101A100026014B185108892D90E0AA24BB24A81A4E
:101A2000B90A5FEF0F3F150729F48EE290E0B3018A
:101A30000E942711C016D10634F0401651061CF43E
:101A4000F701808101C080E3015010400894E11C3F
:101A5000F11C0A151B052CF090E0B3010E94271120
:101A6000E0CF0C151D0539F49A81963318F495339F
:101A700011F424FE81E390E04BC08A81813309F0A8
:101A80000F7E90E0B3010E9427119920A1F08EE211
:101A900090E0B3010E94271112E0E1E0F0E0EC0FCA
:101AA000FD1FE10FF11D1F5F808190E0B3010E94D7
:101AB00027119A9491F744FC03C085E690E002C098
:101AC00085E490E0B3010E942711D7FC05C0C11442
:101AD000D10441F404FF06C0D094C194D108D3943A
:101AE0008DE201C08BE290E0B3010E94271180E3F8
:101AF00005C08F5F26EF3FEFC20ED31E3AE0C3163C
:101B0000D104BCF790E0B3010E942711C601C09632
:101B1000B3010E942711CC84DD8452C1933631F089
:101B2000933799F0933509F059C023C0F6018081AD
:101B300089835E010894A11CB11C22E030E0C20E32
:101B4000D31E21E0E22EF12C12C0F601A080B1805C
:101B500016FD03C06FEF7FEF02C0692D70E022E039
:101B600030E0C20ED31EC5010E94D0107C011F7749
:101B700013C0F601A080B18016FD03C06FEF7FEFA8
:101B800002C0692D70E022E030E0C20ED31EC50114
:101B90000E94C5107C01106813FF07C01BC080E2C3
:101BA00090E0B3010E9427118A94882D90E0E816F6
:101BB000F906A8F30FC0F50117FD859117FF819174
:101BC0005F0190E0B3010E94271181108A9408946C
:101BD000E108F108E114F10471F7F2C0943611F054
:101BE000993689F517FF08C0F601208131814281BD
:101BF000538184E090E00AC0F601808191819C01CC
:101C0000442737FD4095542F82E090E0C80ED91E3E
:101C10009FE6F92EF12257FF09C050954095309567
:101C200021953F4F4F4F5F4F90E8F92ACA01B90104
:101C3000AE014F5F5F4F2AE030E00E948811E82E2E
:101C4000E889EE1A41C0953721F41F7E2AE030E082
:101C50001CC0197F9F3661F0903720F4983509F049
:101C6000B2C00FC0903739F0983709F0ACC004C04B
:101C700028E030E00AC0106114FD146020E130E07B
:101C800004C014FD166020E132E017FF08C0F60121
:101C9000608171818281938144E050E008C0F60147
:101CA00080819181BC0180E090E042E050E0C40E70
:101CB000D51EAE014F5F5F4F0E948811E82E5889F4
:101CC000E51A8FE7F82EF122F6FE0BC08EEFF82210
:101CD000E91438F4F4FE07C0F2FC05C09FEEF922C7
:101CE00002C01E2D01C0192DF4FE0DC0FE01EE0D27
:101CF000F11D8081803319F4E9EEFE2208C01F5FD8
:101D0000F2FE05C003C08F2D867809F01F5F0F2DEE
:101D1000F3FC14C0F0FE0FC0181510F09E2C0BC081
:101D20009E2C980C911A182D06C080E290E0B30109
:101D30000E9427111F5F1815C0F304C0181510F476
:101D4000811A01C0882404FF0FC080E390E0B30132
:101D50000E94271102FF1DC001FD03C088E790E02B
:101D60000EC088E590E00BC0802F867891F001FFCF
:101D700002C08BE201C080E2F7FC8DE290E0B3018B
:101D80000E94271106C080E390E0B3010E94271152
:101D90009A94E914C0F3EA94E1E0F0E0EC0FFD1F3F
:101DA000EE0DF11D808190E0B3010E942711EE201D
:101DB00091F706C080E290E0B3010E9427118A9457
:101DC0008820C1F797CCF30166817781CB016196BA
:101DD000E2E10C942512CF93DF93BC018230910590
:101DE00010F462E070E0A091F002B091F102ED0118
:101DF000E0E0F0E040E050E021C088819981861762
:101E0000970769F48A819B81309719F093838283C5
:101E100004C09093F1028093F002FE0134C0681771
:101E2000790738F44115510519F08417950708F41E
:101E3000AC01FE018A819B819C01E9012097E9F6B2
:101E400041155105A9F1CA01861B970B049708F4A7
:101E5000BA01E0E0F0E02AC08D919C9111978417BF
:101E60009507F9F46417750781F412968D919C918A
:101E70001397309719F09383828304C09093F102F3
:101E80008093F002FD0132964CC0CA01861B970B6D
:101E9000FD01E80FF91F6193719302978D939C9355
:101EA00040C0FD01828193819C01D9011097A1F668
:101EB0008091EE029091EF02892B41F480912A01EA
:101EC00090912B019093EF028093EE0240912C01B0
:101ED00050912D014115510541F44DB75EB78091E8
:101EE000280190912901481B590B2091EE02309155
:101EF000EF02CA01821B930B8617970780F0AB0194
:101F00004E5F5F4F8417950750F0420F531F509359
:101F1000EF024093EE02F9016193719302C0E0E099
:101F2000F0E0CF01DF91CF910895CF93DF93009739
:101F300009F450C0EC0122971B821A82A091F00292
:101F4000B091F102109709F140E050E0AC17BD07E5
:101F500008F1BB83AA83FE0121913191E20FF31FA7
:101F6000AE17BF0779F48D919C911197280F391FF7
:101F70002E5F3F4F3983288312968D919C91139742
:101F80009B838A834115510571F4D093F102C0936C
:101F9000F00220C012968D919C911397AD0100978D
:101FA00011F0DC01D3CFFA01D383C28321913191A7
:101FB000E20FF31FCE17DF0769F488819981280F9C
:101FC000391F2E5F3F4FFA01318320838A819B8125
:101FD00093838283DF91CF910895283008F027E022
:101FE0003327DA01990F311D87FD91600096610555
:101FF000710539F432602E5F3D9330E32A95E1F7A5
:1020000008959F3F30F080387105610509F03C5F0D
:102010003C5F3D93913008F08068911DDF93CF9332
:102020001F930F93FF92EF92192F987F9695E92FA8
:1020300096959695E90FFF27EA50FF4F992733278A
:10204000EE24FF24A701E70105900894079428F4E3
:10205000360FE71EF81E491F511D660F771F881F98
:10206000991F0694A1F70590079428F4E70EF81E2F
:10207000491F561FC11D770F881F991F661F0694A1
:10208000A1F70590079428F4F80E491F561FC71FA3
:10209000D11D880F991F661F771F0694A1F7059021
:1020A000079420F4490F561FC71FD81F990F661FAA
:1020B000771F881F0694A9F784911095177041F037
:1020C000D695C79557954795F794E7941A95C1F714
:1020D000ECE9F0E068941590159135916591959132
:1020E00005907FE27395E118F10A430B560BC90B7B
:1020F000D009C0F7E10CF11E431F561FC91FD01DA8
:102100007EF4703311F48A95E6CFE894015030F0F4
:10211000080F0AF40027021708F4202F2395022F36
:102120007A3328F079E37D932A95E9F710C07D93FF
:102130002A9589F60694979567953795179517947C
:10214000E118F10A430B560BC90BD00998F02395FF
:102150007E9173957A3308F070E37C932013B8F77F
:102160007E9170617D9330F0839571E37D9370E390
:102170002A95E1F71124EF90FF900F911F91CF91D5
:10218000DF91992787FD90950895FC010590615096
:1021900070400110D8F7809590958E0F9F1F08957D
:1021A000FC016150704001900110D8F78095909526
:1021B0008E0F9F1F08950F931F93CF93DF938C0172
:1021C000EB01009731F46115710519F420E030E05E
:1021D00038C081E090E06EE070E00E94E611FC0102
:1021E0009C01009771F180E88383209771F0D38779
:1021F000C28781E883838091F2029091F302892B58
:1022000021F4F093F302E093F20201151105C9F0F5
:10221000118700878381826083838091F40290918B
:10222000F502892B71F4F093F502E093F4028091AA
:10223000F6029091F702892B21F4F093F702E093D4
:10224000F602C901DF91CF911F910F9108950F936D
:102250001F93CF93DF938C01EB018B8181FF1BC018
:1022600082FF0DC02E813F818C819D812817390707
:1022700064F4E881F9810193F983E88306C0E88575
:10228000F985802F0995892B31F48E819F810196E4
:102290009F838E8302C00FEF1FEFC801DF91CF91A4
:1022A0001F910F9108950F931F93CF93DF938C018C
:1022B000E091F402F091F502838181FF21C0C0E03A
:1022C000D0E00DC0E091F402F091F5022085318557
:1022D000BF01F9010995892B11F0CFEFDFEFF8016C
:1022E00081918F01882371F7E091F402F091F5025A
:1022F000208531858AE0BF01F9010995892B11F00C
:10230000CFEFDFEFCE01DF91CF911F910F910895B5
:10231000FA01AA27283051F1203181F1E8946F9316
:102320006E7F6E5F7F4F8F4F9F4FAF4FB1E03ED0BC
:10233000B4E03CD0670F781F891F9A1FA11D680F5A
:10234000791F8A1F911DA11D6A0F711D811D911D8D
:10235000A11D20D009F468943F912AE0269F112402
:102360003019305D3193DEF6CF010895462F477066
:10237000405D4193B3E00FD0C9F7F6CF462F4F70C1
:10238000405D4A3318F0495D31FD4052419302D01F
:10239000A9F7EACFB4E0A6959795879577956795C5
:1023A000BA95C9F700976105710508959B01AC01C5
:1023B0000A2E06945795479537952795BA95C9F7EC
:1023C000620F731F841F951FA01D08950F931F9305
:1023D000CF93DF93689F8001699F100D789F100D48
:1023E0001124C8010E94EB0EEC01009729F060E077
:1023F00070E0A8010E940212CE01DF91CF911F91DF
:102400000F910895DC0101C06D9341505040E0F7F9
:1024100008952F923F924F925F926F927F928F9288
:102420009F92AF92BF92CF92DF92EF92FF920F9363
:102430001F93CF93DF93CDB7DEB7CA1BDB0B0FB66D
:10244000F894DEBF0FBECDBF09942A88398848882A
:102450005F846E847D848C849B84AA84B984C884C0
:10246000DF80EE80FD800C811B81AA81B981CE0FB7
:10247000D11D0FB6F894DEBF0FBECDBFED0108959C
:04248000F894FFCFFE
:102484004D6F74686572626F6172642073746172F7
:102494007465640050554C4C494E472054484520BF
:0E24A400504C5547000100FE2000F8020000D9
:00000001FF
