:100000000C94EC000C9409010C9409010C94090166
:100010000C94D0040C9409010C9409010C9409016E
:100020000C9409010C9409010C9418010C94090119
:100030000C9409010C9485060C945A040C946404E5
:100040000C9434030C9409010C9409010C940901DB
:100050000C94090107634236B79BD8A71A39685632
:1000600018AEBAAB558C1D3CB7CC5763BD6DEDFDDA
:10007000753EF6177231BF000000803F0800000097
:10008000BE922449123EABAAAA2ABECDCCCC4C3E8D
:1000900000000080BEABAAAAAA3E00000000BF007C
:1000A0000000803F0000000000084178D3BB438778
:1000B000D1133D190E3CC3BD4282AD2B3E68EC828C
:1000C00076BED98FE1A93E4C80EFFFBE01C4FF7F11
:1000D0003F00000000006E616E00696E6600004027
:1000E0007A10F35A00A0724E18090010A5D4E80047
:1000F00000E87648170000E40B54020000CA9A3B5F
:10010000000000E1F50500008096980000004042E4
:100110000F000000A0860100000010270000000072
:10012000E803000000006400000000000A00000076
:1001300000000100000000002C76D888DC674F0822
:1001400023DFC1DFAE59E1B1B796E5E3E453C63A28
:10015000E651997696E8E6C28426EB898C9B62ED9F
:10016000407C6FFCEFBC9C9F40F2BAA56FA5F49059
:10017000055A2AF75C936B6CF9676DC11BFCE0E4D0
:100180000D47FEF520E6B500D0ED902E0300943526
:1001900077050080841E080000204E0A000000C879
:1001A0000C333333330F986E12831141EF8D2114CA
:1001B000893BE65516CFFEE6DB18D1844B381BF79A
:1001C0007C1D901DA4BBE424203284725E22810039
:1001D000C9F124ECA1E53D2711241FBECFE5D8E0ED
:1001E000DEBFCDBF10E0A0E6B0E0E0E3FAE202C07F
:1001F00005900D92AA3DB107D9F713E0AAEDB0E042
:1002000001C01D92A83AB107E1F70E94B9010C9410
:1002100016150C94000083B38695869580958F7093
:10022000089580B386958695869580958770089504
:100230001F920F920FB60F9211242F933F935F934B
:100240006F937F938F939F93AF93BF938091E300BE
:100250002091DA003091DB00882321F4C90164EF9A
:1002600071E003C0C90168EE73E00E945811892B48
:1002700061F48091DE009091DF00892B31F481E000
:1002800090E09093DF008093DE002091DA003091BF
:10029000DB00C90168EE73E00E945811892B19F444
:1002A00081E08093E0008091E1009091E20001966E
:1002B0009093E2008093E1008091DC009091DD005A
:1002C00001969093DD008093DC002F5F3F4F3093C9
:1002D000DB002093DA00BF91AF919F918F917F91C6
:1002E0006F915F913F912F910F900FBE0F901F90D4
:1002F000189580E00E9419039093150180931401D2
:1003000081E00E94190390931701809316010E94C7
:1003100043030E94700360931C0170931D0180933E
:100320001E0190931F010895DF93CF93CDB7DEB7E1
:1003300065970FB6F894DEBF0FBECDBFCE01019614
:100340000E942F0989819D819A3F19F40E947D04A2
:1003500005C09B3F19F46F810E9477050E944609F2
:1003600065960FB6F894DEBF0FBECDBFCF91DF917B
:1003700008952F923F924F925F926F927F928F9249
:100380009F92AF92BF92CF92DF92EF92FF920F9324
:100390001F93CF93DF93F8940E94DE0384E60E94BC
:1003A0001B0A80B386958695869580958770809385
:1003B000EB0083B38695869580958F700E94EC0341
:1003C0000E94FA030E941B0A0E94EC020E943F084E
:1003D0000E94FA03813011F469E102C080E060E01C
:1003E0000E9420040E94D1030E94C70384E00E945F
:1003F000FF0283E00E94040386EC9EE09093ED00F0
:100400008093EC00909301018093000180B3869566
:1004100086958695809587708093EB0010921901E0
:100420001092180186E08093EA0081E799E06AE87B
:1004300079E00E94CE1278949BE9292E90E0392E23
:1004400084EB482E80E0582EC5ECD0E00E945C0979
:10045000882311F40E9494010E94E208882311F479
:100460000E9418088091E000813081F70E94790194
:1004700000D000D080E690E0EDB7FEB79283818394
:100480008091140190911501948383830E944613F7
:1004900081E790E0EDB7FEB79283818380911601EA
:1004A00090911701948383830E94461360911401F5
:1004B0007091150180E090E00E949A0E2AE037EDDD
:1004C00043E25BE30E94280F5B016C01609116011F
:1004D0007091170180E090E00E949A0E2AE037EDBB
:1004E00043E25BE30E94280F7B018C01C601B5014A
:1004F00020E030E040E85FE30E94CD0D20E030E0F6
:1005000042E252E40E94280F3B014C0100D082E8F5
:1005100090E0EDB7FEB792838183A382B482C58257
:10052000D6820E944613EDB7FEB732822182C70100
:10053000D80183839483A583B6830E944613EDB7C5
:10054000FEB75282418263827482858296820E94C3
:1005500046138DB79EB706960FB6F8949EBF0FBE92
:100560008DBFC401B30120E030E040E251E40E94BD
:10057000320E9B01AC0160E070E080E291E40E94E9
:100580008B0F9B01AC0100D000D000D00DB71EB77F
:100590000F5F1F4FEDB7FEB7D283C183CA01B90108
:1005A00020E030E04AE754E40E94320EF801628312
:1005B0007383848395830E9446138DB79EB70696F6
:1005C0000FB6F8949EBF0FBE8DBF81ED90E00E94E4
:1005D0005B131092E0003ACF379A359886B1887F46
:1005E000866086B987B18F73806487B93D98339AE6
:1005F000109220017894089533983798089596B111
:10060000987F982B96B9089597B18295880F880F97
:10061000807C9F73982B97B9089597B18F71907EC6
:10062000892B87B90895349A369A089586B18074D3
:1006300008951092200197B18F71907E892B87B910
:10064000349A369A3699FECF24B145B1942F80E082
:1006500030E0282B392BC90108950E941903969583
:1006600087959695879508951F920F920FB60F92D2
:1006700011248F938FEF809320018F910F900FBEE5
:100680000F901F901895209114013091150140E0B2
:1006900050E0CA01B9010E9439112091EC0030915B
:1006A000ED0040E050E00E946C113093190120935E
:1006B0001801209116013091170140E050E0CA0165
:1006C000B9010E943911209100013091010140E0EF
:1006D00050E00E946C1130931B0120931A01089581
:1006E000AF92BF92CF92DF92EF92FF920F931F9340
:1006F000CF93DF93C0911801D0911901209729F46D
:10070000E0E070E080E060E031C060911A0170913B
:100710001B0180E090E00E949A0E7B018C01BE01DB
:1007200080E090E00E949A0E9B01AC01C801B701E5
:100730000E94320E0E94DB0F7B018C0120E030E032
:1007400040E85FE30E94CE0D5B016C0160E070E069
:1007500080E89FE3A80197010E94CD0D9B01AC01A9
:10076000C601B5010E94320EE62F692F2E2F372FBA
:10077000482F562FB901CA01DF91CF911F910F91D8
:10078000FF90EF90DF90CF90BF90AF90089513BE91
:1007900089B7826089BF8DE083BF12BE8EE08CBFB7
:1007A000089515BC14BC8CE085BD88B7806888BFEF
:1007B0008EE183BD89B7806889BF08958CEF8ABBBD
:1007C0001BBA8FE187BB18BA83E084BB15BA86E8F1
:1007D00081BB8BE382BB08958093220108958091B1
:1007E0002A0190912B0123E0969587952A95E1F7B0
:1007F0008170089580912201089580912A0190913D
:100800002B01806290932B0180932A0110922F017B
:1008100010922D01089580912A0190912B018B7FD8
:10082000826090932B0180932A0110922C011092E8
:10083000E40010922E01089580912A01817008959C
:100840008823F9F040912A0150912B019A012160EF
:1008500030932B0120932A0160932701862F90E08B
:10086000880F991F880F991F909329018093280161
:1008700021FD10C04160516050932B0140932A012B
:10088000089580912A0190912B018E7F90932B01E6
:1008900080932A010895809127010895809327016C
:1008A00090E0880F991F880F991F909329018093DA
:1008B000280108951F920F920FB60F9211240F90E6
:1008C0000FBE0F901F9018951F920F920FB60F92A8
:1008D00011248F939F9380912A0190912B0186FD83
:1008E00005C0806890932B0180932A019F918F917E
:1008F0000F900FBE0F901F9018951F93DF93CF930B
:10090000CDB7DEB765970FB6F894DEBF0FBECDBF8B
:10091000182FCE0101960E94B5088A818117C1F473
:1009200080912A0190912B019D7F90932B018093C0
:100930002A010E94CC0880912A0190912B018062AB
:1009400090932B0180932A0110922F0110922D0178
:1009500065960FB6F894DEBF0FBECDBFCF91DF9185
:100960001F91089580912D018A3050F480912A01C1
:1009700090912B01806290932B0180932A0108951E
:100980000E94CC0880912A0190912B018062909363
:100990002B0180932A0110922F0110922D010895AE
:1009A0001F920F920FB60F9211242F933F934F93E4
:1009B0005F936F937F938F939F93AF93BF93EF93C7
:1009C000FF938091E500853020F00E940B04109287
:1009D000E50020912A0130912B0120FD0CC07EC042
:1009E000277F30932B0120932A010E94DB0810926D
:1009F000E7001092E60080912F018A3050F080913C
:100A00002A0190912B0191FF04C00E94B204109220
:100A10002F0180912701882399F140912101242FF2
:100A200030E080912301909124012817390768F064
:100A300080912501909126012817390730F4809183
:100A40002A0190912B01806105C080912A0190912B
:100A50002B018F7E90932B0180932A018091280196
:100A6000909129012817390740F0109221018091B7
:100A70002F018F5F80932F0103C04F5F40932101AF
:100A80002091E8003091E900C90187709070892BAE
:100A900049F48091E6009091E70001969093E70079
:100AA0008093E6002F5F3F4F3093E9002093E800EA
:100AB0008091E5008F5F8093E500FF91EF91BF91FA
:100AC000AF919F918F917F916F915F914F913F91E6
:100AD0002F910F900FBE0F901F9018958091E600F8
:100AE0009091E70080589C4008F485CF79CF1F9300
:100AF000DF93CF93CDB7DEB765970FB6F894DEBF1F
:100B00000FBECDBF182F80912A0190912B019D7FA0
:100B100090932B0180932A01CE0101960E94B50883
:100B20008A81811711F40E94B20465960FB6F89479
:100B3000DEBF0FBECDBFCF91DF911F9108958DB75E
:100B40009EB745970FB6F8949EBF0FBE8DBFADB749
:100B5000BEB71196E0E3F1E085E101900D9281507E
:100B6000E1F70E94F6088DB79EB745960FB6F89448
:100B70009EBF0FBE8DBF0895EF92FF920F93DF933C
:100B8000CF93CDB7DEB765970FB6F894DEBF0FBE33
:100B9000CDBF782F522FDE011796F70102C0819149
:100BA0008D938E2F8E198017D0F30E835D834C8327
:100BB0006A8379838DB79EB745970FB6F8949EBF29
:100BC0000FBE8DBFADB7BEB71196FE01319685E160
:100BD00001900D928150E1F70E94F6088DB79EB703
:100BE00045960FB6F8949EBF0FBE8DBF65960FB6A3
:100BF000F894DEBF0FBECDBFCF91DF910F91FF9074
:100C0000EF900895EF92FF920F931F93DF93CF938E
:100C1000CDB7DEB765970FB6F894DEBF0FBECDBF78
:100C2000182F722F213021F080912A0183FF30C0CC
:100C3000572F540F500FDE011796F70103C0819113
:100C4000580F8D938E2F8E198017C8F35B830E83F8
:100C50007D834C836A8319838DB79EB745970FB602
:100C6000F8949EBF0FBE8DBFADB7BEB71196FE0103
:100C7000319685E101900D928150E1F70E947C0848
:100C80008DB79EB745960FB6F8949EBF0FBE8DBF29
:100C900065960FB6F894DEBF0FBECDBFCF91DF9142
:100CA0001F910F91FF90EF900895EF92FF920F9395
:100CB000682F8091220140E02AEF00E0EE24FF241B
:100CC0000E9402060F91FF90EF900895EF92FF921D
:100CD0000F93DF93CF930F92CDB7DEB7982F698331
:100CE000882361F080912201692F40E02BEF01E021
:100CF0007E010894E11CF11C0E9402060F90CF9126
:100D0000DF910F91FF90EF9008951F920F920FB611
:100D10000F9211242F933F934F935F936F937F9381
:100D20008F939F93AF93BF93EF93FF931092E50040
:100D30005CB1E0912C01EF5FE0932C0160912A01FE
:100D400070912B0162FFB4C05D3F09F069C0409112
:100D50003501242F30E08E2F90E0079728173907B0
:100D600009F05EC02091310180912201281719F00D
:100D7000222309F04FC067FF4DC09091E40080919D
:100D80003201981709F03FC0809134018230A1F4FC
:100D9000423040F04150809130016091360127E3AC
:100DA00031E007C0809130016091360140E020E0E1
:100DB00030E00E94A1092EC02DB73EB7255130402A
:100DC0000FB6F8943EBF0FBE2DBFADB7BEB711969C
:100DD000E0E3F1E085E101900D928150E1F70E949E
:100DE000F608809133012DB73EB72B5E3F4F0FB60B
:100DF000F8943EBF0FBE2DBF80FF0CC08091300124
:100E00000E94550607C0222329F08091300160E03E
:100E10000E9466060E940B048DEF80932E015CC039
:100E2000E330A1F0E43028F4E13051F0E230D1F4C5
:100E30000AC0E53089F0E53060F0E63099F40FC083
:100E40005093300147C05093310144C05093320158
:100E500041C05093330126C05093340123C05093B6
:100E6000350120C0F0E0E15DFE4F508380913401F8
:100E70008130C1F414BC50932701852F90E0880F76
:100E8000991F880F991F9093290180932801109230
:100E900021016A6070932B0160932A011092E70090
:100EA0001092E6008091E400850F8093E40012C068
:100EB0005E3F81F4E23070F080912E018E3F51F45C
:100EC00010922C011092E4006D7F646070932B01EE
:100ED00060932A0150932E01FF91EF91BF91AF9142
:100EE0009F918F917F916F915F914F913F912F9142
:100EF0000F900FBE0F901F9018959F92AF92BF92C8
:100F0000CF92DF92EF92FF920F93DF93CF93CDB703
:100F1000DEB765970FB6F894DEBF0FBECDBF8091E8
:100F20002A0190912B0180648F7790932B018093FD
:100F30002A015E010894A11CB11CC5010E94B508DC
:100F4000FE800D819A808EEF0E9471098EEF0E94C3
:100F5000710989810E947109892D0E9471098B8113
:100F60000E9471098C810E947109802F0E94710971
:100F70008F2D0E947109F7E0CF2ED12CCC0EDD1EF3
:100F8000EF2CFF2486E090E0E80EF91EEA0CFB1C33
:100F900005C0F60181916F010E947109CE14DF0432
:100FA000C1F78DEF0E947109992021F00A3F11F0DD
:100FB0000B3FC9F480912A0190912B019D7F909362
:100FC0002B0180932A010E94CC0880912A019091E4
:100FD0002B01806290932B0180932A0110922F01A4
:100FE00010922D010BC080912A0190912B019260EB
:100FF00090932B0180932A0110922F0180912A0156
:1010000090912B018F7B90932B0180932A01659601
:101010000FB6F894DEBF0FBECDBFCF91DF910F9119
:10102000FF90EF90DF90CF90BF90AF909F9008958A
:1010300080912A0190912B0184FF11C081FF0FC084
:1010400085FF1CC08F7D90932B0180932A01809196
:101050002D018F5F80932D010E947D07089590FFE1
:101060000DC08F7D9E7F90932B0180932A018091EC
:101070002D018F5F80932D010E947D0708950E94AE
:10108000EF080E9475088FE090E00E946909809146
:10109000220190E0880F991F880F991F0196909365
:1010A0002401809323010197039690932601809356
:1010B0002501109227011092210180E290E0909387
:1010C0002B0180932A0110922F0110922D010E9472
:1010D0000B040E94940980912A0190912B01806851
:1010E00090932B0180932A01089510921702109279
:1010F0001802109219020895DF93CF93CDB7DEB78F
:10110000809119028F5F8093190240911802242F59
:1011100030E085E190E0289FF001299FF00D389F95
:10112000F00D1124EB5BFE4FDE01159685E10D906D
:1011300001928150E1F7842F8F5F809318028A30EB
:1011400010F01092180290911802809117029817CF
:1011500019F49F5F90931702809117028A3010F064
:1011600010921702CF91DF910895AC018091170280
:1011700090E025E130E0829FF001839FF00D929F87
:10118000F00D1124DA01EB5BFE4F85E101900D9229
:101190008150E1F7CA010895909117029F5F9093E3
:1011A0001702809119028150809319029A3010F031
:1011B00010921702089510921702109218021092BE
:1011C0001902089520E09091170280911802981753
:1011D00009F421E0822F0895809119020895109258
:1011E000EC021092ED021092EE020895DF93CF937D
:1011F000CDB7DEB78091EE028F5F8093EE02409113
:10120000ED02242F30E085E190E0289FF001299F36
:10121000F00D389FF00D1124E65EFD4FDE011596AE
:1012200085E10D9001928150E1F7842F8F5F8093CB
:10123000ED028A3010F01092ED029091ED02809153
:10124000EC02981719F49F5F9093EC028091EC02E6
:101250008A3010F01092EC02CF91DF910895AC012A
:101260008091EC0290E025E130E0829FF001839FC5
:10127000F00D929FF00D1124DA01E65EFD4F85E13D
:1012800001900D928150E1F7CA0108959091EC020E
:101290009F5F9093EC028091EE0281508093EE026A
:1012A0009A3010F01092EC0208951092EC02109215
:1012B000ED021092EE02089520E09091EC028091F0
:1012C000ED02981709F421E0822F08958091EE0233
:1012D000089590BD89B91BB886E880BD88ED8AB9AC
:1012E00008955D9BFECF8CB980E00895FC0180E0FD
:1012F00090E070E006C020815D9BFECF31962CB956
:10130000019686179707BCF380E008955F9BFECF98
:101310008CB108955F9BFECF8CB15D9BFECF8CB9E5
:1013200008958BB180780895EFEEF2E0108211827B
:10133000138212821482379683E0EE39F807B1F7F0
:1013400008951F93142F722F482F50E041505040A2
:10135000DA0193E0AA0FBB1F9A95E1F7A41BB50B26
:10136000FD01E151FD4F80836183112371F0FD0187
:10137000EC50FD4F822F932F9C01D90102C08D911B
:1013800081938A2F871B8117D0F3FA0183E0EE0F38
:10139000FF1F8A95E1F7E41BF50BE151FD4F138226
:1013A000128284818E7F84831F910895E1EFF2E0A1
:1013B00080819181019691838083379683E0E03A22
:1013C000F807B1F70895E1EFF2E03FEF20E0808108
:1013D00091818157974130F0828180FD03C0816007
:1013E0008283322F2F5F3796293189F73F3F19F4D7
:1013F00020E030E006C087E0389F900111242151A1
:101400003D4FC9010895E1EFF2E020E08081918134
:101410008157974108F02F5F379683E0E03AF8074D
:10142000A9F7822F089597E0899F900111242151F7
:101430003D4FC901089526E63EE0E22FF32F319794
:10144000F1F78A95D1F7089590E04AEF26E63EE05D
:1014500019C0E22FF32F3197F1F74A95D1F7E22F18
:10146000F32F3197F1F74A95D1F7E22FF32F319708
:10147000F1F74A95D1F7E22FF32F3197F1F74A951B
:10148000D1F79F5F981708F4E4CF0895A1E1B0E089
:10149000ECE4FAE00C9487113C017F876E876A01C7
:1014A000FC0117821682838181FD03C06FEF7FEFFD
:1014B0006FC39E012F5F3F4F398B288BF301238130
:1014C000EE85FF8523FD859123FF8191FF87EE87C0
:1014D000882309F45AC3853251F4EE85FF8523FD34
:1014E000859123FF8191FF87EE87853229F490E073
:1014F000B3010E941A13E2CF982F10E08824992498
:101500001032B0F49B3269F09C3228F4903251F0E2
:10151000933271F40BC09D3239F0903349F411606D
:1015200028C01260146025C0186023C0106121C05B
:1015300017FD2AC0892F80538A3078F416FF06C021
:10154000FAE09F9E902C1124980E13C03AE0839EDF
:10155000802C1124880E10620CC09E3221F416FDDE
:1015600014C3106406C09C3611F4106802C098368B
:1015700059F4EE85FF8523FD959123FF9191FF8717
:10158000EE87992309F0BCCF892F8554833020F44E
:10159000812F8061905E07C0892F8556833008F0C7
:1015A0009FC1812F8F7E86FD02C076E0972E6FE36C
:1015B000F62EF822953619F4F0E4FF2A07C0963685
:1015C00019F420E8F22A02C091109A94F7FE0AC09A
:1015D0003BE3391518F45CE3B52E02C0B92CB39483
:1015E00027E009C047E0491520F4BB2447E0942ECA
:1015F000F7CF292DBB24C60104969D878C87F60161
:101600006081718182819381AE014F5F5F4F0B2DAD
:101610000E94E0116C010981202E332400FF04C0D8
:1016200003FD02C01DE209C0F1FE02C01BE205C0BD
:10163000F2FC02C010E001C010E2C1018C70907099
:10164000892BB9F1112311F483E001C084E08815DE
:1016500010F088240AC0881AF3FC07C080E290E0EA
:10166000B3010E941A138A94C9F7112329F0812F1C
:1016700090E0B3010E941A1323FE03C006ED10E0B0
:101680000EC00AED10E00BC0E114F10409F0805225
:1016900090E0B3010E941A130F5F1F4F05C0EF2C9B
:1016A000FF24F0E1EF22FF24F8018491882361F701
:1016B00014C1F7FE12C0BC0C24FE04C08A81813321
:1016C00009F4BA941B141CF0BB24B3942DC0F8E0A9
:1016D000FB1550F538E0B32E27C0F6FC25C0892D48
:1016E00090E08C159D054CF02CEFC2162FEFD20622
:1016F00024F030E8F32A01C09A94992049F0E2E0FE
:10170000F0E0EC0FFD1FE90DF11D80818033A1F3A6
:10171000F7FE0AC0B92CB394892D90E0C816D906FB
:1017200014F0992401C09C18F7FC03C025E030E0B8
:1017300009C01C141D041CF021E030E003C0960118
:101740002F5F3F4F112311F02F5F3F4F992029F05A
:10175000892D90E00196280F391F882D90E02817D9
:10176000390714F0882401C0821A4F2C5524C20175
:1017700089709070892B39F008C080E290E0B30145
:101780000E941A138A948820C1F7112329F0812F0F
:1017900090E0B3010E941A1343FE07C008C080E323
:1017A00090E0B3010E941A138A948820C1F7F7FED3
:1017B00046C08601D7FE02C000E010E07601089422
:1017C000E11CF11CE01AF10A41E050E04C0F5D1FF2
:1017D000E40EF51E26014B185108892D90E0AA242D
:1017E000BB24A81AB90A5FEF0F3F150729F48EE250
:1017F00090E0B3010E941A13C016D10634F04016CF
:1018000051061CF4F701808101C080E301501040B3
:101810000894E11CF11C0A151B052CF090E0B301A3
:101820000E941A13E0CF0C151D0539F49A819633E6
:1018300018F4953311F424FE81E390E04BC08A81C3
:10184000813309F00F7E90E0B3010E941A139920B2
:10185000A1F08EE290E0B3010E941A1312E0E1E0E1
:10186000F0E0EC0FFD1FE10FF11D1F5F808190E0A4
:10187000B3010E941A139A9491F744FC03C085E6C1
:1018800090E002C085E490E0B3010E941A13D7FCF7
:1018900005C0C114D10441F404FF06C0D094C19422
:1018A000D108D3948DE201C08BE290E0B3010E9495
:1018B0001A1380E305C08F5F26EF3FEFC20ED31EE1
:1018C0003AE0C316D104BCF790E0B3010E941A13AA
:1018D000C601C096B3010E941A13CC84DD8452C1A4
:1018E000933631F0933799F0933509F059C023C0FE
:1018F000F601808189835E010894A11CB11C22E05D
:1019000030E0C20ED31E21E0E22EF12C12C0F6010F
:10191000A080B18016FD03C06FEF7FEF02C0692D7C
:1019200070E022E030E0C20ED31EC5010E94C31257
:101930007C011F7713C0F601A080B18016FD03C0A3
:101940006FEF7FEF02C0692D70E022E030E0C20E41
:10195000D31EC5010E94B8127C01106813FF07C096
:101960001BC080E290E0B3010E941A138A94882D74
:1019700090E0E816F906A8F30FC0F50117FD859170
:1019800017FF81915F0190E0B3010E941A1381104B
:101990008A940894E108F108E114F10471F7F2C0A7
:1019A000943611F0993689F517FF08C0F6012081A9
:1019B00031814281538184E090E00AC0F601808148
:1019C00091819C01442737FD4095542F82E090E09F
:1019D000C80ED91E9FE6F92EF12257FF09C0509577
:1019E0004095309521953F4F4F4F5F4F90E8F92A32
:1019F000CA01B901AE014F5F5F4F2AE030E00E949B
:101A00009013E82EE889EE1A41C0953721F41F7E25
:101A10002AE030E01CC0197F9F3661F0903720F437
:101A2000983509F0B2C00FC0903739F0983709F0F7
:101A3000ACC004C028E030E00AC0106114FD14609E
:101A400020E130E004C014FD166020E132E017FF11
:101A500008C0F601608171818281938144E050E089
:101A600008C0F60180819181BC0180E090E042E0F5
:101A700050E0C40ED51EAE014F5F5F4F0E94901321
:101A8000E82E5889E51A8FE7F82EF122F6FE0BC0F2
:101A90008EEFF822E91438F4F4FE07C0F2FC05C01A
:101AA0009FEEF92202C01E2D01C0192DF4FE0DC0BB
:101AB000FE01EE0DF11D8081803319F4E9EEFE2266
:101AC00008C01F5FF2FE05C003C08F2D867809F0A5
:101AD0001F5F0F2DF3FC14C0F0FE0FC0181510F09F
:101AE0009E2C0BC09E2C980C911A182D06C080E2DB
:101AF00090E0B3010E941A131F5F1815C0F304C0D1
:101B0000181510F4811A01C0882404FF0FC080E367
:101B100090E0B3010E941A1302FF1DC001FD03C033
:101B200088E790E00EC088E590E00BC0802F8678B3
:101B300091F001FF02C08BE201C080E2F7FC8DE270
:101B400090E0B3010E941A1306C080E390E0B30155
:101B50000E941A139A94E914C0F3EA94E1E0F0E0C9
:101B6000EC0FFD1FEE0DF11D808190E0B3010E948E
:101B70001A13EE2091F706C080E290E0B3010E94B4
:101B80001A138A948820C1F799CCF3016681778172
:101B9000CB016196E2E10C94A3115058BB27AA2710
:101BA0000ED01CC10DD130F012D120F031F49F3F86
:101BB00011F41EF402C10EF4E095E7FBF8C0E92F22
:101BC0001ED180F3BA17620773078407950718F0D0
:101BD00071F49EF536C10EF4E0950B2EBA2FA02DB0
:101BE0000B01B90190010C01CA01A0011124FF27CA
:101BF000591B99F0593F50F4503E68F11A16F040C5
:101C0000A22F232F342F4427585FF3CF46953795C3
:101C10002795A795F0405395C9F77EF41F16BA0B88
:101C2000620B730B840BBAF09150A1F0FF0FBB1F36
:101C3000661F771F881FC2F70EC0BA0F621F731F7F
:101C4000841F48F4879577956795B795F7959E3FDC
:101C500008F0B3CF9395880F08F09927EE0F97956A
:101C6000879508950CD0BAC0B2D040F0A9D030F01A
:101C700021F45F3F19F09BC05111E4C09EC0BFD05A
:101C800098F39923C9F35523B1F3951B550BBB2743
:101C9000AA2762177307840738F09F5F5F4F220FF0
:101CA000331F441FAA1FA9F333D00E2E3AF0E0E8E9
:101CB00030D091505040E695001CCAF729D0FE2F35
:101CC00027D0660F771F881FBB1F261737074807C7
:101CD000AB07B0E809F0BB0B802DBF01FF2793587D
:101CE0005F4F2AF09E3F510568F061C0ABC05F3F77
:101CF000ECF3983EDCF3869577956795B795F79565
:101D00009F5FC9F7880F911D9695879597F908955C
:101D1000E1E0660F771F881FBB1F621773078407F8
:101D2000BA0720F0621B730B840BBA0BEE1F88F707
:101D3000E0950895E89409C097FB3EF4909580954E
:101D4000709561957F4F8F4F9F4F9923A9F0F92F81
:101D500096E9BB279395F695879577956795B795FF
:101D6000F111F8CFFAF4BB0F11F460FF1BC06F5FE5
:101D70007F4F8F4F9F4F16C0882311F096E911C0F7
:101D8000772321F09EE8872F762F05C0662371F018
:101D900096E8862F70E060E02AF09A95660F771F2C
:101DA000881FDAF7880F9695879597F9089597F920
:101DB0009F6780E870E060E008959FEF80EC0895F1
:101DC00000240A941616170618060906089500241A
:101DD0000A9412161306140605060895092E039494
:101DE000000C11F4882352F0BB0F40F4BF2B11F408
:101DF00060FF04C06F5F7F4F8F4F9F4F089557FD67
:101E00009058440F551F59F05F3F71F04795880F68
:101E100097FB991F61F09F3F79F0879508951216FF
:101E200013061406551FF2CF4695F1DF08C01616AB
:101E300017061806991FF1CF86957105610508945C
:101E40000895E894BB2766277727CB0197F9089573
:101E50000BD0C4CFB5DF28F0BADF18F0952309F016
:101E6000A6CFABCF1124EECFCADFA0F3959FD1F35D
:101E7000950F50E0551F629FF001729FBB27F00D38
:101E8000B11D639FAA27F00DB11DAA1F649F66278D
:101E9000B00DA11D661F829F2227B00DA11D621FDC
:101EA000739FB00DA11D621F839FA00D611D221F96
:101EB000749F3327A00D611D231F849F600D211D7A
:101EC000822F762F6A2F11249F5750408AF0E1F01D
:101ED00088234AF0EE0FFF1FBB1F661F771F881F66
:101EE00091505040A9F79E3F510570F060CFAACFA6
:101EF0005F3FECF3983EDCF3869577956795B79551
:101F0000F795E7959F5FC1F7FE2B880F911D96957A
:101F1000879597F90895FA01EE0FFF1F3096210576
:101F2000310599F16115710561F48038BFE39B07B4
:101F300049F168949038810561F08038BFEF9B07C4
:101F400041F0992342F5FF3FE1053105210511F1EB
:101F5000E8940894E795D901AA2329F4AB2FBE2F62
:101F6000F85FD0F310C0FF5F70F4A695E0F7F73983
:101F700050F019F0FF3A38F49F779F930CD00F90F0
:101F800007FC905808953EF018CF60E070E080E8BC
:101F90009FE308954FE79F775F934F933F932F936E
:101FA000F5D02F913F914F915F9152DF47C011F4CF
:101FB0000EF403CF6FC02BDFD0F39923D9F3CEF308
:101FC0009F57550B87FF74D00024A0E640EA90018C
:101FD00080585695979528F4805C660F771F881F68
:101FE00020F026173707480730F4621B730B840B69
:101FF000202931294A2BA6951794079420253125AD
:102000004A2758F7660F771F881F20F026173707D3
:10201000480730F4620B730B840B200D311D411DFA
:10202000A09581F7B901842F9158880F96958795CF
:10203000089519F40EF0BBCE04CFBFCEE8DEC8F38E
:102040009638C0F707F80F92E8942BE33AEA48EB8A
:102050005FE70CDF0F920F920F924DB75EB70F92B2
:10206000D5D0E4E5F0E02BD04F915F91EF91FF9157
:10207000E595EE1FFF1F49F0FE57E0684427EE0F7D
:10208000441FFA95E1F74195550B47D00F9007FE95
:102090003BC008959F3F31F0915020F4879577958C
:1020A0006795B795880F911D9695879597F908952F
:1020B00091505040660F771F881FD2F70895DF9325
:1020C000CF931F930F93FF92EF92DF927B018C01CE
:1020D000689405C0DA2EEF01C7DEFE01E894A591F1
:1020E0002591359145915591AEF3EF0168DDFE01E3
:1020F0009701A801DA9479F7DF90EF90FF900F91A4
:102100001F91CF91DF9108959B01AC0160E070E0D9
:1021100080E89FE3A7CD4BCEBDCF79DEE8F39923CE
:10212000D9F3940F511DBBF39150504094F059F0E6
:10213000882332F0660F771F881F91505040C1F7F7
:102140009E3F510544F7880F911D9695879597F905
:1021500008955F3FACF0983E9CF0BB27869577953D
:102160006795B79508F4B1609395C1F7BB0F58F721
:1021700011F460FFE8CF6F5F7F4F8F4F9F4FE3CF2A
:1021800061CE0EF087CF19CE689411CE40DEC8F331
:102190009923D1F3C6F3DF93CF931F930F93FF924D
:1021A000C92FDD2788232AF02197660F771F881F04
:1021B000DAF720E030E040E85FEB9FE3883920F079
:1021C000803E30F021968F77E9DCECE7F0E003C049
:1021D000E5DCE9EAF0E073DF8B01BE01EC01FB2EE8
:1021E0006F5771097595771F880B990BA5DD28E14D
:1021F00032E741E35FE338DEAF2D9801AE01FF9097
:102200000F911F91CF91DF91DADCE8CDFA01DC016B
:10221000AA0FBB1F9B01AC01BF5728F4222733270D
:10222000442750781FC0B75188F4AB2F002446953F
:1022300037952795011CA395D2F3002069F0220F52
:10224000331F441FB395DAF30DD0A7CC613071056D
:10225000A0E88A07B94630F49B01AC0166277727CE
:1022600088279078309621F02083318342835383EE
:102270000895629FD001739FF001829FE00DF11DD0
:10228000649FE00DF11D929FF00D839FF00D749FF0
:10229000F00D659FF00D9927729FB00DE11DF91F9C
:1022A000639FB00DE11DF91FBD01CF0111240895F9
:1022B000AA1BBB1B51E107C0AA1FBB1FA617B7076C
:1022C00010F0A61BB70B881F991F5A95A9F7809588
:1022D0009095BC01CD01089597FB092E05260ED0DF
:1022E00057FD04D04BD00AD0001C38F450954095CF
:1022F000309521953F4F4F4F5F4F0895F6F79095DA
:102300008095709561957F4F8F4F9F4F08952F92C5
:102310003F924F925F926F927F928F929F92AF9275
:10232000BF92CF92DF92EF92FF920F931F93CF93C2
:10233000DF93CDB7DEB7CA1BDB0B0FB6F894DEBF59
:102340000FBECDBF09942A88398848885F846E847F
:102350007D848C849B84AA84B984C884DF80EE80C9
:10236000FD800C811B81AA81B981CE0FD11D0FB6D2
:10237000F894DEBF0FBECDBFED010895A1E21A2E85
:10238000AA1BBB1BFD010DC0AA1FBB1FEE1FFF1F19
:10239000A217B307E407F50720F0A21BB30BE40B69
:1023A000F50B661F771F881F991F1A9469F76095B0
:1023B0007095809590959B01AC01BD01CF0108956A
:1023C000283008F027E03327DA01990F311D87FD07
:1023D000916000966105710539F432602E5F3D937E
:1023E00030E32A95E1F708959F3F30F0803871057A
:1023F000610509F03C5F3C5F3D93913008F08068D7
:10240000911DDF93CF931F930F93FF92EF92192F9C
:10241000987F9695E92F96959695E90FFF27E85CAA
:10242000FE4F99273327EE24FF24A701E7010590EB
:102430000894079428F4360FE71EF81E491F511D13
:10244000660F771F881F991F0694A1F705900794C0
:1024500028F4E70EF81E491F561FC11D770F881F6D
:10246000991F661F0694A1F70590079428F4F80EAB
:10247000491F561FC71FD11D880F991F661F771F41
:102480000694A1F70590079420F4490F561FC71F23
:10249000D81F990F661F771F881F0694A9F784918C
:1024A0001095177041F0D695C79557954795F794B5
:1024B000E7941A95C1F7EEEDF0E068941590159148
:1024C00035916591959105907FE27395E118F10A38
:1024D000430B560BC90BD009C0F7E10CF11E431F8B
:1024E000561FC91FD01D7EF4703311F48A95E6CFB4
:1024F000E894015030F0080F0AF40027021708F49E
:10250000202F2395022F7A3328F079E37D932A95A3
:10251000E9F710C07D932A9589F6069497956795FB
:10252000379517951794E118F10A430B560BC90B11
:10253000D00998F023957E9173957A3308F070E373
:102540007C932013B8F77E9170617D9330F0839572
:1025500071E37D9370E32A95E1F71124EF90FF90EA
:102560000F911F91CF91DF91992787FD9095089545
:10257000FC010590615070400110D8F7809590954E
:102580008E0F9F1F0895FC01615070400190011053
:10259000D8F7809590958E0F9F1F08950F931F93E6
:1025A000CF93DF938C01EB01009731F46115710536
:1025B00019F420E030E038C081E090E06EE070E097
:1025C0000E94EE13FC019C01009771F180E8838367
:1025D000209771F0D387C28781E8838380919E031F
:1025E00090919F03892B21F4F0939F03E0939E0326
:1025F00001151105C9F011870087838182608383EB
:102600008091A0039091A103892B71F4F093A10311
:10261000E093A0038091A2039091A303892B21F45E
:10262000F093A303E093A203C901DF91CF911F911F
:102630000F9108950F931F93CF93DF938C01EB01BC
:102640008B8181FF1BC082FF0DC02E813F818C8159
:102650009D812817390764F4E881F9810193F98392
:10266000E88306C0E885F985802F0995892B31F428
:102670008E819F8101969F838E8302C00FEF1FEF93
:10268000C801DF91CF911F910F910895A0E0B0E0B4
:10269000ECE4F3E10C949711FE0135966191719190
:1026A0008091A0039091A103AF010E94460A209659
:1026B000E2E00C94B3110F931F93CF93DF938C013F
:1026C000E091A003F091A103838181FF21C0C0E0CC
:1026D000D0E00DC0E091A003F091A10320853185E9
:1026E000BF01F9010995892B11F0CFEFDFEFF80158
:1026F00081918F01882371F7E091A003F091A103EC
:10270000208531858AE0BF01F9010995892B11F0F7
:10271000CFEFDFEFCE01DF91CF911F910F910895A1
:10272000FA01AA27283051F1203181F1E8946F9302
:102730006E7F6E5F7F4F8F4F9F4FAF4FB1E03ED0A8
:10274000B4E03CD0670F781F891F9A1FA11D680F46
:10275000791F8A1F911DA11D6A0F711D811D911D79
:10276000A11D20D009F468943F912AE0269F1124EE
:102770003019305D3193DEF6CF010895462F477052
:10278000405D4193B3E00FD0C9F7F6CF462F4F70AD
:10279000405D4A3318F0495D31FD4052419302D00B
:1027A000A9F7EACFB4E0A6959795879577956795B1
:1027B000BA95C9F700976105710508959B01AC01B1
:1027C0000A2E06945795479537952795BA95C9F7D8
:1027D000620F731F841F951FA01D08950F931F93F1
:1027E000CF93DF93689F8001699F100D789F100D34
:1027F0001124C8010E940A14EC01009729F060E03E
:1028000070E0A8010E940F15CE01DF91CF911F91BA
:102810000F910895CF93DF93BC018230910510F49E
:1028200062E070E0A091A603B091A703ED01E0E0A3
:10283000F0E040E050E021C0888199818617970739
:1028400069F48A819B81309719F09383828304C055
:102850009093A7038093A603FE0134C068177907FD
:1028600038F44115510519F08417950708F4AC01A7
:10287000FE018A819B819C01E9012097E9F64115BF
:102880005105A9F1CA01861B970B049708F4BA01F8
:10289000E0E0F0E02AC08D919C9111978417950794
:1028A000F9F46417750781F412968D919C91139732
:1028B000309719F09383828304C09093A703809389
:1028C000A603FD0132964FC0CA01861B970BFD017E
:1028D000E80FF91F6193719302978D939C9343C006
:1028E000FD01828193819C01D9011097A1F680910D
:1028F000A4039091A503892B41F48091D500909178
:10290000D6009093A5038093A4034091D7005091E3
:10291000D8004115510541F44DB75EB78091D30001
:102920009091D400481B590B2091A4033091A5032A
:1029300024173507B0F4CA01821B930B861797073B
:1029400080F0AB014E5F5F4F8417950750F0420F48
:10295000531F5093A5034093A403F901619371930E
:1029600002C0E0E0F0E0CF01DF91CF910895CF9376
:10297000DF93009709F450C0EC0122971B821A8262
:10298000A091A603B091A703109709F140E050E091
:10299000AC17BD0708F1BB83AA83FE0121913191D9
:1029A000E20FF31FAE17BF0779F48D919C91119739
:1029B000280F391F2E5F3F4F3983288312968D9140
:1029C0009C9113979B838A834115510571F4D09391
:1029D000A703C093A60320C012968D919C911397D4
:1029E000AD01009711F0DC01D3CFFA01D383C2838C
:1029F00021913191E20FF31FCE17DF0769F488812F
:102A00009981280F391F2E5F3F4FFA0131832083B0
:102A10008A819B8193838283DF91CF910895DC012A
:102A200001C06D9341505040E0F70895F894FFCFF6
:102A300046574420412F442056414C3A2025690AEC
:102A40000052454620412F442056414C3A202569EA
:102A50000A0046574420564F4C544147453A2025DA
:102A60002E356620766F6C74730A005245462056E8
:102A70004F4C544147453A20252E356620766F6CE1
:102A800074730A006442206677643A20252E31660A
:102A90002064420A00506F75743A20252E31660A70
:0A2AA000000A002000A80300000057
:00000001FF
