:100000000C94D3000C94F0000C94F0000C94F000CD
:100010000C9468070C94F0000C94F0000C94F00021
:100020000C94F0000C94F0000C94DA010C94F000A5
:100030000C94F0000C94E9080C940E070C9418072B
:100040000C94F0000C94F0000C94F0000C941E053D
:100050000C94F00032013401360138013A013C01C0
:100060003E01400142014401460148014A014C0160
:100070004E0150015201540156015801A401A6013C
:10008000A801AA01AC01AE01B001B201B401B601F0
:10009000B801BA01BC01BE01C001C201C401C60160
:1000A000C801CA016E616E00696E660000407A1078
:1000B000F35A00A0724E18090010A5D4E80000E819
:1000C0007648170000E40B54020000CA9A3B000077
:1000D00000E1F505000080969800000040420F0006
:1000E0000000A08601000000102700000000E803C7
:1000F000000000006400000000000A000000000092
:100100000100000000002C76D888DC674F0823DF50
:10011000C1DFAE59E1B1B796E5E3E453C63AE65123
:10012000997696E8E6C28426EB898C9B62ED407C4A
:100130006FFCEFBC9C9F40F2BAA56FA5F490055AE6
:100140002AF75C936B6CF9676DC11BFCE0E40D470B
:10015000FEF520E6B500D0ED902E0300943577052E
:100160000080841E080000204E0A000000C80C33E6
:100170003333330F986E12831141EF8D2114893B75
:10018000E65516CFFEE6DB18D1844B381BF77C1DF5
:10019000901DA4BBE424203284725E228100C9F148
:1001A00024ECA1E53D2711241FBECFE5D8E0DEBF3A
:1001B000CDBF10E0A0E6B0E0E0EAF2E202C00590B8
:1001C0000D92AC36B107D9F712E0ACE6B0E001C051
:1001D0001D92AF3BB107E1F70E94B0030C944E11A2
:1001E0000C9400008F929F92AF92BF92CF92DF92B9
:1001F000EF92FF920F931F93862EE62FF0E0319738
:1002000001E010E00E2E02C0000F111F0A94E2F769
:10021000222717FD2095322FC090E800D090E900EA
:10022000E090EA00F090EB000C291D292E293F29CF
:100230000093E8001093E9002093EA003093EB006C
:10024000E054FF4F8083448B9924F4013197E431CB
:10025000F10578F5E65DFF4FEE0FFF1F0590F49175
:10026000E02D0994929A25C0939A23C0AA9A21C09E
:10027000AB9A1FC0AC9A1DC0AD9A1BC0AE9A19C0F4
:10028000AF9A17C0DF9A15C0DE9A13C0DD9A11C06D
:10029000DC9A0FC0DB9A0DC0DA9A0BC0D99A09C05C
:1002A000D89A07C0C09A05C0C19A03C0C29A01C0BB
:1002B000C39A1F910F91FF90EF90DF90CF90BF9066
:1002C000AF909F908F900895AF92BF92CF92DF92A0
:1002D000EF92FF920F931F93A62EE62FF0E0319737
:1002E00021E030E00E2E02C0220F331F0A94E2F705
:1002F00020953095442737FD4095542FE090E80035
:10030000F090E9000091EA001091EB002E213F21CE
:10031000402351232093E8003093E9004093EA0002
:100320005093EB00E054FF4F8083148ABB24F50107
:100330003197E431F10578F5E25CFF4FEE0FFF1FD6
:100340000590F491E02D0994929825C0939823C0CC
:10035000AA9821C0AB981FC0AC981DC0AD981BC017
:10036000AE9819C0AF9817C0DF9815C0DE9813C0BB
:10037000DD9811C0DC980FC0DB980DC0DA980BC077
:10038000D99809C0D89807C0C09805C0C19803C0C3
:10039000C29801C0C3981F910F91FF90EF90DF901A
:1003A000CF90BF90AF90089580B382958F70809565
:1003B0008F7008951F920F920FB60F921124EF9233
:1003C000FF920F932F933F934F935F936F937F937E
:1003D0008F939F93AF93BF93EF93FF930E94A206D7
:1003E0008823B1F080917000909171008C5D9540F0
:1003F00078F00E94AD0660E040E022E001E092E08B
:10040000E92EF12C0E947A0810927100109270006F
:10041000809170009091710001969093710080938B
:10042000700080916C0090916D00019690936D002A
:1004300080936C00FF91EF91BF91AF919F918F914D
:100440007F916F915F914F913F912F910F91FF900D
:10045000EF900F900FBE0F901F901895DF93CF93E2
:1004600000D0CDB7DEB780E962E0AE014F5F5F4FED
:100470000E94C904998180E02A8130E0282B392B21
:1004800043E0359527954A95E1F7C9010F900F9004
:10049000CF91DF910895AF92BF92DF92EF92FF92DA
:1004A0000F931F93DF93CF93CDB7DEB768970FB647
:1004B000F894DEBF0FBECDBFA3E0AA2EB12CAC0EC8
:1004C000BD1EC5010E94690B9885DB808F818A3F24
:1004D00019F40E94310732C18B3F19F40E940B08B6
:1004E0002DC1823009F42AC18032B9F4F9E0EF2E2F
:1004F000F12CEC0EFD1E092F10E00A5F1F4F0A0DB4
:100500001B1D07C08D2DF70161917F0140E20E9404
:10051000F200E016F106B1F711C18132B1F4E9E061
:10052000EE2EF12CEC0EFD1E092F10E00A5F1F4F7E
:100530000A0D1B1D06C08D2DF70161917F010E94E0
:100540006401E016F106B9F7F9C08232B9F479E036
:10055000E72EF12CEC0EFD1E092F10E00A5F1F4F55
:100560000A0D1B1D07C08D2DF70161917F0142E22D
:100570000E94F200E016F106B1F7E0C08432B9F44F
:1005800069E0E62EF12CEC0EFD1E092F10E00A5F4B
:100590001F4F0A0D1B1D07C08D2DF70161917F01B3
:1005A00044E20E94F200E016F106B1F7C7C08832BB
:1005B000B9F459E0E52EF12CEC0EFD1E092F10E0E8
:1005C0000A5F1F4F0A0D1B1D07C08D2DF70161919A
:1005D0007F0148E20E94F200E016F106B1F7AEC0DA
:1005E000803309F4ABC0823399F400E010E0602F4F
:1005F0006F5FF801E054FF4F80818D1519F48D2D48
:100600000E9464010F5F1F4F0431110581F796C0EE
:10061000833399F404ED10E091E0F8018081803299
:1006200031F48D2D692F988F0E946401988D9F5F02
:100630000F5F1F4F953189F781C0853399F404ED21
:1006400010E091E0F8018081843231F48D2D692F22
:10065000988F0E946401988D9F5F0F5F1F4F9531A7
:1006600089F76CC0853299F404ED10E091E0F8014F
:100670008081843231F48D2D692F988F0E9464011E
:10068000988D9F5F0F5F1F4F953189F757C0873255
:1006900099F404ED10E091E0F8018081883231F4A2
:1006A0008D2D692F988F0E946401988D9F5F0F5F39
:1006B0001F4F953189F742C0863299F404ED10E05E
:1006C00091E0F8018081883231F48D2D692F988F67
:1006D0000E946401988D9F5F0F5F1F4F953189F7CE
:1006E0002DC0843399F404ED10E091E0F80180818D
:1006F000823231F48D2D692F988F0E946401988D7C
:100700009F5F0F5F1F4F953189F718C0813389F4C0
:100710000E942E0299838A830E94AD066D2D40E0CF
:1007200021E302E07E010894E11CF11C0E947A089A
:1007300005C0813019F08D2D0E94D8080E94800BD1
:1007400068960FB6F894DEBF0FBECDBFCF91DF9194
:100750001F910F91FF90EF90DF90BF90AF900895A1
:100760001F93F89484E60E9474061092E800109299
:10077000E9001092EA001092EB0080B382958F702E
:1007800080958F700E949F060E94AD0697E0899F1A
:10079000802D11240E9474060E946A060E94990A04
:1007A00080E060E00E94D2060E945D060E9453062F
:1007B000789411E080E0612F0E9464011F5F153181
:1007C000C9F70E948F0B882311F40E944B020E94EC
:1007D000260B8823B1F70E94720AF3CF0898099874
:1007E0009C0140E050E069E979E380E090E00E94FC
:1007F000DA10203130F0822F90E040979595879560
:10080000282F20B90895909A919A1092B9001092C9
:10081000B8001092BB001092BA0084E690E00E94EB
:10082000EE0386B7846086BF1092720086B780643C
:1008300086BF089590E0611191E08E7F982B92B968
:1008400008959093B9008093B80008959093BB00E9
:100850008093BA00089586B78F70806A86BF089526
:1008600086B78F70806D86BF089506B607FEFDCFF0
:10087000089583B986B78F70806886BF08958823EE
:1008800021F086B78F70806C03C086B78F70806848
:1008900086BF089583B1089581B10895982F8091FE
:1008A00072008823E1F782E080937200892F90E044
:1008B000880F991F80937300A4E7B0E0FA0102C08B
:1008C00081918D938E2F841B8617D0F31092940004
:1008D0006093950086B78F70806A86BF0895982FC1
:1008E000809172008823E1F783E080937200990F72
:1008F0009160909373001092B6006093B70086B732
:100900008F70806A86BF809172008823E1F7A6E924
:10091000B0E0FA0102C08D9181938E2F841B86175F
:10092000D0F30895982FFA0186B78E7F86BF86B7D9
:100930008F70806A86BF06B607FEFDCF892F90E0D4
:10094000880F991F83B986B78F70806886BF06B6F7
:1009500007FEFDCF81B1883169F091E00EC0808142
:1009600083B986B78F70806886BF06B607FEFDCF55
:1009700031966150662399F790E086B78F70806D4D
:1009800086BF06B604FEFDCF86B7816086BF892F7D
:100990000895982FFA0186B78E7F86BF86B78F702D
:1009A000806A86BF06B607FEFDCF80ED83B986B7A5
:1009B0008F70806886BF06B607FEFDCF13B886B776
:1009C0008F70806886BF06B607FEFDCF86B78F7032
:1009D000806A86BF06B607FEFDCF990F916093B976
:1009E00086B78F70806886BF06B607FEFDCF81B1DF
:1009F000803461F091E016C086B78F70806C86BF3E
:100A000006B607FEFDCF83B1819361506230A0F737
:100A100086B78F70806886BF06B607FEFDCF83B1AC
:100A2000808390E086B78F70806D86BF86B78160C7
:100A300086BF892F08958091720008951F920F92AA
:100A40000FB60F9211242F933F934F935F936F93A1
:100A50007F938F939F93AF93BF93CF93DF93EF9346
:100A6000FF9381B1887F803609F4B3C0813670F579
:100A7000883209F45FC0893298F4803109F457C094
:100A8000813138F4882309F4F5C0883009F0F8C0C2
:100A90004EC0883109F44EC0803209F0F1C0EAC07E
:100AA000803409F48AC0813438F4803309F4E2C018
:100AB000883309F0E5C05BC0803509F45CC0883537
:100AC00009F449C0883409F0DBC0D4C0883909F47E
:100AD000C8C08939B0F4883709F47BC0893738F445
:100AE000883609F476C0803709F0CAC072C08838E9
:100AF00009F4B7C0803909F472C0803809F0C0C069
:100B00006EC0803B09F489C0813B38F4803A09F417
:100B100074C0883A09F0B4C080C0803C09F4A6C013
:100B2000883C09F4A3C0883B09F0AAC087C0809123
:100B300073000FC09091940080919500981708F071
:100B400099C0E92FF0E0EC58FF4F80819F5F9093B0
:100B5000940083B986C08091B60093B1E82FF0E08D
:100B6000EA56FF4F90838F5F8093B60083C086B7AD
:100B70008F70806882C0A091B60083B1EA2FF0E048
:100B8000EA56FF4F8083AF5FA093B60000D000D03D
:100B9000EDB7FEB7319680E690E0CDB7DEB79A8329
:100BA0008983B0E0AB56BF4F8C91828313820E9441
:100BB00067100F900F900F900F902091B60030E0CB
:100BC0008091B70090E00197281739070CF049C0D1
:100BD00044C085E0809372001092B6003EC08091C0
:100BE000B60093B1E82FF0E0EA56FF4F90838F5F95
:100BF0008093B6008032A8F530C086B78F70806CC5
:100C000086BFE091B800F091B9003097B9F18091BA
:100C1000B60066E970E0099531C084E08093720007
:100C2000E091BA00F091BB00309731F080E264E7C8
:100C300070E0099580939500109294009091940033
:100C4000E92FF0E0EC58FF4F808183B99F5F9093CC
:100C5000940080919500981720F486B78F70806C6F
:100C600003C086B78F70806886BF0AC086B78F7052
:100C7000806C03C086B78F70806D86BF1092720043
:100C8000FF91EF91DF91CF91BF91AF919F918F91A4
:100C90007F916F915F914F913F912F910F900FBE78
:100CA0000F901F90189513BE89B7826089BF8DE0A1
:100CB00083BF12BE8EE08CBF089515BC14BC8BE0C0
:100CC00085BD88B7806888BF8AE383BD89B780689F
:100CD00089BF08958FEF8ABB8FE087BB8CEF84BB01
:100CE0008EE081BB919A089526E63EE0E22FF32F35
:100CF0003197F1F78A95D1F7089590E04AEF26E60B
:100D00003EE019C0E22FF32F3197F1F74A95D1F762
:100D1000E22FF32F3197F1F74A95D1F7E22FF32F16
:100D20003197F1F74A95D1F7E22FF32F3197F1F789
:100D30004A95D1F79F5F981708F4E4CF0895809300
:100D4000EE0008958091F6009091F70023E09695CB
:100D500087952A95E1F7817008958091EE000895B6
:100D60008091F6009091F70080629093F700809355
:100D7000F6001092FB001092F90008958091F600A1
:100D80009091F7008B7F9093F7008093F60010927C
:100D9000F8001092BC001092FA0008958091F600BD
:100DA00081700895882301F14091F6005091F70079
:100DB0009A0121603093F7002093F6006093F300CE
:100DC000862F90E033E0880F991F3A95E1F79093D2
:100DD000F5008093F40021FD10C0416051605093F4
:100DE000F7004093F60008958091F6009091F70087
:100DF0008E7F9093F7008093F60008958091F30022
:100E000008958093F30090E043E0880F991F4A957E
:100E1000E1F79093F5008093F40008951F920F92EC
:100E20000FB60F9211240F900FBE0F901F901895C0
:100E30001F920F920FB60F9211248F939F93809160
:100E4000F6009091F70086FD05C080689093F7004A
:100E50008093F6009F918F910F900FBE0F901F907F
:100E600018958091F6009091F7009D7F9093F70080
:100E70008093F6000E94170B8091F6009091F70086
:100E800080629093F7008093F6001092FB0010921E
:100E9000F90008958091F9008A3050F48091F600AD
:100EA0009091F70080629093F7008093F600089588
:100EB0000E94170B8091F6009091F700806290934A
:100EC000F7008093F6001092FB001092F90008954D
:100ED0001F920F920FB60F9211242F933F934F93AF
:100EE0005F936F937F938F939F93AF93BF93EF9392
:100EF000FF938091BD00853088F08091F60090913D
:100F0000F7008B7F9093F7008093F6001092F80023
:100F10001092BC001092FA001092BD002091F600D1
:100F20003091F70020FD0CC06DC02D7F3093F7008D
:100F30002093F6000E94210B1092BF001092BE0079
:100F40008091FB008A3040F08091F6009091F7008C
:100F500091FF02C00E944A078091F300882399F113
:100F60004091ED00242F30E08091EF009091F0004F
:100F70002817390768F08091F1009091F200281746
:100F8000390730F48091F6009091F700806105C038
:100F90008091F6009091F7008F7E9093F7008093F8
:100FA000F6008091F4009091F5002817390740F081
:100FB0001092ED008091FB008F5F8093FB0003C0D7
:100FC0004F5F4093ED008091BD008F5F8093BD0027
:100FD0008091BE009091BF0001969093BF008093D6
:100FE000BE00FF91EF91BF91AF919F918F917F9143
:100FF0006F915F914F913F912F910F900FBE0F9086
:101000001F9018958091BE009091BF00805197422B
:1010100008F496CF8ACF8091F6009091F7009D7FDB
:101020009093F7008093F6000E944A0708958DB7C9
:101030009EB745970FB6F8949EBF0FBE8DBFADB754
:10104000BEB71196ECEFF0E085E101900D92815072
:10105000E1F70E94350B8DB79EB745960FB6F89411
:101060009EBF0FBE8DBF0895EF92FF920F93DF9347
:10107000CF93CDB7DEB765970FB6F894DEBF0FBE3E
:10108000CDBF782F522FDE011796F70102C0819154
:101090008D938E2F8E198017D0F30E835D834C8332
:1010A0006A8379838DB79EB745970FB6F8949EBF34
:1010B0000FBE8DBFADB7BEB71196FE01319685E16B
:1010C00001900D928150E1F70E94350B8DB79EB7CC
:1010D00045960FB6F8949EBF0FBE8DBF65960FB6AE
:1010E000F894DEBF0FBECDBFCF91DF910F91FF907F
:1010F000EF900895EF92FF920F931F93DF93CF939A
:10110000CDB7DEB765970FB6F894DEBF0FBECDBF83
:10111000182F722F522F540F500FDE011796F70120
:1011200003C08191580F8D938E2F8E198017C8F3AD
:101130005B830E837D834C836A8319838DB79EB74F
:1011400045970FB6F8949EBF0FBE8DBFADB7BEB723
:101150001196FE01319685E101900D928150E1F7E3
:101160000E94CC0A8DB79EB745960FB6F8949EBFE5
:101170000FBE8DBF65960FB6F894DEBF0FBECDBF14
:10118000CF91DF911F910F91FF90EF900895EF9213
:10119000FF920F93682F8091EE0040E02AEF00E06D
:1011A000EE24FF240E947A080F91FF90EF9008959B
:1011B000EF92FF920F93682F8091EE0040E02BEFAB
:1011C00000E0EE24FF240E947A080F91FF90EF9038
:1011D00008951F920F920FB60F9211242F933F93F1
:1011E0004F935F936F937F938F939F93AF93BF932F
:1011F000EF93FF931092BD006CB1E091F800EF5FA8
:10120000E093F8004091F6005091F70042FFABC028
:101210006D3F09F057C02091010130E08E2F90E022
:1012200007972817390709F04DC02091FD008091DC
:10123000EE00281711F02223A9F547FF33C0909143
:10124000BC008091FE00981739F52DB73EB72551A7
:1012500030400FB6F8943EBF0FBE2DBFADB7BEB73E
:101260001196ECEFF0E085E101900D928150E1F7ED
:101270000E94350B8091FF002DB73EB72B5E3F4F8C
:101280000FB6F8943EBF0FBE2DBF80FF0BC08091FC
:10129000FC000E94C70806C0222321F08091FC00B8
:1012A0000E94D8088091F6009091F7008B7F909370
:1012B000F7008093F6001092F8001092BC00109294
:1012C000FA0064C0E330A1F0E43028F4E13051F0DA
:1012D000E23011F50AC0E53089F0E53060F0E63023
:1012E000D9F417C06093FC004FC06093FD004CC060
:1012F0006093FE0049C06093FF002FC0609300011F
:101300008091BC00860F8093BC006130E9F5486095
:1013100037C06093010121C0F0E0E550FF4F6083CA
:10132000809100018130C9F46093F300862F90E032
:1013300073E0880F991F7A95E1F79093F5008093F9
:10134000F4001092ED0042605093F7004093F600D5
:101350001092BF001092BE0014BC8091BC00860F9A
:101360008093BC0011C06E3F79F4E23068F0809148
:10137000FA008E3F49F41092F8001092BC004460CD
:101380005093F7004093F6006093FA00FF91EF91BD
:10139000BF91AF919F918F917F916F915F914F918D
:1013A0003F912F910F900FBE0F901F9018959F9215
:1013B000AF92BF92CF92DF92EF92FF920F93DF93A3
:1013C000CF93CDB7DEB765970FB6F894DEBF0FBEEB
:1013D000CDBF8091F6009091F70080648F77909355
:1013E000F7008093F6005E010894A11CB11CC501B2
:1013F0000E94000BFE800D819A808EEF0E94A10B4F
:101400008EEF0E94A10B89810E94A10B892D0E9461
:10141000A10B8B810E94A10B8C810E94A10B802FBC
:101420000E94A10B8F2D0E94A10BE7E0CE2ED12CA4
:10143000CC0EDD1EEF2CFF2486E090E0E80EF91EB6
:10144000EA0CFB1C05C0F60181916F010E94A10B03
:10145000CE14DF04C1F78DEF0E94A10B992021F07B
:101460000A3F11F00B3FC9F48091F6009091F7000C
:101470009D7F9093F7008093F6000E94170B809158
:10148000F6009091F70080629093F7008093F60049
:101490001092FB001092F9000BC08091F600909121
:1014A000F70092609093F7008093F6001092FB0093
:1014B0008091F6009091F7008F7B9093F7008093D6
:1014C000F60065960FB6F894DEBF0FBECDBFCF9184
:1014D000DF910F91FF90EF90DF90CF90BF90AF9092
:1014E0009F9008958091F6009091F70084FF11C0BD
:1014F00081FF0FC085FF1CC08F7D9093F700809304
:10150000F6008091F9008F5F8093F9000E94D7095F
:10151000089590FF0DC08F7D9E7F9093F70080937C
:10152000F6008091F9008F5F8093F9000E94D7093F
:1015300008950E94300B0E94C70A87E090E00E9445
:10154000990B8091EE0090E0A3E0880F991FAA9577
:10155000E1F79093F0008093EF0086609093F200A3
:101560008093F1001092F3001092ED001092FB00B6
:101570001092F9001092F8001092BC001092FA003C
:1015800080EA90E09093F7008093F600089510921F
:10159000E3011092E4010895DF93CF93CDB7DEB756
:1015A0004091E401242F30E085E190E0289FF00194
:1015B000299FF00D389FF00D1124EF5EFE4FDE01E4
:1015C000159685E10D9001928150E1F7842F8F5F90
:1015D0008093E4018A3010F01092E4019091E401CC
:1015E0008091E301981719F49F5F9093E301809134
:1015F000E3018A3010F01092E301CF91DF9108955A
:10160000AC018091E30190E025E130E0829FF001A0
:10161000839FF00D929FF00D1124DA01EF5EFE4FD3
:1016200085E101900D928150E1F7CA010895809102
:10163000E3018F5F8093E3018A3010F01092E301A1
:1016400008951092E3011092E401089520E0909132
:10165000E3018091E401981709F421E0822F0895B5
:101660001092B7021092B8020895DF93CF93CDB7CE
:10167000DEB74091B802242F30E085E190E0289F4A
:10168000F001299FF00D389FF00D1124EB51FE4F12
:10169000DE01159685E10D9001928150E1F7842FCE
:1016A0008F5F8093B8028A3010F01092B802909148
:1016B000B8028091B702981719F49F5F9093B70210
:1016C0008091B7028A3010F01092B702CF91DF916B
:1016D0000895AC018091B70290E025E130E0829F4F
:1016E000F001839FF00D929FF00D1124DA01EB5170
:1016F000FE4F85E101900D928150E1F7CA010895F6
:101700008091B7028F5F8093B7028A3010F01092F9
:10171000B70208951092B7021092B802089520E01F
:101720009091B7028091B802981709F421E0822FB6
:10173000089590BD89B91BB886E880BD88ED8AB947
:1017400008955D9BFECF8CB980E00895FC0180E098
:1017500090E070E006C020815D9BFECF31962CB9F1
:10176000019686179707BCF380E008955F9BFECF34
:101770008CB108955F9BFECF8CB15D9BFECF8CB981
:1017800008958BB180780895A1E1B0E0EAECFBE028
:101790000C94F5103C017F876E876A01FC0117826B
:1017A0001682838181FD03C06FEF7FEF71C39E01BD
:1017B0002F5F3F4F398B288BF3012381EE85FF8507
:1017C00023FD859123FF8191FF87EE87882309F40C
:1017D0005CC3853251F4EE85FF8523FD859123FF9F
:1017E0008191FF87EE87853229F490E0B3010E9452
:1017F0003B10E2CF982F10E0882499241032B0F4E7
:101800009B3269F09C3228F4903251F0933271F49B
:101810000BC09D3239F0903349F4116028C012603A
:10182000146025C0186023C0106121C017FD2AC0B4
:10183000892F80538A3078F416FF06C0FAE09F9E05
:10184000902C1124980E13C03AE0839E802C112412
:10185000880E10620CC09E3221F416FD16C310646F
:1018600006C09C3611F4106802C0983659F4EE8513
:10187000FF8523FD959123FF9191FF87EE879923A3
:1018800009F0BCCF892F8554833020F4812F8061EB
:10189000905E07C0892F8556833008F0A1C1812F43
:1018A0008F7E86FD02C076E0972E6FE3F62EF8223B
:1018B000953619F4F0E4FF2A07C0963619F420E8AB
:1018C000F22A02C091109A94F7FE0BC03BE339153F
:1018D00020F427E05CE3B52E0EC0B92CB39427E0CA
:1018E0000AC047E0491528F427E0BB2447E0942EBE
:1018F00002C0292DBB24C60104969D878C87F60162
:101900006081718182819381AE014F5F5F4F0B2DAA
:101910000E944D0F6C010981202E332400FF04C06A
:1019200003FD02C01DE209C0F1FE02C01BE205C0BA
:10193000F2FC02C010E001C010E2C1018C70907096
:10194000892BB9F1112311F483E001C084E08815DB
:1019500010F088240AC0881AF3FC07C080E290E0E7
:10196000B3010E943B108A94C9F7112329F0812FFB
:1019700090E0B3010E943B1023FE03C004EA10E094
:101980000EC008EA10E00BC0E114F10409F0805227
:1019900090E0B3010E943B100F5F1F4F05C0EF2C7A
:1019A000FF24F0E1EF22FF24F8018491882361F7FE
:1019B00014C1F7FE12C0BC0C24FE04C08A8181331E
:1019C00009F4BA941B141CF0BB24B3942DC0F8E0A6
:1019D000FB1550F538E0B32E27C0F6FC25C0892D45
:1019E00090E08C159D054CF02CEFC2162FEFD2061F
:1019F00024F030E8F32A01C09A94992049F0E2E0FB
:101A0000F0E0EC0FFD1FE90DF11D80818033A1F3A3
:101A1000F7FE0AC0B92CB394892D90E0C816D906F8
:101A200014F0992401C09C18F7FC03C025E030E0B5
:101A300009C01C141D041CF021E030E003C0960115
:101A40002F5F3F4F112311F02F5F3F4F992029F057
:101A5000892D90E00196280F391F882D90E02817D6
:101A6000390714F0882401C0821A4F2C5524C20172
:101A700089709070892B39F008C080E290E0B30142
:101A80000E943B108A948820C1F7112329F0812FEE
:101A900090E0B3010E943B1043FE07C008C080E302
:101AA00090E0B3010E943B108A948820C1F7F7FEB2
:101AB00046C08601D7FE02C000E010E0760108941F
:101AC000E11CF11CE01AF10A41E050E04C0F5D1FEF
:101AD000E40EF51E26014B185108892D90E0AA242A
:101AE000BB24A81AB90A5FEF0F3F150729F48EE24D
:101AF00090E0B3010E943B10C016D10634F04016AE
:101B000051061CF4F701808101C080E301501040B0
:101B10000894E11CF11C0A151B052CF090E0B301A0
:101B20000E943B10E0CF0C151D0539F49A819633C5
:101B300018F4953311F424FE81E390E04BC08A81C0
:101B4000813309F00F7E90E0B3010E943B10992091
:101B5000A1F08EE290E0B3010E943B1012E0E1E0C0
:101B6000F0E0EC0FFD1FE10FF11D1F5F808190E0A1
:101B7000B3010E943B109A9491F744FC03C085E6A0
:101B800090E002C085E490E0B3010E943B10D7FCD6
:101B900005C0C114D10441F404FF06C0D094C1941F
:101BA000D108D3948DE201C08BE290E0B3010E9492
:101BB0003B1080E305C08F5F26EF3FEFC20ED31EC0
:101BC0003AE0C316D104BCF790E0B3010E943B1089
:101BD000C601C096B3010E943B10CC84DD8452C183
:101BE000933631F0933799F0933509F059C023C0FB
:101BF000F601808189835E010894A11CB11C22E05A
:101C000030E0C20ED31E21E0E22EF12C12C0F6010C
:101C1000A080B18016FD03C06FEF7FEF02C0692D79
:101C200070E022E030E0C20ED31EC5010E943010E9
:101C30007C011F7713C0F601A080B18016FD03C0A0
:101C40006FEF7FEF02C0692D70E022E030E0C20E3E
:101C5000D31EC5010E9425107C01106813FF07C028
:101C60001BC080E290E0B3010E943B108A94882D53
:101C700090E0E816F906A8F30FC0F50117FD85916D
:101C800017FF81915F0190E0B3010E943B1081102A
:101C90008A940894E108F108E114F10471F7F2C0A4
:101CA000943611F0993689F517FF08C0F6012081A6
:101CB00031814281538184E090E00AC0F601808145
:101CC00091819C01442737FD4095542F82E090E09C
:101CD000C80ED91E9FE6F92EF12257FF09C0509574
:101CE0004095309521953F4F4F4F5F4F90E8F92A2F
:101CF000CA01B901AE014F5F5F4F2AE030E00E9498
:101D00007C10E82EE889EE1A41C0953721F41F7E39
:101D10002AE030E01CC0197F9F3661F0903720F434
:101D2000983509F0B2C00FC0903739F0983709F0F4
:101D3000ACC004C028E030E00AC0106114FD14609B
:101D400020E130E004C014FD166020E132E017FF0E
:101D500008C0F601608171818281938144E050E086
:101D600008C0F60180819181BC0180E090E042E0F2
:101D700050E0C40ED51EAE014F5F5F4F0E947C1035
:101D8000E82E5889E51A8FE7F82EF122F6FE0BC0EF
:101D90008EEFF822E91438F4F4FE07C0F2FC05C017
:101DA0009FEEF92202C01E2D01C0192DF4FE0DC0B8
:101DB000FE01EE0DF11D8081803319F4E9EEFE2263
:101DC00008C01F5FF2FE05C003C08F2D867809F0A2
:101DD0001F5F0F2DF3FC14C0F0FE0FC0181510F09C
:101DE0009E2C0BC09E2C980C911A182D06C080E2D8
:101DF00090E0B3010E943B101F5F1815C0F304C0B0
:101E0000181510F4811A01C0882404FF0FC080E364
:101E100090E0B3010E943B1002FF1DC001FD03C012
:101E200088E790E00EC088E590E00BC0802F8678B0
:101E300091F001FF02C08BE201C080E2F7FC8DE26D
:101E400090E0B3010E943B1006C080E390E0B30134
:101E50000E943B109A94E914C0F3EA94E1E0F0E0A8
:101E6000EC0FFD1FEE0DF11D808190E0B3010E948B
:101E70003B10EE2091F706C080E290E0B3010E9493
:101E80003B108A948820C1F797CCF3016681778153
:101E9000CB016196E2E10C941111283008F027E0A3
:101EA0003327DA01990F311D87FD91600096610596
:101EB000710539F432602E5F3D9330E32A95E1F7E6
:101EC00008959F3F30F080387105610509F03C5F4F
:101ED0003C5F3D93913008F08068911DDF93CF9374
:101EE0001F930F93FF92EF92192F987F9695E92FEA
:101EF00096959695E90FFF27EA5FFE4F99273327BE
:101F0000EE24FF24A701E70105900894079428F424
:101F1000360FE71EF81E491F511D660F771F881FD9
:101F2000991F0694A1F70590079428F4E70EF81E70
:101F3000491F561FC11D770F881F991F661F0694E2
:101F4000A1F70590079428F4F80E491F561FC71FE4
:101F5000D11D880F991F661F771F0694A1F7059062
:101F6000079420F4490F561FC71FD81F990F661FEB
:101F7000771F881F0694A9F784911095177041F078
:101F8000D695C79557954795F794E7941A95C1F755
:101F9000ECEAF0E068941590159135916591959172
:101FA00005907FE27395E118F10A430B560BC90BBC
:101FB000D009C0F7E10CF11E431F561FC91FD01DE9
:101FC0007EF4703311F48A95E6CFE894015030F036
:101FD000080F0AF40027021708F4202F2395022F78
:101FE0007A3328F079E37D932A95E9F710C07D9341
:101FF0002A9589F6069497956795379517951794BE
:10200000E118F10A430B560BC90BD00998F0239540
:102010007E9173957A3308F070E37C932013B8F7C0
:102020007E9170617D9330F0839571E37D9370E3D1
:102030002A95E1F71124EF90FF900F911F91CF9116
:10204000DF91992787FD90950895FC0105906150D7
:1020500070400110D8F7809590958E0F9F1F0895BE
:10206000FC016150704001900110D8F78095909567
:102070008E0F9F1F08950F931F93CF93DF938C01B3
:10208000EB018B8181FF1BC082FF0DC02E813F8140
:102090008C819D812817390764F4E881F9810193C7
:1020A000F983E88306C0E885F985802F0995892B97
:1020B00031F48E819F8101969F838E8302C00FEF42
:1020C0001FEFC801DF91CF911F910F910895A0E0FC
:1020D000B0E0EDE6F0E10C940511FE01359661915A
:1020E00071918091BB029091BC02AF010E94C40B20
:1020F0002096E2E00C942111FA01AA27283051F130
:10210000203181F1E8946F936E7F6E5F7F4F8F4F28
:102110009F4FAF4FB1E03ED0B4E03CD0670F781F87
:10212000891F9A1FA11D680F791F8A1F911DA11D6C
:102130006A0F711D811D911DA11D20D009F46894A5
:102140003F912AE0269F11243019305D3193DEF64D
:10215000CF010895462F4770405D4193B3E00FD003
:10216000C9F7F6CF462F4F70405D4A3318F0495DEE
:1021700031FD4052419302D0A9F7EACFB4E0A695D1
:102180009795879577956795BA95C9F700976105F3
:10219000710508959B01AC010A2E06945795479549
:1021A00037952795BA95C9F7620F731F841F951F3E
:1021B000A01D089597FB092E05260ED057FD04D0CB
:1021C0004BD00AD0001C38F450954095309521959D
:1021D0003F4F4F4F5F4F0895F6F79095809570955C
:1021E00061957F4F8F4F9F4F08952F923F924F924F
:1021F0005F926F927F928F929F92AF92BF92CF9297
:10220000DF92EF92FF920F931F93CF93DF93CDB79F
:10221000DEB7CA1BDB0B0FB6F894DEBF0FBECDBF17
:1022200009942A88398848885F846E847D848C84E8
:102230009B84AA84B984C884DF80EE80FD800C81F1
:102240001B81AA81B981CE0FD11D0FB6F894DEBFD4
:102250000FBECDBFED010895A1E21A2EAA1BBB1B34
:10226000FD010DC0AA1FBB1FEE1FFF1FA217B30762
:10227000E407F50720F0A21BB30BE40BF50B661F78
:10228000771F881F991F1A9469F76095709580953C
:1022900090959B01AC01BD01CF010895F894FFCF4B
:0C22A00044415441202D3E2025690A00D5
:00000001FF
