:100000000C94EF000C940E010C940E010C940E0154
:100010000C940E010C940E010C940E010C940E0124
:100020000C940E010C940A090C940E010C940E0110
:100030000C940E010C940E010C940E010C942E02E3
:100040000C940E010C940E010C940E010C940E01F4
:100050000C940E010C940E010C940E010C940E01E4
:100060000C940E010C940E010C940E010C940E01D4
:100070000C940E010C940E010C94D10A0C9494086B
:100080000C949E080C9488060C940E0150015201A9
:100090005401560158015C01620164016601680166
:1000A0006A016C016E0170017201740176017801C0
:1000B0007A017E01CA01CC01CE01D001D201D60164
:1000C000DC01DE01E001E201E401E601E801EA0110
:1000D000EC01EE01F001F201F401F8016E616E0035
:1000E000696E660000407A10F35A00A0724E18093B
:1000F0000010A5D4E80000E87648170000E40B548F
:10010000020000CA9A3B000000E1F505000080965D
:100110009800000040420F000000A086010000008F
:10012000102700000000E803000000006400000049
:1001300000000A00000000000100000000002C7612
:10014000D888DC674F0823DFC1DFAE59E1B1B7962D
:10015000E5E3E453C63AE651997696E8E6C284268A
:10016000EB898C9B62ED407C6FFCEFBC9C9F40F266
:10017000BAA56FA5F490055A2AF75C936B6CF967E2
:100180006DC11BFCE0E40D47FEF520E6B500D0EDA7
:10019000902E0300943577050080841E080000200F
:1001A0004E0A000000C80C333333330F986E1283AD
:1001B0001141EF8D2114893BE65516CFFEE6DB1881
:1001C000D1844B381BF77C1D901DA4BBE424203246
:1001D00084725E228100C9F124ECA1E53D2711243F
:1001E0001FBECFEFD0E1DEBFCDBF11E0A0E0B1E098
:1001F000E0E4F8E200E00BBF02C007900D92AC30E3
:10020000B107D9F714E0ACE0B1E001C01D92A3340E
:10021000B107E1F70E9466040C941E140C940000D0
:100220008F929F92AF92BF92CF92DF92EF92FF9206
:100230000F931F93862EE62FF0E0319701E010E038
:100240000E2E02C0000F111F0A94E2F7222717FD9D
:100250002095322FC090B301D090B401E090B50149
:10026000F090B6010C291D292E293F290093B301D6
:100270001093B4012093B5013093B601ED59FE4FB0
:100280008083448B9924F4013197E431F105B8F56A
:10029000EA5BFF4FEE0FFF1F0590F491E02D0994EC
:1002A000C49A2DC0C59A2BC0C69A29C0C79A27C028
:1002B00080916500886003C08091650080618093B3
:1002C00065001DC0949A1BC0959A19C0969A17C0D4
:1002D000979A15C0A89A13C0A99A11C0AA9A0FC0DC
:1002E000AB9A0DC0AC9A0BC0AD9A09C0AE9A07C0CC
:1002F000AF9A05C0809165008460E1CFDF9A1F91BD
:100300000F91FF90EF90DF90CF90BF90AF909F90B4
:100310008F900895AF92BF92CF92DF92EF92FF92AB
:100320000F931F93A62EE62FF0E0319721E030E0E7
:100330000E2E02C0220F331F0A94E2F7209530954B
:10034000442737FD4095542FE090B301F090B4015D
:100350000091B5011091B6012E213F214023512378
:100360002093B3013093B4014093B5015093B6018B
:10037000ED59FE4F8083148ABB24F5013197E43197
:10038000F105B8F5E65AFF4FEE0FFF1F0590F49107
:10039000E02D0994C4982DC0C5982BC0C69829C0DB
:1003A000C79827C080916500877F03C08091650052
:1003B0008F7E809365001DC094981BC0959819C0CE
:1003C000969817C0979815C0A89813C0A99811C0FF
:1003D000AA980FC0AB980DC0AC980BC0AD9809C0DF
:1003E000AE9807C0AF9805C0809165008B7FE1CFC4
:1003F000DF981F910F91FF90EF90DF90CF90BF900B
:10040000AF90089581B18695869580958F700895F7
:1004100080936200089589B399B349B339B329B37E
:1004200059B369B382958695869581709695969510
:1004300096959270892B4470842B26952071822B7F
:10044000330F330F330F3870832B550F550F507206
:10045000852B6295660F6074862B08951F920F920C
:100460000FB60F920BB60F9211242F933F934F9319
:100470005F936F937F938F939F93AF93BF93EF930C
:10048000FF9380910E0190910F01019690930F01BF
:1004900080930E018091100190911101019690932B
:1004A00011018093100180910C0190910D01019632
:1004B00090930D0180930C0181E0809312010E94C2
:1004C0004F0EFF91EF91BF91AF919F918F917F91CF
:1004D0006F915F914F913F912F910F900BBE0F90B5
:1004E0000FBE0F901F901895DF93CF9300D0CDB71C
:1004F000DEB780E962E0AE014F5F5F4F0E941206F7
:10050000998180E02A8130E0282B392B83E03595D2
:1005100027958A95E1F7C9010F900F90CF91DF9150
:100520000895AF92BF92DF92EF92FF920F931F93C5
:10053000DF93CF93CDB7DEB768970FB6F894DEBFE1
:100540000FBECDBFB3E0AB2EB12CAC0EBD1EC501AE
:100550000E94900D9885DB808F818A3F21F48D2D3C
:100560000E94B708A1C18B3F29F48D2D69850E9497
:10057000C3099AC1823019F58985813009F094C187
:100580008A85882381F0E82FF0E0ED59FE4FEC5A80
:10059000FF4F8081E455F040D81609F485C1EB5A2D
:1005A000FF4FD08281C1E8EBF1E080818D1509F425
:1005B0001082319681E0EF3BF807B9F775C18631BB
:1005C000B9F4A9E0EA2EF12CEC0EFD1E092F10E083
:1005D0000A5F1F4F0A0D1B1D07C08D2DF70161918A
:1005E0007F0146E10E941001E016F106B1F75CC1FF
:1005F0008731B1F4F9E0EF2EF12CEC0EFD1E092F3E
:1006000010E00A5F1F4F0A0D1B1D06C08D2DF7015C
:1006100061917F010E948A01E016F106B9F744C199
:100620008831B9F4E9E0EE2EF12CEC0EFD1E092F15
:1006300010E00A5F1F4F0A0D1B1D07C08D2DF7012B
:1006400061917F0148E10E941001E016F106B1F7C7
:100650002BC18A31B9F479E0E72EF12CEC0EFD1EA6
:10066000092F10E00A5F1F4F0A0D1B1D07C08D2DBB
:10067000F70161917F014AE10E941001E016F10645
:10068000B1F712C18E31B9F469E0E62EF12CEC0E0F
:10069000FD1E092F10E00A5F1F4F0A0D1B1D07C02A
:1006A0008D2DF70161917F014EE10E941001E0164E
:1006B000F106B1F7F9C08F3109F4F6C0813299F42F
:1006C00000E010E0602F6F5FF801ED59FE4F808170
:1006D0008D1519F48D2D0E948A010F5F1F4F043173
:1006E000110581F7E1C0823299F407E711E091E04A
:1006F000F8018081863131F48D2D692F988F0E9409
:100700008A01988D9F5F0F5F1F4F953189F7CCC08D
:10071000843299F407E711E091E0F80180818A3191
:1007200031F48D2D692F988F0E948A01988D9F5FDB
:100730000F5F1F4F953189F7B7C08B31A9F459E08E
:10074000E52EF12CEC0EFD1E8E01090F111D075F29
:100750001F4F06C08D2DF70161917F010E948A0114
:10076000E016F106B9F7A0C08D3199F407E711E062
:1007700091E0F80180818E3131F48D2D692F988FB1
:100780000E948A01988D9F5F0F5F1F4F953189F7F7
:100790008BC08C31A9F449E0E42EF12CEC0EFD1E47
:1007A0008E01090F111D075F1F4F06C08D2DF70128
:1007B00061917F010E948A01E016F106B9F774C0C9
:1007C000833299F407E711E091E0F80180818831E4
:1007D00031F48D2D692F988F0E948A01988D9F5F2B
:1007E0000F5F1F4F953189F75FC0803289F40E94F7
:1007F000740299838A830E9434086D2D40E020E2C0
:1008000002E07E010894E11CF11C0E944E0A4CC0DB
:10081000853239F4EA85F0E0E854FE4F898580831B
:1008200043C08632B1F439E0E32EF12CEC0EFD1E0C
:100830008E01090F111D075F1F4F07C08D2DF70196
:1008400061917F0146E20E941001E016F106B1F7C6
:100850002BC08732A9F429E0E22EF12CEC0EFD1E0C
:100860008E01090F111D075F1F4F06C08D2DF70167
:1008700061917F010E948A01E016F106B9F714C068
:10088000883291F407E711E091E0F8018081863227
:1008900031F48D2D692F988F0E948A01988D9F5F6A
:1008A0000F5F1F4F953189F70E94A70D68960FB60D
:1008B000F894DEBF0FBECDBFCF91DF911F910F9196
:1008C000FF90EF90DF90BF90AF900895CF92DF92AE
:1008D000EF92FF920F93DF93CF930F92CDB7DEB7D6
:1008E000F8948AEF0E94FB070E94E7078AEF0E94B4
:1008F000FB071092B3011092B4011092B50110924F
:10090000B60181B18695869580958F700E942608E4
:1009100000E004C08AE50E94FB070F5F0E943408D4
:100920000817C0F30E949C0C81B18695869580952E
:100930008F70813011F469E102C080E060E00E94B4
:100940005A080E94DA070E94D0077894079B02C0D9
:1009500082E001C083E08093BF0101E080E0602F6E
:100960000E948A010F5F0531C9F70E9485088983BB
:100970006E010894C11CD11C0E94BD0D882311F486
:100980000E9491020E94430D882311F40E94750C6D
:100990000E9456088823A1F080910E0190910F01CA
:1009A000885E934068F00E94340860E040E021E0F7
:1009B00001E076010E944E0A10920F0110920E0182
:1009C0000E9429088823B9F08091100190911101AB
:1009D0008C5D954080F00E94340860E040E022E0A9
:1009E00001E09FEBE92E91E0F92E0E944E0A109251
:1009F00011011092100180911201882309F4BCCFDB
:100A00000E940B028093620010921201B5CF2091D8
:100A100071002E7F20937100209171002D7F209313
:100A200071009C0140E050E069E979E380E090E0EA
:100A30000E94AA13203130F0822F90E040979595C4
:100A40008795282F209370000895909A919A10927C
:100A50005A011092590110925C0110925B0184E6D8
:100A600090E00E940705E4E7F0E0808184608083E5
:100A700010921301808180648083089590E0611159
:100A800091E08E7F982B90937200089590935A0175
:100A900080935901089590935C0180935B010895C0
:100AA000E4E7F0E080818F70806A80830895E4E756
:100AB000F0E080818F70806D808308958091740054
:100AC00087FFFCCF089580937300E4E7F0E0808116
:100AD0008F70806880830895882329F08091740046
:100AE0008F70806C04C0809174008F7080688093D8
:100AF00074000895809173000895809171000895A5
:100B0000982F809113018823E1F782E080931301ED
:100B1000892F90E0880F991F80931401A5E1B1E01F
:100B2000FA0102C081918D938E2F841B8617D0F31A
:100B30001092350160933601809174008F70806A45
:100B4000809374000895982F809113018823E1F712
:100B500083E080931301990F916090931401109298
:100B6000570160935801809174008F70806A809360
:100B70007400809113018823E1F7A7E3B1E0FA0143
:100B800002C08D9181938E2F841B8617D0F3089518
:100B9000982FFA01809174008E7F80937400809169
:100BA00074008F70806A809374008091740087FF56
:100BB000FCCF892F90E0880F991F8093730080915C
:100BC00074008F708068809374008091740087FF38
:100BD000FCCF80917100883189F091E012C0808152
:100BE00080937300809174008F708068809374008C
:100BF0008091740087FFFCCF31966150662379F7AE
:100C000090E0809174008F70806D8093740080916B
:100C1000740084FFFCCF8091740081608093740025
:100C2000892F0895982FFA01809174008E7F809308
:100C30007400809174008F70806A8093740080913A
:100C4000740087FFFCCF80ED809373008091740067
:100C50008F708068809374008091740087FFFCCF50
:100C600010927300809174008F708068809374007C
:100C70008091740087FFFCCF809174008F70806A30
:100C8000809374008091740087FFFCCF990F91606E
:100C900090937300809174008F70806880937400CB
:100CA0008091740087FFFCCF80917100803481F0C7
:100CB00091E01EC0809174008F70806C80937400EE
:100CC0008091740087FFFCCF809173008193615005
:100CD000623080F7809174008F7080688093740018
:100CE0008091740087FFFCCF80917300808390E037
:100CF000809174008F70806D809374008091740077
:100D0000816080937400892F089580911301089564
:100D10001F920F920FB60F920BB60F9211242F93C2
:100D20003F934F935F936F937F938F939F93AF9373
:100D3000BF93CF93DF93EF93FF9380917100887FF0
:100D4000803609F4B7C0813670F5883209F45FC087
:100D5000893298F4803109F457C0813138F48823FE
:100D600009F401C1883009F006C14EC0883109F488
:100D70004EC0803209F0FFC0F6C0803409F48EC046
:100D8000813438F4803309F4EEC0883309F0F3C0BD
:100D90005DC0803509F45FC0883509F44AC08834E5
:100DA00009F0E9C0E0C0883909F4D1C08939B0F44C
:100DB000883709F47FC0893738F4883609F47AC057
:100DC000803709F0D8C076C0883809F4C0C08039AF
:100DD00009F476C0803809F0CEC072C0803B09F4B7
:100DE00090C0813B38F4803A09F479C0883A09F020
:100DF000C2C087C0803C09F4B1C0883C09F4AEC0D1
:100E0000883B09F0B8C08EC0809114010FC090914A
:100E1000350180913601981708F0A5C0E92FF0E060
:100E2000EB5EFE4F80819F5F90933501809373004E
:100E30008EC08091570190917300E82FF0E0E95C3B
:100E4000FE4F90838F5F809357018DC08091740017
:100E50008F7080688CC0A091570180917300EA2F39
:100E6000F0E0E95CFE4F8083AF5FA093570100D0B4
:100E700000D0EDB7FEB7319680E091E0CDB7DEB798
:100E80009A838983B0E0AA5CBE4F8C9182831382DF
:100E90000E9437130F900F900F900F9020915701E1
:100EA00030E08091580190E00197281739070CF045
:100EB0004EC048C085E0809313011092570142C094
:100EC0008091570190917300E82FF0E0E95CFE4FAC
:100ED00090838F5F809357018032C8F533C0809133
:100EE00074008F70806C80937400E0915901F091D0
:100EF0005A013097F1F18091570167E371E009954C
:100F000038C084E080931301E0915B01F0915C01B3
:100F1000309731F080E265E171E009958093360108
:100F20001092350190913501E92FF0E0EB5EFE4F14
:100F30008081809373009F5F90933501809136018B
:100F4000981728F4809174008F70806C04C0809191
:100F500074008F708068809374000DC0809174005D
:100F60008F70806C04C0809174008F70806D80934E
:100F7000740010921301FF91EF91DF91CF91BF9117
:100F8000AF919F918F917F916F915F914F913F9121
:100F90002F910F900BBE0F900FBE0F901F901895C2
:100FA00013BE87B7826087BF8FE083BF12BE8EE01B
:100FB00081BF089515BC14BC8BE085BD86B78068E1
:100FC00086BF8EE183BD87B7806887BF089590E8AC
:100FD0009ABB80EF87BB8FEF84BB88EF81BB12B8D1
:100FE0008FE7809361008CE180936400929A939ADA
:100FF00090936200089526E63EE0E22FF32F3197AA
:10100000F1F78A95D1F7089590E04AEF26E63EE0A1
:1010100019C0E22FF32F3197F1F74A95D1F7E22F5C
:10102000F32F3197F1F74A95D1F7E22FF32F31974C
:10103000F1F74A95D1F7E22FF32F3197F1F74A955F
:10104000D1F79F5F981708F4E4CF08958093C1010A
:1010500008958091C9019091CA0123E096958795E2
:101060002A95E1F7817008958091C10108958091DA
:10107000C9019091CA0180629093CA018093C9010D
:101080001092CE011092CC0108958091C9019091E7
:10109000CA018B7F82609093CA018093C90110922C
:1010A000CB0110925D011092CD0108958091C9018C
:1010B000817008958823F9F04091C9015091CA01C7
:1010C0009A0121603093CA012093C9016093C6013F
:1010D000862F90E0880F991F880F991F9093C80161
:1010E0008093C70121FD10C0416051605093CA0137
:1010F0004093C90108958091C9019091CA018E7FE2
:101100009093CA018093C90108958091C601089502
:101110008093C60190E0880F991F880F991F9093C4
:10112000C8018093C70108951F920F920FB60F92C6
:1011300011240F900FBE0F901F9018951F920F92C1
:101140000FB60F9211248F939F938091C9019091B4
:10115000CA0186FD05C080689093CA018093C901C9
:101160009F918F910F900FBE0F901F9018951F9316
:10117000DF93CF93CDB7DEB765970FB6F894DEBF98
:101180000FBECDBF182FCE0101960E94160D8A8189
:101190008117C1F48091C9019091CA019D7F9093FC
:1011A000CA018093C9010E942D0D8091C9019091BF
:1011B000CA0180629093CA018093C9011092CE0146
:1011C0001092CC0165960FB6F894DEBF0FBECDBF6E
:1011D000CF91DF911F9108958091CC018A3050F416
:1011E0008091C9019091CA0180629093CA01809355
:1011F000C90108950E942D0D8091C9019091CA01E5
:1012000080629093CA018093C9011092CE0110921E
:10121000CC0108951F920F920FB60F920BB60F924A
:1012200011242F933F934F935F936F937F938F93EB
:101230009F93AF93BF93EF93FF9380915E018530AF
:1012400090F08091C9019091CA018B7F8260909348
:10125000CA018093C9011092CB0110925D011092D6
:10126000CD0110925E012091C9013091CA0120FD8B
:101270000CC080C0277F3093CA012093C9010E940F
:101280003C0D1092600110925F018091CE018A3076
:1012900050F08091C9019091CA0191FF04C00E9451
:1012A000EC081092CE018091C601882399F14091FB
:1012B000C001242F30E08091C2019091C301281712
:1012C000390768F08091C4019091C501281739074A
:1012D00030F48091C9019091CA01806105C080916C
:1012E000C9019091CA018F7E9093CA018093C90170
:1012F0008091C7019091C8012817390740F01092DA
:10130000C0018091CE018F5F8093CE0103C04F5FFB
:101310004093C0012091610130916201C901877041
:101320009070892B49F480915F0190916001019642
:101330009093600180935F012F5F3F4F3093620174
:101340002093610180915E018F5F80935E01FF9128
:10135000EF91BF91AF919F918F917F916F915F912D
:101360004F913F912F910F900BBE0F900FBE0F909A
:101370001F90189580915F019091600180589C406A
:1013800008F483CF77CF1F93DF93CF93CDB7DEB72A
:1013900065970FB6F894DEBF0FBECDBF182F8091B2
:1013A000C9019091CA019D7F9093CA018093C901A0
:1013B000CE0101960E94160D8A81811711F40E94B8
:1013C000EC0865960FB6F894DEBF0FBECDBFCF9187
:1013D000DF911F9108958DB79EB745970FB6F8948A
:1013E0009EBF0FBE8DBFADB7BEB71196EFECF1E05B
:1013F00085E101900D928150E1F70E94570D8DB764
:101400009EB745960FB6F8949EBF0FBE8DBF089548
:10141000EF92FF920F93DF93CF93CDB7DEB765972F
:101420000FB6F894DEBF0FBECDBF782F522FDE016E
:101430001796F70102C081918D938E2F8E19801718
:10144000D0F30E835D834C836A8379838DB79EB717
:1014500045970FB6F8949EBF0FBE8DBFADB7BEB710
:101460001196FE01319685E101900D928150E1F7D0
:101470000E94570D8DB79EB745960FB6F8949EBF44
:101480000FBE8DBF65960FB6F894DEBF0FBECDBF01
:10149000CF91DF910F91FF90EF900895EF92FF921F
:1014A0000F931F93DF93CF93CDB7DEB765970FB63A
:1014B000F894DEBF0FBECDBF182F722F213021F060
:1014C0008091C90183FF30C0572F540F500FDE01A8
:1014D0001796F70103C08191580F8D938E2F8E19A7
:1014E0008017C8F35B830E837D834C836A831983E3
:1014F0008DB79EB745970FB6F8949EBF0FBE8DBFB0
:10150000ADB7BEB71196FE01319685E101900D92FF
:101510008150E1F70E94DD0C8DB79EB745960FB65E
:10152000F8949EBF0FBE8DBF65960FB6F894DEBFD0
:101530000FBECDBFCF91DF911F910F91FF90EF9024
:101540000895EF92FF920F93682F8091C10140E0C0
:101550002AEF00E0EE24FF240E944E0A0F91FF9034
:10156000EF900895EF92FF920F93DF93CF930F9236
:10157000CDB7DEB7982F6983882361F08091C101D0
:10158000692F40E02BEF01E07E010894E11CF11C83
:101590000E944E0A0F90CF91DF910F91FF90EF9034
:1015A00008951F920F920FB60F920BB60F9211244F
:1015B0002F933F934F935F936F937F938F939F935B
:1015C000AF93BF93EF93FF9310925E0150919C00F5
:1015D000E091CB01EF5FE093CB016091C901709185
:1015E000CA0162FFC0C05D3F09F075C04091D401DF
:1015F000242F30E08E2F90E007972817390709F045
:101600006AC02091D0018091C101281719F02223CE
:1016100009F04FC067FF4DC090915D018091D101ED
:10162000981709F03FC08091D3018230A1F4423075
:1016300040F041508091CF016091D50126ED31E01D
:1016400007C08091CF016091D50140E020E030E0FB
:101650000E941A0E2EC02DB73EB7255130400FB64E
:10166000F8943EBF0FBE2DBFADB7BEB71196EFECDD
:10167000F1E085E101900D928150E1F70E94570D54
:101680008091D2012DB73EB72B5E3F4F0FB6F89435
:101690003EBF0FBE2DBF80FF0CC08091CF010E94C6
:1016A000A10A07C0222329F08091CF0160E00E94A7
:1016B000B20A8091C9019091CA018B7F8260909398
:1016C000CA018093C9011092CB0110925D018DEF88
:1016D0008093CD015CC0E330A1F0E43028F4E13028
:1016E00051F0E230D1F40AC0E53089F0E53060F025
:1016F000E63099F40FC05093CF0147C05093D0010A
:1017000044C05093D10141C05093D20126C05093A0
:10171000D30123C05093D40120C0F0E0E253FE4F28
:1017200050838091D3018130C1F414BC5093C60121
:10173000852F90E0880F991F880F991F9093C801FB
:101740008093C7011092C0016A607093CA016093D0
:10175000C9011092600110925F0180915D01850FB7
:1017600080935D0112C05E3F81F4E23070F08091A1
:10177000CD018E3F51F41092CB0110925D016D7F2F
:1017800064607093CA016093C9015093CD01FF91C9
:10179000EF91BF91AF919F918F917F916F915F91E9
:1017A0004F913F912F910F900BBE0F900FBE0F9056
:1017B0001F9018959F92AF92BF92CF92DF92EF92B7
:1017C000FF920F93DF93CF93CDB7DEB765970FB638
:1017D000F894DEBF0FBECDBF8091C9019091CA01C0
:1017E00080648F779093CA018093C9015E01089449
:1017F000A11CB11CC5010E94160DFE800D819A80AE
:101800008EEF0E94D70D8EEF0E94D70D89810E9426
:10181000D70D892D0E94D70D8B810E94D70D8C8109
:101820000E94D70D802F0E94D70D8F2D0E94D70DBB
:10183000F7E0CF2ED12CCC0EDD1EEF2CFF2486E05E
:1018400090E0E80EF91EEA0CFB1C05C0F601819140
:101850006F010E94D70DCE14DF04C1F78DEF0E94F7
:10186000D70D992021F00A3F11F00B3FC9F4809168
:10187000C9019091CA019D7F9093CA018093C901CB
:101880000E942D0D8091C9019091CA0180629093B0
:10189000CA018093C9011092CE011092CC010BC0F5
:1018A0008091C9019091CA0192609093CA0180937E
:1018B000C9011092CE018091C9019091CA018F7B1C
:1018C0009093CA018093C90165960FB6F894DEBF64
:1018D0000FBECDBFCF91DF910F91FF90EF90DF90C2
:1018E000CF90BF90AF909F9008958091C901909143
:1018F000CA0184FF11C081FF0FC085FF1CC08F7D0E
:101900009093CA018093C9018091CC018F5F80932D
:10191000CC010E94DA0B089590FF0DC08F7D9E7F51
:101920009093CA018093C9018091CC018F5F80930D
:10193000CC010E94DA0B08950E94500D0E94D60C33
:101940008FE090E00E94CA0D8091C10190E0880F65
:10195000991F880F991F01969093C3018093C2012C
:10196000019703969093C5018093C4011092C6011C
:101970001092C0011092CE011092CC0182E290E050
:101980009093CA018093C9011092CB0110925D011E
:101990001092CD010E940D0E8091C9019091CA0153
:1019A00080689093CA018093C90108951092B6028D
:1019B0001092B7021092B8020895DF93CF93CDB77B
:1019C000DEB78091B8028F5F8093B8024091B70272
:1019D000242F30E085E190E0289FF001299FF00D51
:1019E000389FF00D1124EC51FE4FDE01159685E174
:1019F0000D9001928150E1F7842F8F5F8093B702A1
:101A00008A3010F01092B7029091B7028091B6021E
:101A1000981719F49F5F9093B6028091B6028A30AE
:101A200010F01092B602CF91DF910895AC01809131
:101A3000B60290E025E130E0829FF001839FF00D37
:101A4000929FF00D1124DA01EC51FE4F85E10190D7
:101A50000D928150E1F7CA0108959091B6029F5FFF
:101A60009093B6028091B80281508093B8029A3068
:101A700010F01092B60208951092B6021092B702BA
:101A80001092B802089520E09091B6028091B702BA
:101A9000981709F421E0822F08958091B8020895E3
:101AA00010928B0310928C0310928D030895DF9394
:101AB000CF93CDB7DEB780918D038F5F80938D0379
:101AC00040918C03242F30E085E190E0289FF001C5
:101AD000299FF00D389FF00D1124E754FD4FDE01D2
:101AE000159685E10D9001928150E1F7842F8F5F6B
:101AF00080938C038A3010F010928C0390918C03A9
:101B000080918B03981719F49F5F90938B038091BA
:101B10008B038A3010F010928B03CF91DF910895E0
:101B2000AC0180918B0390E025E130E0829FF001D1
:101B3000839FF00D929FF00D1124DA01E754FD4FC1
:101B400085E101900D928150E1F7CA0108959091CD
:101B50008B039F5F90938B0380918D0381508093C3
:101B60008D039A3010F010928B03089510928B031E
:101B700010928C0310928D03089520E090918B03B6
:101B800080918C03981709F421E0822F08958091A9
:101B90008D030895909398008093990010929B0074
:101BA00086E080939D0088ED80939A000895982F99
:101BB00080919B0085FFFCCF90939C0080E008956E
:101BC000FC0120E030E070E00AC0908180919B0031
:101BD00085FFFCCF319690939C002F5F3F4F2617D7
:101BE00037079CF380E0089580919B0087FFFCCF2E
:101BF00080919C00089580919B0087FFFCCF90917D
:101C00009C0080919B0085FFFCCF90939C00892FC6
:101C1000089580919B0080780895EEE8F3E01082AB
:101C20001182138212821482379684E0ED33F80712
:101C3000B1F708951F93142F722F482F50E0415091
:101C40005040DA0193E0AA0FBB1F9A95E1F7A41B5D
:101C5000B50BFD01E257FC4F80836183112371F0C6
:101C6000FD01ED56FC4F822F932F9C01D90102C03C
:101C70008D9181938A2F871B8117D0F3FA0183E01E
:101C8000EE0FFF1F8A95E1F7E41BF50BE257FC4FBF
:101C90001382128284818E7F84831F910895E0E9EC
:101CA000F3E080819181019691838083379684E06F
:101CB000EF33F807B1F70895E0E9F3E03FEF20E0F4
:101CC000808191818157974130F0828180FD03C0EE
:101CD00081608283322F2F5F3796293189F73F3F0A
:101CE00019F420E030E006C087E0389F900111240D
:101CF00022573C4FC9010895E0E9F3E020E08081DC
:101D000091818157974108F02F5F379684E0EF3338
:101D1000F807A9F7822F089597E0899F9001112471
:101D200022573C4FC9010895A1E1B0E0EAE9FEE085
:101D30000C94C5133C017F876E876A01FC011782F2
:101D40001682838181FD03C06FEF7FEF71C39E0117
:101D50002F5F3F4F398B288BF3012381EE85FF8561
:101D600023FD859123FF8191FF87EE87882309F466
:101D70005CC3853251F4EE85FF8523FD859123FFF9
:101D80008191FF87EE87853229F490E0B3010E94AC
:101D90000B13E2CF982F10E0882499241032B0F46E
:101DA0009B3269F09C3228F4903251F0933271F4F6
:101DB0000BC09D3239F0903349F4116028C0126095
:101DC000146025C0186023C0106121C017FD2AC00F
:101DD000892F80538A3078F416FF06C0FAE09F9E60
:101DE000902C1124980E13C03AE0839E802C11246D
:101DF000880E10620CC09E3221F416FD16C31064CA
:101E000006C09C3611F4106802C0983659F4EE856D
:101E1000FF8523FD959123FF9191FF87EE879923FD
:101E200009F0BCCF892F8554833020F4812F806145
:101E3000905E07C0892F8556833008F0A1C1812F9D
:101E40008F7E86FD02C076E0972E6FE3F62EF82295
:101E5000953619F4F0E4FF2A07C0963619F420E805
:101E6000F22A02C091109A94F7FE0BC03BE3391599
:101E700020F427E05CE3B52E0EC0B92CB39427E024
:101E80000AC047E0491528F427E0BB2447E0942E18
:101E900002C0292DBB24C60104969D878C87F601BC
:101EA0006081718182819381AE014F5F5F4F0B2D05
:101EB0000E941D126C010981202E332400FF04C0F2
:101EC00003FD02C01DE209C0F1FE02C01BE205C015
:101ED000F2FC02C010E001C010E2C1018C709070F1
:101EE000892BB9F1112311F483E001C084E0881536
:101EF00010F088240AC0881AF3FC07C080E290E042
:101F0000B3010E940B138A94C9F7112329F0812F82
:101F100090E0B3010E940B1323FE03C00CED10E010
:101F20000EC000EE10E00BC0E114F10409F0805285
:101F300090E0B3010E940B130F5F1F4F05C0EF2C01
:101F4000FF24F0E1EF22FF24F8018491882361F758
:101F500014C1F7FE12C0BC0C24FE04C08A81813378
:101F600009F4BA941B141CF0BB24B3942DC0F8E000
:101F7000FB1550F538E0B32E27C0F6FC25C0892D9F
:101F800090E08C159D054CF02CEFC2162FEFD20679
:101F900024F030E8F32A01C09A94992049F0E2E055
:101FA000F0E0EC0FFD1FE90DF11D80818033A1F3FE
:101FB000F7FE0AC0B92CB394892D90E0C816D90653
:101FC00014F0992401C09C18F7FC03C025E030E010
:101FD00009C01C141D041CF021E030E003C0960170
:101FE0002F5F3F4F112311F02F5F3F4F992029F0B2
:101FF000892D90E00196280F391F882D90E0281731
:10200000390714F0882401C0821A4F2C5524C201CC
:1020100089709070892B39F008C080E290E0B3019C
:102020000E940B138A948820C1F7112329F0812F75
:1020300090E0B3010E940B1343FE07C008C080E389
:1020400090E0B3010E940B138A948820C1F7F7FE39
:1020500046C08601D7FE02C000E010E07601089479
:10206000E11CF11CE01AF10A41E050E04C0F5D1F49
:10207000E40EF51E26014B185108892D90E0AA2484
:10208000BB24A81AB90A5FEF0F3F150729F48EE2A7
:1020900090E0B3010E940B13C016D10634F0401635
:1020A00051061CF4F701808101C080E3015010400B
:1020B0000894E11CF11C0A151B052CF090E0B301FB
:1020C0000E940B13E0CF0C151D0539F49A8196334D
:1020D00018F4953311F424FE81E390E04BC08A811B
:1020E000813309F00F7E90E0B3010E940B13992019
:1020F000A1F08EE290E0B3010E940B1312E0E1E048
:10210000F0E0EC0FFD1FE10FF11D1F5F808190E0FB
:10211000B3010E940B139A9491F744FC03C085E627
:1021200090E002C085E490E0B3010E940B13D7FC5D
:1021300005C0C114D10441F404FF06C0D094C19479
:10214000D108D3948DE201C08BE290E0B3010E94EC
:102150000B1380E305C08F5F26EF3FEFC20ED31E47
:102160003AE0C316D104BCF790E0B3010E940B1310
:10217000C601C096B3010E940B13CC84DD8452C10A
:10218000933631F0933799F0933509F059C023C055
:10219000F601808189835E010894A11CB11C22E0B4
:1021A00030E0C20ED31E21E0E22EF12C12C0F60167
:1021B000A080B18016FD03C06FEF7FEF02C0692DD4
:1021C00070E022E030E0C20ED31EC5010E94001371
:1021D0007C011F7713C0F601A080B18016FD03C0FB
:1021E0006FEF7FEF02C0692D70E022E030E0C20E99
:1021F000D31EC5010E94F5127C01106813FF07C0B1
:102200001BC080E290E0B3010E940B138A94882DDA
:1022100090E0E816F906A8F30FC0F50117FD8591C7
:1022200017FF81915F0190E0B3010E940B138110B1
:102230008A940894E108F108E114F10471F7F2C0FE
:10224000943611F0993689F517FF08C0F601208100
:1022500031814281538184E090E00AC0F60180819F
:1022600091819C01442737FD4095542F82E090E0F6
:10227000C80ED91E9FE6F92EF12257FF09C05095CE
:102280004095309521953F4F4F4F5F4F90E8F92A89
:10229000CA01B901AE014F5F5F4F2AE030E00E94F2
:1022A0004C13E82EE889EE1A41C0953721F41F7EC1
:1022B0002AE030E01CC0197F9F3661F0903720F48F
:1022C000983509F0B2C00FC0903739F0983709F04F
:1022D000ACC004C028E030E00AC0106114FD1460F6
:1022E00020E130E004C014FD166020E132E017FF69
:1022F00008C0F601608171818281938144E050E0E1
:1023000008C0F60180819181BC0180E090E042E04C
:1023100050E0C40ED51EAE014F5F5F4F0E944C13BC
:10232000E82E5889E51A8FE7F82EF122F6FE0BC049
:102330008EEFF822E91438F4F4FE07C0F2FC05C071
:102340009FEEF92202C01E2D01C0192DF4FE0DC012
:10235000FE01EE0DF11D8081803319F4E9EEFE22BD
:1023600008C01F5FF2FE05C003C08F2D867809F0FC
:102370001F5F0F2DF3FC14C0F0FE0FC0181510F0F6
:102380009E2C0BC09E2C980C911A182D06C080E232
:1023900090E0B3010E940B131F5F1815C0F304C037
:1023A000181510F4811A01C0882404FF0FC080E3BF
:1023B00090E0B3010E940B1302FF1DC001FD03C09A
:1023C00088E790E00EC088E590E00BC0802F86780B
:1023D00091F001FF02C08BE201C080E2F7FC8DE2C8
:1023E00090E0B3010E940B1306C080E390E0B301BC
:1023F0000E940B139A94E914C0F3EA94E1E0F0E030
:10240000EC0FFD1FEE0DF11D808190E0B3010E94E5
:102410000B13EE2091F706C080E290E0B3010E941A
:102420000B138A948820C1F797CCF30166817781DA
:10243000CB016196E2E10C94E113283008F027E02B
:102440003327DA01990F311D87FD916000966105F0
:10245000710539F432602E5F3D9330E32A95E1F740
:1024600008959F3F30F080387105610509F03C5FA9
:102470003C5F3D93913008F08068911DDF93CF93CE
:102480001F930F93FF92EF92192F987F9695E92F44
:1024900096959695E90FFF27E25CFE4F9927332723
:1024A000EE24FF24A701E70105900894079428F47F
:1024B000360FE71EF81E491F511D660F771F881F34
:1024C000991F0694A1F70590079428F4E70EF81ECB
:1024D000491F561FC11D770F881F991F661F06943D
:1024E000A1F70590079428F4F80E491F561FC71F3F
:1024F000D11D880F991F661F771F0694A1F70590BD
:10250000079420F4490F561FC71FD81F990F661F45
:10251000771F881F0694A9F784911095177041F0D2
:10252000D695C79557954795F794E7941A95C1F7AF
:10253000E4EEF0E0689415901591359165919591D0
:1025400005907FE27395E118F10A430B560BC90B16
:10255000D009C0F7E10CF11E431F561FC91FD01D43
:102560007EF4703311F48A95E6CFE894015030F090
:10257000080F0AF40027021708F4202F2395022FD2
:102580007A3328F079E37D932A95E9F710C07D939B
:102590002A9589F606949795679537951795179418
:1025A000E118F10A430B560BC90BD00998F023959B
:1025B0007E9173957A3308F070E37C932013B8F71B
:1025C0007E9170617D9330F0839571E37D9370E32C
:1025D0002A95E1F71124EF90FF900F911F91CF9171
:1025E000DF91992787FD90950895FC010590615032
:1025F00070400110D8F7809590958E0F9F1F089519
:10260000FC016150704001900110D8F780959095C1
:102610008E0F9F1F08950F931F93CF93DF938C010D
:10262000EB018B8181FF1BC082FF0DC02E813F819A
:102630008C819D812817390764F4E881F981019321
:10264000F983E88306C0E885F985802F0995892BF1
:1026500031F48E819F8101969F838E8302C00FEF9C
:102660001FEFC801DF91CF911F910F910895A0E056
:10267000B0E0EDE3F3E10C94D513FE0135966191E2
:10268000719180913F0490914004AF010E94940E9B
:102690002096E2E00C94F113FA01AA27283051F1B8
:1026A000203181F1E8946F936E7F6E5F7F4F8F4F83
:1026B0009F4FAF4FB1E03ED0B4E03CD0670F781FE2
:1026C000891F9A1FA11D680F791F8A1F911DA11DC7
:1026D0006A0F711D811D911DA11D20D009F4689400
:1026E0003F912AE0269F11243019305D3193DEF6A8
:1026F000CF010895462F4770405D4193B3E00FD05E
:10270000C9F7F6CF462F4F70405D4A3318F0495D48
:1027100031FD4052419302D0A9F7EACFB4E0A6952B
:102720009795879577956795BA95C9F7009761054D
:10273000710508959B01AC010A2E069457954795A3
:1027400037952795BA95C9F7620F731F841F951F98
:10275000A01D089597FB092E05260ED057FD04D025
:102760004BD00AD0001C38F45095409530952195F7
:102770003F4F4F4F5F4F0895F6F7909580957095B6
:1027800061957F4F8F4F9F4F08952F923F924F92A9
:102790005F926F927F928F929F92AF92BF92CF92F1
:1027A000DF92EF92FF920F931F93CF93DF93CDB7FA
:1027B000DEB7CA1BDB0B0FB6F894DEBF0FBECDBF72
:1027C00009942A88398848885F846E847D848C8443
:1027D0009B84AA84B984C884DF80EE80FD800C814C
:1027E0001B81AA81B981CE0FD11D0FB6F894DEBF2F
:1027F0000FBECDBFED010895A1E21A2EAA1BBB1B8F
:10280000FD010DC0AA1FBB1FEE1FFF1FA217B307BC
:10281000E407F50720F0A21BB30BE40BF50B661FD2
:10282000771F881F991F1A9469F760957095809596
:1028300090959B01AC01BD01CF010895F894FFCFA5
:0C28400044415441202D3E2025690A002F
:00000001FF
